:020000040800F2
:1000000000C00020E95500088D4D0008994D0008FA
:10001000A14D0008A94D0008B14D000800000000E6
:10002000000000000000000000000000B94D0008C2
:10003000C54D000800000000D14D0008DD4D00084E
:100040003156000831560008315600083156000874
:100050003156000831560008315600083156000864
:100060003156000831560008315600083156000854
:100070003156000831560008315600083156000844
:100080003156000831560008315600083156000834
:100090003156000831560008315600083156000824
:1000A0003156000831560008315600083156000814
:1000B0003156000831560008315600083156000804
:1000C00031560008315600083156000831560008F4
:1000D00031560008E94D0008FD4D00083156000872
:1000E00031560008315600083156000831560008D4
:1000F00031560008315600083156000831560008C4
:1001000031560008315600083156000831560008B3
:100110003156000831560008114E0008254E0008DF
:100120003156000831560008315600083156000893
:1001300000000000000000000000000000000000BF
:1001400000000000000000000000000000000000AF
:10015000000000000000000000000000000000009F
:10016000000000000000000000000000000000008F
:10017000000000000000000000000000000000007F
:10018000000000000000000000000000000000006F
:10019000000000000000000000000000000000005F
:1001A000000000000000000000000000000000004F
:1001B000000000000000000000000000000000003F
:1001C000000000000000000000000000000000002F
:1001D000000000000000000000000000000000001F
:0401E0005FF8E0F1F3
:1001E40010B5054C237833B9044B13B10448AFF36D
:1001F40000800123237010BD3C010020000000009A
:1002040090560008084B10B51BB108490848AFF3D5
:1002140000800848036803B910BD074B002BFBD0CE
:10022400BDE81040184700BF000000004001002056
:10023400905600083C0100200000000080F00040BF
:1002440002E000BF81F0004142001FBF5FEA4103AA
:1002540092EA030F7FEA226C7FEA236C6AD04FEAAA
:100264001262D2EB1363C1BFD218414048404140EF
:10027400B8BF5B42192B88BF704710F0004F40F4A1
:10028400000020F07F4018BF404211F0004F41F4BD
:10029400000121F07F4118BF494292EA030F3FD089
:1002A400A2F1010241FA03FC10EB0C00C3F120039C
:1002B40001FA03F100F0004302D5494260EB40002B
:1002C400B0F5000F13D3B0F1807F06D340084FEA96
:1002D400310102F10102FE2A51D2B1F1004F40EB8B
:1002E400C25008BF20F0010040EA030070474900F3
:1002F40040EB000010F4000FA2F10102EDD1B0FABE
:1003040080FCACF1080CB2EB0C0200FA0CF0AABFB2
:1003140000EBC25052421843BCBFD0401843704750
:1003240092F0000F81F4000106BF80F40000013256
:10033400013BB5E74FEA41037FEA226C18BF7FEA2D
:10034400236C21D092EA030F04D092F0000F08BF6F
:100354000846704790EA010F1CBF0020704712F056
:100364007F4F04D1400028BF40F00040704712F195
:1003740000723CBF00F50000704700F0004343F0FA
:10038400FE4040F4000070477FEA226216BF084630
:100394007FEA23630146420206BF5FEA412390EAF3
:1003A400010F40F4800070474FF0000304E000BFE9
:1003B40010F0004348BF40425FEA000C08BF70479A
:1003C40043F0964301464FF000001CE050EA01025E
:1003D40008BF70474FF000030AE000BF50EA010273
:1003E40008BF704711F0004302D5404261EB410160
:1003F4005FEA010C02BF84460146002043F0B64385
:1004040008BFA3F18053A3F50003BCFA8CF2083AA9
:10041400A3EBC25310DB01FA02FC634400FA02FCB2
:10042400C2F12002BCF1004F20FA02F243EB0200B9
:1004340008BF20F00100704702F1200201FA02FC1B
:10044400C2F1200250EA4C0021FA02F243EB02000E
:1004540008BF20EADC7070474FF0FF0C1CEAD05252
:100464001EBF1CEAD15392EA0C0F93EA0C0F6FD013
:100474001A4480EA010C400218BF5FEA41211ED0F1
:100484004FF0006343EA501043EA5111A0FB0131DD
:100494000CF00040B1F5000F3EBF490041EAD371B2
:1004A4005B0040EA010062F17F02FD2A1DD8B3F12E
:1004B400004F40EBC25008BF20F00100704790F09D
:1004C400000F0CF0004C08BF49024CEA502040EAEF
:1004D40051207F3AC2BFD2F1FF0340EAC2507047B5
:1004E40040F400004FF00003013A5DDC12F1190FF3
:1004F400DCBF00F000407047C2F10002410021FA65
:1005040002F1C2F1200200FA02FC5FEA310040F17C
:10051400000053EA4C0308BF20EADC70704792F0F5
:10052400000F00F0004C02BF400010F4000F013A2D
:10053400F9D040EA0C0093F0000F01F0004C02BF28
:10054400490011F4000F013BF9D041EA0C018FE797
:100554000CEAD15392EA0C0F18BF93EA0C0F0AD09D
:1005640030F0004C18BF31F0004CD8D180EA0100C3
:1005740000F00040704790F0000F17BF90F0004F5C
:10058400084691F0000F91F0004F14D092EA0C0F3E
:1005940001D142020FD193EA0C0F03D14B0218BFD1
:1005A400084608D180EA010000F0004040F0FE4017
:1005B40040F40000704740F0FE4040F440007047B3
:1005C4004FF0FF0C1CEAD0521EBF1CEAD15392EA32
:1005D4000C0F93EA0C0F69D0A2EB030280EA010C22
:1005E40049024FEA402037D04FF0805343EA1111BB
:1005F40043EA10130CF000408B4238BF5B0042F119
:100604007D024FF4000C8B4224BF5B1A40EA0C00BD
:10061400B3EB510F24BFA3EB510340EA5C00B3EBEF
:10062400910F24BFA3EB910340EA9C00B3EBD10FDD
:1006340024BFA3EBD10340EADC001B0118BF5FEA2F
:100644001C1CE0D1FD2A3FF650AF8B4240EBC25058
:1006540008BF20F0010070470CF0004C4CEA502019
:100664007F32C2BFD2F1FF0340EAC250704740F468
:1006740000004FF00003013A37E792F0000F00F05A
:10068400004C02BF400010F4000F013AF9D040EAD8
:100694000C0093F0000F01F0004C02BF490011F46C
:1006A400000F013BF9D041EA0C0195E70CEAD15364
:1006B40092EA0C0F08D142027FF47DAF93EA0C0F4B
:1006C4007FF470AF084676E793EA0C0F04D14B022F
:1006D4003FF44CAF08466EE730F0004C18BF31F0E1
:1006E400004CCAD130F000427FF45CAF31F00043DB
:1006F4007FF43CAF5FE700BF4FEA4002B2F1FE4F28
:100704000FD34FF09E03B3EB12620DD94FEA0023CF
:1007140043F0004310F0004F23FA02F018BF4042A8
:1007240070474FF00000704712F1610F01D142028F
:1007340005D110F0004008BF6FF0004070474FF043
:100744000000704780B500AF084A084B1B6843F0AF
:1007540010031360032000F043F9002000F008F8B0
:1007640004F0E0FA0023184680BD00BF00200240D8
:1007740080B582B000AF7860124B1A68124B1B78B8
:1007840019464FF47A73B3FBF1F3B2FBF3F3184653
:1007940000F05CF90346002B01D001230EE07B68D6
:1007A4000F2B0AD8002279684FF0FF3000F024F9AB
:1007B400064A7B681360002300E0012318460837CB
:1007C400BD4680BD38010020040000200000002048
:1007D40080B400AF054B1B781A46054B1B681344C5
:1007E400034A136000BFBD4680BC7047040000206C
:1007F4005801002080B400AF024B1B681846BD4668
:1008040080BC70475801002080B584B000AF786088
:10081400FFF7F0FFB8607B68FB60FB68B3F1FF3F54
:1008240005D0094B1B781A46FB681344FB6000BFD4
:10083400FFF7E0FF0246BB68D21AFB689A42F7D37F
:1008440000BF1037BD4680BD0400002080B485B0D1
:1008540000AF78607B6803F00703FB600C4BDB6838
:10086400BB60BA684FF6FF031340BB60FB681A0213
:10087400BB68134343F0BF6343F40033BB60044AD3
:10088400BB68D36000BF1437BD4680BC704700BF4F
:1008940000ED00E080B400AF044BDB6803F4E063D8
:1008A4001B0A1846BD4680BC704700BF00ED00E03F
:1008B40080B483B000AF0346FB7197F90730002B77
:1008C4000BDB084997F907305B09FA7902F01F023C
:1008D400012000FA02F241F8232000BF0C37BD4684
:1008E40080BC704700E100E080B483B000AF0346F1
:1008F4003960FB7197F90730002B0ADB0D4997F932
:1009040007303A68D2B21201D2B20B4483F8002302
:100914000AE00949FB7903F00F03043B3A68D2B2B9
:100924001201D2B20B441A7600BF0C37BD4680BC0C
:10093400704700BF00E100E000ED00E080B489B042
:1009440000AFF860B9607A60FB6803F00703FB61ED
:10095400FB69C3F10703042B28BF0423BB61FB69B4
:100964000433062B02D9FB69033B00E000237B61BF
:100974000122BB6902FA03F35A1EBB681A407B6961
:100984009A4001217B6901FA03F3591E7B680B40ED
:10099400134318462437BD4680BC704780B582B0E7
:1009A40000AF78607B68013BB3F1807F01D3012302
:1009B4000FE00A4A7B68013B53600F214FF0FF3080
:1009C400FFF792FF054B00229A60044B07221A603E
:1009D400002318460837BD4680BD00BF10E000E084
:1009E40080B582B000AF78607868FFF72FFF00BF52
:1009F4000837BD4680BD00BF80B586B000AF034652
:100A0400B9607A60FB7300237B61FFF743FF786171
:100A14007A68B9687869FFF791FF024697F90F3051
:100A240011461846FFF760FF00BF1837BD4680BD6A
:100A340080B582B000AF0346FB7197F907301846C2
:100A4400FFF736FF00BF0837BD4680BD80B582B0D2
:100A540000AF78607868FFF7A1FF034618460837AF
:100A6400BD4680BD80B584B000AF78600023FB73C1
:100A74007B6893F82130022B05D07B6804229A63AB
:100A84000123FB73ECE07B681B687A6812681268C8
:100A940022F00E021A607B681B687A68126812687A
:100AA40022F001021A607B681B681A466F4B9A4257
:100AB40063D96F4A7B681B6819466E4B994259D0BB
:100AC4007B681B6819466C4B994251D07B681B6844
:100AD40019466A4B994248D07B681B681946684B93
:100AE40099423FD07B681B681946664B994236D0C1
:100AF4007B681B681946644B99422DD07B681B6840
:100B040019465A4B994224D07B681B6819465F4B9F
:100B140099421CD07B681B6819465D4B994214D0DE
:100B24007B681B6819465B4B99420BD07B681B683A
:100B34001946594B994202D14FF480531BE04FF4AC
:100B4400803318E04FF4807315E0102313E0012381
:100B540011E04FF080730EE04FF480130BE04FF47C
:100B6400803308E04FF4805305E04FF4807302E0D3
:100B7400102300E00123536062E0484A7B681B684D
:100B840019463C4B994259D07B681B6819463A4B2D
:100B9400994251D07B681B681946384B994248D01A
:100BA4007B681B681946364B99423FD07B681B68AB
:100BB4001946344B994236D07B681B681946324B30
:100BC40099422DD07B681B681946284B994224D042
:100BD4007B681B6819462D4B99421CD07B681B68A7
:100BE40019462B4B994214D07B681B681946294B34
:100BF40099420BD07B681B681946274B994202D156
:100C04004FF480531BE04FF4803318E04FF48073AB
:100C140015E0102313E0012311E04FF080730EE080
:100C24004FF480130BE04FF4803308E04FF480530B
:100C340005E04FF4807302E0102300E001235360C9
:100C44007B68012283F821207B68002283F820201E
:100C54007B685B6B002B03D07B685B6B7868984781
:100C6400FB7B18461037BD4680BD00BF80000240A4
:100C740000040240080002401C0002403000024010
:100C840044000240580002406C0002400804024044
:100C94001C040240300402404404024000000240AC
:100CA40080B48BB000AF7860396000237B6200238E
:100CB4003B6233E101227B6A02FA03F3FB613B6886
:100CC4001A68FB691340BB61BA69FB699A4240F038
:100CD40022813B685B68122B34D0122B0DD8022B77
:100CE4002BD0022B04D8002B31D0012B1CD048E090
:100CF400032B43D0112B1BD043E08F4A934226D0C1
:100D04008D4A934206D88D4A934220D08C4A93420E
:100D14001DD036E08B4A934219D08B4A934216D0A9
:100D24008A4A934213D02CE03B68DB683B6228E09C
:100D34003B68DB6804333B6223E03B68DB680833D1
:100D44003B621EE03B68DB680C333B6219E03B68A6
:100D54009B68002B02D104233B6212E03B689B6832
:100D6400012B05D108233B627B68FA691A6108E00C
:100D740008233B627B68FA695A6102E000233B6204
:100D840000BFBB69FF2B01D87B6801E07B6804339B
:100D94007B61BB69FF2B02D87B6A9B0002E07B6A04
:100DA400083B9B003B617B691A680F213B6901FA90
:100DB40003F3DB431A40396A3B6901FA03F31A432C
:100DC4007B691A603B685B6803F08053002B00F07A
:100DD400A2805F4A5E4B9B6943F0010393615C4BC5
:100DE4009B6903F00103BB60BB685A4A7B6A9B089A
:100DF400023352F82330FB607B6A03F003039B0049
:100E04000F2202FA03F3DB43FA681340FB607B68AA
:100E1400514A93421FD07B68504A934219D07B6851
:100E24004F4A934213D07B684E4A93420DD07B685D
:100E34004D4A934207D07B684C4A934201D1052323
:100E44000AE0062308E0042306E0032304E0022367
:100E540002E0012300E000237A6A02F00302920018
:100E64009340FA681343FB603A497B6A9B08023358
:100E7400FA6841F823203B685B6803F48033002B55
:100E840006D03B493A4B1A68BB6913430B6006E032
:100E94003749374B1A68BB69DB4313400B603B6827
:100EA4005B6803F40033002B06D03149304B5A6899
:100EB400BB6913434B6006E02D492D4B5A68BB694F
:100EC400DB4313404B603B685B6803F48013002BE7
:100ED40006D02749264B9A68BB6913438B6006E00A
:100EE4002349234B9A68BB69DB4313408B603B68FF
:100EF4005B6803F40013002B06D01D491C4BDA6811
:100F0400BB691343CB6006E01949194BDA68BB6926
:100F1400DB431340CB607B6A01337B623B681A6816
:100F24007B6A22FA03F3002B7FF4C4AE00BF2C3794
:100F3400BD4680BC704700BF0000211000001110A6
:100F440000001210000031100000321000002210C6
:100F5400001002400000014000080140000C014064
:100F6400001001400014014000180140001C014021
:100F74000004014080B485B000AF78600B467B80EC
:100F84007B689A687B881340002B02D00123FB7393
:100F940001E00023FB73FB7B18461437BD4680BC7D
:100FA400704700BF80B483B000AF78600B467B808D
:100FB40013467B707B78002B03D07A887B681A6198
:100FC40003E07B881A047B681A6100BF0C37BD46B6
:100FD40080BC704780B483B000AF78600B467B80E0
:100FE4007B68DA687B881340002B03D07A887B689F
:100FF4005A6102E07A887B681A6100BF0C37BD46EB
:1010040080BC704790B585B000AF78607B68002BDA
:1010140001D101230FE17B6893F83D30DBB2002B53
:1010240006D17B68002283F83C20786803F09CF8A2
:101034007B68242283F83D207B681B687A681268E9
:10104400126822F001021A6000F0E4FFF8607B6885
:101054005B687B4A934207D8FB687A4A934294BF01
:1010640001230023DBB206E0FB68774A934294BF76
:1010740001230023DBB2002B01D00123DBE0FB685A
:10108400724AA2FB03239B0CBB607B681B687A68D3
:101094001268526822F03F01BA680A435A607B68BA
:1010A4001A687B681B681B6A23F03F017B685B68D6
:1010B4006348834202D8BB68013309E0BB684FF43C
:1010C400967000FB03F36248A0FB03039B09013302
:1010D4000B4313627B6818687B681B68DB6923F425
:1010E4004F4222F0FF027B685B6855498B420DD862
:1010F400FB68591E7B685B685B00B1FBF3F301334B
:10110400C3F30B03042B38BF04234FE07B689B68B5
:10111400002B11D1FB685C1E7B6859680B465B0091
:101124000B44B4FBF3F30133C3F30B03002B0CBFE9
:1011340001230023DBB212E0FB685C1E7B68596864
:101144000B469B000B4499000B44B4FBF3F30133AF
:10115400C3F30B03002B0CBF01230023DBB2002BD2
:1011640001D0012322E07B689B68002B0ED1FB6831
:101174005C1E7B6859680B465B000B44B4FBF3F3BD
:101184000133C3F30B0343F400430FE0FB685C1E1D
:101194007B6859680B469B000B4499000B44B4FBD5
:1011A400F3F30133C3F30B0343F440431343C36129
:1011B4007B681B687A681268126822F0C0017A683A
:1011C400D0697A68126A02430A431A607B681A6813
:1011D4007B681B689B6823F4034323F0FF0379684F
:1011E40008697968C96801430B4393607B681B688D
:1011F4007A681268D26822F0FF017A6850697A68C6
:10120400926902430A43DA607B681B687A68126851
:10121400126842F001021A607B6800221A647B683B
:10122400202283F83D207B6800221A637B68002219
:1012340083F83E20002318461437BD4690BD00BFF6
:10124400A08601007F841E00FF083D0083DE1B434F
:10125400D34D621080B588B002AFF86008461146DD
:101264001A4603467B810B463B811346FB80FFF7FE
:10127400C1FA7861FB6893F83D30DBB2202B40F073
:10128400D9807B690093192301226D49F86800F025
:1012940063F90346002B01D00223CCE0FB6893F8EA
:1012A4003C30012B01D10223C5E0FB68012283F805
:1012B4003C20FB681B681B6803F00103002B07D16B
:1012C400FB681B68FA681268126842F001021A602F
:1012D400FB681B68FA681268126822F400621A60DC
:1012E400FB68212283F83D20FB68402283F83E20DE
:1012F400FB6800221A64FB683A6A5A62FB68BA8C7B
:101304005A85FB685B8D9AB2FB681A85FB684D4A67
:10131400DA62F8883A8979897B690193BB6A009318
:101324000346F86800F090F80346002B52D00123DE
:1013340081E07A69B96AF86800F0E4F90346002BA1
:101344000DD0FB681B6C042B07D1FB681B68FA6883
:101354001268126842F400721A6001236BE0FB68A1
:101364001B68FA68526A12781A61FB685B6A5A1C35
:10137400FB685A62FB681B8D013B9AB2FB681A85B5
:10138400FB685B8D9BB2013B9AB2FB685A85FB6894
:101394001B685B6903F00403002B1BD0FB681B8DE7
:1013A400002B17D0FB681B68FA68526A12781A611E
:1013B400FB685B6A5A1CFB685A62FB681B8D013B25
:1013C4009AB2FB681A85FB685B8D9BB2013B9AB2AB
:1013D400FB685A85FB681B8D002BAAD17A69B96A10
:1013E400F86800F0D1F90346002B0DD0FB681B6CA4
:1013F400042B07D1FB681B68FA681268126842F470
:1014040000721A60012316E0FB681B68FA68126810
:10141400126842F400721A60FB68202283F83D20AF
:10142400FB68002283F83E20FB68002283F83C20FE
:10143400002300E0022318461837BD4680BD00BFD4
:10144400020010000000FFFF80B588B002AFF86012
:10145400084611461A4603467B810B463B811346D8
:10146400FB80FB681B68FA681268126842F4807299
:101474001A607B6A00933B6A00224FF00111F868FE
:1014840000F06AF80346002B01D001235EE0FB68FC
:101494001B687A89D2B202F0FE021A617B6A3A6A48
:1014A4002C49F86800F0B0F80346002B01D0012362
:1014B4004CE000237B61FB681B685B697B61FB6814
:1014C4001B689B697B617B697A6A396AF86800F0FA
:1014D40019F90346002B0DD0FB681B6C042B07D1B4
:1014E400FB681B68FA681268126842F400721A609A
:1014F40001232BE0FB88012B05D1FB681B683A898B
:10150400D2B21A6121E0FB681B683A89120A92B2CE
:10151400D2B21A617A6A396AF86800F0F3F80346BD
:10152400002B0DD0FB681B6C042B07D1FB681B68D8
:10153400FA681268126842F400721A60012305E026
:10154400FB681B683A89D2B21A610023184618371F
:10155400BD4680BD0200010080B584B000AFF860D4
:10156400B9603B601346FB7125E03B68B3F1FF3F74
:1015740021D0FFF73FF90246BB69D21A3B689A4271
:1015840002D83B68002B16D1FB6800221A63FB6863
:10159400202283F83D20FB68002283F83E20FB686C
:1015A4001B6C43F02002FB681A64FB68002283F87A
:1015B4003C20012323E0BB681B0CDBB2012B0DD1C3
:1015C400FB681B685B69DA43BB6813409BB2002B62
:1015D4000CBF01230023DBB21A460CE0FB681B6836
:1015E4009B69DA43BB6813409BB2002B0CBF0123F9
:1015F4000023DBB21A46FB799A42B6D00023184680
:101604001037BD4680BD00BF80B584B000AFF86020
:10161400B9607A603B6050E0FB681B685B6903F467
:101624008063002B23D0FB681B68FA681268126879
:1016340042F400721A60FB681B686FF480625A619E
:10164400FB6800221A63FB68202283F83D20FB68B4
:10165400002283F83E20FB681B6C43F00402FB6805
:101664001A64FB68002283F83C20012346E07B686F
:10167400B3F1FF3F21D0FFF7BDF802463B68D21A11
:101684007B689A4202D87B68002B16D1FB68002243
:101694001A63FB68202283F83D20FB68002283F84C
:1016A4003E20FB681B6C43F02002FB681A64FB6855
:1016B400002283F83C20012320E0BB681B0CDBB232
:1016C400012B0CD1FB681B685B69DA43BB681340D0
:1016D4009BB2002B14BF01230023DBB20BE0FB6899
:1016E4001B689B69DA43BB6813409BB2002B14BF91
:1016F40001230023DBB2002B8ED1002318461037C0
:10170400BD4680BD80B584B000AFF860B9607A6032
:101714002DE0F86800F07AF80346002B01D001238D
:101724002DE0BB68B3F1FF3F21D0FFF763F8024619
:101734007B68D21ABB689A4202D8BB68002B16D1C8
:10174400FB6800221A63FB68202283F83D20FB68B3
:10175400002283F83E20FB681B6C43F02002FB68E8
:101764001A64FB68002283F83C20012307E0FB682D
:101774001B685B6903F08003002BCAD00023184662
:101784001037BD4680BD00BF80B584B000AFF8609F
:10179400B9607A602DE0F86800F038F80346002B51
:1017A40001D001232DE0BB68B3F1FF3F21D0FFF747
:1017B40021F802467B68D21ABB689A4202D8BB68F9
:1017C400002B16D1FB6800221A63FB68202283F8E1
:1017D4003D20FB68002283F83E20FB681B6C43F02D
:1017E4002002FB681A64FB68002283F83C20012372
:1017F40007E0FB681B685B6903F00403002BCAD095
:10180400002318461037BD4680BD00BF80B483B0A6
:1018140000AF78607B681B685B6903F48063002B0E
:101824001BD07B681B686FF480625A617B6800225E
:101834001A637B68202283F83D207B68002283F8AA
:101844003E207B681B6C43F004027B681A647B684F
:10185400002283F83C20012300E0002318460C37C3
:10186400BD4680BC704700BF80B586B000AF7860CD
:101874007B68002B01D101236AE27B681B6803F0BB
:101884000103002B00F08680914B5B6803F00C038E
:10189400042B0BD08E4B5B6803F00C03082B11D187
:1018A4008B4B5B6803F48033002B0BD0884B1B6895
:1018B40003F40033002B6CD07B685B68002B68D189
:1018C400012345E27B685B68B3F5803F06D1804A1B
:1018D4007F4B1B6843F4803313602EE07B685B68A6
:1018E400002B0CD17A4A7A4B1B6823F480331360A3
:1018F400774A774B1B6823F4802313601DE07B68D1
:101904005B68B3F5A02F0CD1714A714B1B6843F48B
:10191400802313606E4A6E4B1B6843F4803313605C
:101924000BE06B4A6A4B1B6823F480331360684AEC
:10193400674B1B6823F4802313607B685B68002B70
:1019440013D0FEF757FF386108E0FEF753FF024655
:101954003B69D31A642B01D90323F9E15C4B1B685F
:1019640003F40033002BF0D014E0FEF743FF38619A
:1019740008E0FEF73FFF02463B69D31A642B01D906
:101984000323E5E1524B1B6803F40033002BF0D131
:1019940000E000BF7B681B6803F00203002B63D0E8
:1019A4004B4B5B6803F00C03002B0BD0484B5B687C
:1019B40003F00C03082B1CD1454B5B6803F4803304
:1019C400002B16D1424B1B6803F00203002B05D0F9
:1019D4007B681B69012B01D00123B9E13C493C4BD5
:1019E4001B6823F0F8027B685B69DB0013430B6020
:1019F4003AE07B681B69002B20D0364B01221A6029
:101A0400FEF7F8FE386108E0FEF7F4FE02463B6993
:101A1400D31A022B01D903239AE12D4B1B6803F03F
:101A24000203002BF0D02A49294B1B6823F0F8024B
:101A34007B685B69DB0013430B6015E0254B0022D8
:101A44001A60FEF7D7FE386108E0FEF7D3FE0246BF
:101A54003B69D31A022B01D9032379E11C4B1B6880
:101A640003F00203002BF0D17B681B6803F008032A
:101A7400002B39D07B689B69002B19D0164B0122AF
:101A84001A60FEF7B7FE386108E0FEF7B3FE0246BF
:101A94003B69D31A022B01D9032359E10C4B5B6A2E
:101AA40003F00203002BF0D0012000F0DBFA1BE06E
:101AB400094B00221A60FEF79DFE38610EE0FEF726
:101AC40099FE02463B69D31A022B07D903233FE14F
:101AD4000010024000004242800442429E4B5B6A76
:101AE40003F00203002BEAD17B681B6803F00403B4
:101AF400002B00F0A6800023FB75974BDB6903F0F5
:101B04008053002B0DD1944A934BDB6943F08053EF
:101B1400D361914BDB6903F08053BB60BB68012345
:101B2400FB758E4B1B6803F48073002B18D18B4A12
:101B34008A4B1B6843F480731360FEF75BFE3861C5
:101B440008E0FEF757FE02463B69D31A642B01D91D
:101B54000323FDE0814B1B6803F48073002BF0D05A
:101B64007B68DB68012B06D17B4A7B4B1B6A43F005
:101B7400010313622DE07B68DB68002B0CD1764AED
:101B8400754B1B6A23F001031362734A724B1B6A81
:101B940023F0040313621CE07B68DB68052B0CD183
:101BA4006D4A6D4B1B6A43F0040313626A4A6A4B25
:101BB4001B6A43F0010313620BE0674A664B1B6A1E
:101BC40023F001031362644A634B1B6A23F004038A
:101BD40013627B68DB68002B15D0FEF70BFE3861BF
:101BE4000AE0FEF707FE02463B69D31A41F2883247
:101BF400934201D90323ABE0574B1B6A03F0020362
:101C0400002BEED014E0FEF7F5FD38610AE0FEF794
:101C1400F1FD02463B69D31A41F28832934201D95D
:101C2400032395E04C4B1B6A03F00203002BEED117
:101C3400FB7D012B05D1484A474BDB6923F08053D8
:101C4400D3617B68DB69002B00F08180424B5B68C9
:101C540003F00C03082B61D07B68DB69022B46D1AF
:101C64003F4B00221A60FEF7C5FD386108E0FEF71D
:101C7400C1FD02463B69D31A022B01D9032367E055
:101C8400354B1B6803F00073002BF0D17B681B6A93
:101C9400B3F5803F08D130492F4B5B6823F4003201
:101CA4007B689B6813434B602B482B4B5B6823F486
:101CB40074127B68196A7B685B6A0B431343436045
:101CC400274B01221A60FEF795FD386108E0FEF704
:101CD40091FD02463B69D31A022B01D9032337E055
:101CE4001D4B1B6803F00073002BF0D02FE01C4B3E
:101CF40000221A60FEF77EFD386108E0FEF77AFDE7
:101D040002463B69D31A022B01D9032320E0124B6C
:101D14001B6803F00073002BF0D118E07B68DB69CB
:101D2400012B01D1012313E00B4B5B68FB60FB68C3
:101D340003F480327B681B6A9A4206D1FB6803F481
:101D440070127B685B6A9A4201D0012300E0002391
:101D540018461837BD4680BD001002400070004090
:101D64006000424280B584B000AF786039607B681F
:101D7400002B01D10123D0E06A4B1B6803F007025A
:101D84003B689A4210D26749664B1B6823F00702EE
:101D94003B6813430B60634B1B6803F007023B680B
:101DA4009A4201D00123B8E07B681B6803F0020368
:101DB400002B20D07B681B6803F00403002B05D0A4
:101DC400594A594B5B6843F4E06353607B681B6872
:101DD40003F00803002B05D0534A534B5B6843F4CC
:101DE400605353605049504B5B6823F0F0027B68AA
:101DF4009B6813434B607B681B6803F00103002B53
:101E040040D07B685B68012B07D1474B1B6803F408
:101E14000033002B15D101237FE07B685B68022B24
:101E240007D1414B1B6803F00073002B09D1012338
:101E340073E03D4B1B6803F00203002B01D1012327
:101E44006BE03949384B5B6823F003027B685B68BD
:101E540013434B60FEF7CEFCF8600AE0FEF7CAFCC1
:101E64000246FB68D31A41F28832934201D9032314
:101E740053E02D4B5B6803F00C027B685B689B00AE
:101E84009A42EBD1274B1B6803F007023B689A4246
:101E940010D92449234B1B6823F007023B681343E2
:101EA4000B60204B1B6803F007023B689A4201D089
:101EB400012332E07B681B6803F00403002B08D085
:101EC4001949194B5B6823F4E0627B68DB681343B0
:101ED4004B607B681B6803F00803002B09D0124990
:101EE400114B5B6823F460527B681B69DB0013436E
:101EF4004B6000F021F801460B4B5B6803F0F003E4
:101F04001B090A4AD35C21FA03F3094A1360094BFB
:101F14001B681846FEF72CFC002318461037BD46F4
:101F240080BD00BF0020024000100240BC560008E3
:101F3400380100200000002090B48AB000AF2B4B81
:101F44003C1D186859689A68DB680FC4284A3B46E8
:101F540012881A800023FB610023BB6100237B628B
:101F640000237B6100233B62224B5B68FB61FB69BE
:101F740003F00C03042B02D0082B03D02DE01E4BDE
:101F84003B622DE0FB699B0C03F00F0307F1280271
:101F9400134413F8243C7B61FB6903F48033002B66
:101FA40013D0144B5B6803F400335B0C07F1280275
:101FB400134413F8283CBB617B690F4A02FB03F20C
:101FC400BB69B2FBF3F37B6204E07B690B4A02FB5F
:101FD40003F37B627B6A3B6202E0074B3B6200BF18
:101FE4003B6A18462837BD4690BC7047A85600087F
:101FF400B85600080010024000127A0000093D00A3
:1020040080B400AF024B1B681846BD4680BC7047C5
:102014003801002080B500AFFFF7F2FF0146054B01
:102024005B6803F4E0631B0A034AD35C21FA03F3FD
:10203400184680BD00100240CC56000880B500AFA1
:10204400FFF7DEFF0146054B5B6803F46053DB0AD0
:10205400034AD35C21FA03F3184680BD0010024002
:10206400CC56000880B485B000AF78600A4B1B687A
:102074000A4AA2FB03235B0A7A6802FB03F3FB60B0
:1020840000BFFB685A1EFA60002BF9D100BF143759
:10209400BD4680BC704700BF38010020D34D62109C
:1020A40080B582B000AF78607B68002B01D101233A
:1020B4001DE07B6893F83D30DBB2002B06D17B68D2
:1020C400002283F83C20786803F010F97B68022230
:1020D40083F83D207B681A687B68043319461046F0
:1020E40000F054FB7B68012283F83D20002318464E
:1020F4000837BD4680BD00BF80B485B000AF7860AE
:102104007B681B687A681268D26842F00102DA6060
:102114007B681B689B6803F00703FB60FB68062B66
:1021240007D07B681B687A681268126842F0010263
:102134001A60002318461437BD4680BC704700BFA0
:1021440080B582B000AF78607B68002B01D1012399
:102154001DE07B6893F83D30DBB2002B06D17B6831
:10216400002283F83C20786803F002F97B6802229D
:1021740083F83D207B681A687B680433194610464F
:1021840000F004FB7B68012283F83D2000231846FD
:102194000837BD4680BD00BF80B584B000AF78600D
:1021A40039607B681B6801223968184600F014FD09
:1021B4007B681B68154A934204D07B681B68144AE9
:1021C400934201D1012300E00023002B07D07B6858
:1021D4001B687A681268526C42F400425A647B6845
:1021E4001B689B6803F00703FB60FB68062B07D0A2
:1021F4007B681B687A681268126842F001021A60F0
:10220400002318461037BD4680BD00BF002C014096
:102214000034014080B586B000AF786039607B68D7
:10222400002B01D101237FE07B6893F83D30DBB2C2
:10223400002B06D17B68002283F83C20786802F0EA
:10224400E9FF7B68022283F83D207B681A687B687B
:102254001B689B6823F4804323F0070393607B6827
:102264001A687B6804331946104600F08FFA7B68BD
:102274001B689B687B617B681B689B693B617B680F
:102284001B681B6AFB603B681B687A6913437B61AC
:102294003B6923F4407323F003033B613B689A6872
:1022A4003B689B691B0213433A6913433B613B69D7
:1022B40023F4406323F00C033B613B6923F4704334
:1022C40023F0F0033B613B68DA683B68DB691B027F
:1022D40013433A6913433B613B681B691A013B682A
:1022E4001B6A1B0313433A6913433B61FB6823F0E6
:1022F4002203FB603B685A683B685B691B0113431C
:10230400FA681343FB607B681B687A699A607B6890
:102314001B683A699A617B681B68FA681A627B6871
:10232400012283F83D20002318461837BD4680BD9E
:1023340080B582B000AF786039603B68002B02D072
:10234400042B08D00FE07B681B680122002118468B
:1023540000F042FC16E07B681B6801220421184649
:1023640000F03AFC0EE07B681B680122002118464D
:1023740000F032FC7B681B6801220421184600F03F
:102384002BFC00BF7B681B687A681268126842F0F5
:1023940001021A60002318460837BD4680BD00BFFD
:1023A40080B582B000AF78607B681B681B6903F05E
:1023B4000203002B22D07B681B68DB6803F0020356
:1023C400002B1BD07B681B686FF002021A617B68CC
:1023D40001221A777B681B689B6903F00303002BB7
:1023E40003D0786800F0B4F905E0786800F0A6F945
:1023F400786800F0B7F97B6800221A777B681B685D
:102404001B6903F00403002B22D07B681B68DB6884
:1024140003F00403002B1BD07B681B686FF00402DD
:102424001A617B6802221A777B681B689B6903F434
:102434004073002B03D0786800F08AF905E07868CF
:1024440000F07CF9786800F08DF97B6800221A7737
:102454007B681B681B6903F00803002B22D07B6890
:102464001B68DB6803F00803002B1BD07B681B6828
:102474006FF008021A617B6804221A777B681B6874
:10248400DB6903F00303002B03D0786800F060F9E4
:1024940005E0786800F052F9786800F063F97B6829
:1024A40000221A777B681B681B6903F01003002B5A
:1024B40022D07B681B68DB6803F01003002B1BD061
:1024C4007B681B686FF010021A617B6808221A7718
:1024D4007B681B68DB6903F44073002B03D07868C6
:1024E40000F036F905E0786800F028F9786800F023
:1024F40039F97B6800221A777B681B681B6903F033
:102504000103002B0ED07B681B68DB6803F001031A
:10251400002B07D07B681B686FF001021A61786892
:1025240002F0ECFA7B681B681B6903F08003002B44
:102534000ED07B681B68DB6803F08003002B07D098
:102544007B681B686FF080021A61786800F008FCF1
:102554007B681B681B6903F04003002B0ED07B686B
:102564001B68DB6803F04003002B07D07B681B6803
:102574006FF040021A61786800F0FEF87B681B680F
:102584001B6903F02003002B0ED07B681B68DB68FB
:1025940003F02003002B07D07B681B686FF0200238
:1025A4001A61786800F0D2FB00BF0837BD4680BDD1
:1025B40080B584B000AFF860B9607A60FB6893F8C6
:1025C4003C30012B01D10223B4E0FB68012283F8E3
:1025D4003C20FB68022283F83D207B680C2B00F230
:1025E4009F8001A252F823F0212600082527000825
:1025F400252700082527000861260008252700084C
:102604002527000825270008A326000825270008F9
:102614002527000825270008E3260008FB681B6817
:10262400B968184600F02CF9FB681B68FA68126850
:10263400926942F008029A61FB681B68FA681268A2
:10264400926922F004029A61FB681B68FA681268B6
:102654009169BA6812690A439A6162E0FB681B686F
:10266400B968184600F07CF9FB681B68FA681268C0
:10267400926942F400629A61FB681B68FA68126806
:10268400926922F480629A61FB681B68FA68126896
:102694009169BA68126912020A439A6141E0FB68BF
:1026A4001B68B968184600F0CFF9FB681B68FA6824
:1026B4001268D26942F00802DA61FB681B68FA68A2
:1026C4001268D26922F00402DA61FB681B68FA68B6
:1026D4001268D169BA6812690A43DA6121E0FB68B9
:1026E4001B68B968184600F023FAFB681B68FA688F
:1026F4001268D26942F40062DA61FB681B68FA6806
:102704001268D26922F48062DA61FB681B68FA6895
:102714001268D169BA68126912020A43DA6100E0E8
:1027240000BFFB68012283F83D20FB68002283F888
:102734003C20002318461037BD4680BD80B483B0CA
:1027440000AF786000BF0C37BD4680BC704700BF47
:1027540080B483B000AF786000BF0C37BD4680BC46
:10276400704700BF80B483B000AF786000BF0C37FF
:10277400BD4680BC704700BF80B483B000AF7860B2
:1027840000BF0C37BD4680BC704700BF80B485B025
:1027940000AF786039607B681B68FB607B68334AF4
:1027A400934213D07B68324A93420FD07B68B3F1D3
:1027B400804F0BD07B682F4A934207D07B682E4A08
:1027C400934203D07B682D4A934208D1FB6823F0DF
:1027D4007003FB603B685B68FA681343FB607B68CB
:1027E400224A934213D07B68214A93420FD07B68DC
:1027F400B3F1804F0BD07B681E4A934207D07B68AD
:102804001D4A934203D07B681C4A934208D1FB685B
:1028140023F44073FB603B68DB68FA681343FB6096
:10282400FB6823F080023B685B691343FB607B68B1
:10283400FA681A603B689A687B68DA623B681A68CF
:102844007B689A627B68094A934203D07B68084A92
:10285400934203D13B681A697B681A637B6801223F
:102864005A6100BF1437BD4680BC7047002C01403C
:10287400003401400004004000080040000C004007
:1028840080B487B000AF786039607B681B6A23F03E
:1028940001027B681A627B681B6A7B617B685B68E8
:1028A4003B617B689B69FB60FB6823F07003FB6002
:1028B400FB6823F00303FB603B681B68FA6813435F
:1028C400FB607B6923F002037B613B689B687A6948
:1028D40013437B617B68204A934203D07B681F4A81
:1028E40093420CD17B6923F008037B613B68DB686E
:1028F4007A6913437B617B6923F004037B617B6802
:10290400154A934203D07B68144A934211D13B6920
:1029140023F480733B613B6923F400733B613B68A0
:102924005B693A6913433B613B689B693A691343AA
:102934003B617B683A695A607B68FA689A613B68D4
:102944005A687B685A637B687A691A6200BF1C37CD
:10295400BD4680BC704700BF002C014000340140DC
:1029640080B487B000AF786039607B681B6A23F05D
:1029740010027B681A627B681B6A7B617B685B68F8
:102984003B617B689B69FB60FB6823F4E043FB606D
:10299400FB6823F44073FB603B681B681B02FA6806
:1029A4001343FB607B6923F020037B613B689B68D6
:1029B4001B017A6913437B617B68214A934203D0EC
:1029C4007B68204A93420DD17B6923F080037B61AD
:1029D4003B68DB681B017A6913437B617B6923F0E5
:1029E40040037B617B68164A934203D07B68154A97
:1029F400934213D13B6923F480633B613B6923F425
:102A040000633B613B685B699B003A6913433B612C
:102A14003B689B699B003A6913433B617B683A6955
:102A24005A607B68FA689A613B685A687B689A6363
:102A34007B687A691A6200BF1C37BD4680BC704748
:102A4400002C01400034014080B487B000AF7860AE
:102A540039607B681B6A23F480727B681A627B6826
:102A64001B6A7B617B685B683B617B68DB69FB603D
:102A7400FB6823F07003FB60FB6823F00303FB6037
:102A84003B681B68FA681343FB607B6923F400739B
:102A94007B613B689B681B027A6913437B617B689B
:102AA400214A934203D07B68204A93420DD17B692B
:102AB40023F400637B613B68DB681B027A69134380
:102AC4007B617B6923F480637B617B68164A934254
:102AD40003D07B68154A934213D13B6923F4805396
:102AE4003B613B6923F400533B613B685B691B0119
:102AF4003A6913433B613B689B691B013A69134381
:102B04003B617B683A695A607B68FA68DA613B68C2
:102B14005A687B68DA637B687A691A6200BF1C377B
:102B2400BD4680BC704700BF002C0140003401400A
:102B340080B487B000AF786039607B681B6A23F487
:102B440080527B681A627B681B6A3B617B685B68A6
:102B54007B617B68DB69FB60FB6823F4E043FB601B
:102B6400FB6823F44073FB603B681B681B02FA6834
:102B74001343FB603B6923F400533B613B689B6850
:102B84001B033A6913433B617B68114A934203D0A8
:102B94007B68104A934209D17B6923F480437B61AB
:102BA4003B685B699B017A6913437B617B687A6943
:102BB4005A607B68FA68DA613B685A687B681A6411
:102BC4007B683A691A6200BF1C37BD4680BC7047F7
:102BD400002C01400034014080B487B000AFF8609D
:102BE400B9607A60BB6803F01F03012202FA03F3A1
:102BF4007B61FB681A6A7B69DB431A40FB681A62D3
:102C0400FB681A6ABB6803F01F03796801FA03F3CF
:102C14001A43FB681A6200BF1C37BD4680BC70476C
:102C240080B485B000AF786039607B6893F83C303D
:102C3400012B01D1022332E07B68012283F83C207E
:102C44007B68022283F83D207B681B685B68FB601D
:102C54007B681B689B68BB60FB6823F07003FB60A8
:102C64003B681B68FA681343FB60BB6823F080036E
:102C7400BB603B685B68BA681343BB607B681B68D6
:102C8400FA685A607B681B68BA689A607B6801229C
:102C940083F83D207B68002283F83C2000231846FB
:102CA4001437BD4680BC704780B485B000AF7860EF
:102CB40039600023FB607B6893F83C30012B01D121
:102CC40002233DE07B68012283F83C20FB6823F06B
:102CD400FF023B68DB681343FB60FB6823F440722C
:102CE4003B689B681343FB60FB6823F480623B688A
:102CF4005B681343FB60FB6823F400623B681B685A
:102D04001343FB60FB6823F480523B681B69134345
:102D1400FB60FB6823F400523B685B691343FB6070
:102D2400FB6823F480423B68DB691343FB607B68E8
:102D34001B68FA685A647B68002283F83C200023ED
:102D440018461437BD4680BC704700BF80B483B0BA
:102D540000AF786000BF0C37BD4680BC704700BF31
:102D640080B483B000AF786000BF0C37BD4680BC30
:102D7400704700BF80B582B000AF78607B68002BDD
:102D840001D101233FE07B6893F83930DBB2002B9B
:102D940006D17B68002283F83820786802F08EFB25
:102DA4007B68242283F839207B681B687A68126860
:102DB400D26822F40052DA60786800F08FFB7B68F6
:102DC4001B687A681268126922F490421A617B685F
:102DD4001B687A681268526922F02A025A617B6879
:102DE4001B687A681268D26842F40052DA607B6821
:102DF4000022DA637B68202283F839207B68202252
:102E040083F83A20002318460837BD4680BD00BF2A
:102E140080B588B002AFF860B9603B601346FB80B0
:102E240000237B61FB6893F83930DBB2202B40F040
:102E34008280BB68002B02D0FB88002B01D10123C8
:102E44007AE0FB6893F83830012B01D1022373E058
:102E5400FB68012283F83820FB680022DA63FB68F0
:102E6400212283F83920FDF7C5FC7861FB68FA88D4
:102E74009A84FB68FA88DA8441E0FB68DB8C9BB2B5
:102E8400013B9AB2FB68DA84FB689B68B3F5805F08
:102E940021D13B6800937B6900228021F86800F00F
:102EA400B3F90346002B01D0032345E0BB683B6123
:102EB400FB681B683A691288C2F308025A60FB680F
:102EC4001B69002B03D1BB680233BB6017E0BB68EE
:102ED4000133BB6013E03B6800937B6900228021CF
:102EE400F86800F091F90346002B01D0032323E096
:102EF400FB681A68BB68591CB9601B785360FB688F
:102F0400DB8C9BB2002BB8D13B6800937B69002219
:102F14004021F86800F078F90346002B01D0032320
:102F24000AE0FB68202283F83920FB68002283F83A
:102F34003820002300E0022318461837BD4680BD20
:102F440080B485B000AFF860B9601346FB80FB68BD
:102F540093F83A30DBB2202B40D1BB68002B02D06F
:102F6400FB88002B01D1012339E0FB6893F838304A
:102F7400012B01D1022332E0FB68012283F83820BF
:102F8400FB68BA689A62FB68FA889A85FB68FA88D3
:102F9400DA85FB680022DA63FB68222283F83A2090
:102FA400FB68002283F83820FB681B68FA68126803
:102FB400D26842F48072DA60FB681B68FA681268AF
:102FC400526942F001025A61FB681B68FA68126890
:102FD400D26842F02002DA60002300E0022318469F
:102FE4001437BD4680BC704780B588B000AF7860A8
:102FF4007B681B681B68FB617B681B68DB68BB61C3
:103004007B681B685B697B6100233B610023FB6079
:10301400FB6903F00F033B613B69002B0DD1FB6996
:1030240003F02003002B08D0BB6903F02003002B1E
:1030340003D0786800F0D0F9CCE03B69002B00F0B5
:10304400AB807B6903F00103002B05D1BB6903F45A
:103054009073002B00F0A080FB6903F00103002BA8
:103064000AD0BB6903F48073002B05D07B68DB6B4B
:1030740043F001027B68DA63FB6903F00403002B6D
:103084000AD07B6903F00103002B05D07B68DB6B5E
:1030940043F002027B68DA63FB6903F00203002B4E
:1030A4000AD07B6903F00103002B05D07B68DB6B3E
:1030B40043F004027B68DA63FB6903F00803002B26
:1030C4000AD07B6903F00103002B05D07B68DB6B1E
:1030D40043F008027B68DA637B68DB6B002B78D0F3
:1030E400FB6903F02003002B07D0BB6903F0200326
:1030F400002B02D0786800F06FF97B681B685B696D
:1031040003F04003002B14BF01230023DBB2FB6058
:103114007B68DB6B03F00803002B02D1FB68002BF8
:1031240031D0786800F0BAF87B681B685B6903F0FB
:103134004003002B23D07B681B687A6812685269AD
:1031440022F040025A617B685B6B002B13D07B68D2
:103154005B6B224A5A637B685B6B1846FDF782FC03
:103164000346002B16D07B685B6B5B6B7A68526BF3
:10317400104698470EE0786800F03CF80AE078685A
:1031840000F038F806E0786800F034F87B68002234
:10319400DA631EE000BF1CE0FB6903F08003002B30
:1031A40008D0BB6903F08003002B03D0786800F0DB
:1031B400A7F80FE0FB6903F04003002B0AD0BB69BA
:1031C40003F04003002B05D0786800F0EDF800BF51
:1031D40000E000BF2037BD4680BD00BFDD320008DF
:1031E40080B483B000AF786000BF0C37BD4680BCAC
:1031F400704700BF80B483B000AF786000BF0C3765
:10320400BD4680BC704700BF80B584B000AFF86095
:10321400B9603B601346FB712CE0BB69B3F1FF3F1F
:1032240028D0BB69002B07D0FDF7E4FA02463B68BF
:10323400D21ABB699A421DD9FB681B68FA681268E6
:10324400D26822F4D072DA60FB681B68FA681268EC
:10325400526922F001025A61FB68202283F8392066
:10326400FB68202283F83A20FB68002283F8382088
:1032740003230FE0FB681B681A68BB681A40BB682D
:103284009A420CBF01230023DBB21A46FB799A420F
:10329400C3D0002318461037BD4680BD80B483B028
:1032A40000AF78607B681B687A681268D26822F481
:1032B4009072DA607B681B687A681268526922F03F
:1032C40001025A617B68202283F83A2000BF0C3740
:1032D400BD4680BC704700BF80B584B000AF786045
:1032E4007B685B6AFB60FB680022DA85FB6800226E
:1032F400DA84F868FFF77EFF00BF1037BD4680BD53
:1033040080B485B000AF78607B6893F83930DBB265
:10331400212B43D17B689B68B3F5805F19D17B680F
:103324001B6AFB607B681B68FA681288C2F3080298
:103334005A607B681B69002B05D17B681B6A9A1C49
:103344007B681A620EE07B681B6A5A1C7B681A62EF
:1033540008E07B681A687B681B6A581C79680862F5
:103364001B7853607B68DB8C9BB2013B9BB27A6811
:103374001946D184002B0FD17B681B687A681268C8
:10338400D26822F08002DA607B681B687A6812686F
:10339400D26842F04002DA60002300E002231846BB
:1033A4001437BD4680BC704780B582B000AF7860EA
:1033B4007B681B687A681268D26822F04002DA607F
:1033C4007B68202283F839207868FFF709FF0023FF
:1033D40018460837BD4680BD80B584B000AF78601C
:1033E4007B6893F83A30DBB2222B71D17B689B68FF
:1033F400B3F5805F23D17B689B6AFB607B681B69A4
:10340400002B0ED17B681B685B689BB2C3F3080377
:103414009AB2FB681A807B689B6A9A1C7B689A62E2
:1034240029E07B681B685B689BB2DBB29AB2FB68DD
:103434001A807B689B6A5A1C7B689A621BE07B68D3
:103444001B69002B0AD17B689B6A591C7A689162BC
:103454007A6812685268D2B21A700CE07B689B6A70
:10346400591C7A6891627A6812685268D2B202F082
:103474007F02D2B21A707B68DB8D9BB2013B9BB298
:103484007A681946D185002B20D17B681B687A683D
:103494001268D26822F02002DA607B681B687A68BE
:1034A4001268D26822F48072DA607B681B687A68DA
:1034B4001268526922F001025A617B68202283F863
:1034C4003A20786801F0F0FB002302E0002300E0DA
:1034D400022318461037BD4680BD00BF90B585B0A5
:1034E40000AF78607B681B687A681268126922F4FE
:1034F40040517A68D2680A431A617B689A687B688B
:103504001B691A437B685B691343FB607B681A6819
:103514007B681B68DB6823F4B05323F00C03F96861
:103524000B43D3607B681B687A681268526922F483
:1035340040717A6892690A435A617B681B68524AEF
:1035440093424ED1FEF77AFDB8607B681968BA6879
:1035540013469B0013449A001A447B685B689B00E3
:10356400B2FBF3F3494AA2FB03235B091801BA68CF
:1035740013469B0013449A001A447B685B689B00C3
:10358400B2FBF3F2414BA3FB02435B09642404FB4B
:1035940003F3D31A1B0132333C4AA2FB03235B0916
:1035A40003F0F0031844BA6813469B0013449A00CE
:1035B4001A447B685B689B00B2FBF3F2334BA3FBBA
:1035C40002435B09642404FB03F3D31A1B01323363
:1035D4002E4AA2FB03235B0903F00F0303448B6011
:1035E4004DE0FEF717FDB8607B681968BA681346AA
:1035F4009B0013449A001A447B685B689B00B2FBEF
:10360400F3F3224AA2FB03235B091801BA681346A9
:103614009B0013449A001A447B685B689B00B2FBCE
:10362400F3F21A4BA3FB02435B09642404FB03F388
:10363400D31A1B013233154AA2FB03235B0903F09F
:10364400F0031844BA6813469B0013449A001A44C2
:103654007B685B689B00B2FBF3F20C4BA3FB024359
:103664005B09642404FB03F3D31A1B013233074AB6
:10367400A2FB03235B0903F00F0303448B6000BF29
:103684001437BD4690BD00BF003801401F85EB5183
:1036940080B582B000AF0346FB71FB79013BFB713F
:1036A400FB7903F00103002B05D001220821164801
:1036B400FDF778FC04E0002208211348FDF772FCB2
:1036C400FB7903F00203002B05D0012210210E48E0
:1036D400FDF768FC04E0002210210B48FDF762FCB2
:1036E400FB7903F00403002B05D0012220210648B6
:1036F400FDF758FC04E0002220210348FDF752FCAA
:1037040000BF0837BD4680BD000C014080B584B0C1
:1037140000AF0346FB71FF23FB73FB79012B05D13B
:1037240001211748FDF726FC0346FB73FB79022BA6
:1037340005D102211248FDF71DFC0346FB73FB79FA
:10374400032B05D104210E48FDF714FC0346FB733B
:10375400FB79042B05D108210948FDF70BFC03462E
:10376400FB73FB79052B05D110210548FDF702FCFD
:103774000346FB73FB7B18461037BD4680BD00BF74
:103784000010014080B582B000AF0346FB71FB79A5
:10379400002B04D10320FFF7B9FF034610E0FB79A7
:1037A400012B04D10520FFF7B1FF034608E0FB79A4
:1037B400032B04D10120FFF7A9FF034600E0FF23F8
:1037C40018460837BD4680BD80B483B000AF0346B9
:1037D4000A46FB711346BB71BA79FB79D21A074BBF
:1037E4001340002B03DA013B63F003030133DBB224
:1037F40018460C37BD4680BC704700BF03000080EC
:1038040080B487B000AFF860B9601346FB71102331
:10381400FB75FB79002B0BD13B7A9B00FA681344B0
:103824001A687B7A013B13441A78FB7D1340FB75BD
:10383400FB79012B0BD13B7A01339B00FA681344CB
:103844001B687A7A13441A78FB7D1340FB75FB7965
:10385400022B0BD13B7A9B00FA6813441A687B7ADB
:10386400013313441A78FB7D1340FB75FB79032B5A
:103874000DD13B7A03F18043013B9B00FA6813446A
:103884001B687A7A13441A78FB7D1340FB75FB7D21
:103894001B09DBB218461C37BD4680BC704700BF0D
:1038A40080B485B000AFF860B96011461A460B4683
:1038B400FB711346BB71FB79002B14D13B7A9B003F
:1038C400FA6813441A687B7A013B13443A7A9200EB
:1038D400F9680A4411687A7A013A0A441178BA7983
:1038E4000A43D2B21A70FB79012B14D13B7A01330B
:1038F4009B00FA6813441B687A7A13443A7A0132BB
:103904009200F9680A441268797A0A441178BA79FB
:103914000A43D2B21A70FB79022B14D13B7A9B0072
:10392400FA6813441A687B7A013313443A7A920092
:10393400F9680A4411687A7A01320A441178BA792A
:103944000A43D2B21A70FB79032B18D13B7A03F1E4
:103954008043013B9B00FA6813441B687A7A1A443B
:103964003B7A03F18043013B9B00F9680B441B68DD
:10397400797A0B441978BB790B43DBB2137000BF1F
:103984001437BD4680BC704780B485B000AFF86082
:10399400B96011461A460B46FB711346BB71FB799D
:1039A400002B18D13B7A9B00FA6813441A687B7A7F
:1039B400013B13443A7A9200F9680A4411687A7A0E
:1039C400013A0A44127851B2BA79120152B20A4346
:1039D40052B2D2B21A70FB79012B18D13B7A01335F
:1039E4009B00FA6813441B687A7A13443A7A0132CA
:1039F4009200F9680A441268797A0A44127851B23A
:103A0400BA79120152B20A4352B2D2B21A70FB7995
:103A1400022B18D13B7A9B00FA6813441A687B7A0C
:103A2400013313443A7A9200F9680A4411687A7AA5
:103A340001320A44127851B2BA79120152B20A43DD
:103A440052B2D2B21A70FB79032B1CD13B7A03F128
:103A54008043013B9B00FA6813441B687A7A1A443A
:103A64003B7A03F18043013B9B00F9680B441B68DC
:103A7400797A0B441B7859B2BB791B015BB20B43B7
:103A84005BB2DBB2137000BF1437BD4680BC704715
:103A940080B483B000AF786039603B681B68591C00
:103AA4003A6811601A467B6813441B7818460C3731
:103AB400BD4680BC704700BF80B483B000AF78605F
:103AC40039600D4B1B685B6A1BB25A427B681A60F3
:103AD400094B1B6800225A62084B1B685B6A1BB2C5
:103AE4005A423B681A60054B1B6800225A6200BFA9
:103AF4000C37BD4680BC70475C4600209C460020C5
:103B040080B483B000AF786039607B685A687B68A2
:103B14001B681A447B685A603B685A687B681B6858
:103B24001A443B685A6000BF0C37BD4680BC7047DE
:103B3400B0B582B000AF78607B689A687B681B6818
:103B4400D31A294A1360294B1B681846FCF730FC2A
:103B54000446254B1A68264B1B68D31A1846FCF7F3
:103B640027FC0246234B1B6819461046FCF774FCDD
:103B740003461D461C4B1B681846FCF719FC0246FD
:103B84001D4B1B6819461046FCF766FC0346194694
:103B94002846FCF759FB034619462046FCF754FB1C
:103BA40003461846FCF7A8FD0246104B1A600F4B5B
:103BB4001B68B3F5E15F03DD0C4B4FF4E1521A606F
:103BC4000A4B1B6813F5E15F02DA084B0B4A1A60D3
:103BD400054B1B68064A1360044B1A687B68DA605D
:103BE40000BF0837BD46B0BD5C0100206001002065
:103BF40064010020080000200C000020E0E3FFFF27
:103C0400B0B582B000AF78607B689A687B681B6847
:103C1400D31A294A1360294B1B681846FCF7C8FBC2
:103C24000446254B1A68264B1B68D31A1846FCF722
:103C3400BFFB0246234B1B6819461046FCF70CFCDD
:103C440003461D461C4B1B681846FCF7B1FB024695
:103C54001D4B1B6819461046FCF7FEFB034619462C
:103C64002846FCF7F1FA034619462046FCF7ECFA1D
:103C740003461846FCF740FD0246104B1A600F4BF2
:103C84001B68B3F5E15F03DD0C4B4FF4E1521A609E
:103C94000A4B1B6813F5E15F02DA084B0B4A1A6002
:103CA400054B1B68064A1360044B1A687B68DA608C
:103CB40000BF0837BD46B0BD680100206C0100207C
:103CC400700100201000002014000020E0E3FFFF3A
:103CD40080B485B000AFF860B9607A60FB68DA68D8
:103CE4007B685B429A4203DA7B685A42FB68DA607B
:103CF400FB68DA687B689A4202DDFB687A68DA60FE
:103D0400BB68DA687B685B429A4203DA7B685A4292
:103D1400BB68DA60BB68DA687B689A4202DDBB681C
:103D24007A68DA6000BF1437BD4680BC704700BFB4
:103D340080B483B000AF786039607B68DB68002BA7
:103D440009DB1A4B1B6800225A63184B1B687A68FC
:103D5400D2689A630BE0154B1B684FF4E1525A6327
:103D6400124B1B687A68D26802F5E1529A633B6889
:103D7400DB68002B09DB0D4B1B680022DA630B4B5D
:103D84001B683A68D2681A640BE0084B1B684FF44E
:103D9400E152DA63054B1B683A68D26802F5E152D6
:103DA4001A6400BF0C37BD4680BC70475C470020D6
:103DB40080B586B004AF0023FB710023FB7111E0D2
:103DC400FB790C4A13444FF480720292012201924F
:103DD40000930123002278210748FDF73BFAFB7981
:103DE4000133FB71FB791A2BEAD900BF0837BD46B2
:103DF40080BD00BF180000207445002080B586B047
:103E040004AF0346FB714FF48073029301230193C3
:103E1400FB1D00930123002278210348FDF71AFAC1
:103E240000BF0837BD4680BD7445002080B586B00C
:103E340004AF0346FB714FF4807302930123019393
:103E4400FB1D00930123402278210348FDF702FA69
:103E540000BF0837BD4680BD7445002080B500AF63
:103E6400C820FCF7D1FCFFF7A3FF00BF80BD00BF53
:103E740080B582B000AF0023FB711BE0FB79503B9F
:103E8400DBB21846FFF7BAFF0020FFF7B7FF102098
:103E9400FFF7B4FF0023BB7105E00020FFF7C6FF66
:103EA400BB790133BB7197F90630002BF5DAFB7946
:103EB4000133FB71FB79072BE0D900BF0837BD46FE
:103EC40080BD00BF80B582B000AF03460A46FB71D7
:103ED4001346BB71BB79503BDBB21846FFF78EFF2C
:103EE400FB791B09DBB243F01003DBB21846FFF782
:103EF40085FFFB7903F00F03DBB21846FFF77EFF63
:103F040000BF0837BD4680BD90B583B000AF0346FF
:103F1400FB710B46BB7113467B71FA79BB7935494A
:103F2400D2010A4413441B787A799A425ED0FB7911
:103F34000233DAB2BB79DB08DBB219461046FFF76D
:103F4400C1FF7B79012B1DD1BB79DB08DAB21446A2
:103F5400FB791146FA792848C90101440A441278C8
:103F640051B2BA7902F00702012000FA02F252B209
:103F74000A4352B2D0B22049E2010A441344024631
:103F84001A701EE0BB79DB08DAB21446FB791146DD
:103F9400FA791948C90101440A44127851B2BA792C
:103FA40002F00702012000FA02F252B2D24352B2E6
:103FB4000A4052B2D0B21049E2010A441344024604
:103FC4001A70BB79DB08DBB21A46FB790A49D201C5
:103FD4000A4413441B781846FFF728FFFA79BB7983
:103FE4000449D2010A4413447A791A7000BF0C3789
:103FF400BD4690BD740500207401002080B588B0D2
:1040040000AF07F1100300221A605A609A60DA6068
:10401400394A394B9B6943F020039361364B9B69C2
:1040240003F02003FB60FB68334A334B9B6943F086
:1040340010039361304B9B6903F01003BB60BB68B2
:104044002D4A2D4B9B6943F0040393612A4B9B69D2
:1040540003F004037B607B68274A274B9B6943F08A
:1040640008039361244B9B6903F008033B603B689E
:10407400002204212148FCF795FF00223821204822
:10408400FCF790FF1F233B6100237B610023BB618E
:1040940007F1100319461B48FCF702FE4FF40063B6
:1040A4003B6100237B610023BB6107F110031946C8
:1040B4001548FCF7F5FD04233B6101237B610023D4
:1040C400BB610223FB6107F1100319460B48FCF79F
:1040D400E7FD38233B6101237B610023BB6102239D
:1040E400FB6107F1100319460548FCF7D9FD00BF31
:1040F4002037BD4680BD00BF0010024000140140BF
:10410400000C0140001001400008014080B500AFE0
:10411400124B134A1A60114B124A5A600F4B002279
:104124009A600E4B0022DA600C4B4FF480421A6105
:104134000A4B00225A61094B00229A61074B002264
:10414400DA61064B00221A620448FCF75BFF03465F
:10415400002B01D000F0E0FD00BF80BD74450020BD
:1041640000580040A086010080B588B000AF786098
:1041740007F1100300221A605A609A60DA607B68C3
:104184001B68164A934224D1154A154B9B6943F088
:1041940008039361124B9B6903F00803FB60FB68FF
:1041A4004FF440633B6112237B610323FB6107F1FE
:1041B400100319460B48FCF773FD094A084BDB69E9
:1041C40043F48003D361064BDB6903F48003BB60D3
:1041D400BB6800BF2037BD4680BD00BF005800400B
:1041E40000100240000C014080B485B000AF78603C
:1041F400084611461A460346FB700B46BB7013462D
:104204007B70244B00221A60224B0022DA60214B7F
:1042140000225A601F4B00229A601F4B00221A6032
:104224001D4B0022DA601C4B00225A601A4B0022FC
:104234009A607B68FA781A707B68BA785A707B68DF
:104244007A789A700023FB7313E00023BB730AE0AF
:10425400FA7BBB7B114912010A44134411221A70E0
:10426400BB7B0133BB73BB7B0F2BF1D9FB7B0133CE
:10427400FB73FB7B0F2BE8D9FA78BB780749120153
:104284000A44134400221A7000BF1437BD4680BC90
:10429400704700BFCC450020DC45002034000020DE
:1042A40080B584B000AF78600B46FB70BB79FA78B8
:1042B40011461846FFF788FA0346FB73FB7B184642
:1042C400FFF760FA0346BB73BB7BFA78796804484E
:1042D400FFF7E6FABB7B18461037BD4680BD00BF2A
:1042E4003400002080B582B000AF78600B46FB70CC
:1042F400FB781A4679680448FFF782FA03461846A1
:104304000837BD4680BD00BF3400002080B584B0AE
:1043140000AF7860FF23FB720023FB6018E0FB68AA
:10432400DBB219467868FFF7BBFF0346002B0CD1BC
:10433400FB68DBB219467868FFF7D4FF0346002B0D
:1043440003D0FB68FB72FB7A06E0FB680133FB6079
:10435400FB68032BE3DDFB7A18461037BD4680BDAE
:1043640080B582B000AF78600B46FB70FA7800230A
:1043740079680348FFF708FB00BF0837BD4680BDD6
:104384003400002080B483B000AF0346FB71064BB9
:104394001B685A1C04490A600449FA79CA5400BFCC
:1043A4000C37BD4680BC704750460020EC450020C9
:1043B40080B483B000AF78600B46FB70FB78002BB1
:1043C40005D17B685B78013BDAB27B685A70FB7875
:1043D400012B05D17B681B780133DAB27B681A7034
:1043E400FB78022B05D17B685B780133DAB27B68FA
:1043F4005A70FB78032B05D17B681B78013BDAB23A
:104404007B681A707B68FA789A7000BF0C37BD46D7
:1044140080BC704780B582B000AF0023FB7140E0E0
:104424000023BB7137E0FA79BB79214912010A44B0
:1044340013441B7803F00103002B03D01D4B01220E
:104444001A7002E01B4B00221A7000237B711CE0DF
:1044540000233B7113E0FB799B00DAB27B791344B0
:10446400D8B2BB799B00DAB23B791344D9B2114B71
:104474001B781A46FFF748FD3B7901333B713B79C2
:10448400032BE8D97B7901337B717B79032BDFD94B
:10449400BB790133BB71BB790F2BC4D9FB790133D1
:1044A400FB71FB790F2BBBD900BF0837BD4680BD1C
:1044B400340000205946002080B584B000AF7860F5
:1044C4000023FB731FE00023BB7316E03B799B00C2
:1044D400DAB2FB7B1344DBB20133D8B27B799B00A5
:1044E400DAB2BB7B1344DBB20133DBB201221946DF
:1044F400FFF70AFDBB7B0133BB73BB7B012BE5D903
:10450400FB7B0133FB73FB7B012BDCD9BB79002BD9
:104514000ED13B799B00DBB20133D8B27B799B008F
:10452400DBB2013BDBB201221946FFF7EDFC31E0BF
:10453400BB79012B0ED13B799B00DBB20333D8B29C
:104544007B799B00DBB20133DBB201221946FFF712
:10455400DBFC1FE0BB79022B0ED13B799B00DBB265
:104564000133D8B27B799B00DBB20333DBB2012287
:104574001946FFF7C9FC0DE03B799B00DBB2013B18
:10458400D8B27B799B00DBB20133DBB2012219463E
:10459400FFF7BAFC00BF1037BD4680BD80B500AF41
:1045A400A44B1B78002B23D000220421A248FCF743
:1045B400F9FCA24B1878A24B1B78013BDBB2012219
:1045C4001946FFF7A1FC9D4B18789D4B1B78023BC5
:1045D400DBB201221946FFF797FC984B1878984BE9
:1045E4001B78033BDBB201221946FFF78DFC22E066
:1045F400012204219048FCF7D5FC904B1878904B8D
:104604001B78013BDBB200221946FFF77DFC8B4B84
:1046140018788B4B1B78023BDBB200221946FFF75C
:1046240073FC864B1878864B1B78033BDBB2002265
:104634001946FFF769FC834B1B78002B24D07F4B72
:104644001B78013BD8B27E4B1B78013BDBB20122C5
:104654001946FFF759FC794B1B78023BD8B2784BCB
:104664001B78023BDBB201221946FFF74DFC734B6A
:104674001B78033BD8B2724B1B78033BDBB201229D
:104684001946FFF741FC23E06C4B1B78013BD8B281
:104694006B4B1B78013BDBB200221946FFF734FC5D
:1046A400664B1B78023BD8B2654B1B78023BDBB2EE
:1046B40000221946FFF728FC604B1B78033BD8B255
:1046C4005F4B1B78033BDBB200221946FFF71CFC4F
:1046D4005D4B1B78002B1ED0584B1B78013BD8B286
:1046E400574B1B7801221946FFF70EFC534B1B78DE
:1046F400023BD8B2524B1B7801221946FFF704FC47
:104704004E4B1B78033BD8B24D4B1B780122194604
:10471400FFF7FAFB1DE0494B1B78013BD8B2484B2D
:104724001B7800221946FFF7EFFB444B1B78023B32
:10473400D8B2434B1B7800221946FFF7E5FB3F4BE9
:104744001B78033BD8B23E4B1B7800221946FFF777
:10475400DBFB3E4B1B78002B24D0384B1B780133FA
:10476400D8B2374B1B78013BDBB201221946FFF765
:10477400CBFB324B1B780233D8B2314B1B78023B54
:10478400DBB201221946FFF7BFFB2C4B1B78033326
:10479400D8B22B4B1B78033BDBB201221946FFF73F
:1047A400B3FB23E0254B1B780133D8B2244B1B7891
:1047B400013BDBB200221946FFF7A6FB1F4B1B7817
:1047C4000233D8B21E4B1B78023BDBB200221946DF
:1047D400FFF79AFB194B1B780333D8B2184B1B789D
:1047E400033BDBB200221946FFF78EFB184B1B7804
:1047F400002B2FD0114B1B780133D8B2104B1B78F0
:1048040001221946FFF780FB0C4B1B780233D8B208
:104814000B4B1B7801221946FFF776FB074B1B78DD
:104824000333D8B2064B1B7801221946FFF76CFB01
:104834002EE000BF54460020001401403401002043
:1048440035010020554600205646002057460020DA
:10485400584600200F4B1B780133D8B20E4B1B78FF
:1048640000221946FFF750FB0A4B1B780233D8B2DB
:10487400094B1B7800221946FFF746FB054B1B78B2
:104884000333D8B2044B1B7800221946FFF73CFBD4
:1048940000BF80BD340100203501002080B582B006
:1048A40000AF012204212648FCF77CFB4623FB7160
:1048B4000523BB71B979FB7901221846FFF724FB64
:1048C400FB790133D8B2BB790133DBB2012219463B
:1048D400FFF71AFBFB79013BD8B2BB790133DBB29A
:1048E40001221946FFF710FBBB790133D9B2FB79DA
:1048F40001221846FFF708FB4FF400611148FCF74A
:1049040039FB0346002B09D100BF4FF400610D4869
:10491400FCF730FB0346002BF7D002E0FFF73EFE26
:10492400EAE7094B1B78002B06D1084B0A229A6050
:10493400074B6FF009029A60FFF730FEF1E700BF02
:10494400001401400008014055460020CC450020D9
:10495400DC45002080B582B000AF0023BB7100238A
:10496400FB71FBF7EFFE00F083F8FFF747FB00F065
:1049740095FA00F0E7FA00F039FB00F0A3FBFFF72B
:10498400C5FB00F047FD00F06FFD00F065FB04215E
:104994002E48FDF7CDFC04212D48FDF7C9FC00216C
:1049A4002C48FDF7F9FB04212A48FDF7F5FB082103
:1049B4002848FDF7F1FB0C212648FDF7EDFB2648BE
:1049C400FDF79AFB2548FDF797FB0122244925486A
:1049D400FEF7B6FAFFF742FAFFF74AFA3846012320
:1049E40001220121FFF700FCFFF714FD3868FFF7EF
:1049F40063FDFFF753FFBB79002B05D13868FFF740
:104A040085FC0346FB710AE0BB79012B06D11649EC
:104A14001648FFF73DF80346FB7100E0FEE7FB791B
:104A240019463868FFF79CFCFB791846FFF7AAFC87
:104A3400FA793B4611461846FFF7BAFCFFF7EAFC41
:104A44003868FFF739FDFFF7A9FDD4E75C4600207D
:104A54009C4600205C470020DC4600201C470020C8
:104A6400C84500209C47002050460020EC4500200B
:104A740080B590B000AF07F1180328220021184632
:104A840000F0FCFD3B1D00221A605A609A60DA6057
:104A94001A610123BB614FF48033FB6100233B6245
:104AA4000123BB6202237B634FF48033BB634FF467
:104AB400E013FB6307F118031846FCF7D5FE034621
:104AC400002B01D000F028F90F237B600223BB6088
:104AD4000023FB604FF480633B6100237B613B1D3B
:104AE40002211846FDF73EF90346002B01D000F0E1
:104AF40013F900BF4037BD4680BD00BF80B582B00A
:104B040000AF78607B681A685B4B1B689A4224D1BB
:104B14005A4B1B78002B08D0594B9B68092B04DC9B
:104B2400574B9B680133564A936055495548FEF7E5
:104B3400C3FF53495348FEF7E3FF5248FEF7F8FF1B
:104B44004F48FFF75DF841F270724D494D48FFF749
:104B5400BFF84B494B48FFF7EBF87B681A684A4BA0
:104B64001B689A4240F08380484B1B78002B05D188
:104B7400474B1B781846FEF78BFD5DE0444B1B78D2
:104B8400012B0ED101214348FCF7F4F90346002B15
:104B940003D0414B00221A704EE03F4B01221A70A1
:104BA4004AE03B4B1B78022B0ED102213948FCF71B
:104BB400E1F90346002B03D0304B00221A703BE08E
:104BC4002E4B01221A7037E0314B1B78032B0ED188
:104BD40004213048FCF7CEF90346002B03D02F4BB9
:104BE40000221A7028E02D4B01221A7024E0284B71
:104BF4001B78042B0ED108212648FCF7BBF9034689
:104C0400002B03D0264B00221A7015E0244B0122FE
:104C14001A7011E01E4B1B78052B0DD110211D4875
:104C2400FCF7A8F90346002B03D01E4B00221A7090
:104C340002E01C4B01221A70144B1B78002B05D088
:104C4400134B1B780133DAB2114B1A70104B1B78DB
:104C5400052B02D90E4B00221A700C4B1B78002B2B
:104C64000CBF01230023DBB21A46084B1A7000BFA5
:104C74000837BD4680BD00BFDC46002055460020F5
:104C8400DC450020CC4500201C4700205A4600206B
:104C940036010020001001405446002056460020F2
:104CA400574600205846002080B582B000AF786097
:104CB4007B68144A93420ED104211348FCF78AF905
:104CC4006423012211490F48FEF7A2F801220F497B
:104CD4000C48FEF735F97B680D4A93420ED1042146
:104CE4000948FCF777F9642301220A490848FEF7CA
:104CF4008FF8012207490648FEF722F900BF08375A
:104D0400BD4680BDDC47002000140140C945002099
:104D14009C470020C845002080B400AF00BFBD46BA
:104D240080BC704780B485B000AF154A144B9B69B2
:104D340043F001039361124B9B6903F00103BB60D1
:104D4400BB680F4A0E4BDB6943F08053D3610C4BB5
:104D5400DB6903F080537B607B680A4B5B68FB6014
:104D6400FB6823F0E063FB60FB6843F00073FB60C7
:104D7400044AFB68536000BF1437BD4680BC7047CB
:104D8400001002400000014080B400AF00BFBD46E7
:104D940080BC704780B400AFFEE700BF80B400AFB2
:104DA400FEE700BF80B400AFFEE700BF80B400AFF1
:104DB400FEE700BF80B400AF00BFBD4680BC7047B3
:104DC40080B400AF00BFBD4680BC704780B400AF64
:104DD40000BFBD4680BC704780B500AFFBF7F8FC50
:104DE40000BF80BD80B500AF0248FEF7FDF800BFEC
:104DF40080BD00BF9C47002080B500AF0248FEF78D
:104E0400F3F800BF80BD00BFDC47002080B500AFD1
:104E14000248FDF7C5FA00BF80BD00BFDC46002094
:104E240080B500AF0248FDF7BBFA00BF80BD00BFEC
:104E34001C47002080B400AF154A154B1B6843F093
:104E4400010313601249124B5A68124B13404B6012
:104E54000F4A0F4B1B6823F0847323F480331360D1
:104E64000B4A0B4B1B6823F480231360084A084B3E
:104E74005B6823F4FE035360054B4FF41F029A60F2
:104E8400054B4FF000629A6000BFBD4680BC70477E
:104E9400001002400000FFF800ED00E080B58CB087
:104EA40000AF07F10C0324220021184600F0E6FBB2
:104EB4003B1D00221A605A60204B214A1A601F4B86
:104EC40000225A601D4B00229A601C4B4FF6FF7261
:104ED400DA601A4B00221A61184B00229A610323EC
:104EE400FB6000233B6101237B610023BB610A2338
:104EF400FB6100233B6201237B620023BB620A2324
:104F0400FB6207F10C0319460C48FDF783F90346CD
:104F1400002B01D0FFF700FF00237B600023BB6060
:104F24003B1D19460548FDF77BFE0346002B01D0C7
:104F3400FFF7F2FE00BF3037BD4680BD5C4600205F
:104F44000004004080B58CB000AF07F10C032422AC
:104F54000021184600F092FB3B1D00221A605A60A3
:104F6400204B214A1A601F4B00225A601D4B00221D
:104F74009A601C4B4FF6FF72DA601A4B00221A61DA
:104F8400184B00229A610323FB6000233B61012339
:104F94007B610023BB610A23FB6100233B62012385
:104FA4007B620023BB620A23FB6207F10C031946F0
:104FB4000C48FDF72FF90346002B01D0FFF7ACFE98
:104FC40000237B600023BB603B1D19460548FDF7A9
:104FD40027FE0346002B01D0FFF79EFE00BF3037AB
:104FE400BD4680BD9C4600200008004080B582B0CC
:104FF40000AF3B4600221A605A60154B154A1A60EE
:10500400134B41F61F425A60114B00229A60104B19
:105014006322DA600E4B00229A610D48FDF740F8D6
:105024000346002B01D0FFF777FE00233B600023EB
:105034007B603B4619460648FDF7F2FD0346002B0C
:1050440001D0FFF769FE00BF0837BD4680BD00BF31
:10505400DC4600200010004080B582B000AF3B4623
:1050640000221A605A60154B154A1A60134B41F618
:105074001F425A60114B00229A60104B6322DA607F
:105084000E4B00229A610D48FDF70AF80346002BE7
:1050940001D0FFF741FE00233B6000237B603B46C9
:1050A40019460648FDF7BCFD0346002B01D0FFF767
:1050B40033FE00BF0837BD4680BD00BF1C4700203B
:1050C4000014004080B592B000AF07F14003002205
:1050D4001A605A6007F1240300221A605A609A6029
:1050E400DA601A615A619A613B1D20220021184638
:1050F40000F0C4FA454B464A1A60444B00225A60F9
:10510400424B00229A60414B41F61F42DA603F4B0A
:1051140000221A613D4B00225A613C4B00229A61E5
:105124003A48FDF70DF80346002B01D0FFF7F4FDD4
:1051340000233B6400237B6407F140031946334892
:10514400FDF76EFD0346002B01D0FFF7E5FD60235C
:105154007B620023BB620023FB6200233B630023CA
:105164007B630023BB630023FB6307F1240300225A
:1051740019462648FDF71CFA0346002B01D0FFF719
:10518400CBFD07F12403042219462048FDF710FA49
:105194000346002B01D0FFF7BFFD07F124030822CB
:1051A40019461A48FDF704FA0346002B01D0FFF70D
:1051B400B3FD07F124030C2219461448FDF7F8F94E
:1051C4000346002B01D0FFF7A7FD00237B600023DB
:1051D400BB600023FB6000233B6100237B614FF431
:1051E4000053BB6100233B623B1D19460748FDF792
:1051F4005BFD0346002B01D0FFF78EFD034800F052
:10520400D5F800BF4837BD4680BD00BF5C470020CD
:105214000034014080B58AB000AF786007F118030C
:1052240000221A605A609A60DA607B681B682A4A16
:10523400934224D1294A294BDB6943F00203D36109
:10524400264BDB6903F002037B617B69234A234B12
:105254009B6943F004039361204B9B6903F00403AF
:105264003B613B69C023BB610023FB6100233B62BC
:1052740007F1180319461A48FBF712FD28E07B686A
:105284001B68184A934223D1144A144BDB6943F038
:105294000403D361114BDB6903F00403FB60FB6877
:1052A4000E4A0E4B9B6943F0080393610B4B9B69B9
:1052B40003F00803BB60BB68C023BB610023FB6130
:1052C40000233B6207F1180319460748FBF7E8FC83
:1052D40000BF2837BD4680BD0004004000100240D6
:1052E4000008014000080040000C014080B584B073
:1052F40000AF78607B681B681A4A934214D11A4A3B
:10530400194BDB6943F01003D361174BDB6903F0DE
:105314001003FB60FB68002200213620FBF76CFBC6
:105324003620FBF785FB18E07B681B680F4A934225
:1053340013D10D4A0C4BDB6943F02003D3610A4BB4
:10534400DB6903F02003BB60BB6800220021372027
:10535400FBF752FB3720FBF76BFB00BF1037BD4652
:1053640080BD00BF00100040001002400014004047
:1053740080B485B000AF78607B681B68094A9342AB
:105384000BD1094A084B9B6943F400539361064BC4
:105394009B6903F40053FB60FB6800BF1437BD46F0
:1053A40080BC7047003401400010024080B588B0D2
:1053B40000AF786007F1100300221A605A609A6007
:1053C400DA607B681B68104A934218D10F4A0F4B6E
:1053D4009B6943F0100393610C4B9B6903F010032A
:1053E400FB60FB684FF470733B6102237B61022313
:1053F400FB6107F1100319460548FBF751FC00BF98
:105404002037BD4680BD00BF00340140001002407B
:105414000010014080B500AF114B124A1A60104BC6
:105424004FF4E1325A600E4B00229A600C4B00227A
:10543400DA600B4B00221A61094B0C225A61084BAB
:1054440000229A61064B0022DA610548FDF792FCBE
:105454000346002B01D0FFF75FFC00BF80BD00BFF7
:105464009C4700200038014080B500AF114B124A20
:105474001A60104B4FF416525A600E4B00229A6079
:105484000C4B0022DA600B4B00221A61094B0C22F0
:105494005A61084B00229A61064B0022DA610548E2
:1054A400FDF768FC0346002B01D0FFF735FC00BF75
:1054B40080BD00BFDC4700200044004080B58AB0B6
:1054C40000AF786007F1180300221A605A609A60EE
:1054D400DA607B681B683F4A93423AD13E4A3E4BAE
:1054E4009B6943F4804393613B4B9B6903F4804382
:1054F4007B617B69384A384B9B6943F004039361B1
:10550400354B9B6903F004033B613B694FF4007323
:10551400BB610223FB6103237B6207F11803194675
:105524002E48FBF7BDFB4FF48063BB610023FB6196
:1055340000233B6207F1180319462848FBF7B0FB28
:10554400002200212520FBF757FA2520FBF770FAEB
:105554003CE07B681B68224A934237D11E4A1E4BAB
:10556400DB6943F40033D3611B4BDB6903F4003381
:10557400FB60FB68184A184B9B6943F00403936172
:10558400154B9B6903F00403BB60BB680423BB6138
:105594000223FB6103237B6207F1180319460F48BA
:1055A400FBF77EFB0823BB610023FB6100233B6206
:1055B40007F1180319460948FBF772FB0022002182
:1055C4002620FBF719FA2620FBF732FA00BF28370A
:1055D400BD4680BD00380140001002400008014073
:1055E40000440040002103E00B4B5B58435004315E
:1055F4000A480B4B42189A42F6D30A4A02E00023A7
:1056040042F8043B084B9A42F9D3FFF713FC00F02D
:105614000FF8FFF79FF97047DC56000800000020E0
:105624003C0100203C0100201C480020FEE7000053
:105634000E4B70B51E460E4C0025E41AA410A5426C
:1056440004D056F8253098470135F8E700F01EF8E5
:10565400084B094C1E46E41AA4100025A54204D0A8
:1056640056F8253098470135F8E770BDD456000840
:10567400D4560008D4560008D856000803460244FD
:10568400934202D003F8011BFAE77047F8B500BF54
:10569400F8BC08BC9E467047F8B500BFF8BC08BC0F
:0456A4009E46704767
:1056A80002030405060708090A0B0C0D0E0F10105B
:1056B80001020000000000000000000001020304D5
:0C56C800060708090000000001020304AE
:0456D40009020008BF
:0456D800E5010008E0
:1056DC0010000000010000000000204100002041EB
:1056EC000000204100002041AE001040B081FFA11D
:1056FC00A6A83FC8D300D580D805D9F1DA12D83086
:10570C008D14AF001100000000000000000000002C
:10571C00000000000000000000000000000000007D
:10572C00000000000000000000000000000000006D
:10573C00000000000000000000000000000000005D
:10574C00000000000000000000000000000000004D
:10575C00000000000000000000000000000000003D
:10576C00000000000000000000000000000000002D
:10577C00000000000000000000000000000000001D
:10578C00000000000000000000000000000000000D
:10579C0000000000000000000000000000000000FD
:1057AC0000000000000000000000000000000000ED
:1057BC0000000000000000000000000000000000DD
:1057CC0000000000000000000000000000000000CD
:1057DC0000000000000000000000000000000000BD
:1057EC0000000000000000000000000000000000AD
:1057FC00000000000000000000000000000000009D
:0C580C0000000000460501000024F4002C
:04000005080055E9B1
:00000001FF
