:020000040800F2
:1000000000C00020954D0008FD480008094900087F
:1000100011490008194900082149000800000000A2
:100020000000000000000000000000002949000856
:100030003549000800000000414900084D4900080A
:10004000DD4D0008DD4D0008DD4D0008DD4D0008E8
:10005000DD4D0008DD4D0008DD4D0008DD4D0008D8
:10006000DD4D0008DD4D0008DD4D0008DD4D0008C8
:10007000DD4D0008DD4D0008DD4D0008DD4D0008B8
:10008000DD4D0008DD4D0008DD4D0008DD4D0008A8
:10009000DD4D0008DD4D0008DD4D0008DD4D000898
:1000A000DD4D0008DD4D0008DD4D0008DD4D000888
:1000B000DD4D0008DD4D0008DD4D0008DD4D000878
:1000C000DD4D0008DD4D0008DD4D0008DD4D000868
:1000D000DD4D0008594900086D490008DD4D000854
:1000E000DD4D0008DD4D0008DD4D0008DD4D000848
:1000F000DD4D0008DD4D0008DD4D0008DD4D000838
:10010000DD4D0008DD4D0008DD4D0008DD4D000827
:10011000DD4D0008DD4D00088149000895490008C3
:10012000DD4D0008DD4D0008DD4D0008DD4D000807
:1001300000000000000000000000000000000000BF
:1001400000000000000000000000000000000000AF
:10015000000000000000000000000000000000009F
:10016000000000000000000000000000000000008F
:10017000000000000000000000000000000000007F
:10018000000000000000000000000000000000006F
:10019000000000000000000000000000000000005F
:1001A000000000000000000000000000000000004F
:1001B000000000000000000000000000000000003F
:1001C000000000000000000000000000000000002F
:1001D000000000000000000000000000000000001F
:0401E0005FF8E0F1F3
:1001E40010B5054C237833B9044B13B10448AFF36D
:1001F40000800123237010BD940200200000000041
:10020400E04F0008084B10B51BB108490848AFF38C
:1002140000800848036803B910BD074B002BFBD0CE
:10022400BDE81040184700BF0000000098020020FD
:10023400E04F0008940200200000000080B500AFE9
:10024400084A084B1B6843F010031360032000F0B6
:1002540043F9002000F008F804F01CFB00231846C2
:1002640080BD00BF0020024080B582B000AF78603E
:10027400124B1A68124B1B7819464FF47A73B3FB6E
:10028400F1F3B2FBF3F3184600F05CF90346002BDC
:1002940001D001230EE07B680F2B0AD80022796875
:1002A4004FF0FF3000F024F9064A7B681360002306
:1002B40000E0012318460837BD4680BD2C0200200B
:1002C400040000200000002080B400AF054B1B7820
:1002D4001A46054B1B681344034A136000BFBD460E
:1002E40080BC704704000020B002002080B400AF3E
:1002F400024B1B681846BD4680BC7047B002002004
:1003040080B584B000AF7860FFF7F0FFB8607B6819
:10031400FB60FB68B3F1FF3F05D0094B1B781A461D
:10032400FB681344FB6000BFFFF7E0FF0246BB68B5
:10033400D21AFB689A42F7D300BF1037BD4680BD7E
:100344000400002080B485B000AF78607B6803F0BF
:100354000703FB600C4BDB68BB60BA684FF6FF0316
:100364001340BB60FB681A02BB68134343F0BF63CE
:1003740043F40033BB60044ABB68D36000BF143746
:10038400BD4680BC704700BF00ED00E080B400AF04
:10039400044BDB6803F4E0631B0A1846BD4680BCCB
:1003A400704700BF00ED00E080B483B000AF0346A7
:1003B400FB7197F90730002B0BDB084997F90730DD
:1003C4005B09FA7902F01F02012000FA02F241F8F7
:1003D400232000BF0C37BD4680BC704700E100E01D
:1003E40080B483B000AF03463960FB7197F90730DE
:1003F400002B0ADB0D4997F907303A68D2B2120193
:10040400D2B20B4483F800230AE00949FB7903F0D4
:100414000F03043B3A68D2B21201D2B20B441A76EB
:1004240000BF0C37BD4680BC704700BF00E100E050
:1004340000ED00E080B489B000AFF860B9607A6084
:10044400FB6803F00703FB61FB69C3F10703042B9B
:1004540028BF0423BB61FB690433062B02D9FB6963
:10046400033B00E000237B610122BB6902FA03F332
:100474005A1EBB681A407B699A4001217B6901FAC4
:1004840003F3591E7B680B40134318462437BD46BB
:1004940080BC704780B582B000AF78607B68013B58
:1004A400B3F1807F01D301230FE00A4A7B68013B4B
:1004B40053600F214FF0FF30FFF792FF054B0022EE
:1004C4009A60044B07221A60002318460837BD4679
:1004D40080BD00BF10E000E080B582B000AF78605E
:1004E4007868FFF72FFF00BF0837BD4680BD00BF07
:1004F40080B586B000AF0346B9607A60FB73002311
:100504007B61FFF743FF78617A68B9687869FFF720
:1005140091FF024697F90F3011461846FFF760FF26
:1005240000BF1837BD4680BD80B582B000AF03461A
:10053400FB7197F907301846FFF736FF00BF0837FD
:10054400BD4680BD80B582B000AF78607868FFF7A3
:10055400A1FF034618460837BD4680BD80B584B068
:1005640000AF78600023FB737B6893F82130022B83
:1005740005D07B6804229A630123FB73ECE07B685B
:100584001B687A681268126822F00E021A607B688F
:100594001B687A681268126822F001021A607B688C
:1005A4001B681A466F4B9A4263D96F4A7B681B6873
:1005B40019466E4B994259D07B681B6819466C4B9F
:1005C400994251D07B681B6819466A4B994248D0BE
:1005D4007B681B681946684B99423FD07B681B684F
:1005E4001946664B994236D07B681B681946644BA2
:1005F40099422DD07B681B6819465A4B994224D0E6
:100604007B681B6819465F4B99421CD07B681B684A
:1006140019465D4B994214D07B681B6819465B4BA5
:1006240099420BD07B681B681946594B994202D1F9
:100634004FF480531BE04FF4803318E04FF4807381
:1006440015E0102313E0012311E04FF080730EE056
:100654004FF480130BE04FF4803308E04FF48053E1
:1006640005E04FF4807302E0102300E0012353609F
:1006740062E0484A7B681B6819463C4B994259D052
:100684007B681B6819463A4B994251D07B681B68BA
:100694001946384B994248D07B681B681946364B3B
:1006A40099423FD07B681B681946344B994236D037
:1006B4007B681B681946324B99422DD07B681B68B6
:1006C4001946284B994224D07B681B6819462D4B48
:1006D40099421CD07B681B6819462B4B994214D055
:1006E4007B681B681946294B99420BD07B681B68B1
:1006F4001946274B994202D14FF480531BE04FF423
:10070400803318E04FF4807315E0102313E00123C5
:1007140011E04FF080730EE04FF480130BE04FF4C0
:10072400803308E04FF4805305E04FF4807302E017
:10073400102300E0012353607B68012283F8212009
:100744007B68002283F820207B685B6B002B03D03E
:100754007B685B6B78689847FB7B18461037BD460F
:1007640080BD00BF80000240000402400800024037
:100774001C00024030000240440002405800024085
:100784006C000240080402401C0402403004024091
:10079400440402400000024080B48BB000AF786093
:1007A400396000237B6200233B6233E101227B6AD0
:1007B40002FA03F3FB613B681A68FB691340BB61EF
:1007C400BA69FB699A4240F022813B685B68122B4C
:1007D40034D0122B0DD8022B2BD0022B04D8002B93
:1007E40031D0012B1CD048E0032B43D0112B1BD05C
:1007F40043E08F4A934226D08D4A934206D88D4ACD
:10080400934220D08C4A93421DD036E08B4A9342C7
:1008140019D08B4A934216D08A4A934213D02CE0C3
:100824003B68DB683B6228E03B68DB6804333B627F
:1008340023E03B68DB6808333B621EE03B68DB680F
:100844000C333B6219E03B689B68002B02D1042304
:100854003B6212E03B689B68012B05D108233B6295
:100864007B68FA691A6108E008233B627B68FA69CD
:100874005A6102E000233B6200BFBB69FF2B01D831
:100884007B6801E07B6804337B61BB69FF2B02D882
:100894007B6A9B0002E07B6A083B9B003B617B69AF
:1008A4001A680F213B6901FA03F3DB431A40396AE2
:1008B4003B6901FA03F31A437B691A603B685B687E
:1008C40003F08053002B00F0A2805F4A5E4B9B69CB
:1008D40043F0010393615C4B9B6903F00103BB602C
:1008E400BB685A4A7B6A9B08023352F82330FB6088
:1008F4007B6A03F003039B000F2202FA03F3DB433A
:10090400FA681340FB607B68514A93421FD07B68AE
:10091400504A934219D07B684F4A934213D07B6864
:100924004E4A93420DD07B684D4A934207D07B6870
:100934004C4A934201D105230AE0062308E004232C
:1009440006E0032304E0022302E0012300E0002385
:100954007A6A02F0030292009340FA681343FB6040
:100964003A497B6A9B080233FA6841F823203B68C2
:100974005B6803F48033002B06D03B493A4B1A687A
:10098400BB6913430B6006E03749374B1A68BB69F0
:10099400DB4313400B603B685B6803F40033002BBC
:1009A40006D03149304B5A68BB6913434B6006E0AB
:1009B4002D492D4B5A68BB69DB4313404B603B68A0
:1009C4005B6803F48013002B06D02749264B9A68F2
:1009D400BB6913438B6006E02349234B9A68BB69C8
:1009E400DB4313408B603B685B6803F40013002B0C
:1009F40006D01D491C4BDA68BB691343CB6006E083
:100A04001949194BDA68BB69DB431340CB607B6A35
:100A140001337B623B681A687B6A22FA03F3002B7A
:100A24007FF4C4AE00BF2C37BD4680BC704700BF06
:100A340000002110000011100000121000003110FD
:100A4400000032100000221000100240000001409B
:100A540000080140000C0140001001400014014056
:100A640000180140001C01400004014080B485B01E
:100A740000AF78600B467B807B689A687B88134064
:100A8400002B02D00123FB7301E00023FB73FB7BEB
:100A940018461437BD4680BC704700BF80B483B08D
:100AA40000AF78600B467B8013467B707B78002B0D
:100AB40003D07A887B681A6103E07B881A047B6818
:100AC4001A6100BF0C37BD4680BC704780B483B048
:100AD40000AF78600B467B807B68DA687B881340C4
:100AE400002B03D07A887B685A6102E07A887B689D
:100AF4001A6100BF0C37BD4680BC704790B585B005
:100B040000AF78607B68002B01D101230FE17B6883
:100B140093F83D30DBB2002B06D17B68002283F8CA
:100B24003C20786803F038FB7B68242283F83D205E
:100B34007B681B687A681268126822F001021A60E6
:100B440000F0E4FFF8607B685B687B4A934207D857
:100B5400FB687A4A934294BF01230023DBB206E088
:100B6400FB68774A934294BF01230023DBB2002B36
:100B740001D00123DBE0FB68724AA2FB03239B0C38
:100B8400BB607B681B687A681268526822F03F0178
:100B9400BA680A435A607B681A687B681B681B6AD8
:100BA40023F03F017B685B686348834202D8BB68DB
:100BB400013309E0BB684FF4967000FB03F362480D
:100BC400A0FB03039B0901330B4313627B68186882
:100BD4007B681B68DB6923F44F4222F0FF027B68C9
:100BE4005B6855498B420DD8FB68591E7B685B686E
:100BF4005B00B1FBF3F30133C3F30B03042B38BFE6
:100C040004234FE07B689B68002B11D1FB685C1EBA
:100C14007B6859680B465B000B44B4FBF3F3013368
:100C2400C3F30B03002B0CBF01230023DBB212E040
:100C3400FB685C1E7B6859680B469B000B4499005B
:100C44000B44B4FBF3F30133C3F30B03002B0CBFCE
:100C540001230023DBB2002B01D0012322E07B68B7
:100C64009B68002B0ED1FB685C1E7B6859680B46A1
:100C74005B000B44B4FBF3F30133C3F30B0343F402
:100C840000430FE0FB685C1E7B6859680B469B00C1
:100C94000B4499000B44B4FBF3F30133C3F30B038C
:100CA40043F440431343C3617B681B687A6812684A
:100CB400126822F0C0017A68D0697A68126A024325
:100CC4000A431A607B681A687B681B689B6823F474
:100CD400034323F0FF03796808697968C96801430D
:100CE4000B4393607B681B687A681268D26822F0B1
:100CF400FF017A6850697A68926902430A43DA60AC
:100D04007B681B687A681268126842F001021A60F4
:100D14007B6800221A647B68202283F83D207B686C
:100D240000221A637B68002283F83E2000231846C1
:100D34001437BD4690BD00BFA08601007F841E000D
:100D4400FF083D0083DE1B43D34D621080B588B09D
:100D540002AFF860084611461A4603467B810B46EB
:100D64003B811346FB80FFF7C1FA7861FB6893F877
:100D74003D30DBB2202B40F0D9807B6900931923EE
:100D840001226D49F86800F063F90346002B01D095
:100D94000223CCE0FB6893F83C30012B01D1022301
:100DA400C5E0FB68012283F83C20FB681B681B68D4
:100DB40003F00103002B07D1FB681B68FA68126873
:100DC400126842F001021A60FB681B68FA68126834
:100DD400126822F400621A60FB68212283F83D2025
:100DE400FB68402283F83E20FB6800221A64FB68FB
:100DF4003A6A5A62FB68BA8C5A85FB685B8D9AB270
:100E0400FB681A85FB684D4ADA62F8883A89798961
:100E14007B690193BB6A00930346F86800F090F87D
:100E24000346002B52D0012381E07A69B96AF8683D
:100E340000F0E4F90346002B0DD0FB681B6C042B77
:100E440007D1FB681B68FA681268126842F40072E2
:100E54001A6001236BE0FB681B68FA68526A127817
:100E64001A61FB685B6A5A1CFB685A62FB681B8D3B
:100E7400013B9AB2FB681A85FB685B8D9BB2013B10
:100E84009AB2FB685A85FB681B685B6903F004032C
:100E9400002B1BD0FB681B8D002B17D0FB681B6835
:100EA400FA68526A12781A61FB685B6A5A1CFB681A
:100EB4005A62FB681B8D013B9AB2FB681A85FB687A
:100EC4005B8D9BB2013B9AB2FB685A85FB681B8D14
:100ED400002BAAD17A69B96AF86800F0D1F90346FF
:100EE400002B0DD0FB681B6C042B07D1FB681B681F
:100EF400FA681268126842F400721A60012316E05C
:100F0400FB681B68FA681268126842F400721A607F
:100F1400FB68202283F83D20FB68002283F83E20F2
:100F2400FB68002283F83C20002300E002231846DB
:100F34001837BD4680BD00BF020010000000FFFF4F
:100F440080B588B002AFF860084611461A460346D9
:100F54007B810B463B811346FB80FB681B68FA6868
:100F64001268126842F480721A607B6A00933B6ACA
:100F740000224FF00111F86800F06AF80346002BD4
:100F840001D001235EE0FB681B687A89D2B202F0CB
:100F9400FE021A617B6A3A6A2C49F86800F0B0F8DC
:100FA4000346002B01D001234CE000237B61FB6846
:100FB4001B685B697B61FB681B689B697B617B6960
:100FC4007A6A396AF86800F019F90346002B0DD0E3
:100FD400FB681B6C042B07D1FB681B68FA6812685A
:100FE400126842F400721A6001232BE0FB88012B83
:100FF40005D1FB681B683A89D2B21A6121E0FB680B
:101004001B683A89120A92B2D2B21A617A6A396AB0
:10101400F86800F0F3F80346002B0DD0FB681B6C56
:10102400042B07D1FB681B68FA681268126842F443
:1010340000721A60012305E0FB681B683A89D2B28A
:101044001A61002318461837BD4680BD020001000E
:1010540080B584B000AFF860B9603B601346FB71A3
:1010640025E03B68B3F1FF3F21D0FFF73FF902468B
:10107400BB69D21A3B689A4202D83B68002B16D14E
:10108400FB6800221A63FB68202283F83D20FB687A
:10109400002283F83E20FB681B6C43F02002FB68AF
:1010A4001A64FB68002283F83C20012323E0BB6818
:1010B4001B0CDBB2012B0DD1FB681B685B69DA43A7
:1010C400BB6813409BB2002B0CBF01230023DBB28F
:1010D4001A460CE0FB681B689B69DA43BB68134043
:1010E4009BB2002B0CBF01230023DBB21A46FB7911
:1010F4009A42B6D0002318461037BD4680BD00BFC3
:1011040080B584B000AFF860B9607A603B6050E0AD
:10111400FB681B685B6903F48063002B23D0FB68C6
:101124001B68FA681268126842F400721A60FB685D
:101134001B686FF480625A61FB6800221A63FB68C3
:10114400202283F83D20FB68002283F83E20FB68C0
:101154001B6C43F00402FB681A64FB68002283F8EA
:101164003C20012346E07B68B3F1FF3F21D0FFF729
:10117400BDF802463B68D21A7B689A4202D87B6863
:10118400002B16D1FB6800221A63FB68202283F827
:101194003D20FB68002283F83E20FB681B6C43F073
:1011A4002002FB681A64FB68002283F83C200123B8
:1011B40020E0BB681B0CDBB2012B0CD1FB681B6865
:1011C4005B69DA43BB6813409BB2002B14BF012355
:1011D4000023DBB20BE0FB681B689B69DA43BB6846
:1011E40013409BB2002B14BF01230023DBB2002B5E
:1011F4008ED1002318461037BD4680BD80B584B01B
:1012040000AFF860B9607A602DE0F86800F07AF811
:101214000346002B01D001232DE0BB68B3F1FF3F4F
:1012240021D0FFF763F802467B68D21ABB689A4262
:1012340002D8BB68002B16D1FB6800221A63FB6836
:10124400202283F83D20FB68002283F83E20FB68BF
:101254001B6C43F02002FB681A64FB68002283F8CD
:101264003C20012307E0FB681B685B6903F08003F3
:10127400002BCAD0002318461037BD4680BD00BFDE
:1012840080B584B000AFF860B9607A602DE0F8688A
:1012940000F038F80346002B01D001232DE0BB6891
:1012A400B3F1FF3F21D0FFF721F802467B68D21A41
:1012B400BB689A4202D8BB68002B16D1FB68002297
:1012C4001A63FB68202283F83D20FB68002283F820
:1012D4003E20FB681B6C43F02002FB681A64FB6829
:1012E400002283F83C20012307E0FB681B685B694C
:1012F40003F00403002BCAD0002318461037BD4660
:1013040080BD00BF80B483B000AF78607B681B6889
:101314005B6903F48063002B1BD07B681B686FF44C
:1013240080625A617B6800221A637B68202283F8FA
:101334003D207B68002283F83E207B681B6C43F0D1
:1013440004027B681A647B68002283F83C20012332
:1013540000E0002318460C37BD4680BC704700BF30
:1013640080B586B000AF78607B68002B01D1012383
:101374006AE27B681B6803F00103002B00F086809F
:10138400914B5B6803F00C03042B0BD08E4B5B6812
:1013940003F00C03082B11D18B4B5B6803F48033EF
:1013A400002B0BD0884B1B6803F40033002B6CD04C
:1013B4007B685B68002B68D1012345E27B685B682E
:1013C400B3F5803F06D1804A7F4B1B6843F48033DA
:1013D40013602EE07B685B68002B0CD17A4A7A4B51
:1013E4001B6823F480331360774A774B1B6823F41C
:1013F400802313601DE07B685B68B3F5A02F0CD1DC
:10140400714A714B1B6843F4802313606E4A6E4B20
:101414001B6843F4803313600BE06B4A6A4B1B6810
:1014240023F480331360684A674B1B6823F48023DA
:1014340013607B685B68002B13D0FEF757FF38619D
:1014440008E0FEF753FF02463B69D31A642B01D927
:101454000323F9E15C4B1B6803F40033002BF0D049
:1014640014E0FEF743FF386108E0FEF73FFF024651
:101474003B69D31A642B01D90323E5E1524B1B6862
:1014840003F40033002BF0D100E000BF7B681B683D
:1014940003F00203002B63D04B4B5B6803F00C0397
:1014A400002B0BD0484B5B6803F00C03082B1CD1BA
:1014B400454B5B6803F48033002B16D1424B1B6809
:1014C40003F00203002B05D07B681B69012B01D0BC
:1014D4000123B9E13C493C4B1B6823F0F8027B68CB
:1014E4005B69DB0013430B603AE07B681B69002BEC
:1014F40020D0364B01221A60FEF7F8FE386108E06E
:10150400FEF7F4FE02463B69D31A022B01D90323EA
:101514009AE12D4B1B6803F00203002BF0D02A49FB
:10152400294B1B6823F0F8027B685B69DB001343DB
:101534000B6015E0254B00221A60FEF7D7FE3861D8
:1015440008E0FEF7D3FE02463B69D31A022B01D909
:10155400032379E11C4B1B6803F00203002BF0D139
:101564007B681B6803F00803002B39D07B689B69F8
:10157400002B19D0164B01221A60FEF7B7FE386112
:1015840008E0FEF7B3FE02463B69D31A022B01D9E9
:10159400032359E10C4B5B6A03F00203002BF0D0E8
:1015A400012000F0DBFA1BE0094B00221A60FEF771
:1015B4009DFE38610EE0FEF799FE02463B69D31AA0
:1015C400022B07D903233FE10010024000004242EE
:1015D400800442429E4B5B6A03F00203002BEAD173
:1015E4007B681B6803F00403002B00F0A680002333
:1015F400FB75974BDB6903F08053002B0DD1944AA4
:10160400934BDB6943F08053D361914BDB6903F067
:101614008053BB60BB680123FB758E4B1B6803F4CE
:101624008073002B18D18B4A8A4B1B6843F4807358
:101634001360FEF75BFE386108E0FEF757FE0246D2
:101644003B69D31A642B01D90323FDE0814B1B684A
:1016540003F48073002BF0D07B68DB68012B06D188
:101664007B4A7B4B1B6A43F0010313622DE07B68CA
:10167400DB68002B0CD1764A754B1B6A23F00103FF
:101684001362734A724B1B6A23F0040313621CE057
:101694007B68DB68052B0CD16D4A6D4B1B6A43F0EC
:1016A400040313626A4A6A4B1B6A43F00103136220
:1016B4000BE0674A664B1B6A23F001031362644A1A
:1016C400634B1B6A23F0040313627B68DB68002B03
:1016D40015D0FEF70BFE38610AE0FEF707FE02465E
:1016E4003B69D31A41F28832934201D90323ABE018
:1016F400574B1B6A03F00203002BEED014E0FEF7F5
:10170400F5FD38610AE0FEF7F1FD02463B69D31AA4
:1017140041F28832934201D9032395E04C4B1B6A72
:1017240003F00203002BEED1FB7D012B05D1484AC7
:10173400474BDB6923F08053D3617B68DB69002B63
:1017440000F08180424B5B6803F00C03082B61D0EE
:101754007B68DB69022B46D13F4B00221A60FEF7FF
:10176400C5FD386108E0FEF7C1FD02463B69D31AA6
:10177400022B01D9032367E0354B1B6803F0007388
:10178400002BF0D17B681B6AB3F5803F08D1304948
:101794002F4B5B6823F400327B689B6813434B60D8
:1017A4002B482B4B5B6823F474127B68196A7B68A3
:1017B4005B6A0B4313434360274B01221A60FEF715
:1017C40095FD386108E0FEF791FD02463B69D31AA6
:1017D400022B01D9032337E01D4B1B6803F0007370
:1017E400002BF0D02FE01C4B00221A60FEF77EFD88
:1017F400386108E0FEF77AFD02463B69D31A022BF2
:1018040001D9032320E0124B1B6803F00073002B63
:10181400F0D118E07B68DB69012B01D1012313E0CF
:101824000B4B5B68FB60FB6803F480327B681B6ACC
:101834009A4206D1FB6803F470127B685B6A9A4291
:1018440001D0012300E0002318461837BD4680BDAF
:1018540000100240007000406000424280B584B035
:1018640000AF786039607B68002B01D10123D0E0A0
:101874006A4B1B6803F007023B689A4210D267491F
:10188400664B1B6823F007023B6813430B60634BF2
:101894001B6803F007023B689A4201D00123B8E0B9
:1018A4007B681B6803F00203002B20D07B681B6855
:1018B40003F00403002B05D0594A594B5B6843F4E9
:1018C400E06353607B681B6803F00803002B05D0BA
:1018D400534A534B5B6843F4605353605049504B35
:1018E4005B6823F0F0027B689B6813434B607B6862
:1018F4001B6803F00103002B40D07B685B68012B5D
:1019040007D1474B1B6803F40033002B15D1012387
:101914007FE07B685B68022B07D1414B1B6803F0B7
:101924000073002B09D1012373E03D4B1B6803F0C6
:101934000203002B01D101236BE03949384B5B686A
:1019440023F003027B685B6813434B60FEF7CEFC15
:10195400F8600AE0FEF7CAFC0246FB68D31A41F2BB
:101964008832934201D9032353E02D4B5B6803F083
:101974000C027B685B689B009A42EBD1274B1B6887
:1019840003F007023B689A4210D92449234B1B6891
:1019940023F007023B6813430B60204B1B6803F0E2
:1019A40007023B689A4201D0012332E07B681B683E
:1019B40003F00403002B08D01949194B5B6823F486
:1019C400E0627B68DB6813434B607B681B6803F051
:1019D4000803002B09D01249114B5B6823F46052B1
:1019E4007B681B69DB0013434B6000F021F8014660
:1019F4000B4B5B6803F0F0031B090A4AD35C21FA22
:101A040003F3094A1360094B1B681846FEF72CFCC4
:101A1400002318461037BD4680BD00BF0020024099
:101A2400001002402C5800082C0200200000002066
:101A340090B48AB000AF2B4B3C1D186859689A6863
:101A4400DB680FC4284A3B4612881A800023FB61D6
:101A54000023BB6100237B6200237B6100233B6284
:101A6400224B5B68FB61FB6903F00C03042B02D07F
:101A7400082B03D02DE01E4B3B622DE0FB699B0C31
:101A840003F00F0307F12802134413F8243C7B618D
:101A9400FB6903F48033002B13D0144B5B6803F40D
:101AA40000335B0C07F12802134413F8283CBB6194
:101AB4007B690F4A02FB03F2BB69B2FBF3F37B625F
:101AC40004E07B690B4A02FB03F37B627B6A3B62A3
:101AD40002E0074B3B6200BF3B6A18462837BD460D
:101AE40090BC7047F84F00080850000800100240EE
:101AF40000127A0000093D0080B400AF024B1B685D
:101B04001846BD4680BC70472C02002080B500AF4B
:101B1400FFF7F2FF0146054B5B6803F4E0631B0A21
:101B2400034AD35C21FA03F3184680BD0010024037
:101B34003C58000880B500AFFFF7DEFF0146054BB7
:101B44005B6803F46053DB0A034AD35C21FA03F3B2
:101B5400184680BD001002403C58000880B485B08F
:101B640000AF78600A4B1B680A4AA2FB03235B0A96
:101B74007A6802FB03F3FB6000BFFB685A1EFA603D
:101B8400002BF9D100BF1437BD4680BC704700BF9D
:101B94002C020020D34D621080B582B000AF786073
:101BA4007B68002B01D101231DE07B6893F83D3055
:101BB400DBB2002B06D17B68002283F83C207868D6
:101BC40002F0BCFF7B68022283F83D207B681A6820
:101BD4007B6804331946104600F088F97B680122BB
:101BE40083F83D20002318460837BD4680BD00BF5A
:101BF40080B485B000AF78607B681B687A6812682F
:101C0400D26842F00102DA607B681B689B6803F0CB
:101C14000703FB60FB68062B07D07B681B687A68A8
:101C24001268126842F001021A6000231846143741
:101C3400BD4680BC704700BF80B483B000AF7860FD
:101C44007B681B687A681268D26822F00102DA6045
:101C54007B681B681A6A41F211131340002B0FD1E1
:101C64007B681B681A6A40F244431340002B07D177
:101C74007B681B687A681268126822F001021A6095
:101C8400002318460C37BD4680BC704780B582B02F
:101C940000AF78607B681B681B6903F00203002BAC
:101CA40022D07B681B68DB6803F00203002B1BD087
:101CB4007B681B686FF002021A617B6801221A7745
:101CC4007B681B689B6903F00303002B03D07868CF
:101CD40000F0EEF805E0786800F0E0F8786800F0CD
:101CE400F1F87B6800221A777B681B681B6903F094
:101CF4000403002B22D07B681B68DB6803F0040319
:101D0400002B1BD07B681B686FF004021A617B6890
:101D140002221A777B681B689B6903F44073002BCB
:101D240003D0786800F0C4F805E0786800F0B6F8ED
:101D3400786800F0C7F87B6800221A777B681B6814
:101D44001B6903F00803002B22D07B681B68DB6847
:101D540003F00803002B1BD07B681B686FF008029C
:101D64001A617B6804221A777B681B68DB6903F0BD
:101D74000303002B03D0786800F09AF805E0786834
:101D840000F08CF8786800F09DF87B6800221A77E0
:101D94007B681B681B6903F01003002B22D07B684F
:101DA4001B68DB6803F01003002B1BD07B681B68E7
:101DB4006FF010021A617B6808221A777B681B682F
:101DC400DB6903F44073002B03D0786800F070F8EB
:101DD40005E0786800F062F8786800F073F87B68D2
:101DE40000221A777B681B681B6903F00103002B30
:101DF4000ED07B681B68DB6803F00103002B07D05F
:101E04007B681B686FF001021A61786802F054FC69
:101E14007B681B681B6903F08003002B0ED07B6872
:101E24001B68DB6803F08003002B07D07B681B680A
:101E34006FF080021A61786800F020F97B681B68F3
:101E44001B6903F04003002B0ED07B681B68DB6822
:101E540003F04003002B07D07B681B686FF040023F
:101E64001A61786800F038F87B681B681B6903F016
:101E74002003002B0ED07B681B68DB6803F0200373
:101E8400002B07D07B681B686FF020021A6178680A
:101E940000F0EAF800BF0837BD4680BD80B483B0C7
:101EA40000AF786000BF0C37BD4680BC704700BFF0
:101EB40080B483B000AF786000BF0C37BD4680BCEF
:101EC400704700BF80B483B000AF786000BF0C37A8
:101ED400BD4680BC704700BF80B483B000AF78605B
:101EE40000BF0C37BD4680BC704700BF80B485B0CE
:101EF40000AF786039607B681B68FB607B68334A9D
:101F0400934213D07B68324A93420FD07B68B3F17B
:101F1400804F0BD07B682F4A934207D07B682E4AB0
:101F2400934203D07B682D4A934208D1FB6823F087
:101F34007003FB603B685B68FA681343FB607B6873
:101F4400224A934213D07B68214A93420FD07B6884
:101F5400B3F1804F0BD07B681E4A934207D07B6855
:101F64001D4A934203D07B681C4A934208D1FB6804
:101F740023F44073FB603B68DB68FA681343FB603F
:101F8400FB6823F080023B685B691343FB607B685A
:101F9400FA681A603B689A687B68DA623B681A6878
:101FA4007B689A627B68094A934203D07B68084A3B
:101FB400934203D13B681A697B681A637B680122E8
:101FC4005A6100BF1437BD4680BC7047002C0140E5
:101FD400003401400004004000080040000C0040B0
:101FE40080B485B000AF786039607B6893F83C308A
:101FF400012B01D1022332E07B68012283F83C20CB
:102004007B68022283F83D207B681B685B68FB6069
:102014007B681B689B68BB60FB6823F07003FB60F4
:102024003B681B68FA681343FB60BB6823F08003BA
:10203400BB603B685B68BA681343BB607B681B6822
:10204400FA685A607B681B68BA689A607B680122E8
:1020540083F83D207B68002283F83C200023184647
:102064001437BD4680BC704780B483B000AF78603D
:1020740000BF0C37BD4680BC704700BF80B483B03E
:1020840000AF786000BF0C37BD4680BC704700BF0E
:1020940080B582B000AF78607B68002B01D101234A
:1020A4003FE07B6893F83930DBB2002B06D17B68C4
:1020B400002283F83820786802F0D6FD7B68242259
:1020C40083F839207B681B687A681268D26822F426
:1020D4000052DA60786800F08FFB7B681B687A68CE
:1020E4001268126922F490421A617B681B687A684C
:1020F4001268526922F02A025A617B681B687A6866
:102104001268D26842F40052DA607B680022DA6313
:102114007B68202283F839207B68202283F83A20C8
:10212400002318460837BD4680BD00BF80B588B07F
:1021340002AFF860B9603B601346FB8000237B610B
:10214400FB6893F83930DBB2202B40F08280BB6807
:10215400002B02D0FB88002B01D101237AE0FB681D
:1021640093F83830012B01D1022373E0FB6801227C
:1021740083F83820FB680022DA63FB68212283F8A5
:102184003920FEF7B3F87861FB68FA889A84FB6813
:10219400FA88DA8441E0FB68DB8C9BB2013B9AB29B
:1021A400FB68DA84FB689B68B3F5805F21D13B68E8
:1021B40000937B6900228021F86800F0B3F903469C
:1021C400002B01D0032345E0BB683B61FB681B681F
:1021D4003A691288C2F308025A60FB681B69002B33
:1021E40003D1BB680233BB6017E0BB680133BB603B
:1021F40013E03B6800937B6900228021F86800F0BB
:1022040091F90346002B01D0032323E0FB681A68ED
:10221400BB68591CB9601B785360FB68DB8C9BB2AC
:10222400002BB8D13B6800937B6900224021F868F9
:1022340000F078F90346002B01D003230AE0FB6881
:10224400202283F83920FB68002283F838200023F9
:1022540000E0022318461837BD4680BD80B485B01F
:1022640000AFF860B9601346FB80FB6893F83A301E
:10227400DBB2202B40D1BB68002B02D0FB88002BA3
:1022840001D1012339E0FB6893F83830012B01D1E7
:10229400022332E0FB68012283F83820FB68BA6825
:1022A4009A62FB68FA889A85FB68FA88DA85FB6883
:1022B4000022DA63FB68222283F83A20FB680022BA
:1022C40083F83820FB681B68FA681268D26842F405
:1022D4008072DA60FB681B68FA681268526942F01F
:1022E40001025A61FB681B68FA681268D26842F0FE
:1022F4002002DA60002300E0022318461437BD46AA
:1023040080BC704780B588B000AF78607B681B687C
:102314001B68FB617B681B68DB68BB617B681B68AF
:102324005B697B6100233B610023FB60FB6903F075
:102334000F033B613B69002B0DD1FB6903F02003C4
:10234400002B08D0BB6903F02003002B03D078686E
:1023540000F0D0F9CCE03B69002B00F0AB807B6946
:1023640003F00103002B05D1BB6903F49073002B28
:1023740000F0A080FB6903F00103002B0AD0BB69C5
:1023840003F48073002B05D07B68DB6B43F0010200
:102394007B68DA63FB6903F00403002B0AD07B69D2
:1023A40003F00103002B05D07B68DB6B43F00202D2
:1023B4007B68DA63FB6903F00203002B0AD07B69B4
:1023C40003F00103002B05D07B68DB6B43F00402B0
:1023D4007B68DA63FB6903F00803002B0AD07B698E
:1023E40003F00103002B05D07B68DB6B43F008028C
:1023F4007B68DA637B68DB6B002B78D0FB6903F0C6
:102404002003002B07D0BB6903F02003002B02D06C
:10241400786800F06FF97B681B685B6903F0400320
:10242400002B14BF01230023DBB2FB607B68DB6B52
:1024340003F00803002B02D1FB68002B31D078682D
:1024440000F0BAF87B681B685B6903F04003002B5B
:1024540023D07B681B687A681268526922F04002B4
:102464005A617B685B6B002B13D07B685B6B224AE1
:102474005A637B685B6B1846FEF770F80346002BC3
:1024840016D07B685B6B5B6B7A68526B104698471F
:102494000EE0786800F03CF80AE0786800F038F85C
:1024A40006E0786800F034F87B680022DA631EE006
:1024B40000BF1CE0FB6903F08003002B08D0BB695C
:1024C40003F08003002B03D0786800F0A7F80FE036
:1024D400FB6903F04003002B0AD0BB6903F04003FF
:1024E400002B05D0786800F0EDF800BF00E000BFD5
:1024F4002037BD4680BD00BFF925000880B483B0F5
:1025040000AF786000BF0C37BD4680BC704700BF89
:1025140080B483B000AF786000BF0C37BD4680BC88
:10252400704700BF80B584B000AFF860B9603B600D
:102534001346FB712CE0BB69B3F1FF3F28D0BB69A4
:10254400002B07D0FDF7D2FE02463B68D21ABB69C6
:102554009A421DD9FB681B68FA681268D26822F493
:10256400D072DA60FB681B68FA681268526922F05C
:1025740001025A61FB68202283F83920FB6820227B
:1025840083F83A20FB68002283F8382003230FE005
:10259400FB681B681A68BB681A40BB689A420CBF88
:1025A40001230023DBB21A46FB799A42C3D00023ED
:1025B40018461037BD4680BD80B483B000AF786044
:1025C4007B681B687A681268D26822F49072DA60B9
:1025D4007B681B687A681268526922F001025A61AA
:1025E4007B68202283F83A2000BF0C37BD4680BCAC
:1025F400704700BF80B584B000AF78607B685B6AC9
:10260400FB60FB680022DA85FB680022DA84F86844
:10261400FFF77EFF00BF1037BD4680BD80B485B094
:1026240000AF78607B6893F83930DBB2212B43D15B
:102634007B689B68B3F5805F19D17B681B6AFB607C
:102644007B681B68FA681288C2F308025A607B68C8
:102654001B69002B05D17B681B6A9A1C7B681A6274
:102664000EE07B681B6A5A1C7B681A6208E07B6870
:102674001A687B681B6A581C796808621B78536067
:102684007B68DB8C9BB2013B9BB27A681946D18490
:10269400002B0FD17B681B687A681268D26822F01D
:1026A4008002DA607B681B687A681268D26842F03C
:1026B4004002DA60002300E0022318461437BD46C6
:1026C40080BC704780B582B000AF78607B681B68BF
:1026D4007A681268D26822F04002DA607B682022AD
:1026E40083F839207868FFF709FF00231846083774
:1026F400BD4680BD80B584B000AF78607B6893F838
:102704003A30DBB2222B71D17B689B68B3F5805FD2
:1027140023D17B689B6AFB607B681B69002B0ED10D
:102724007B681B685B689BB2C3F308039AB2FB68BF
:102734001A807B689B6A9A1C7B689A6229E07B6892
:102744001B685B689BB2DBB29AB2FB681A807B6839
:102754009B6A5A1C7B689A621BE07B681B69002B8E
:102764000AD17B689B6A591C7A6891627A681268FC
:102774005268D2B21A700CE07B689B6A591C7A6862
:1027840091627A6812685268D2B202F07F02D2B2C1
:102794001A707B68DB8D9BB2013B9BB27A68194649
:1027A400D185002B20D17B681B687A681268D268B7
:1027B40022F02002DA607B681B687A681268D268AB
:1027C40022F48072DA607B681B687A681268526946
:1027D40022F001025A617B68202283F83A2078684B
:1027E40002F01AF8002302E0002300E00223184656
:1027F4001037BD4680BD00BF90B585B000AF78608E
:102804007B681B687A681268126922F440517A68FE
:10281400D2680A431A617B689A687B681B691A4309
:102824007B685B691343FB607B681A687B681B6881
:10283400DB6823F4B05323F00C03F9680B43D36033
:102844007B681B687A681268526922F440717A685E
:1028540092690A435A617B681B68524A93424ED17B
:10286400FFF768F9B8607B681968BA6813469B007B
:1028740013449A001A447B685B689B00B2FBF3F331
:10288400494AA2FB03235B091801BA6813469B005B
:1028940013449A001A447B685B689B00B2FBF3F212
:1028A400414BA3FB02435B09642404FB03F3D31AE7
:1028B4001B0132333C4AA2FB03235B0903F0F00300
:1028C4001844BA6813469B0013449A001A447B6860
:1028D4005B689B00B2FBF3F2334BA3FB02435B093F
:1028E400642404FB03F3D31A1B0132332E4AA2FBE4
:1028F40003235B0903F00F0303448B604DE0FFF7F0
:1029040005F9B8607B681968BA6813469B001344DC
:102914009A001A447B685B689B00B2FBF3F3224A7B
:10292400A2FB03235B091801BA6813469B001344F6
:102934009A001A447B685B689B00B2FBF3F21A4B63
:10294400A3FB02435B09642404FB03F3D31A1B01B6
:102954003233154AA2FB03235B0903F0F003184446
:10296400BA6813469B0013449A001A447B685B6858
:102974009B00B2FBF3F20C4BA3FB02435B09642400
:1029840004FB03F3D31A1B013233074AA2FB0323CC
:102994005B0903F00F0303448B6000BF1437BD468B
:1029A40090BD00BF003801401F85EB5180B483B057
:1029B40000AF786039603B681B68B3F1FF3F01D119
:1029C400FF2308E03B681B68591E3A6811601A46E9
:1029D4007B6813441B7818460C37BD4680BC70478F
:1029E40080B485B000AF78600023FB7316E0002349
:1029F400BB730DE0FA7B13469B0013445B001A463D
:102A04007B681A44BB7BFF21D154BB7B0133BB736E
:102A1400BB7B092BEED9FB7B0133FB73FB7B092BBF
:102A2400E5D900BF1437BD4680BC704780B485B07B
:102A340000AF7860084611461A460346FB700B4601
:102A4400BB7013467B700123FB737B78002B03D18F
:102A5400BB780133BB7013E07B78012B03D1FB7887
:102A6400013BFB700CE07B78022B03D1BB78013B6C
:102A7400BB7005E07B78032B02D1FB780133FB703C
:102A8400FA7813461B0113447A681A44BB78D35C62
:102A940003F00103002B01D00023FB7397F90330EB
:102AA400002B03DB97F90230002B01DA0023FB73C0
:102AB400FB78002B02D0BB78002B01D10023FB73E1
:102AC400FB780A2B02D0BB780A2B01D10023FB73BD
:102AD400FB7B18461437BD4680BC704790B5A5B043
:102AE40000AFF860B9607A6000F0D8FFC7F88000E2
:102AF4003B7B87F87C307B7B87F87D30F96FD7F898
:102B0400800000F0E3FF07F1180364220021184657
:102B140002F0A0F9FF233B7607F118031846FFF7EC
:102B24005FFF97F87C301A4697F87D3019461346B4
:102B34009B0013445B0007F1900213440B44783B61
:102B440000221A708CE0D7F8800000F0FDFF0346E5
:102B5400BB82002387F88F307DE03B7D87F88E3081
:102B64007B7D87F88D3097F88F30002B04D17B7DE7
:102B7400013B87F88D3019E097F88F30012B04D191
:102B84003B7D013387F88E3010E097F88F30022BAD
:102B940004D17B7D013387F88D3007E097F88F30BF
:102BA400032B03D13B7D013B87F88E3097F88E30A1
:102BB4005B00DBB2013BD9B297F88D305B00DBB22E
:102BC400013BDAB297F88F30B868FFF72FFF03465E
:102BD400002B3BD097F88E2097F88D1013469B005E
:102BE40013445B0007F1900213440B44783B1B78B9
:102BF400FF2B2BD197F88E3087F87C3097F88D30E7
:102C040087F87D30F96FD7F8800000F05FFF97F800
:102C14008E2097F88D103B7D18467B7D1C4603461D
:102C24009B0003445B0007F1900003442344783B7A
:102C34001B780133D8B213469B0013445B0007F1A1
:102C4400900213440B44783B02461A7097F88F3075
:102C5400013387F88F3097F88F30032B7FF67DAFE1
:102C6400D7F8800000F060FF0346002B3FF46BAF01
:102C74000023C7F88830012387F87C30022387F8C3
:102C84007D3095E0002387F887308CE097F87C301E
:102C940087F8863097F87D3087F8853097F8873045
:102CA400002B05D197F87D30013B87F885301CE077
:102CB40097F88730012B05D197F87C30013387F8DA
:102CC400863012E097F88730022B05D197F87D30D3
:102CD400013387F8853008E097F88730032B04D157
:102CE40097F87C30013B87F8863097F8862097F870
:102CF400851013469B0013445B0007F190021344B4
:102D04000B44783B1B78194697F87C301A4697F8A1
:102D14007D30184613469B0013445B0007F1900274
:102D240013440344783B1B78013B994236D197F80E
:102D3400873087F8843097F88430023387F88430FA
:102D440097F88430032B04D997F88430043B87F830
:102D54008430D7F888305A1CC7F888201A467B6814
:102D6400134497F884201A7097F87C301A4697F821
:102D74007D30194613469B0013445B0007F1900213
:102D840013440B44783BC8221A7097F8863087F8AE
:102D94007C3097F8853087F87D3009E097F88730E4
:102DA400013387F8873097F88730032B7FF66EAFAF
:102DB40097F87C203B7B9A427FF464AF97F87D20A0
:102DC4007B7B9A427FF45EAFD7F88830DBB2013B5D
:102DD400DBB218469437BD4690BD00BF80B485B0C1
:102DE40000AF78600023FB7307E0FB7B7A68134431
:102DF400FF221A70FB7B0133FB73FB7BC72BF4D9D7
:102E040000BF1437BD4680BC704700BF80B485B096
:102E140000AF78603960FF23FB733B681B685A1E60
:102E24003B681A603B681B68B3F1FF3F16D03B68F0
:102E34001B681A467B6813441B78FB733B681B684A
:102E44001A467B681344FF221A70FB7B0233FB7320
:102E5400FB7B032B02D9FB7B043BFB73FB7B1846F8
:102E64001437BD4680BC704780B485B000AFF860AD
:102E7400B9601346FB71BB681B68591CBA681160C2
:102E84001A46FB681344FA791A7000BF1437BD461A
:102E940080BC704780B582B000AF0346FB71FB79FC
:102EA400013BFB71FB7903F00103002B05D00122E8
:102EB40008211648FDF7F2FD04E00022082113481A
:102EC400FDF7ECFDFB7903F00203002B05D0012292
:102ED40010210E48FDF7E2FD04E0002210210B480A
:102EE400FDF7DCFDFB7903F00403002B05D0012280
:102EF40020210648FDF7D2FD04E0002220210348EA
:102F0400FDF7CCFD00BF0837BD4680BD000C014075
:102F140080B483B000AF0346FB71FB79002B02D170
:102F24000A4B1B780CE0FB79012B02D1084B1B7870
:102F340006E0FB79032B02D1064B1B7800E0FF234C
:102F440018460C37BD4680BC704700BF18470020A8
:102F54001C4700201A47002080B485B000AF786079
:102F64000023FB7314E00023BB730BE0FA7B1346CE
:102F74001B0113447A681A44BB7B1121D154BB7BD7
:102F84000133BB73BB7B102BF0D9FB7B0133FB7389
:102F9400FB7B102BE7D900237B7306E07B7B7A68ED
:102FA4000121D1547B7B01337B737B7B102BF5D9BF
:102FB40000233B7308E07B6803F588723B7B0121A7
:102FC400D1543B7B01333B733B7B102BF3D9002360
:102FD400FB720AE0FA7A13461B0113447A6813441D
:102FE40001221A70FB7A0133FB72FB7A102BF1D9A0
:102FF4000023BB720AE0BA7A13461B0113447A68B1
:10300400134401221A74BB7A0133BB72BB7A102BAE
:10301400F1D900BF1437BD4680BC704780B485B079
:1030240000AF03460A46FB711346BB710023FB73D2
:10303400BA79FB79D21A0B4B1340002B03DA013B0C
:1030440063F003030133FB7397F90F30002B02DAAB
:10305400FB7B0433FB73FB7B18461437BD4680BCF3
:10306400704700BF0300008080B483B000AF786075
:10307400084611461A460346FB700B46BB701346BE
:103084007B70FB78002B0BD1BA7813461B011344D9
:103094007A681A447B78023BD25C3B7C13403B74D5
:1030A400FB78012B0BD1BB785A1C13461B0113442C
:1030B4007A681A447B78D25C3B7C13403B74FB787F
:1030C400022B0BD1BA7813461B0113447A681A44B5
:1030D4007B780233D25C3B7C13403B74FB78032B3C
:1030E4000BD1BA7813461B011344113B7A681A4476
:1030F4007B78D25C3B7C13403B743B7C18460C379A
:10310400BD4680BC704700BF80B588B002AFF86090
:10311400B9601346FB710123FB753A7A787AF97921
:10312400FB7D00930346F868FFF79EFF0346FB759B
:10313400FB7D18461837BD4680BD00BF80B588B0FA
:1031440002AFF860B9601346FB711023FB753A7A3D
:10315400787AF979FB7D00930346F868FFF784FFDA
:103164000346FB75FB7D1B09DBB218461837BD46C9
:1031740080BD00BF80B483B000AF786008461146BC
:103184001A460346FB700B46BB7013467B70FB78F4
:10319400002B29D1BA7813461B0113447A68D0183E
:1031A4007B78591EBA7813461B0113447A681A4473
:1031B4007B78013BD25C3B7C1340DBB24354BA784E
:1031C40013461B0113447A68D0187B78991EBA7889
:1031D40013461B0113447A681A447B78023BD25C81
:1031E4003B7C1340DBB24354FB78012B29D1BB78E1
:1031F4005A1C13461B0113447A68D0187978BB789B
:103204005A1C13461B0113447A681A447B78D25C17
:103214003B7C1340DBB24354BA7813461B0113447E
:1032240022337A68D0187978BA7813461B0113448C
:1032340022337A681A447B78D25C3B7C1340DBB23D
:103244004354FB78022B29D1BA7813461B0113444B
:103254007A68D0187B78591CBA7813461B0113443A
:103264007A681A447B780133D25C3B7C1340DBB22E
:103274004354BA7813461B0113447A68D0187B78F8
:10328400991CBA7813461B0113447A681A447B7854
:103294000233D25C3B7C1340DBB24354FB78032BF8
:1032A40029D1BA7813461B011344113B7A68D0180C
:1032B4007978BA7813461B011344113B7A681A448F
:1032C4007B78D25C3B7C1340DBB24354BA78134620
:1032D4001B011344223B7A68D0187978BA781346D4
:1032E4001B011344223B7A681A447B78D25C3B7CF2
:1032F4001340DBB2435400BF0C37BD4680BC70475B
:1033040080B588B002AFF860B96011461A460B4622
:10331400FB711346BB710023FB75BB79002B02D0F4
:103324001123FB7501E01023FB753A7A787AF97959
:10333400FB7D00930346F868FFF71CFF00BF1837B6
:10334400BD4680BD80B588B002AFF860B960114653
:103354001A460B46FB711346BB710023FB75BB7900
:10336400002B02D01123FB7501E00123FB753A7A8F
:10337400787AF979FB7D00930346F868FFF7FAFE43
:1033840000BF1837BD4680BD80B483B000AF7860FD
:103394000B46FB707B79012B02D1FB78002B13D0F9
:1033A4007B790F2B02D1FB78022B0DD03B79012BBB
:1033B40002D1FB78032B07D03B790F2B02D1FB788A
:1033C400012B01D0012300E0002318460C37BD4631
:1033D40080BC704780B584B000AFF860B960134614
:1033E400FB71FA790023B968F868FFF7ABFF00BFF7
:1033F4001037BD4680BD00BF80B483B000AF786095
:103404000B46FB70FB78002B05D17B685B78023B95
:10341400DAB27B685A70FB78012B05D17B681B7884
:103424000233DAB27B681A70FB78022B05D17B6811
:103434005B780233DAB27B685A70FB78032B05D1D0
:103444007B681B78023BDAB27B681A70FB78FF2B2F
:1034540002D07B68FA789A7000BF0C37BD4680BCF6
:10346400704700BF80B586B004AF0023FB71002312
:10347400FB7111E0FB790C4A13444FF48072029201
:103484000122019200930123002278210748FDF7CD
:103494005DFCFB790133FB71FB791A2BEAD900BF80
:1034A4000837BD4680BD00BF08000020BC46002090
:1034B40080B586B004AF0346FB714FF4807302936A
:1034C40001230193FB1D009301230022782103486B
:1034D400FDF73CFC00BF0837BD4680BDBC4600205C
:1034E40080B586B004AF0346FB714FF4807302933A
:1034F40001230193FB1D00930123402278210348FB
:10350400FDF724FC00BF0837BD4680BDBC46002043
:1035140080B500AFC820FCF7F3FEFFF7A3FF00BFA0
:1035240080BD00BF80B582B000AF0023FB711BE0FB
:10353400FB79503BDBB21846FFF7BAFF0020FFF7D8
:10354400B7FF1020FFF7B4FF0023BB7105E0002094
:10355400FFF7C6FFBB790133BB7197F90630002B27
:10356400F5DAFB790133FB71FB79072BE0D900BF56
:103574000837BD4680BD00BF80B582B000AF0346AA
:103584000A46FB711346BB71BB79503BDBB218464C
:10359400FFF78EFFFB791B09DBB243F01003DBB2AC
:1035A4001846FFF785FFFB7903F00F03DBB21846DB
:1035B400FFF77EFF00BF0837BD4680BD90B585B0DC
:1035C40000AF0446084611461A462346FB710346DB
:1035D400BB710B467B7113463B710023BB73002305
:1035E400FB737B79203BBB7397F90730002B04DA1C
:1035F4000023FB71BB790233BB713B79102B33D1B0
:10360400BA79FB7911461846FFF7B6FF0023FB731E
:103614000BE0BB7B1A01FB7B1344234AD35C1846A3
:10362400FFF75EFFFB7B0133FB73FB7B072BF0D9BA
:10363400BB790133DAB2FB7911461846FFF79CFFD8
:103644000023FB730CE0BB7B1A01FB7B13440833A0
:10365400154AD35C1846FFF743FFFB7B0133FB732A
:10366400FB7B072BEFD91BE0BA79FB79114618468F
:10367400FFF782FF0023FB730FE0BA7BF97B0B4853
:1036840013465B0013445B0003440B441B78184649
:10369400FFF726FFFB7B0133FB73FB7B052BECD988
:1036A40000BF1437BD4690BD4C520008245000089A
:1036B40080B584B000AF3A601A460346FB710B46EE
:1036C400BB7113467B710023FB7316E0FB7B3A68E6
:1036D40013441A787B79B979F879FFF76FFFFB798E
:1036E4000833FB71FB79782B04D90023FB71BB7978
:1036F4000233BB71FB7B0133FB73FB7B3A681344DE
:103704001B78002BE2D100BF1037BD4680BD00BF3F
:1037140090B583B000AF0346FB710B46BB711346F3
:103724007B71FA79BB793549D2010A4413441B7879
:103734007A799A425ED0FB790233DAB2BB79DB083C
:10374400DBB219461046FFF717FF7B79012B1DD119
:10375400BB79DB08DAB21446FB791146FA792848BA
:10376400C90101440A44127851B2BA7902F007023D
:10377400012000FA02F252B20A4352B2D0B22049F6
:10378400E2010A44134402461A701EE0BB79DB08C6
:10379400DAB21446FB791146FA791948C901014491
:1037A4000A44127851B2BA7902F00702012000FAF1
:1037B40002F252B2D24352B20A4052B2D0B21049CB
:1037C400E2010A44134402461A70BB79DB08DBB2F7
:1037D4001A46FB790A49D2010A4413441B78184655
:1037E400FFF77EFEFA79BB790449D2010A441344F7
:1037F4007A791A7000BF0C37BD4690BDB40600201C
:10380400B402002080B584B000AF78600023FB735D
:1038140045E00023BB733CE0FA7B13461B011344D1
:103824007A681A44BB7BD35C03F00103002B03D0FA
:103834001E4B01221A7002E01C4B00221A70002356
:103844007B7320E000233B7317E0FB7B1A46520096
:103854001344DAB27B7B1344D8B2BB7B1A465200C2
:103864001344DAB23B7B1344D9B2104B1B781A468B
:10387400FFF74EFF3B7B01333B733B7B022BE4D9C9
:103884007B7B01337B737B7B022BDBD9BB7B0133DB
:10389400BB73BB7B102BBFD9FB7B0133FB73FB7B5F
:1038A400102BB6D900BF1037BD4680BDB4460020EA
:1038B40080B584B000AF78600023FB7323E000235D
:1038C400BB731AE03B791A4652001344DAB2FB7B0D
:1038D4001344DBB20133D8B27B791A465200134445
:1038E400DAB2BB7B1344DBB20133DBB201221946EB
:1038F400FFF70EFFBB7B0133BB73BB7B002BE1D017
:10390400FB7B0133FB73FB7B002BD8D0BB79002BF3
:1039140010D13B791A4652001344DBB20133D8B2BA
:103924007B791A4652001344DBB201221946FFF791
:10393400EFFE3BE0BB79012B12D13B791A465200D2
:103944001344DBB20233D8B27B791A4652001344D3
:10395400DBB20133DBB201221946FFF7D9FE25E0C1
:10396400BB79022B12D13B791A4652001344DBB2C5
:103974000133D8B27B791A4652001344DBB20233C6
:10398400DBB201221946FFF7C3FE0FE03B791A466A
:1039940052001344D8B27B791A4652001344DBB266
:1039A4000133DBB201221946FFF7B2FE00BF103724
:1039B400BD4680BD80B582B000AF0023FB710CE032
:1039C400FB79C3F10403D9B22F4B1B781A46462066
:1039D400FFF79EFEFB790133FB71FB79022BEFD9D4
:1039E4000023BB710FE0BB79C3F14503D8B2BB79A7
:1039F400C3F10403D9B2254B1B781A46FFF788FE9E
:103A0400BB790133BB71BB79022BECD900237B71E9
:103A14000CE07B79C3F14503D8B21D4B1B781A46E1
:103A24000521FFF775FE7B7901337B717B79022BCE
:103A3400EFD900233B710EE03B794733D8B23B7991
:103A4400C3F10403D9B2134B1B781A46FFF760FE87
:103A54003B7901333B713B79022BEDD90023FB7099
:103A64000BE0FB784733D8B20B4B1B781A46052181
:103A7400FFF74EFEFB780133FB70FB78022BF0D985
:103A840000BF0837BD4680BD1847002019470020F5
:103A94001A4700201B4700201C47002080B582B035
:103AA40000AF082001F0C6F903467B607B68002B59
:103AB40001D1002306E07B6800221A607B680022A3
:103AC4005A607B6818460837BD4680BD80B584B00F
:103AD40000AF78603980082001F0ACF90346FB6040
:103AE400FB68002B1CD0FB683A881A80FB68002214
:103AF4005A607B681B68002B02D17B68FA681A60E5
:103B04007B685B68002B03D17B68FA685A6008E025
:103B14007B685B68FA685A607B68FA685A6000E000
:103B240000BF1037BD4680BD80B483B000AF78605D
:103B34007B681B68002B0CBF01230023DBB21846F3
:103B44000C37BD4680BC704780B586B000AF786046
:103B54007B681B687B617B681A687B685B689A4238
:103B640006D17B6800221A607B6800225A6004E058
:103B74007B681B685A687B681A607B691B88BB81F9
:103B8400786901F05FF9BB893B8200233A7C62F3D8
:103B940007037A7C62F30F2318461837BD4680BDAD
:103BA40080B582B000AF0346FB71FB7903F00103DB
:103BB400002B06D001224FF400714348FCF76EFF3E
:103BC40005E000224FF400713F48FCF767FFFB79E2
:103BD40003F00203002B06D001224FF480713A480F
:103BE400FCF75CFF05E000224FF480713648FCF7D7
:103BF40055FFFB7903F00403002B05D0012280213B
:103C04003148FCF74BFF04E0002280212E48FCF7EA
:103C140045FFFB7903F00803002B05D00122402166
:103C24002948FCF73BFF04E0002240212648FCF72A
:103C340035FFFB7903F01003002B06D001224FF46B
:103C440000412248FCF72AFF05E000224FF400411E
:103C54001E48FCF723FFFB7903F02003002B06D05A
:103C640001224FF480411948FCF718FF05E00022B7
:103C74004FF480411548FCF711FFFB7903F0400332
:103C8400002B06D001224FF400511048FCF706FF28
:103C940005E000224FF400510C48FCF7FFFE97F9B1
:103CA4000730002B06DA01224FF480510748FCF755
:103CB400F5FE05E000224FF480510448FCF7EEFEC7
:103CC40000BF0837BD4680BD00100140000C014014
:103CD40080B582B000AF0346FB71174B00221A7007
:103CE40021E0164B00221A7013E0144B1B781A467D
:103CF400134B9B5C63F00F03DBB21846FFF750FFD6
:103D04000120FCF7FDFA0D4B1B780133DAB20B4BA3
:103D14001A700A4B1B78072BE7D9074B1B78013322
:103D2400DAB2054B1A70044B1B78FA799A42D8D848
:103D340000BF0837BD4680BDB6460020B54600200A
:103D44002400002080B582B000AF0346FB71174BFE
:103D540000221A7021E0164B00221A7013E0144B53
:103D64001B781A46134B9B5C43F00F03DBB21846D7
:103D7400FFF716FF0120FCF7C3FA0D4B1B78013344
:103D8400DAB20B4B1A700A4B1B78072BE7D9074B97
:103D94001B780133DAB2054B1A70044B1B78FA799D
:103DA4009A42D8D800BF0837BD4680BDB646002029
:103DB400B54600202C00002080B500AF154B002232
:103DC4001A8008E00120FFF783FF124B1B880133A0
:103DD4009AB2104B1A80104B1B78002B0DD00F4B4E
:103DE4001B78002BEED008E00120FFF7ABFF094B56
:103DF4001B8801339AB2074B1A80094B1B78002B9E
:103E040003D0064B1B78002BEED0024B1B88DBB291
:103E1400184680BDB84600201947002018470020E6
:103E24001B47002080B582B000AF0346FB711B4BDB
:103E340000221A7028E01A4B00221A7012E0184B64
:103E44001B781A46174B9B5C1846FFF7A9FE012006
:103E5400FCF756FAFFF7B0FF114B1B780133DAB2C7
:103E64000F4B1A700E4B1B78072BE8D90E4B1B888F
:103E74005B089BB2DBB2FA79D31AFB71074B1B7850
:103E84000133DAB2054B1A70044B1B78FA799A4263
:103E9400D1D800BF0837BD4680BD00BFB64600205C
:103EA400B546002034000020B846002080B582B01A
:103EB40000AF0346FB71164B00221A701EE0154B2F
:103EC40000221A7010E0134B1B781A46124B9B5CAD
:103ED4001846FFF765FE0120FCF712FA0D4B1B781C
:103EE4000133DAB20B4B1A700A4B1B78072BEAD951
:103EF400074B1B780133DAB2054B1A70044B1B785D
:103F0400FA799A42DBD800BF0837BD4680BD00BFAE
:103F1400B6460020B54600202C00002080B582B0B3
:103F240000AF0346FB71164B00221A701EE0154BBE
:103F340000221A7010E0134B1B781A46124B9B5C3C
:103F44001846FFF72DFE0120FCF7DAF90D4B1B781C
:103F54000133DAB20B4B1A700A4B1B78072BEAD9E0
:103F6400074B1B780133DAB2054B1A70044B1B78EC
:103F7400FA799A42DBD800BF0837BD4680BD00BF3E
:103F8400B6460020B54600202400002080B582B04B
:103F940000AF0346FB71164B00221A701EE0154B4E
:103FA40000221A7010E0134B1B781A46124B9B5CCC
:103FB4001846FFF7F5FD0120FCF7A2F90D4B1B781D
:103FC4000133DAB20B4B1A700A4B1B78072BEAD970
:103FD400074B1B780133DAB2054B1A70044B1B787C
:103FE400FA799A42DBD800BF0837BD4680BD00BFCE
:103FF400B6460020B54600202400002080B588B0D5
:1040040000AF07F1100300221A605A609A60DA6068
:10401400454A454B9B6943F020039361424B9B699E
:1040240003F02003FB60FB683F4A3F4B9B6943F06E
:10403400100393613C4B9B6903F01003BB60BB68A6
:10404400394A394B9B6943F004039361364B9B69AE
:1040540003F004037B607B68334A334B9B6943F072
:1040640008039361304B9B6903F008033B603B6892
:1040740000224FF238012D48FCF710FD00224FF4C6
:1040840070712B48FCF70AFD002204212948FCF733
:1040940005FD41F20F033B6100237B610023BB61FB
:1040A40007F1100319462248FCF776FB4FF2380358
:1040B4003B6101237B610023BB610223FB6107F1A8
:1040C400100319461948FCF767FB4FF470733B6102
:1040D40001237B610023BB610223FB6107F1100311
:1040E40019461348FCF758FB4FF400633B61002367
:1040F4007B610023BB6107F1100319460E48FCF7EE
:104104004BFB04233B6101237B610023BB6102233E
:10411400FB6107F1100319460648FCF73DFB00BF9D
:104124002037BD4680BD00BF00100240000C014096
:1041340000100140001401400008014080B500AFA8
:10414400124B134A1A60114B124A5A600F4B002249
:104154009A600E4B0022DA600C4B4FF480421A61D5
:104164000A4B00225A61094B00229A61074B002234
:10417400DA61064B00221A620448FCF7BFFC0346CE
:10418400002B01D000F080FB00BF80BDBC460020A6
:1041940000580040A086010080B588B000AF786068
:1041A40007F1100300221A605A609A60DA607B6893
:1041B4001B68164A934224D1154A154B9B6943F058
:1041C40008039361124B9B6903F00803FB60FB68CF
:1041D4004FF440633B6112237B610323FB6107F1CE
:1041E400100319460B48FCF7D7FA094A084BDB6958
:1041F40043F48003D361064BDB6903F48003BB60A3
:10420400BB6800BF2037BD4680BD00BF00580040DA
:1042140000100240000C014080B582B000AF78600D
:10422400084611461A460346FB700B46BB701346FC
:104234007B707B68FA781A707B68BA785A707B68EE
:104244007A789A700948FEF787FE0948FEF7C6FD9A
:10425400FA78B978054813461B01134403440B4408
:1042640000221A7000BF0837BD4680BD3C00002004
:104274006001002080B584B000AF78600B46FB700D
:10428400BB79FA7811461846FEF7C8FE0346BB739D
:10429400BB7B1846FEF73CFE0346FB73FB7BFF2B00
:1042A40008D1FB781A4679680D48FEF72DFF0346BE
:1042B400FB7310E0FB7819467868FFF765F803464E
:1042C400002B06D0FB7BFA7879680548FFF718F8CD
:1042D40001E00123FB73FB7B18461037BD4680BD0C
:1042E4003C00002080B582B000AF78600B46FB70C4
:1042F400FB781A4679680448FEF720FF03461846FF
:104304000837BD4680BD00BF3C00002080B586B0A4
:1043140000AF7860FF23FB7300237B6108E07B69B7
:10432400DBB219467868FFF7A5FF7B6901337B612F
:104334007B69032BF3DD00233B6118E03B69DBB2AF
:1043440019467868FFF796FF0346002B0CD13B69AA
:10435400DBB219467868FFF7C5FF0346002B03D08C
:104364003B69FB73FB7B06E03B6901333B613B69C3
:10437400032BE3DDFB7B18461837BD4680BD00BF29
:1043840080B584B000AF78600B46FB70FB78FF2BE0
:104394002CD0BB79FA7811461846FEF73FFE034647
:1043A400FB73FB7B002B03D16820FFF73BFD1EE072
:1043B400FB7B012B06D13020FFF7B0FD6820FFF70F
:1043C40031FD14E0FB7B022B06D16020FFF7DEFDFC
:1043D4006820FFF727FD0AE0FB7B032B07D1302081
:1043E400FFF764FD6820FFF71DFD00E000BF1037F4
:1043F400BD4680BD80B500AF012204211C48FCF7F6
:104404004DFB012205214620FFF782F901220621F6
:104414004720FFF77DF9012206214520FFF778F9AF
:10442400012206214620FFF773F94FF40061114879
:10443400FCF71CFB0346002BF7D10DE04FF47A7018
:10444400FBF75EFF4FF400610A48FCF70FFB0346DD
:10445400002B01D1012308E04FF400610548FCF76B
:1044640005FB0346002BE9D00023184680BD00BF9E
:10447400001401400008014080B582B000AF002361
:10448400FB710023BB7100237B7101233B71FBF79C
:10449400D5FE00F0CBF8FFF7B1FD00F0E3FAFFF72B
:1044A4004DFE00F08DFB00F0B5FB00F011FB012286
:1044B40051495248FDF7D2FE012251495148FDF7B6
:1044C400CDFE5148FDF794FB5048FDF791FBFFF7F3
:1044D4001FF83846012301220121FFF79DFEFFF753
:1044E40021F84B48FFF78EF93868FFF7E1F9FFF739
:1044F40081FF03463B713B79002B0FD00C23454AC7
:1045040005214620FFF7D4F800BF4FF4006142486C
:10451400FCF7ACFA0346002BF7D005E00C233F4A26
:1045240005214620FFF7C4F83B79002B08D000BFD3
:104534004FF400613848FCF799FA0346002BF7D191
:10454400FB79002B07D13868FFF7E0FE0346BB7107
:1045540000237B7115E032493248FEF727FA0346FF
:10456400BB71BB79FF2B0CD12748FDF765FB2748AE
:10457400FDF762FB0C232C4A05214620FFF798F82F
:10458400FEE7BB79FF2B15D125492648FEF73EFCF3
:104594000346BB7101237B71BB79FF2B0AD1214AEE
:1045A4001B493868FEF79AFA03461A461C4B1A60F0
:1045B4000123FB71BB7919463868FFF7E1FE7B796B
:1045C400002B05D1BB791A4615491648FEF74CFC59
:1045D400BB791A4639680E48FEF7FCFEBA793B46A9
:1045E40011461846FEF708FF0948FFF70BF938682B
:1045F400FFF75EF998E700BF10470020A4470020AA
:1046040011470020E447002024470020644700208D
:104614003C0000200C500008000801401450000821
:1046240014470020600100201C50000880B590B0A1
:1046340000AF07F1180328220021184600F00AFCF5
:104644003B1D00221A605A609A60DA601A610123E5
:10465400BB614FF48033FB6100233B620123BB62E7
:1046640002237B634FF48033BB634FF4E013FB639B
:1046740007F118031846FCF773FE0346002B01D01C
:1046840000F002F90F237B600223BB600023FB6070
:104694004FF480633B6100237B613B1D022118467C
:1046A400FDF7DCF80346002B01D000F0EDF800BF65
:1046B4004037BD4680BD00BF80B582B000AF786092
:1046C4007B681A684A4B1B689A4201D1FFF772F95A
:1046D4007B681A68474B1B689A4240F08480464BBB
:1046E4001B78002B05D1454B1B781846FEF7D2FBEF
:1046F4005EE0424B1B78012B0ED101214048FCF7B0
:10470400B5F90346002B03D03E4B00221A704FE04C
:104714003C4B01221A704BE0384B1B78022B0ED114
:1047240002213748FCF7A2F90346002B03D0364B8D
:1047340000221A703CE0344B01221A7038E02F4BEF
:104744001B78032B0ED104212D48FCF78FF9034667
:10475400002B03D02D4B00221A7029E02B4B012291
:104764001A7025E0254B1B78042B0ED10821244810
:10477400FCF77CF90346002B03D0254B00221A706A
:1047840016E0234B01221A7012E01C4B1B78052BF8
:104794000ED14FF480511A48FCF768F90346002BF8
:1047A40003D01C4B00221A7002E01A4B01221A702B
:1047B400114B1B78002B05D0104B1B780133DAB258
:1047C4000E4B1A700D4B1B78052B02D90B4B002294
:1047D4001A70094B1B78002B0CBF01230023DBB29A
:1047E4001A46054B1A7000BF0837BD4680BD00BF8E
:1047F40024470020644700201D4700202802002091
:104804000010014018470020194700201A470020D3
:104814001B4700201C47002080B582B000AF7860A1
:104824007B68144A93420ED104211348FCF74EF9D5
:104834006423012211490F48FDF778FC01220F4936
:104844000C48FDF70BFD7B680D4A93420ED1042101
:104854000948FCF73BF9642301220A490848FDF79B
:1048640065FC012207490648FDF7F8FC00BF08373C
:10487400BD4680BDE44700200014014011470020DC
:10488400A44700201047002080B400AF00BFBD46FD
:1048940080BC704780B485B000AF154A144B9B6947
:1048A40043F001039361124B9B6903F00103BB6066
:1048B400BB680F4A0E4BDB6943F08053D3610C4B4A
:1048C400DB6903F080537B607B680A4B5B68FB60A9
:1048D400FB6823F0E063FB60FB6843F00073FB605C
:1048E400044AFB68536000BF1437BD4680BC704760
:1048F400001002400000014080B400AF00BFBD467C
:1049040080BC704780B400AFFEE700BF80B400AF46
:10491400FEE700BF80B400AFFEE700BF80B400AF85
:10492400FEE700BF80B400AF00BFBD4680BC704747
:1049340080B400AF00BFBD4680BC704780B400AFF8
:1049440000BFBD4680BC704780B500AFFBF7BCFC20
:1049540000BF80BD80B500AF0248FDF7D3FC00BFA7
:1049640080BD00BFA447002080B500AF0248FDF71A
:10497400C9FC00BF80BD00BFE447002080B500AF84
:104984000248FDF783F900BF80BD00BF2447002023
:1049940080B500AF0248FDF779F900BF80BD00BFC4
:1049A4006447002080B584B000AF7860114B1B6869
:1049B400002B02D10F4B104A1A600E4B1B68FB6090
:1049C4000C4B1A687B6813446A46934207D900F07B
:1049D40005FA02460C2313604FF0FF3306E0054B43
:1049E4001A687B681344034A1360FB68184610373F
:1049F400BD4680BD204700203048002080B400AF71
:104A0400154A154B1B6843F0010313601249124BFE
:104A14005A68124B13404B600F4A0F4B1B6823F02C
:104A2400847323F4803313600B4A0B4B1B6823F409
:104A340080231360084A084B5B6823F4FE03536029
:104A4400054B4FF41F029A60054B4FF000629A60C9
:104A540000BFBD4680BC7047001002400000FFF854
:104A640000ED00E080B582B000AF3B4600221A6042
:104A74005A60154B154A1A60134B41F61F425A608F
:104A8400114B00229A60104B40F2E732DA600E4B71
:104A940000229A610C48FDF77FF80346002B01D0F1
:104AA400FFF7F2FE00233B6000237B603B46194680
:104AB4000548FDF795FA0346002B01D0FFF7E4FE05
:104AC40000BF0837BD4680BD2447002000100040C9
:104AD40080B582B000AF3B4600221A605A60154B85
:104AE400154A1A60134B41F61F425A60114B0022BB
:104AF4009A60104B6322DA600E4B00229A610D48D3
:104B0400FDF74AF80346002B01D0FFF7BDFE002352
:104B14003B6000237B603B4619460648FDF760FA7C
:104B24000346002B01D0FFF7AFFE00BF0837BD4698
:104B340080BD00BF644700200014004080B584B0ED
:104B440000AF78607B681B681A4A934214D11A4AF2
:104B5400194BDB6943F01003D361174BDB6903F096
:104B64001003FB60FB68002202213620FBF7C0FC27
:104B74003620FBF7D9FC18E07B681B680F4A934288
:104B840013D10D4A0C4BDB6943F02003D3610A4B6C
:104B9400DB6903F02003BB60BB68002201213720DE
:104BA400FBF7A6FC3720FBF7BFFC00BF1037BD4660
:104BB40080BD00BF001000400010024000140040FF
:104BC40080B500AF114B124A1A60104B4FF4E1321A
:104BD4005A600E4B00229A600C4B0022DA600B4B99
:104BE40000221A61094B0C225A61084B00229A6177
:104BF400064B0022DA610548FDF74AFA0346002B0A
:104C040001D0FFF741FE00BF80BD00BFA4470020D4
:104C14000038014080B500AF114B124A1A60104BA6
:104C24004FF416525A600E4B00229A600C4B00222D
:104C3400DA600B4B00221A61094B0C225A61084BB3
:104C440000229A61064B0022DA610548FDF720FA3A
:104C54000346002B01D0FFF717FE00BF80BD00BF45
:104C6400E44700200044004080B58AB000AF78607B
:104C740007F1180300221A605A609A60DA607B68B0
:104C84001B683F4A93423AD13E4A3E4B9B6943F4E8
:104C9400804393613B4B9B6903F480437B617B6955
:104CA400384A384B9B6943F004039361354B9B6945
:104CB40003F004033B613B694FF40073BB610223BF
:104CC400FB6103237B6207F1180319462E48FBF7A7
:104CD40063FD4FF48063BB610023FB6100233B62EF
:104CE40007F1180319462848FBF756FD0022032153
:104CF4002520FBF7FDFB2520FBF716FC3CE07B6839
:104D04001B68224A934237D11E4A1E4BDB6943F487
:104D14000033D3611B4BDB6903F40033FB60FB6896
:104D2400184A184B9B6943F004039361154B9B6924
:104D340003F00403BB60BB680423BB610223FB6173
:104D440003237B6207F1180319460F48FBF724FD80
:104D54000823BB610023FB6100233B6207F11803B6
:104D640019460948FBF718FD002203212620FBF70A
:104D7400BFFB2620FBF7D8FB00BF2837BD4680BD0C
:104D84000038014000100240000801400044004087
:104D9400002103E00B4B5B58435004310A480B4B92
:104DA40042189A42F6D30A4A02E0002342F8043B2E
:104DB400084B9A42F9D3FFF721FE00F015F8FFF7EC
:104DC4005BFB7047AC5800080000002094020020F0
:104DD4009402002030480020FEE70000014B1868D0
:104DE400704700BF900200200E4B70B51E460E4C5B
:104DF4000025E41AA410A54204D056F8253098479B
:104E04000135F8E700F0EAF8084B094C1E46E41AAD
:104E1400A4100025A54204D056F825309847013542
:104E2400F8E770BDA4580008A4580008A458000866
:104E3400A8580008024B0146186800F05FB800BF8C
:104E440090020020024B0146186800F00BB800BF26
:104E54009002002003460244934202D003F8011B4F
:104E6400FAE7704738B50546002944D051F8043CA8
:104E74000C1F002BB8BFE41800F0AEF81E4A1368EC
:104E8400114613B96360146030E0A3420DD922685F
:104E9400A018834201BF18685B681218226063601F
:104EA4000C6023E0A24203D813465A68002AF9D1C1
:104EB40018681918A1420BD121680144581882427C
:104EC400196013D110685268014419605A600DE0EA
:104ED40002D90C232B6009E021686018824201BFCB
:104EE400106852680918216062605C602846BDE859
:104EF400384000F072B838BD2848002070B5CD1C89
:104F040025F0030508350C2D38BF0C25002D064669
:104F140001DBA94202D90C23336046E000F05CF8BF
:104F2400234B1C681A462146A1B10B685B1B0ED4A7
:104F34000B2B03D90B60CC18CD501EE08C420BBF59
:104F440063684B681360636018BF0C4615E00C4639
:104F54004968E9E7174C23681BB9304600F02CF880
:104F640020602946304600F027F8431C18D0C41CA2
:104F740024F00304A0420DD12560304600F02DF842
:104F840004F10B00231D20F00700C31A0ED05A426F
:104F9400E25070BD211A304600F00EF80130EBD11A
:104FA4000C233360304600F018F8002070BD00BFB9
:104FB400284800202448002038B5064C0023054624
:104FC40008462360FFF7EEFC431C02D1236803B1BB
:104FD4002B6038BD2C48002070477047F8B500BFDF
:104FE400F8BC08BC9E467047F8B500BFF8BC08BCC6
:044FF4009E4670471E
:104FF80002030405060708090A0B0C0D0E0F101012
:1050080001020000446562756720200052756E2E0B
:105018002E2E200046494E4953482000000000002B
:1050280000000000002F0000000007000700001427
:105038007F147F1400242A7F2A1200626408132335
:1050480000364955225000000503000000001C22CC
:105058004100000041221C000014083E081400080A
:10506800083E0808000000A06000000808080808BA
:10507800000060600000002010080402003E514952
:10508800453E0000427F40000042615149460021F0
:1050980041454B31001814127F100027454545390A
:1050A800003C4A4949300001710905030036494965
:1050B800493600064949291E00003636000000001E
:1050C8005636000000081422410000141414141469
:1050D8000000412214080002015109060032495912
:1050E800513E007C1211127C007F49494936003E2E
:1050F80041414122007F4141221C007F49494941E9
:10510800007F09090901003E4149497A007F0808E2
:10511800087F0000417F4100002040413F01007F9F
:1051280008142241007F40404040007F020C027F6B
:10513800007F0408107F003E4141413E007F09097D
:105148000906003E4151215E007F091929460046A3
:10515800494949310001017F0101003F4040403F7A
:10516800001F2040201F003F4038403F00631408C4
:10517800146300070870080700615149454300009F
:105188007F41410000552A552A55000041417F00C2
:1051980000040201020400404040404000000102B7
:1051A8000400002054545478007F484444380038A0
:1051B8004444442000384444487F00385454541828
:1051C80000087E0901020018A4A4A47C007F08043A
:1051D80004780000447D4000004080847D00007F0A
:1051E800102844000000417F4000007C0418047827
:1051F800007C0804047800384444443800FC242423
:1052080024180018242418FC007C0804040800480A
:105218005454542000043F444020003C4040207C2B
:10522800001C2040201C003C4030403C004428101A
:105238002844001CA0A0A07C004464544C441414CE
:105248001414141400000000000000000000000006
:1052580000000000000000F800000000000000331B
:105268003000000000100C06100C060000000000C2
:105278000000000040C07840C0784000043F0404AB
:105288003F040400007088FC08300000001820FF6C
:10529800211E0000F008F000E018000000211C03A7
:1052A8001E211E0000F00888700000001E21232423
:1052B8001927211010160E00000000000000000041
:1052C80000000000000000E01804020000000007D1
:1052D8001820400000020418E000000000402018D8
:1052E80007000000404080F0804040000202010FAB
:1052F80001020200000000F0000000000101011F8F
:1053080001010100000000000000000080B07000F2
:105318000000000000000000000000000001010182
:105328000101010100000000000000000030300011
:1053380000000000000000008060180400601806EB
:105348000100000000E010080810E000000F102025
:1053580020100F00001010F8000000000020203F6F
:1053680020200000007008080888700000302824F9
:10537800222130000030088888483000001820209A
:1053880020110E000000C02010F8000000070424BF
:10539800243F240000F80888880808000019212004
:1053A80020110E0000E0108888180000000F11205E
:1053B80020110E0000380808C83808000000003F17
:1053C800000000000070880808887000001C222176
:1053D80021221C0000E010080810E0000000312223
:1053E80022110F00000000C0C000000000000030C3
:1053F8003000000000000080000000000000806015
:105408000000000000008040201008000001020495
:10541800081020004040404040404000040404047C
:105428000404040000081020408000000020100838
:1054380004020100007048080808F000000000306D
:1054480036010000C030C828E810E00007182724FB
:1054580023140B000000C038E0000000203C2302A9
:105468000227382008F8888888700000203F20200C
:1054780020110E00C030080808083800071820203E
:105488002010080008F808080810E000203F202035
:1054980020100F0008F88888E8081000203F202016
:1054A8002320180008F88888E8081000203F20000A
:1054B80003000000C0300808083800000718202042
:1054C800221E020008F808000008F808203F210101
:1054D80001213F20000808F8080800000020203FAC
:1054E8002020000000000808F8080800C08080801C
:1054F8007F00000008F888C028180800203F200115
:105508002638200008F8080000000000203F20206E
:105518002020300008F8F800F8F80800203F003F85
:10552800003F200008F830C00008F808203F20009D
:1055380007183F00E01008080810E0000F102020AE
:1055480020100F0008F808080808F000203F210183
:1055580001010000E01008080810E0000F182424DA
:1055680038504F0008F8888888887000203F20004D
:10557800030C302000708808080838000038202103
:1055880021221C00180808F8080818000000203F0D
:105598002000000008F808000008F808001F202074
:1055A80020201F000878880000C838080000073845
:1055B8000E010000F80800F80008F800033C070096
:1055C800073C0300081868808068180820302C03FE
:1055D800032C30200838C800C83808000000203FD5
:1055E8002000000010080808C838080020382621C4
:1055F80020201800000000FE020202000000007FC8
:1056080040404000000C30C00000000000000001D5
:105618000638C00000020202FE00000000404040C0
:105628007F000000000004020202040000000000E5
:105638000000000000000000000000008080808062
:10564800808080800002020400000000000000004A
:1056580000000000000080808080000000192422E3
:1056680022223F2008F8008080000000003F11201F
:1056780020110E000000008080800000000E112024
:1056880020201100000000808088F800000E112002
:1056980020103F200000808080800000001F222210
:1056A80022221300008080F0888888180020203F7C
:1056B800202000000000808080808000006B94948F
:1056C8009493600008F8008080800000203F21004B
:1056D80000203F2000809898000000000020203F14
:1056E80020200000000000809898000000C0808002
:1056F800807F000008F8000080808000203F24029E
:105708002D302000000808F8000000000020203F8D
:10571800202000008080808080808000203F200042
:105728003F20003F8080008080800000203F2100D3
:1057380000203F200000808080800000001F202083
:1057480020201F00808000808000000080FFA120B2
:1057580020110E000000008080808000000E1120C3
:1057680020A0FF80808080008080800020203F2152
:105778002000010000008080808080000033242405
:1057880024241900008080E0808000000000001FB1
:10579800202000008080000000808000001F202062
:1057A80020103F20808080000080808000010E3023
:1057B8000806010080800080008080800F300C0384
:1057C8000C300F0000808000808080000020312E87
:1057D8000E312000808080000080808080818E7063
:1057E8001806010000808080808080000021302C15
:1057F8002221300000000000807C0202000000002E
:10580800003F40400002027C800000000040403F12
:105818000000000000000000FF0000000000000081
:10582800FF00000000000000000000000102030467
:105838000607080900000000010203040000000038
:105848000000000000000000000000000000000050
:105858000000000000000000000000000000000040
:105868000000000000000000000000000000000030
:105878000000000000000000000000000000000020
:105888000000000000000000000000000000000010
:0C58980000000000000000000000000004
:0458A40009020008ED
:0458A800E50100080E
:1058AC001000000001000000AE001040B081FFA10C
:1058BC00A6A83FC8D300D580D805D9F1DA12D830C4
:1058CC008D14AF001133226644CC8899119988CC81
:1058DC0044662233119382C6446C283911000000AF
:1058EC0000000000000000000000000000000000AC
:1058FC00000000000000000000000000000000009C
:10590C00000000000000000000000000000000008B
:10591C00000000000000000000000000000000007B
:10592C00000000000000000000000000000000006B
:10593C00000000000000000000000000000000005B
:10594C00000000000000000000000000000000004B
:10595C00000000000000000000000000000000003B
:10596C00000000000000000000000000000000002B
:10597C00000000000000000000000000000000001B
:10598C00000000000000000000000000000000000B
:10599C0000000000000000000000000000000000FB
:1059AC0000000000000000000000000000000000EB
:1059BC0000000000000000000000000000000000DB
:1059CC0000000000000000000000000000000000CB
:1059DC0000000000000000000000000000000000BB
:1059EC0000000000000000000000000000000000AB
:1059FC00000000000000000000000000000000009B
:105A0C00FF0000000000000000000000000000008B
:105A1C00000000000000000000000000000000007A
:105A2C00000000000000000000000000000000006A
:105A3C00000000000000000000000000000000005A
:105A4C00000000000000000000000000000000004A
:105A5C00000000000000000000000000000000003A
:105A6C00000000000000000000000000000000002A
:105A7C00000000000000000000000000000000001A
:105A8C00000000000000000000000000000000000A
:105A9C0000000000000000000000000000000000FA
:105AAC0000000000000000000000000000000000EA
:105ABC0000000000000000000000000000000000DA
