:020000040800F2
:1000000000C00020A15200080D4D0008194D000845
:10001000214D0008294D0008314D00080000000066
:10002000000000000000000000000000394D000842
:10003000454D000800000000514D00085D4D0008CE
:10004000E9520008E9520008E9520008E9520008A4
:10005000E9520008E9520008E9520008E952000894
:10006000E9520008E9520008E9520008E952000884
:10007000E9520008E9520008E9520008E952000874
:10008000E9520008E9520008E9520008E952000864
:10009000E9520008E9520008E9520008E952000854
:1000A000E9520008E9520008E9520008E952000844
:1000B000E9520008E9520008E9520008E952000834
:1000C000E9520008E9520008E9520008E952000824
:1000D000E9520008694D00087D4D0008E95200080A
:1000E000E9520008E9520008E9520008E952000804
:1000F000E9520008E9520008E9520008E9520008F4
:10010000E9520008E9520008E9520008E9520008E3
:10011000E9520008E9520008914D0008A54D000879
:10012000E9520008E9520008E9520008E9520008C3
:1001300000000000000000000000000000000000BF
:1001400000000000000000000000000000000000AF
:10015000000000000000000000000000000000009F
:10016000000000000000000000000000000000008F
:10017000000000000000000000000000000000007F
:10018000000000000000000000000000000000006F
:10019000000000000000000000000000000000005F
:1001A000000000000000000000000000000000004F
:1001B000000000000000000000000000000000003F
:1001C000000000000000000000000000000000002F
:1001D000000000000000000000000000000000001F
:0401E0005FF8E0F1F3
:1001E40010B5054C237833B9044B13B10448AFF36D
:1001F40000800123237010BD940200200000000041
:100204001C620008084B10B51BB108490848AFF33D
:1002140000800848036803B910BD074B002BFBD0CE
:10022400BDE81040184700BF0000000098020020FD
:100234001C620008940200200000000080B500AF9A
:10024400084A084B1B6843F010031360032000F0B6
:1002540043F9002000F008F804F024FD00231846B8
:1002640080BD00BF0020024080B582B000AF78603E
:10027400124B1A68124B1B7819464FF47A73B3FB6E
:10028400F1F3B2FBF3F3184600F05CF90346002BDC
:1002940001D001230EE07B680F2B0AD80022796875
:1002A4004FF0FF3000F024F9064A7B681360002306
:1002B40000E0012318460837BD4680BD2C0200200B
:1002C400040000200000002080B400AF054B1B7820
:1002D4001A46054B1B681344034A136000BFBD460E
:1002E40080BC704704000020B002002080B400AF3E
:1002F400024B1B681846BD4680BC7047B002002004
:1003040080B584B000AF7860FFF7F0FFB8607B6819
:10031400FB60FB68B3F1FF3F05D0094B1B781A461D
:10032400FB681344FB6000BFFFF7E0FF0246BB68B5
:10033400D21AFB689A42F7D300BF1037BD4680BD7E
:100344000400002080B485B000AF78607B6803F0BF
:100354000703FB600C4BDB68BB60BA684FF6FF0316
:100364001340BB60FB681A02BB68134343F0BF63CE
:1003740043F40033BB60044ABB68D36000BF143746
:10038400BD4680BC704700BF00ED00E080B400AF04
:10039400044BDB6803F4E0631B0A1846BD4680BCCB
:1003A400704700BF00ED00E080B483B000AF0346A7
:1003B400FB7197F90730002B0BDB084997F90730DD
:1003C4005B09FA7902F01F02012000FA02F241F8F7
:1003D400232000BF0C37BD4680BC704700E100E01D
:1003E40080B483B000AF03463960FB7197F90730DE
:1003F400002B0ADB0D4997F907303A68D2B2120193
:10040400D2B20B4483F800230AE00949FB7903F0D4
:100414000F03043B3A68D2B21201D2B20B441A76EB
:1004240000BF0C37BD4680BC704700BF00E100E050
:1004340000ED00E080B489B000AFF860B9607A6084
:10044400FB6803F00703FB61FB69C3F10703042B9B
:1004540028BF0423BB61FB690433062B02D9FB6963
:10046400033B00E000237B610122BB6902FA03F332
:100474005A1EBB681A407B699A4001217B6901FAC4
:1004840003F3591E7B680B40134318462437BD46BB
:1004940080BC704780B582B000AF78607B68013B58
:1004A400B3F1807F01D301230FE00A4A7B68013B4B
:1004B40053600F214FF0FF30FFF792FF054B0022EE
:1004C4009A60044B07221A60002318460837BD4679
:1004D40080BD00BF10E000E080B582B000AF78605E
:1004E4007868FFF72FFF00BF0837BD4680BD00BF07
:1004F40080B586B000AF0346B9607A60FB73002311
:100504007B61FFF743FF78617A68B9687869FFF720
:1005140091FF024697F90F3011461846FFF760FF26
:1005240000BF1837BD4680BD80B582B000AF03461A
:10053400FB7197F907301846FFF736FF00BF0837FD
:10054400BD4680BD80B582B000AF78607868FFF7A3
:10055400A1FF034618460837BD4680BD80B584B068
:1005640000AF78600023FB737B6893F82130022B83
:1005740005D07B6804229A630123FB73ECE07B685B
:100584001B687A681268126822F00E021A607B688F
:100594001B687A681268126822F001021A607B688C
:1005A4001B681A466F4B9A4263D96F4A7B681B6873
:1005B40019466E4B994259D07B681B6819466C4B9F
:1005C400994251D07B681B6819466A4B994248D0BE
:1005D4007B681B681946684B99423FD07B681B684F
:1005E4001946664B994236D07B681B681946644BA2
:1005F40099422DD07B681B6819465A4B994224D0E6
:100604007B681B6819465F4B99421CD07B681B684A
:1006140019465D4B994214D07B681B6819465B4BA5
:1006240099420BD07B681B681946594B994202D1F9
:100634004FF480531BE04FF4803318E04FF4807381
:1006440015E0102313E0012311E04FF080730EE056
:100654004FF480130BE04FF4803308E04FF48053E1
:1006640005E04FF4807302E0102300E0012353609F
:1006740062E0484A7B681B6819463C4B994259D052
:100684007B681B6819463A4B994251D07B681B68BA
:100694001946384B994248D07B681B681946364B3B
:1006A40099423FD07B681B681946344B994236D037
:1006B4007B681B681946324B99422DD07B681B68B6
:1006C4001946284B994224D07B681B6819462D4B48
:1006D40099421CD07B681B6819462B4B994214D055
:1006E4007B681B681946294B99420BD07B681B68B1
:1006F4001946274B994202D14FF480531BE04FF423
:10070400803318E04FF4807315E0102313E00123C5
:1007140011E04FF080730EE04FF480130BE04FF4C0
:10072400803308E04FF4805305E04FF4807302E017
:10073400102300E0012353607B68012283F8212009
:100744007B68002283F820207B685B6B002B03D03E
:100754007B685B6B78689847FB7B18461037BD460F
:1007640080BD00BF80000240000402400800024037
:100774001C00024030000240440002405800024085
:100784006C000240080402401C0402403004024091
:10079400440402400000024080B48BB000AF786093
:1007A400396000237B6200233B6233E101227B6AD0
:1007B40002FA03F3FB613B681A68FB691340BB61EF
:1007C400BA69FB699A4240F022813B685B68122B4C
:1007D40034D0122B0DD8022B2BD0022B04D8002B93
:1007E40031D0012B1CD048E0032B43D0112B1BD05C
:1007F40043E08F4A934226D08D4A934206D88D4ACD
:10080400934220D08C4A93421DD036E08B4A9342C7
:1008140019D08B4A934216D08A4A934213D02CE0C3
:100824003B68DB683B6228E03B68DB6804333B627F
:1008340023E03B68DB6808333B621EE03B68DB680F
:100844000C333B6219E03B689B68002B02D1042304
:100854003B6212E03B689B68012B05D108233B6295
:100864007B68FA691A6108E008233B627B68FA69CD
:100874005A6102E000233B6200BFBB69FF2B01D831
:100884007B6801E07B6804337B61BB69FF2B02D882
:100894007B6A9B0002E07B6A083B9B003B617B69AF
:1008A4001A680F213B6901FA03F3DB431A40396AE2
:1008B4003B6901FA03F31A437B691A603B685B687E
:1008C40003F08053002B00F0A2805F4A5E4B9B69CB
:1008D40043F0010393615C4B9B6903F00103BB602C
:1008E400BB685A4A7B6A9B08023352F82330FB6088
:1008F4007B6A03F003039B000F2202FA03F3DB433A
:10090400FA681340FB607B68514A93421FD07B68AE
:10091400504A934219D07B684F4A934213D07B6864
:100924004E4A93420DD07B684D4A934207D07B6870
:100934004C4A934201D105230AE0062308E004232C
:1009440006E0032304E0022302E0012300E0002385
:100954007A6A02F0030292009340FA681343FB6040
:100964003A497B6A9B080233FA6841F823203B68C2
:100974005B6803F48033002B06D03B493A4B1A687A
:10098400BB6913430B6006E03749374B1A68BB69F0
:10099400DB4313400B603B685B6803F40033002BBC
:1009A40006D03149304B5A68BB6913434B6006E0AB
:1009B4002D492D4B5A68BB69DB4313404B603B68A0
:1009C4005B6803F48013002B06D02749264B9A68F2
:1009D400BB6913438B6006E02349234B9A68BB69C8
:1009E400DB4313408B603B685B6803F40013002B0C
:1009F40006D01D491C4BDA68BB691343CB6006E083
:100A04001949194BDA68BB69DB431340CB607B6A35
:100A140001337B623B681A687B6A22FA03F3002B7A
:100A24007FF4C4AE00BF2C37BD4680BC704700BF06
:100A340000002110000011100000121000003110FD
:100A4400000032100000221000100240000001409B
:100A540000080140000C0140001001400014014056
:100A640000180140001C01400004014080B485B01E
:100A740000AF78600B467B807B689A687B88134064
:100A8400002B02D00123FB7301E00023FB73FB7BEB
:100A940018461437BD4680BC704700BF80B483B08D
:100AA40000AF78600B467B8013467B707B78002B0D
:100AB40003D07A887B681A6103E07B881A047B6818
:100AC4001A6100BF0C37BD4680BC704780B483B048
:100AD40000AF78600B467B807B68DA687B881340C4
:100AE400002B03D07A887B685A6102E07A887B689D
:100AF4001A6100BF0C37BD4680BC704790B585B005
:100B040000AF78607B68002B01D101230FE17B6883
:100B140093F83D30DBB2002B06D17B68002283F8CA
:100B24003C20786803F06AFA7B68242283F83D202D
:100B34007B681B687A681268126822F001021A60E6
:100B440000F0E4FFF8607B685B687B4A934207D857
:100B5400FB687A4A934294BF01230023DBB206E088
:100B6400FB68774A934294BF01230023DBB2002B36
:100B740001D00123DBE0FB68724AA2FB03239B0C38
:100B8400BB607B681B687A681268526822F03F0178
:100B9400BA680A435A607B681A687B681B681B6AD8
:100BA40023F03F017B685B686348834202D8BB68DB
:100BB400013309E0BB684FF4967000FB03F362480D
:100BC400A0FB03039B0901330B4313627B68186882
:100BD4007B681B68DB6923F44F4222F0FF027B68C9
:100BE4005B6855498B420DD8FB68591E7B685B686E
:100BF4005B00B1FBF3F30133C3F30B03042B38BFE6
:100C040004234FE07B689B68002B11D1FB685C1EBA
:100C14007B6859680B465B000B44B4FBF3F3013368
:100C2400C3F30B03002B0CBF01230023DBB212E040
:100C3400FB685C1E7B6859680B469B000B4499005B
:100C44000B44B4FBF3F30133C3F30B03002B0CBFCE
:100C540001230023DBB2002B01D0012322E07B68B7
:100C64009B68002B0ED1FB685C1E7B6859680B46A1
:100C74005B000B44B4FBF3F30133C3F30B0343F402
:100C840000430FE0FB685C1E7B6859680B469B00C1
:100C94000B4499000B44B4FBF3F30133C3F30B038C
:100CA40043F440431343C3617B681B687A6812684A
:100CB400126822F0C0017A68D0697A68126A024325
:100CC4000A431A607B681A687B681B689B6823F474
:100CD400034323F0FF03796808697968C96801430D
:100CE4000B4393607B681B687A681268D26822F0B1
:100CF400FF017A6850697A68926902430A43DA60AC
:100D04007B681B687A681268126842F001021A60F4
:100D14007B6800221A647B68202283F83D207B686C
:100D240000221A637B68002283F83E2000231846C1
:100D34001437BD4690BD00BFA08601007F841E000D
:100D4400FF083D0083DE1B43D34D621080B588B09D
:100D540002AFF860084611461A4603467B810B46EB
:100D64003B811346FB80FFF7C1FA7861FB6893F877
:100D74003D30DBB2202B40F0D9807B6900931923EE
:100D840001226D49F86800F063F90346002B01D095
:100D94000223CCE0FB6893F83C30012B01D1022301
:100DA400C5E0FB68012283F83C20FB681B681B68D4
:100DB40003F00103002B07D1FB681B68FA68126873
:100DC400126842F001021A60FB681B68FA68126834
:100DD400126822F400621A60FB68212283F83D2025
:100DE400FB68402283F83E20FB6800221A64FB68FB
:100DF4003A6A5A62FB68BA8C5A85FB685B8D9AB270
:100E0400FB681A85FB684D4ADA62F8883A89798961
:100E14007B690193BB6A00930346F86800F090F87D
:100E24000346002B52D0012381E07A69B96AF8683D
:100E340000F0E4F90346002B0DD0FB681B6C042B77
:100E440007D1FB681B68FA681268126842F40072E2
:100E54001A6001236BE0FB681B68FA68526A127817
:100E64001A61FB685B6A5A1CFB685A62FB681B8D3B
:100E7400013B9AB2FB681A85FB685B8D9BB2013B10
:100E84009AB2FB685A85FB681B685B6903F004032C
:100E9400002B1BD0FB681B8D002B17D0FB681B6835
:100EA400FA68526A12781A61FB685B6A5A1CFB681A
:100EB4005A62FB681B8D013B9AB2FB681A85FB687A
:100EC4005B8D9BB2013B9AB2FB685A85FB681B8D14
:100ED400002BAAD17A69B96AF86800F0D1F90346FF
:100EE400002B0DD0FB681B6C042B07D1FB681B681F
:100EF400FA681268126842F400721A60012316E05C
:100F0400FB681B68FA681268126842F400721A607F
:100F1400FB68202283F83D20FB68002283F83E20F2
:100F2400FB68002283F83C20002300E002231846DB
:100F34001837BD4680BD00BF020010000000FFFF4F
:100F440080B588B002AFF860084611461A460346D9
:100F54007B810B463B811346FB80FB681B68FA6868
:100F64001268126842F480721A607B6A00933B6ACA
:100F740000224FF00111F86800F06AF80346002BD4
:100F840001D001235EE0FB681B687A89D2B202F0CB
:100F9400FE021A617B6A3A6A2C49F86800F0B0F8DC
:100FA4000346002B01D001234CE000237B61FB6846
:100FB4001B685B697B61FB681B689B697B617B6960
:100FC4007A6A396AF86800F019F90346002B0DD0E3
:100FD400FB681B6C042B07D1FB681B68FA6812685A
:100FE400126842F400721A6001232BE0FB88012B83
:100FF40005D1FB681B683A89D2B21A6121E0FB680B
:101004001B683A89120A92B2D2B21A617A6A396AB0
:10101400F86800F0F3F80346002B0DD0FB681B6C56
:10102400042B07D1FB681B68FA681268126842F443
:1010340000721A60012305E0FB681B683A89D2B28A
:101044001A61002318461837BD4680BD020001000E
:1010540080B584B000AFF860B9603B601346FB71A3
:1010640025E03B68B3F1FF3F21D0FFF73FF902468B
:10107400BB69D21A3B689A4202D83B68002B16D14E
:10108400FB6800221A63FB68202283F83D20FB687A
:10109400002283F83E20FB681B6C43F02002FB68AF
:1010A4001A64FB68002283F83C20012323E0BB6818
:1010B4001B0CDBB2012B0DD1FB681B685B69DA43A7
:1010C400BB6813409BB2002B0CBF01230023DBB28F
:1010D4001A460CE0FB681B689B69DA43BB68134043
:1010E4009BB2002B0CBF01230023DBB21A46FB7911
:1010F4009A42B6D0002318461037BD4680BD00BFC3
:1011040080B584B000AFF860B9607A603B6050E0AD
:10111400FB681B685B6903F48063002B23D0FB68C6
:101124001B68FA681268126842F400721A60FB685D
:101134001B686FF480625A61FB6800221A63FB68C3
:10114400202283F83D20FB68002283F83E20FB68C0
:101154001B6C43F00402FB681A64FB68002283F8EA
:101164003C20012346E07B68B3F1FF3F21D0FFF729
:10117400BDF802463B68D21A7B689A4202D87B6863
:10118400002B16D1FB6800221A63FB68202283F827
:101194003D20FB68002283F83E20FB681B6C43F073
:1011A4002002FB681A64FB68002283F83C200123B8
:1011B40020E0BB681B0CDBB2012B0CD1FB681B6865
:1011C4005B69DA43BB6813409BB2002B14BF012355
:1011D4000023DBB20BE0FB681B689B69DA43BB6846
:1011E40013409BB2002B14BF01230023DBB2002B5E
:1011F4008ED1002318461037BD4680BD80B584B01B
:1012040000AFF860B9607A602DE0F86800F07AF811
:101214000346002B01D001232DE0BB68B3F1FF3F4F
:1012240021D0FFF763F802467B68D21ABB689A4262
:1012340002D8BB68002B16D1FB6800221A63FB6836
:10124400202283F83D20FB68002283F83E20FB68BF
:101254001B6C43F02002FB681A64FB68002283F8CD
:101264003C20012307E0FB681B685B6903F08003F3
:10127400002BCAD0002318461037BD4680BD00BFDE
:1012840080B584B000AFF860B9607A602DE0F8688A
:1012940000F038F80346002B01D001232DE0BB6891
:1012A400B3F1FF3F21D0FFF721F802467B68D21A41
:1012B400BB689A4202D8BB68002B16D1FB68002297
:1012C4001A63FB68202283F83D20FB68002283F820
:1012D4003E20FB681B6C43F02002FB681A64FB6829
:1012E400002283F83C20012307E0FB681B685B694C
:1012F40003F00403002BCAD0002318461037BD4660
:1013040080BD00BF80B483B000AF78607B681B6889
:101314005B6903F48063002B1BD07B681B686FF44C
:1013240080625A617B6800221A637B68202283F8FA
:101334003D207B68002283F83E207B681B6C43F0D1
:1013440004027B681A647B68002283F83C20012332
:1013540000E0002318460C37BD4680BC704700BF30
:1013640080B586B000AF78607B68002B01D1012383
:101374006AE27B681B6803F00103002B00F086809F
:10138400914B5B6803F00C03042B0BD08E4B5B6812
:1013940003F00C03082B11D18B4B5B6803F48033EF
:1013A400002B0BD0884B1B6803F40033002B6CD04C
:1013B4007B685B68002B68D1012345E27B685B682E
:1013C400B3F5803F06D1804A7F4B1B6843F48033DA
:1013D40013602EE07B685B68002B0CD17A4A7A4B51
:1013E4001B6823F480331360774A774B1B6823F41C
:1013F400802313601DE07B685B68B3F5A02F0CD1DC
:10140400714A714B1B6843F4802313606E4A6E4B20
:101414001B6843F4803313600BE06B4A6A4B1B6810
:1014240023F480331360684A674B1B6823F48023DA
:1014340013607B685B68002B13D0FEF757FF38619D
:1014440008E0FEF753FF02463B69D31A642B01D927
:101454000323F9E15C4B1B6803F40033002BF0D049
:1014640014E0FEF743FF386108E0FEF73FFF024651
:101474003B69D31A642B01D90323E5E1524B1B6862
:1014840003F40033002BF0D100E000BF7B681B683D
:1014940003F00203002B63D04B4B5B6803F00C0397
:1014A400002B0BD0484B5B6803F00C03082B1CD1BA
:1014B400454B5B6803F48033002B16D1424B1B6809
:1014C40003F00203002B05D07B681B69012B01D0BC
:1014D4000123B9E13C493C4B1B6823F0F8027B68CB
:1014E4005B69DB0013430B603AE07B681B69002BEC
:1014F40020D0364B01221A60FEF7F8FE386108E06E
:10150400FEF7F4FE02463B69D31A022B01D90323EA
:101514009AE12D4B1B6803F00203002BF0D02A49FB
:10152400294B1B6823F0F8027B685B69DB001343DB
:101534000B6015E0254B00221A60FEF7D7FE3861D8
:1015440008E0FEF7D3FE02463B69D31A022B01D909
:10155400032379E11C4B1B6803F00203002BF0D139
:101564007B681B6803F00803002B39D07B689B69F8
:10157400002B19D0164B01221A60FEF7B7FE386112
:1015840008E0FEF7B3FE02463B69D31A022B01D9E9
:10159400032359E10C4B5B6A03F00203002BF0D0E8
:1015A400012000F0DBFA1BE0094B00221A60FEF771
:1015B4009DFE38610EE0FEF799FE02463B69D31AA0
:1015C400022B07D903233FE10010024000004242EE
:1015D400800442429E4B5B6A03F00203002BEAD173
:1015E4007B681B6803F00403002B00F0A680002333
:1015F400FB75974BDB6903F08053002B0DD1944AA4
:10160400934BDB6943F08053D361914BDB6903F067
:101614008053BB60BB680123FB758E4B1B6803F4CE
:101624008073002B18D18B4A8A4B1B6843F4807358
:101634001360FEF75BFE386108E0FEF757FE0246D2
:101644003B69D31A642B01D90323FDE0814B1B684A
:1016540003F48073002BF0D07B68DB68012B06D188
:101664007B4A7B4B1B6A43F0010313622DE07B68CA
:10167400DB68002B0CD1764A754B1B6A23F00103FF
:101684001362734A724B1B6A23F0040313621CE057
:101694007B68DB68052B0CD16D4A6D4B1B6A43F0EC
:1016A400040313626A4A6A4B1B6A43F00103136220
:1016B4000BE0674A664B1B6A23F001031362644A1A
:1016C400634B1B6A23F0040313627B68DB68002B03
:1016D40015D0FEF70BFE38610AE0FEF707FE02465E
:1016E4003B69D31A41F28832934201D90323ABE018
:1016F400574B1B6A03F00203002BEED014E0FEF7F5
:10170400F5FD38610AE0FEF7F1FD02463B69D31AA4
:1017140041F28832934201D9032395E04C4B1B6A72
:1017240003F00203002BEED1FB7D012B05D1484AC7
:10173400474BDB6923F08053D3617B68DB69002B63
:1017440000F08180424B5B6803F00C03082B61D0EE
:101754007B68DB69022B46D13F4B00221A60FEF7FF
:10176400C5FD386108E0FEF7C1FD02463B69D31AA6
:10177400022B01D9032367E0354B1B6803F0007388
:10178400002BF0D17B681B6AB3F5803F08D1304948
:101794002F4B5B6823F400327B689B6813434B60D8
:1017A4002B482B4B5B6823F474127B68196A7B68A3
:1017B4005B6A0B4313434360274B01221A60FEF715
:1017C40095FD386108E0FEF791FD02463B69D31AA6
:1017D400022B01D9032337E01D4B1B6803F0007370
:1017E400002BF0D02FE01C4B00221A60FEF77EFD88
:1017F400386108E0FEF77AFD02463B69D31A022BF2
:1018040001D9032320E0124B1B6803F00073002B63
:10181400F0D118E07B68DB69012B01D1012313E0CF
:101824000B4B5B68FB60FB6803F480327B681B6ACC
:101834009A4206D1FB6803F470127B685B6A9A4291
:1018440001D0012300E0002318461837BD4680BDAF
:1018540000100240007000406000424280B584B035
:1018640000AF786039607B68002B01D10123D0E0A0
:101874006A4B1B6803F007023B689A4210D267491F
:10188400664B1B6823F007023B6813430B60634BF2
:101894001B6803F007023B689A4201D00123B8E0B9
:1018A4007B681B6803F00203002B20D07B681B6855
:1018B40003F00403002B05D0594A594B5B6843F4E9
:1018C400E06353607B681B6803F00803002B05D0BA
:1018D400534A534B5B6843F4605353605049504B35
:1018E4005B6823F0F0027B689B6813434B607B6862
:1018F4001B6803F00103002B40D07B685B68012B5D
:1019040007D1474B1B6803F40033002B15D1012387
:101914007FE07B685B68022B07D1414B1B6803F0B7
:101924000073002B09D1012373E03D4B1B6803F0C6
:101934000203002B01D101236BE03949384B5B686A
:1019440023F003027B685B6813434B60FEF7CEFC15
:10195400F8600AE0FEF7CAFC0246FB68D31A41F2BB
:101964008832934201D9032353E02D4B5B6803F083
:101974000C027B685B689B009A42EBD1274B1B6887
:1019840003F007023B689A4210D92449234B1B6891
:1019940023F007023B6813430B60204B1B6803F0E2
:1019A40007023B689A4201D0012332E07B681B683E
:1019B40003F00403002B08D01949194B5B6823F486
:1019C400E0627B68DB6813434B607B681B6803F051
:1019D4000803002B09D01249114B5B6823F46052B1
:1019E4007B681B69DB0013434B6000F021F8014660
:1019F4000B4B5B6803F0F0031B090A4AD35C21FA22
:101A040003F3094A1360094B1B681846FEF72CFCC4
:101A1400002318461037BD4680BD00BF0020024099
:101A240000100240746A00082C020020000000200C
:101A340090B48AB000AF2B4B3C1D186859689A6863
:101A4400DB680FC4284A3B4612881A800023FB61D6
:101A54000023BB6100237B6200237B6100233B6284
:101A6400224B5B68FB61FB6903F00C03042B02D07F
:101A7400082B03D02DE01E4B3B622DE0FB699B0C31
:101A840003F00F0307F12802134413F8243C7B618D
:101A9400FB6903F48033002B13D0144B5B6803F40D
:101AA40000335B0C07F12802134413F8283CBB6194
:101AB4007B690F4A02FB03F2BB69B2FBF3F37B625F
:101AC40004E07B690B4A02FB03F37B627B6A3B62A3
:101AD40002E0074B3B6200BF3B6A18462837BD460D
:101AE40090BC704734620008446200080010024051
:101AF40000127A0000093D0080B400AF024B1B685D
:101B04001846BD4680BC70472C02002080B500AF4B
:101B1400FFF7F2FF0146054B5B6803F4E0631B0A21
:101B2400034AD35C21FA03F3184680BD0010024037
:101B3400846A000880B500AFFFF7DEFF0146054B5D
:101B44005B6803F46053DB0A034AD35C21FA03F3B2
:101B5400184680BD00100240846A000880B485B035
:101B640000AF78600A4B1B680A4AA2FB03235B0A96
:101B74007A6802FB03F3FB6000BFFB685A1EFA603D
:101B8400002BF9D100BF1437BD4680BC704700BF9D
:101B94002C020020D34D621080B582B000AF786073
:101BA4007B68002B01D101231DE07B6893F83D3055
:101BB400DBB2002B06D17B68002283F83C207868D6
:101BC40003F030FA7B68022283F83D207B681A68B0
:101BD4007B6804331946104600F088F97B680122BB
:101BE40083F83D20002318460837BD4680BD00BF5A
:101BF40080B485B000AF78607B681B687A6812682F
:101C0400D26842F00102DA607B681B689B6803F0CB
:101C14000703FB60FB68062B07D07B681B687A68A8
:101C24001268126842F001021A6000231846143741
:101C3400BD4680BC704700BF80B483B000AF7860FD
:101C44007B681B687A681268D26822F00102DA6045
:101C54007B681B681A6A41F211131340002B0FD1E1
:101C64007B681B681A6A40F244431340002B07D177
:101C74007B681B687A681268126822F001021A6095
:101C8400002318460C37BD4680BC704780B582B02F
:101C940000AF78607B681B681B6903F00203002BAC
:101CA40022D07B681B68DB6803F00203002B1BD087
:101CB4007B681B686FF002021A617B6801221A7745
:101CC4007B681B689B6903F00303002B03D07868CF
:101CD40000F0EEF805E0786800F0E0F8786800F0CD
:101CE400F1F87B6800221A777B681B681B6903F094
:101CF4000403002B22D07B681B68DB6803F0040319
:101D0400002B1BD07B681B686FF004021A617B6890
:101D140002221A777B681B689B6903F44073002BCB
:101D240003D0786800F0C4F805E0786800F0B6F8ED
:101D3400786800F0C7F87B6800221A777B681B6814
:101D44001B6903F00803002B22D07B681B68DB6847
:101D540003F00803002B1BD07B681B686FF008029C
:101D64001A617B6804221A777B681B68DB6903F0BD
:101D74000303002B03D0786800F09AF805E0786834
:101D840000F08CF8786800F09DF87B6800221A77E0
:101D94007B681B681B6903F01003002B22D07B684F
:101DA4001B68DB6803F01003002B1BD07B681B68E7
:101DB4006FF010021A617B6808221A777B681B682F
:101DC400DB6903F44073002B03D0786800F070F8EB
:101DD40005E0786800F062F8786800F073F87B68D2
:101DE40000221A777B681B681B6903F00103002B30
:101DF4000ED07B681B68DB6803F00103002B07D05F
:101E04007B681B686FF001021A61786802F066FE55
:101E14007B681B681B6903F08003002B0ED07B6872
:101E24001B68DB6803F08003002B07D07B681B680A
:101E34006FF080021A61786800F020F97B681B68F3
:101E44001B6903F04003002B0ED07B681B68DB6822
:101E540003F04003002B07D07B681B686FF040023F
:101E64001A61786800F038F87B681B681B6903F016
:101E74002003002B0ED07B681B68DB6803F0200373
:101E8400002B07D07B681B686FF020021A6178680A
:101E940000F0EAF800BF0837BD4680BD80B483B0C7
:101EA40000AF786000BF0C37BD4680BC704700BFF0
:101EB40080B483B000AF786000BF0C37BD4680BCEF
:101EC400704700BF80B483B000AF786000BF0C37A8
:101ED400BD4680BC704700BF80B483B000AF78605B
:101EE40000BF0C37BD4680BC704700BF80B485B0CE
:101EF40000AF786039607B681B68FB607B68334A9D
:101F0400934213D07B68324A93420FD07B68B3F17B
:101F1400804F0BD07B682F4A934207D07B682E4AB0
:101F2400934203D07B682D4A934208D1FB6823F087
:101F34007003FB603B685B68FA681343FB607B6873
:101F4400224A934213D07B68214A93420FD07B6884
:101F5400B3F1804F0BD07B681E4A934207D07B6855
:101F64001D4A934203D07B681C4A934208D1FB6804
:101F740023F44073FB603B68DB68FA681343FB603F
:101F8400FB6823F080023B685B691343FB607B685A
:101F9400FA681A603B689A687B68DA623B681A6878
:101FA4007B689A627B68094A934203D07B68084A3B
:101FB400934203D13B681A697B681A637B680122E8
:101FC4005A6100BF1437BD4680BC7047002C0140E5
:101FD400003401400004004000080040000C0040B0
:101FE40080B485B000AF786039607B6893F83C308A
:101FF400012B01D1022332E07B68012283F83C20CB
:102004007B68022283F83D207B681B685B68FB6069
:102014007B681B689B68BB60FB6823F07003FB60F4
:102024003B681B68FA681343FB60BB6823F08003BA
:10203400BB603B685B68BA681343BB607B681B6822
:10204400FA685A607B681B68BA689A607B680122E8
:1020540083F83D207B68002283F83C200023184647
:102064001437BD4680BC704780B483B000AF78603D
:1020740000BF0C37BD4680BC704700BF80B483B03E
:1020840000AF786000BF0C37BD4680BC704700BF0E
:1020940080B582B000AF78607B68002B01D101234A
:1020A4003FE07B6893F83930DBB2002B06D17B68C4
:1020B400002283F83820786803F04AF87B682422E9
:1020C40083F839207B681B687A681268D26822F426
:1020D4000052DA60786800F08FFB7B681B687A68CE
:1020E4001268126922F490421A617B681B687A684C
:1020F4001268526922F02A025A617B681B687A6866
:102104001268D26842F40052DA607B680022DA6313
:102114007B68202283F839207B68202283F83A20C8
:10212400002318460837BD4680BD00BF80B588B07F
:1021340002AFF860B9603B601346FB8000237B610B
:10214400FB6893F83930DBB2202B40F08280BB6807
:10215400002B02D0FB88002B01D101237AE0FB681D
:1021640093F83830012B01D1022373E0FB6801227C
:1021740083F83820FB680022DA63FB68212283F8A5
:102184003920FEF7B3F87861FB68FA889A84FB6813
:10219400FA88DA8441E0FB68DB8C9BB2013B9AB29B
:1021A400FB68DA84FB689B68B3F5805F21D13B68E8
:1021B40000937B6900228021F86800F0B3F903469C
:1021C400002B01D0032345E0BB683B61FB681B681F
:1021D4003A691288C2F308025A60FB681B69002B33
:1021E40003D1BB680233BB6017E0BB680133BB603B
:1021F40013E03B6800937B6900228021F86800F0BB
:1022040091F90346002B01D0032323E0FB681A68ED
:10221400BB68591CB9601B785360FB68DB8C9BB2AC
:10222400002BB8D13B6800937B6900224021F868F9
:1022340000F078F90346002B01D003230AE0FB6881
:10224400202283F83920FB68002283F838200023F9
:1022540000E0022318461837BD4680BD80B485B01F
:1022640000AFF860B9601346FB80FB6893F83A301E
:10227400DBB2202B40D1BB68002B02D0FB88002BA3
:1022840001D1012339E0FB6893F83830012B01D1E7
:10229400022332E0FB68012283F83820FB68BA6825
:1022A4009A62FB68FA889A85FB68FA88DA85FB6883
:1022B4000022DA63FB68222283F83A20FB680022BA
:1022C40083F83820FB681B68FA681268D26842F405
:1022D4008072DA60FB681B68FA681268526942F01F
:1022E40001025A61FB681B68FA681268D26842F0FE
:1022F4002002DA60002300E0022318461437BD46AA
:1023040080BC704780B588B000AF78607B681B687C
:102314001B68FB617B681B68DB68BB617B681B68AF
:102324005B697B6100233B610023FB60FB6903F075
:102334000F033B613B69002B0DD1FB6903F02003C4
:10234400002B08D0BB6903F02003002B03D078686E
:1023540000F0D0F9CCE03B69002B00F0AB807B6946
:1023640003F00103002B05D1BB6903F49073002B28
:1023740000F0A080FB6903F00103002B0AD0BB69C5
:1023840003F48073002B05D07B68DB6B43F0010200
:102394007B68DA63FB6903F00403002B0AD07B69D2
:1023A40003F00103002B05D07B68DB6B43F00202D2
:1023B4007B68DA63FB6903F00203002B0AD07B69B4
:1023C40003F00103002B05D07B68DB6B43F00402B0
:1023D4007B68DA63FB6903F00803002B0AD07B698E
:1023E40003F00103002B05D07B68DB6B43F008028C
:1023F4007B68DA637B68DB6B002B78D0FB6903F0C6
:102404002003002B07D0BB6903F02003002B02D06C
:10241400786800F06FF97B681B685B6903F0400320
:10242400002B14BF01230023DBB2FB607B68DB6B52
:1024340003F00803002B02D1FB68002B31D078682D
:1024440000F0BAF87B681B685B6903F04003002B5B
:1024540023D07B681B687A681268526922F04002B4
:102464005A617B685B6B002B13D07B685B6B224AE1
:102474005A637B685B6B1846FEF770F80346002BC3
:1024840016D07B685B6B5B6B7A68526B104698471F
:102494000EE0786800F03CF80AE0786800F038F85C
:1024A40006E0786800F034F87B680022DA631EE006
:1024B40000BF1CE0FB6903F08003002B08D0BB695C
:1024C40003F08003002B03D0786800F0A7F80FE036
:1024D400FB6903F04003002B0AD0BB6903F04003FF
:1024E400002B05D0786800F0EDF800BF00E000BFD5
:1024F4002037BD4680BD00BFF925000880B483B0F5
:1025040000AF786000BF0C37BD4680BC704700BF89
:1025140080B483B000AF786000BF0C37BD4680BC88
:10252400704700BF80B584B000AFF860B9603B600D
:102534001346FB712CE0BB69B3F1FF3F28D0BB69A4
:10254400002B07D0FDF7D2FE02463B68D21ABB69C6
:102554009A421DD9FB681B68FA681268D26822F493
:10256400D072DA60FB681B68FA681268526922F05C
:1025740001025A61FB68202283F83920FB6820227B
:1025840083F83A20FB68002283F8382003230FE005
:10259400FB681B681A68BB681A40BB689A420CBF88
:1025A40001230023DBB21A46FB799A42C3D00023ED
:1025B40018461037BD4680BD80B483B000AF786044
:1025C4007B681B687A681268D26822F49072DA60B9
:1025D4007B681B687A681268526922F001025A61AA
:1025E4007B68202283F83A2000BF0C37BD4680BCAC
:1025F400704700BF80B584B000AF78607B685B6AC9
:10260400FB60FB680022DA85FB680022DA84F86844
:10261400FFF77EFF00BF1037BD4680BD80B485B094
:1026240000AF78607B6893F83930DBB2212B43D15B
:102634007B689B68B3F5805F19D17B681B6AFB607C
:102644007B681B68FA681288C2F308025A607B68C8
:102654001B69002B05D17B681B6A9A1C7B681A6274
:102664000EE07B681B6A5A1C7B681A6208E07B6870
:102674001A687B681B6A581C796808621B78536067
:102684007B68DB8C9BB2013B9BB27A681946D18490
:10269400002B0FD17B681B687A681268D26822F01D
:1026A4008002DA607B681B687A681268D26842F03C
:1026B4004002DA60002300E0022318461437BD46C6
:1026C40080BC704780B582B000AF78607B681B68BF
:1026D4007A681268D26822F04002DA607B682022AD
:1026E40083F839207868FFF709FF00231846083774
:1026F400BD4680BD80B584B000AF78607B6893F838
:102704003A30DBB2222B71D17B689B68B3F5805FD2
:1027140023D17B689B6AFB607B681B69002B0ED10D
:102724007B681B685B689BB2C3F308039AB2FB68BF
:102734001A807B689B6A9A1C7B689A6229E07B6892
:102744001B685B689BB2DBB29AB2FB681A807B6839
:102754009B6A5A1C7B689A621BE07B681B69002B8E
:102764000AD17B689B6A591C7A6891627A681268FC
:102774005268D2B21A700CE07B689B6A591C7A6862
:1027840091627A6812685268D2B202F07F02D2B2C1
:102794001A707B68DB8D9BB2013B9BB27A68194649
:1027A400D185002B20D17B681B687A681268D268B7
:1027B40022F02002DA607B681B687A681268D268AB
:1027C40022F48072DA607B681B687A681268526946
:1027D40022F001025A617B68202283F83A2078684B
:1027E40002F022FA002302E0002300E0022318464C
:1027F4001037BD4680BD00BF90B585B000AF78608E
:102804007B681B687A681268126922F440517A68FE
:10281400D2680A431A617B689A687B681B691A4309
:102824007B685B691343FB607B681A687B681B6881
:10283400DB6823F4B05323F00C03F9680B43D36033
:102844007B681B687A681268526922F440717A685E
:1028540092690A435A617B681B68524A93424ED17B
:10286400FFF768F9B8607B681968BA6813469B007B
:1028740013449A001A447B685B689B00B2FBF3F331
:10288400494AA2FB03235B091801BA6813469B005B
:1028940013449A001A447B685B689B00B2FBF3F212
:1028A400414BA3FB02435B09642404FB03F3D31AE7
:1028B4001B0132333C4AA2FB03235B0903F0F00300
:1028C4001844BA6813469B0013449A001A447B6860
:1028D4005B689B00B2FBF3F2334BA3FB02435B093F
:1028E400642404FB03F3D31A1B0132332E4AA2FBE4
:1028F40003235B0903F00F0303448B604DE0FFF7F0
:1029040005F9B8607B681968BA6813469B001344DC
:102914009A001A447B685B689B00B2FBF3F3224A7B
:10292400A2FB03235B091801BA6813469B001344F6
:102934009A001A447B685B689B00B2FBF3F21A4B63
:10294400A3FB02435B09642404FB03F3D31A1B01B6
:102954003233154AA2FB03235B0903F0F003184446
:10296400BA6813469B0013449A001A447B685B6858
:102974009B00B2FBF3F20C4BA3FB02435B09642400
:1029840004FB03F3D31A1B013233074AA2FB0323CC
:102994005B0903F00F0303448B6000BF1437BD468B
:1029A40090BD00BF003801401F85EB5180B582B057
:1029B40000AF0346FB71FB79013BFB71FB7903F02C
:1029C4000103002B05D0012208211648FEF766F802
:1029D40004E0002208211348FEF760F8FB7903F0B5
:1029E4000203002B05D0012210210E48FEF756F8F1
:1029F40004E0002210210B48FEF750F8FB7903F0A5
:102A04000403002B05D0012220210648FEF746F8D6
:102A140004E0002220210348FEF740F800BF0837F5
:102A2400BD4680BD000C014080B483B000AF0346B6
:102A3400FB71FB79002B02D10A4B1B780CE0FB796C
:102A4400012B02D1084B1B7806E0FB79032B02D142
:102A5400064B1B7800E0FF2318460C37BD4680BCAC
:102A6400704700BFB4020020B8020020B602002064
:102A740080B485B000AF78600023FB7314E00023BA
:102A8400BB730BE0FA7B13461B0113447A681A44A8
:102A9400BB7B1121D154BB7B0133BB73BB7B102B9C
:102AA400F0D9FB7B0133FB73FB7B102BE7D90023AD
:102AB4007B7306E07B7B7A680121D1547B7B0133F5
:102AC4007B737B7B102BF5D900233B7308E07B6879
:102AD40003F588723B7B0121D1543B7B01333B736B
:102AE4003B7B102BF3D90023FB720AE0FA7A1346DE
:102AF4001B0113447A68134401221A70FB7A0133D0
:102B0400FB72FB7A102BF1D90023BB720AE0BA7A6C
:102B140013461B0113447A68134401221A74BB7AC6
:102B24000133BB72BB7A102BF1D900BF1437BD46F9
:102B340080BC704780B485B000AF78600023FB731D
:102B440007E0FB7B7A681344FF221A70FB7B013396
:102B5400FB73FB7BC72BF4D900BF1437BD4680BC85
:102B6400704700BF80B483B000AF03460A46FB71D0
:102B74001346BB71BA79FB79D21A0E4B1340002B62
:102B840003DA013B63F003030133DAB20A4B1A7030
:102B9400094B1B785BB2002B05DA074B1B78043317
:102BA400DAB2054B1A70044B1B7818460C37BD4635
:102BB40080BC704703000080B902002080B487B055
:102BC40000AFF860B9601346FB711023FB75FB7905
:102BD400002B0CD13B7A1A4613461B011344FA68A6
:102BE4001A447B7A023BD25CFB7D1340FB75FB7974
:102BF400012B0CD13B7A1A4613461B011344223392
:102C0400FA6813447A7A9A5CFB7D1340FB75FB796E
:102C1400022B0CD13B7A1A4613461B011344FA6863
:102C24001A447B7A0233D25CFB7D1340FB75FB793B
:102C3400032B0CD13B7A1A4613461B011344223B47
:102C4400FA6813447A7A9A5CFB7D1340FB75FB7D2A
:102C54001B09DBB218461C37BD4680BC704700BF59
:102C640080B485B000AFF860B96011461A460B46CF
:102C7400FB711346BB71BB79002B03D06C4B112243
:102C84001A7002E06A4B10221A70FB79002B2FD1C4
:102C94003B7A1A4613461B011344FA68D1187B7A0F
:102CA4005A1E3B7A184603461B010344F86818442D
:102CB4007B7A013BC05C5E4B1B780340DBB28B54D8
:102CC4003B7A1A4613461B011344FA68D1187B7ADF
:102CD4009A1E3B7A184603461B010344F8681844BD
:102CE4007B7A023BC05C524B1B780340DBB28B54B3
:102CF400FB79012B2FD13B7A5A1C13461B01134439
:102D0400FA68D1187B7A18463B7A5A1C13461B0181
:102D14001344FA6813447A7A9A5C454B1B7813403F
:102D2400DBB20B543B7A1A4613461B01134422337D
:102D3400FA681A447B7A18463B7A19460B461B01FB
:102D44000B442233F9680B44797A595C384B1B786D
:102D54000B40DBB21354FB79022B2FD13B7A1A467A
:102D640013461B011344FA68D1187B7A5A1C3B7A28
:102D7400184603461B010344F86818447B7A013360
:102D8400C05C2B4B1B780340DBB28B543B7A1A4656
:102D940013461B011344FA68D1187B7A9A1C3B7AB8
:102DA400184603461B010344F86818447B7A02332F
:102DB400C05C1F4B1B780340DBB28B54FB79032BA5
:102DC40031D13B7A1A4613461B011344113BFA686E
:102DD4001A447B7A18463B7A19460B461B010B446E
:102DE400113BF9680B44797A595C114B1B780B4001
:102DF400DBB213543B7A1A4613461B011344223B9D
:102E0400FA681A447B7A18463B7A19460B461B012A
:102E14000B44223BF9680B44797A595C044B1B78C8
:102E24000B40DBB2135400BF1437BD4680BC70475F
:102E3400BA02002080B485B000AFF860B9601146D2
:102E44001A460B46FB711346BB71BB79002B03D0AA
:102E54006C4B11221A7002E06A4B01221A70FB7942
:102E6400002B2FD13B7A1A4613461B011344FA68F0
:102E7400D1187B7A5A1E3B7A184603461B01034439
:102E8400F86818447B7A013BC05C5E4B1B780340B6
:102E9400DBB28B543B7A1A4613461B011344FA687F
:102EA400D1187B7A9A1E3B7A184603461B010344C9
:102EB400F86818447B7A023BC05C524B1B78034091
:102EC400DBB28B54FB79012B2FD13B7A5A1C13466E
:102ED4001B011344FA68D1187B7A18463B7A5A1CB2
:102EE40013461B011344FA6813447A7A9A5C454BDF
:102EF4001B781340DBB20B543B7A1A4613461B0172
:102F040013442233FA681A447B7A18463B7A1946EA
:102F14000B461B010B442233F9680B44797A595C44
:102F2400384B1B780B40DBB21354FB79022B2FD1A7
:102F34003B7A1A4613461B011344FA68D1187B7A6C
:102F44005A1C3B7A184603461B010344F86818448C
:102F54007B7A0133C05C2B4B1B780340DBB28B5470
:102F64003B7A1A4613461B011344FA68D1187B7A3C
:102F74009A1C3B7A184603461B010344F86818441C
:102F84007B7A0233C05C1F4B1B780340DBB28B544B
:102F9400FB79032B31D13B7A1A4613461B011344A8
:102FA400113BFA681A447B7A18463B7A19460B4659
:102FB4001B010B44113BF9680B44797A595C114BA2
:102FC4001B780B40DBB213543B7A1A4613461B01A1
:102FD4001344223BFA681A447B7A18463B7A194612
:102FE4000B461B010B44223BF9680B44797A595C6C
:102FF400044B1B780B40DBB2135400BF1437BD469F
:1030040080BC7047BB02002080B485B000AF7860FC
:103014003960FF23FB733B681B685A1E3B681A60C8
:103024003B681B68B3F1FF3F16D03B681B681A4628
:103034007B6813441B78FB733B681B681A467B68E8
:103044001344FF221A70FB7B0233FB73FB7B032BBD
:1030540002D9FB7B043BFB73FB7B18461437BD464C
:1030640080BC704780B483B000AF786039603B683F
:103074001B68B3F1FF3F01D1FF2308E03B681B68E5
:10308400591E3A6811601A467B6813441B78184627
:103094000C37BD4680BC704780B485B000AF786003
:1030A4000023FB7316E00023BB730DE0FA7B134689
:1030B4009B0013445B001A467B681A44BB7BFF21C8
:1030C400D154BB7B0133BB73BB7B092BEED9FB7B98
:1030D4000133FB73FB7B092BE5D900BF1437BD46D5
:1030E40080BC704780B485B000AF78600846114654
:1030F4001A460346FB700B46BB7013467B700123D4
:10310400FB737B78002B03D1BB780133BB7013E0D6
:103114007B78012B03D1FB78013BFB700CE07B78BF
:10312400022B03D1BB78013BBB7005E07B78032BFA
:1031340002D1FB780133FB70FA7813461B01134468
:103144007A681A44BB78D35C03F00103002B01D0E6
:103154000023FB7397F90330002B03DB97F902304C
:10316400002B01DA0023FB73FB78002B02D0BB7821
:10317400002B01D10023FB73FB780A2B02D0BB7810
:103184000A2B01D10023FB73FB7B18461437BD4681
:1031940080BC704780B584B000AF78600023FB73B7
:1031A40005E0184802F08EF9FB7B0133FB73FB7BCF
:1031B400102BF6D90A2002F09DF90023BB731AE004
:1031C40000237B730EE07A7B13461B0113447A6859
:1031D4001A44BB7BD35C19460B4802F073F97B7B22
:1031E40001337B737B7B102BEDD90A2002F082F92B
:1031F400BB7B0133BB73BB7B102BE1D900BF103702
:10320400BD4680BD486200085062000880B584B0A5
:1032140000AF78600023FB7305E0194802F052F90F
:10322400FB7B0133FB73FB7B092BF6D90A2002F0ED
:1032340061F90023BB731CE000237B7310E07A7BED
:1032440013469B0013445B001A467B681A44BB7BFD
:10325400D35C19460B4802F035F97B7B01337B7351
:103264007B7B092BEBD90A2002F044F9BB7B0133A9
:10327400BB73BB7B092BDFD900BF1037BD4680BDB4
:10328400486200085062000890B5A3B000AFF8602F
:10329400B9607A60B868FFF77DFF00F047FBF86714
:1032A4003B7B87F878307B7B87F87930B96FF86F90
:1032B40000F054FB07F1140364220021184602F0C5
:1032C4004FF8FF233B7507F114031846FFF7E4FE9C
:1032D40097F878301A4697F87930194613469B00C8
:1032E40013445B0007F1880213440B44743B00222F
:1032F4001A708AE0F86F00F06FFB03463B820023EC
:1033040087F887307CE03B7C87F886307B7C87F8C5
:10331400853097F88730002B04D17B7C013B87F8FC
:10332400853019E097F88730012B04D13B7C0133B9
:1033340087F8863010E097F88730022B04D17B7C25
:10334400013387F8853007E097F88730032B03D1E2
:103354003B7C013B87F8863097F886305B00DBB214
:10336400013BD9B297F885305B00DBB2013BDAB29E
:1033740097F88730B868FFF7B5FE0346002B3AD0BC
:1033840097F8862097F8851013469B0013445B003A
:1033940007F1880213440B44743B1B78FF2B2AD19A
:1033A40097F8863087F8783097F8853087F8793041
:1033B400B96FF86F00F0D2FA97F8862097F8851065
:1033C4003B7C18467B7C1C4603469B0003445B0005
:1033D40007F1880003442344743B1B780133D8B2BB
:1033E40013469B0013445B0007F1880213440B440B
:1033F400743B02461A7097F88730013387F8873098
:1034040097F88730032B7FF67EAFF86F00F0D4FA7D
:103414000346002B3FF46EAF07F114031846FFF781
:10342400F5FE002387F88430012387F878300223DF
:1034340087F8793095E0002387F883308CE097F89B
:10344400783087F8823097F8793087F8813097F8A8
:103454008330002B05D197F87930013B87F8813010
:103464001CE097F88330012B05D197F878300133AD
:1034740087F8823012E097F88330022B05D197F851
:103484007930013387F8813008E097F88330032BD3
:1034940004D197F87830013B87F8823097F882207E
:1034A40097F8811013469B0013445B0007F18802D0
:1034B40013440B44743B1B78194697F878301A462A
:1034C40097F87930184613469B0013445B0007F1C4
:1034D400880213440344743B1B78013B994236D160
:1034E40097F8833087F8803097F88030023387F874
:1034F400803097F88030032B04D997F88030043B50
:1035040087F8803097F884305A1C87F884201A464C
:103514007B68134497F880201A7097F878301A461D
:1035240097F87930194613469B0013445B0007F162
:10353400880213440B44743BC8221A7097F88230F3
:1035440087F8783097F8813087F8793009E097F870
:103554008330013387F8833097F88330032B7FF669
:103564006EAF97F878203B7B9A427FF464AF97F86C
:1035740079207B7B9A427FF45EAF97F88430013BDD
:10358400DBB218468C37BD4690BD00BF80B586B00F
:1035940004AF0023FB710023FB7111E0FB790C4A9B
:1035A40013444FF48072029201220192009301238A
:1035B400002278210748FDF7C9FBFB790133FB7131
:1035C400FB791A2BEAD900BF0837BD4680BD00BF7E
:1035D40008000020C046002080B586B004AF034632
:1035E400FB714FF48073029301230193FB1D00933D
:1035F4000123002278210348FDF7A8FB00BF083708
:10360400BD4680BDC046002080B586B004AF0346E9
:10361400FB714FF48073029301230193FB1D00930C
:103624000123402278210348FDF790FB00BF0837AF
:10363400BD4680BDC046002080B500AFC820FCF761
:103644005FFEFFF7A3FF00BF80BD00BF80B582B05F
:1036540000AF0023FB711BE0FB79503BDBB2184643
:10366400FFF7BAFF0020FFF7B7FF1020FFF7B4FF02
:103674000023BB7105E00020FFF7C6FFBB790133CF
:10368400BB7197F90630002BF5DAFB790133FB7136
:10369400FB79072BE0D900BF0837BD4680BD00BFCA
:1036A40080B582B000AF03460A46FB711346BB7176
:1036B400BB79503BDBB21846FFF78EFFFB791B0941
:1036C400DBB243F01003DBB21846FFF785FFFB794A
:1036D40003F00F03DBB21846FFF77EFF00BF083785
:1036E400BD4680BD90B585B000AF0446084611467E
:1036F4001A462346FB710346BB710B467B71134686
:103704003B710023BB730023FB737B79203BBB73AA
:1037140097F90730002B04DA0023FB71BB790233DD
:10372400BB713B79102B33D1BA79FB79114618461A
:10373400FFF7B6FF0023FB730BE0BB7B1A01FB7B97
:103744001344234AD35C1846FFF75EFFFB7B013327
:10375400FB73FB7B072BF0D9BB790133DAB2FB791E
:1037640011461846FFF79CFF0023FB730CE0BB7B5C
:103774001A01FB7B13440833154AD35C1846FFF740
:1037840043FFFB7B0133FB73FB7B072BEFD91BE070
:10379400BA79FB7911461846FFF782FF0023FB73C1
:1037A4000FE0BA7BF97B0B4813465B0013445B00C4
:1037B40003440B441B781846FFF726FFFB7B0133B9
:1037C400FB73FB7B052BECD900BF1437BD4690BDC2
:1037D400946400086C62000880B584B000AF3A605D
:1037E4001A460346FB710B46BB7113467B710023DB
:1037F400FB7316E0FB7B3A6813441A787B79B9793A
:10380400F879FFF76FFFFB790833FB71FB79782BAD
:1038140004D90023FB71BB790233BB71FB7B0133F9
:10382400FB73FB7B3A6813441B78002BE2D100BF87
:103834001037BD4680BD00BF90B583B000AF0346CE
:10384400FB710B46BB7113467B71FA79BB79354921
:10385400D2010A4413441B787A799A425ED0FB79E8
:103864000233DAB2BB79DB08DBB219461046FFF744
:1038740017FF7B79012B1DD1BB79DB08DAB2144623
:10388400FB791146FA792848C90101440A4412789F
:1038940051B2BA7902F00702012000FA02F252B2E0
:1038A4000A4352B2D0B22049E2010A441344024608
:1038B4001A701EE0BB79DB08DAB21446FB791146B4
:1038C400FA791948C90101440A44127851B2BA7903
:1038D40002F00702012000FA02F252B2D24352B2BD
:1038E4000A4052B2D0B21049E2010A4413440246DB
:1038F4001A70BB79DB08DBB21A46FB790A49D2019C
:103904000A4413441B781846FFF77EFEFA79BB7904
:103914000449D2010A4413447A791A7000BF0C375F
:10392400BD4690BDBC060020BC02002080B582B01C
:1039340000AF082001F004FD03467B607B68002B88
:1039440001D1002306E07B6800221A607B68002214
:103954005A607B6818460837BD4680BD80B584B080
:1039640000AF78603980082001F0EAFC0346FB6070
:10397400FB68002B1CD0FB683A881A80FB68002285
:103984005A607B681B68002B02D17B68FA681A6056
:103994007B685B68002B03D17B68FA685A6008E097
:1039A4007B685B68FA685A607B68FA685A6000E072
:1039B40000BF1037BD4680BD80B483B000AF7860CF
:1039C4007B681B68002B0CBF01230023DBB2184665
:1039D4000C37BD4680BC704780B586B000AF7860B8
:1039E4007868FFF7E9FF0346002B00D0FEE77B6809
:1039F4001B687B617B681A687B685B689A4206D1A6
:103A04007B6800221A607B6800225A6004E07B68AD
:103A14001B685A687B681A607B691B88BB8178695C
:103A240001F096FCBB893B8200233A7C62F30703D6
:103A34007A7C62F30F2318461837BD4680BD00BF59
:103A440080B582B000AF0346FB71FB7903F001033C
:103A5400002B06D001224FF400714348FDF71EF8F5
:103A640005E000224FF400713F48FDF717F8FB7999
:103A740003F00203002B06D001224FF480713A4870
:103A8400FDF70CF805E000224FF480713648FDF78D
:103A940005F8FB7903F00403002B05D001228021F3
:103AA4003148FCF7FBFF04E0002280212E48FCF79C
:103AB400F5FFFB7903F00803002B05D00122402118
:103AC4002948FCF7EBFF04E0002240212648FCF7DC
:103AD400E5FFFB7903F01003002B06D001224FF41D
:103AE40000412248FCF7DAFF05E000224FF40041D0
:103AF4001E48FCF7D3FFFB7903F02003002B06D00C
:103B040001224FF480411948FCF7C8FF05E0002268
:103B14004FF480411548FCF7C1FFFB7903F04003E3
:103B2400002B06D001224FF400511048FCF7B6FFD9
:103B340005E000224FF400510C48FCF7AFFF97F961
:103B44000730002B06DA01224FF480510748FCF7B6
:103B5400A5FF05E000224FF480510448FCF79EFFC6
:103B640000BF0837BD4680BD00100140000C014075
:103B740080B582B000AF0346FB71174B00221A7068
:103B840021E0164B00221A7013E0144B1B781A46DE
:103B9400134B9B5C63F00F03DBB21846FFF750FF37
:103BA4000120FCF7ADFB0D4B1B780133DAB20B4B54
:103BB4001A700A4B1B78072BE7D9074B1B78013384
:103BC400DAB2054B1A70044B1B78FA799A42D8D8AA
:103BD40000BF0837BD4680BDBD460020BC4600205E
:103BE4002400002080B582B000AF0346FB71174B60
:103BF40000221A7021E0164B00221A7013E0144BB5
:103C04001B781A46134B9B5C43F00F03DBB2184638
:103C1400FFF716FF0120FCF773FB0D4B1B780133F4
:103C2400DAB20B4B1A700A4B1B78072BE7D9074BF8
:103C34001B780133DAB2054B1A70044B1B78FA79FE
:103C44009A42D8D800BF0837BD4680BDBD46002083
:103C5400BC4600202C00002080B500AF02E001200B
:103C6400FFF786FF0A4B1B78002B07D0094B1B7804
:103C7400002BF4D002E00120FFF7B4FF064B1B78C1
:103C8400002B03D0034B1B78002BF4D000BF80BD66
:103C9400B5020020B4020020B702002080B582B033
:103CA40000AF0346FB71174B00221A7020E0164B3D
:103CB40000221A7012E0144B1B781A46134B9B5CBB
:103CC4001846FFF7BDFE0120FCF71AFBFFF7C4FFFF
:103CD4000D4B1B780133DAB20B4B1A700A4B1B786D
:103CE400072BE8D9074B1B780133DAB2054B1A705E
:103CF400044B1B78FA799A42D9D800BF0837BD46DD
:103D040080BD00BFBD460020BC460020340000201A
:103D140080B582B000AF0346FB71164B00221A70C7
:103D24001EE0154B00221A7010E0134B1B781A4644
:103D3400124B9B5C1846FFF783FE0120FCF7E0FA68
:103D44000D4B1B780133DAB20B4B1A700A4B1B78FC
:103D5400072BEAD9074B1B780133DAB2054B1A70EB
:103D6400044B1B78FA799A42DBD800BF0837BD466A
:103D740080BD00BFBD460020BC4600202C000020B2
:103D840080B582B000AF0346FB71164B00221A7057
:103D94001EE0154B00221A7010E0134B1B781A46D4
:103DA400124B9B5C1846FFF74BFE0120FCF7A8FA68
:103DB4000D4B1B780133DAB20B4B1A700A4B1B788C
:103DC400072BEAD9074B1B780133DAB2054B1A707B
:103DD400044B1B78FA799A42DBD800BF0837BD46FA
:103DE40080BD00BFBD460020BC460020240000204A
:103DF40080B582B000AF0346FB71164B00221A70E7
:103E04001EE0154B00221A7010E0134B1B781A4663
:103E1400124B9B5C1846FFF713FE0120FCF770FA67
:103E24000D4B1B780133DAB20B4B1A700A4B1B781B
:103E3400072BEAD9074B1B780133DAB2054B1A700A
:103E4400044B1B78FA799A42DBD800BF0837BD4689
:103E540080BD00BFBD460020BC46002024000020D9
:103E640080B588B000AF07F1100300221A605A60D1
:103E74009A60DA60454A454B9B6943F0200393619D
:103E8400424B9B6903F02003FB60FB683F4A3F4BB6
:103E94009B6943F0100393613C4B9B6903F010034F
:103EA400BB60BB68394A394B9B6943F00403936197
:103EB400364B9B6903F004037B607B68334A334BC6
:103EC4009B6943F008039361304B9B6903F008033B
:103ED4003B603B6800224FF238012D48FCF7DEFDC1
:103EE40000224FF470712B48FCF7D8FD0022042106
:103EF4002948FCF7D3FD41F21F033B6100237B619A
:103F04000023BB6107F1100319462248FCF744FC67
:103F14004FF238033B6101237B610023BB61022321
:103F2400FB6107F1100319461948FCF735FC4FF4FF
:103F340070733B6101237B610023BB610223FB613E
:103F440007F1100319461348FCF726FC4FF40063ED
:103F54003B6100237B610023BB6107F11003194619
:103F64000E48FCF719FC04233B6101237B61002309
:103F7400BB610223FB6107F1100319460648FCF7F5
:103F84000BFC00BF2037BD4680BD00BF00100240BF
:103F9400000C0140001001400014014000080140E1
:103FA40080B500AF124B134A1A60114B124A5A6083
:103FB4000F4B00229A600E4B0022DA600C4B4FF438
:103FC40080421A610A4B00225A61094B00229A610D
:103FD400074B0022DA61064B00221A620448FCF700
:103FE4008DFD0346002B01D000F056FE00BF80BDBE
:103FF400C046002000580040A086010080B588B06B
:1040040000AF786007F1100300221A605A609A60CA
:10401400DA607B681B68164A934224D1154A154B13
:104024009B6943F008039361124B9B6903F00803F7
:10403400FB60FB684FF440633B6112237B61032305
:10404400FB6107F1100319460B48FCF7A5FB094A6D
:10405400084BDB6943F48003D361064BDB6903F44B
:104064008003BB60BB6800BF2037BD4680BD00BF76
:104074000058004000100240000C014080B582B09E
:1040840000AF7860084611461A460346FB700B469B
:10409400BB7013467B707B68FA781A707B68BA78B9
:1040A4005A707B687A789A700948FEF7E1FC0948EF
:1040B400FEF740FDFA78B978054813461B0113440E
:1040C40003440B4400221A7000BF0837BD4680BD6C
:1040D4003C0000206001002080B483B000AF786011
:1040E4000B46FB707B79012B02D1FB78002B13D09C
:1040F4007B790F2B02D1FB78022B0DD03B79012B5E
:1041040002D1FB78032B07D03B790F2B02D1FB782C
:10411400012B01D0012300E0002318460C37BD46D3
:1041240080BC704780B584B000AF78600B46FB70EC
:10413400BB79FA7811461846FEF714FD0346BB73A3
:10414400BB7B1846FEF770FC0346FB73FB781946ED
:104154007868FFF7C1FF0346002B06D0FB7BFA7893
:1041640079680548FEF77CFD01E00123FB73FB7BC6
:1041740018461037BD4680BD3C00002080B582B093
:1041840000AF78600B46FB70FB781A4679680448E8
:10419400FEF714FD034618460837BD4680BD00BF30
:1041A4003C00002080B586B000AF7860FF23FB732D
:1041B40000237B6108E07B69DBB219467868FFF76E
:1041C400B1FF7B6901337B617B69032BF3DD002342
:1041D4003B6118E03B69DBB219467868FFF7A2FF40
:1041E4000346002B0CD13B69DBB219467868FFF714
:1041F400C5FF0346002B03D03B69FB73FB7B06E042
:104204003B6901333B613B69032BE3DDFB7B1846D0
:104214001837BD4680BD00BF80B584B000AF78605C
:104224000B46FB70FB78FF2B2CD0BB79FA78114638
:104234001846FEF797FC0346FB73FB7B002B03D168
:104244006820FFF72BFD1EE0FB7B012B06D13020FD
:10425400FFF796FD6820FFF721FD14E0FB7B022B9E
:1042640006D16020FFF7C4FD6820FFF717FD0AE0C0
:10427400FB7B032B07D13020FFF74AFD6820FFF7B3
:104284000DFD00E000BF1037BD4680BD80B582B093
:1042940000AF78600B46FB70FA7800237968034816
:1042A400FEF7C8FD00BF0837BD4680BD3C000020B6
:1042B40080B483B000AF0346FB71064B1B685A1CE5
:1042C40004490A600449FA79CA5400BF0C37BD4650
:1042D40080BC7047184700206001002080B483B080
:1042E40000AF78600B46FB70FB78002B05D17B6830
:1042F4005B78023BDAB27B685A70FB78012B05D1FC
:104304007B681B780233DAB27B681A70FB78022B65
:1043140005D17B685B780233DAB27B685A70FB782C
:10432400032B05D17B681B78023BDAB27B681A70D9
:10433400FB78FF2B02D07B68FA789A7000BF0C37A9
:10434400BD4680BC704700BF80B582B000AF00237B
:10435400FB7146E00023BB713DE0FA79B97924484A
:1043640013461B01134403440B441B7803F001035D
:10437400002B03D01F4B01221A7002E01D4B0022B8
:104384001A7000237B7120E000233B7117E0FB7956
:104394001A4652001344DAB27B791344D8B2BB797B
:1043A4001A4652001344DAB23B791344D9B2114B82
:1043B4001B781A46FFF740FA3B7901333B713B798E
:1043C400022BE4D97B7901337B717B79022BDBD916
:1043D400BB790133BB71BB79102BBED9FB79013397
:1043E400FB71FB79102BB5D900BF0837BD4680BDE2
:1043F4003C0000201C47002080B584B000AF7860EA
:104404000023FB7323E00023BB731AE03B791A46B5
:1044140052001344DAB2FB7B1344DBB20133D8B24B
:104424007B791A4652001344DAB2BB7B1344DBB2E5
:104434000133DBB201221946FFF7FEF9BB7B0133DE
:10444400BB73BB7B002BE1D0FB7B0133FB73FB7B9A
:10445400002BD8D0BB79002B10D13B791A465200DF
:104464001344DBB20133D8B27B791A4652001344A9
:10447400DBB201221946FFF7DFF93BE0BB79012BE0
:1044840012D13B791A4652001344DBB20233D8B23C
:104494007B791A4652001344DBB20133DBB20122AA
:1044A4001946FFF7C9F925E0BB79022B12D13B79F4
:1044B4001A4652001344DBB20133D8B27B791A4650
:1044C40052001344DBB20233DBB201221946FFF778
:1044D400B3F90FE03B791A4652001344D8B27B7902
:1044E4001A4652001344DBB20133DBB201221946EF
:1044F400FFF7A2F900BF1037BD4680BD80B500AFFD
:104504009F4B1B78002B1ED09E4B18789E4B1B781C
:10451400013BDBB201221946FFF78EF9994B18785B
:10452400994B1B78023BDBB201221946FFF784F951
:10453400944B1878944B1B78033BDBB20122194649
:10454400FFF77AF91DE08F4B18788F4B1B78013BEE
:10455400DBB200221946FFF76FF98A4B18788A4BB1
:104564001B78023BDBB200221946FFF765F9854B45
:104574001878854B1B78033BDBB200221946FFF702
:104584005BF9824B1B78002B24D07E4B1B78013BBC
:10459400D8B27D4B1B78013BDBB201221946FFF7F1
:1045A4004BF9784B1B78023BD8B2774B1B78023B14
:1045B400DBB201221946FFF73FF9724B1B78033B2C
:1045C400D8B2714B1B78033BDBB201221946FFF7CB
:1045D40033F923E06B4B1B78013BD8B26A4B1B7851
:1045E400013BDBB200221946FFF726F9654B1B7825
:1045F400023BD8B2644B1B78023BDBB20022194663
:10460400FFF71AF95F4B1B78033BD8B25E4B1B785C
:10461400033BDBB200221946FFF70EF95C4B1B7813
:10462400002B1ED0574B1B78013BD8B2564B1B783E
:1046340001221946FFF700F9524B1B78023BD8B20E
:10464400514B1B7801221946FFF7F6F84D4B1B78A6
:10465400033BD8B24C4B1B7801221946FFF7ECF808
:104664001DE0484B1B78013BD8B2474B1B78002216
:104674001946FFF7E1F8434B1B78023BD8B2424B93
:104684001B7800221946FFF7D7F83E4B1B78033BF3
:10469400D8B23D4B1B7800221946FFF7CDF83D4BAD
:1046A4001B78002B24D0374B1B780133D8B2364B00
:1046B4001B78013BDBB201221946FFF7BDF8314BF1
:1046C4001B780233D8B2304B1B78023BDBB2012299
:1046D4001946FFF7B1F82B4B1B780333D8B22A4B9A
:1046E4001B78033BDBB201221946FFF7A5F823E050
:1046F400244B1B780133D8B2234B1B78013BDBB22C
:1047040000221946FFF798F81E4B1B780233D8B2E3
:104714001D4B1B78023BDBB200221946FFF78CF8D5
:10472400184B1B780333D8B2174B1B78033BDBB20F
:1047340000221946FFF780F8174B1B78002B2DD069
:10474400104B1B780133D8B20F4B1B78012219464A
:10475400FFF772F80B4B1B780233D8B20A4B1B7865
:1047640001221946FFF768F8064B1B780333D8B2C9
:10477400054B1B7801221946FFF75EF82CE000BFB9
:10478400B4020020290200202A020020B5020020E1
:10479400B6020020B7020020B80200200F4B1B789D
:1047A4000133D8B20E4B1B7800221946FFF744F8A8
:1047B4000A4B1B780233D8B2094B1B7800221946E6
:1047C400FFF73AF8054B1B780333D8B2044B1B7838
:1047D40000221946FFF730F800BF80BD29020020EF
:1047E4002A02002080B582B000AF012204212848AB
:1047F400FCF754F94623FB710523BB71B979FB79A6
:1048040001221846FFF718F8FB790133D8B2BB79B7
:104814000133DBB201221946FFF70EF8FB79013BA5
:10482400D8B2BB790133DBB201221946FFF704F891
:10483400BB790133D9B2FB7901221846FEF7FCFF9C
:104844004FF400611348FCF711F90346002B17D10C
:104854000DE04FF47A70FBF753FD4FF400610D48FF
:10486400FCF704F90346002B01D101230CE04FF4BB
:1048740000610848FCF7FAF80346002BE9D002E08F
:10488400FFF73CFEDCE7002318460837BD4680BD31
:10489400001401400008014080B582B000AF00233D
:1048A400FB710023BB7100237B71FBF7C7FC00F095
:1048B400CFF8FFF7D5FA00F049FBFFF771FB00F0E2
:1048C400F3FB00F01BFC00F077FB01225249534834
:1048D400FDF7C4FC012252495248FDF7BFFC52487F
:1048E400FDF786F95148FDF783F9FEF7A5FEFEF7BB
:1048F400ADFE3846012301220121FFF7BFFBFFF77C
:1049040023FD3868FFF778FDFFF76CFF03461A466E
:10491400474B1A70464B1B78002B0FD00C23454A8B
:1049240005214620FEF758FF00BF4FF400614248BE
:10493400FCF79CF80346002BF7D005E00C233F4A14
:1049440005214620FEF748FF00233B71384B1B78B6
:10495400002B08D000BF4FF400613748FCF786F8FD
:104964000346002BF7D1FB79002B07D13868FFF7FA
:1049740019FC0346BB7100237B7115E030493148B3
:10498400FEF770FB0346BB71BB79FF2B0CD12648A5
:10499400FDF752F92548FDF74FF90C232A4A052162
:1049A4004620FEF719FFFEE7BB79FF2B15D12449FA
:1049B4002448FEF729FB0346BB7101237B71BB79B5
:1049C400FF2B0AD11F4A21493868FEF75DFC0346D4
:1049D4001A461B4B1A600123FB71BB7919463868D0
:1049E400FFF71AFC7B79002B03D1BB791846FFF73C
:1049F4005FFCBB7919463868FFF748FCBA793B4637
:104A040011461846FFF76AFCFFF79EFC3868FFF76B
:104A1400F3FCFFF773FD97E714470020A447002039
:104A240015470020E4470020244700206447002065
:104A34002802002054620008000801405C6200085B
:104A44001847002060010020646200083C00002038
:104A540080B590B000AF07F1180328220021184652
:104A640000F07EFC3B1D00221A605A609A60DA60F6
:104A74001A610123BB614FF48033FB6100233B6265
:104A84000123BB6202237B634FF48033BB634FF487
:104A9400E013FB6307F118031846FCF761FC0346B7
:104AA400002B01D000F0F8F80F237B600223BB60D9
:104AB4000023FB604FF480633B6100237B613B1D5B
:104AC40002211846FCF7CAFE0346002B01D000F071
:104AD400E3F800BF4037BD4680BD00BF80B582B05B
:104AE40000AF78607B681A68464B1B689A4240F0B6
:104AF4008480454B1B78002B05D1444B1B7818460A
:104B0400FDF754FF5EE0414B1B78012B0ED10121D0
:104B14003F48FBF7ABFF0346002B03D03D4B00227D
:104B24001A704FE03B4B01221A704BE0374B1B7855
:104B3400022B0ED102213648FBF798FF0346002BC7
:104B440003D0354B00221A703CE0334B01221A701B
:104B540038E02E4B1B78032B0ED104212C48FBF795
:104B640085FF0346002B03D02C4B00221A7029E04A
:104B74002A4B01221A7025E0244B1B78042B0ED1FA
:104B840008212348FBF772FF0346002B03D0244B74
:104B940000221A7016E0224B01221A7012E01B4BFD
:104BA4001B78052B0ED14FF480511948FBF75EFF9B
:104BB4000346002B03D01B4B00221A7002E0194B52
:104BC40001221A70104B1B78002B05D00F4B1B7859
:104BD4000133DAB20D4B1A700C4B1B78052B02D93A
:104BE4000A4B00221A70084B1B78002B0CBF0123C0
:104BF4000023DBB21A46044B1A7000BF0837BD46C7
:104C040080BD00BF644700201D4700202B02002008
:104C140000100140B4020020B5020020B6020020BA
:104C2400B7020020B802002080B582B000AF7860DF
:104C34007B68144A93420ED104211348FBF746FFC4
:104C44006423012211490F48FDF770FA01220F492C
:104C54000C48FDF703FB7B680D4A93420ED10421F7
:104C64000948FBF733FF642301220A490848FDF78A
:104C74005DFA012207490648FDF7F0FA00BF08373C
:104C8400BD4680BDE44700200014014015470020C4
:104C9400A44700201447002080B400AF00BFBD46E5
:104CA40080BC704780B485B000AF154A144B9B6933
:104CB40043F001039361124B9B6903F00103BB6052
:104CC400BB680F4A0E4BDB6943F08053D3610C4B36
:104CD400DB6903F080537B607B680A4B5B68FB6095
:104CE400FB6823F0E063FB60FB6843F00073FB6048
:104CF400044AFB68536000BF1437BD4680BC70474C
:104D0400001002400000014080B400AF00BFBD4667
:104D140080BC704780B400AFFEE700BF80B400AF32
:104D2400FEE700BF80B400AFFEE700BF80B400AF71
:104D3400FEE700BF80B400AF00BFBD4680BC704733
:104D440080B400AF00BFBD4680BC704780B400AFE4
:104D540000BFBD4680BC704780B500AFFBF7B4FA16
:104D640000BF80BD80B500AF0248FDF7CBFA00BF9D
:104D740080BD00BFA447002080B500AF0248FDF706
:104D8400C1FA00BF80BD00BFE447002080B500AF7A
:104D94000248FCF77BFF00BF80BD00BF2447002012
:104DA40080B500AF0248FCF771FF00BF80BD00BFB3
:104DB4006447002090B587B000AFF860B9607A60AE
:104DC40000237B610AE0BC68631CBB60AFF3008016
:104DD4000346DBB223707B6901337B617A697B68AC
:104DE4009A42F0DB7B6818461C37BD4690BD00BF75
:104DF40080B586B000AFF860B9607A6000237B614B
:104E040009E0BB685A1CBA601B78184600F034FAF3
:104E14007B6901337B617A697B689A42F1DB7B6849
:104E240018461837BD4680BD80B584B000AF7860A1
:104E3400114B1B68002B02D10F4B104A1A600E4B0A
:104E44001B68FB600C4B1A687B6813446A469342E8
:104E540007D900F049FA02460C2313604FF0FF33E0
:104E640006E0054B1A687B681344034A1360FB6829
:104E740018461037BD4680BD20470020304800202A
:104E840080B483B000AF78604FF0FF3318460C371E
:104E9400BD4680BC704700BF80B483B000AF78606B
:104EA40039603B684FF400525A60002318460C37AF
:104EB400BD4680BC704700BF80B483B000AF78604B
:104EC400012318460C37BD4680BC704780B485B0BA
:104ED40000AFF860B9607A60002318461437BD4605
:104EE40080BC704780B400AF154A154B1B6843F073
:104EF400010313601249124B5A68124B13404B6062
:104F04000F4A0F4B1B6823F0847323F48033136020
:104F14000B4A0B4B1B6823F480231360084A084B8D
:104F24005B6823F4FE035360054B4FF41F029A6041
:104F3400054B4FF000629A6000BFBD4680BC7047CD
:104F4400001002400000FFF800ED00E080B582B0E0
:104F540000AF3B4600221A605A60154B154A1A608E
:104F6400134B41F61F425A60114B00229A60104BBA
:104F740040F2E732DA600E4B00229A610C48FCF7EB
:104F84000BFE0346002B01D0FFF786FE00233B6097
:104F940000237B603B4619460548FDF721F803468C
:104FA400002B01D0FFF778FE00BF0837BD4680BD57
:104FB400244700200010004080B582B000AF3B467B
:104FC40000221A605A60154B154A1A60134B41F6B9
:104FD4001F425A60114B00229A60104B6322DA6020
:104FE4000E4B00229A610D48FCF7D6FD0346002BB8
:104FF40001D0FFF751FE00233B6000237B603B465A
:1050040019460648FCF7ECFF0346002B01D0FFF7D6
:1050140043FE00BF0837BD4680BD00BF6447002083
:105024000014004080B584B000AF78607B681B68D2
:105034001A4A934214D11A4A194BDB6943F01003FC
:10504400D361174BDB6903F01003FB60FB6800229C
:1050540001213620FBF74CFA3620FBF765FA18E0FD
:105064007B681B680F4A934213D10D4A0C4BDB69D2
:1050740043F02003D3610A4BDB6903F02003BB60D8
:10508400BB68002200213720FBF732FA3720FBF7F8
:105094004BFA00BF1037BD4680BD00BF0010004072
:1050A400001002400014004080B500AF114B124ABA
:1050B4001A60104B4FF4E1325A600E4B00229A6092
:1050C4000C4B0022DA600B4B00221A61094B0C22B4
:1050D4005A61084B00229A61064B0022DA610548A6
:1050E400FCF7D6FF0346002B01D0FFF7D5FD00BF28
:1050F40080BD00BFA44700200038014080B500AF48
:10510400114B124A1A60104B4FF416525A600E4B50
:1051140000229A600C4B0022DA600B4B00221A61C9
:10512400094B0C225A61084B00229A61064B00225B
:10513400DA610548FCF7ACFF0346002B01D0FFF70A
:10514400ABFD00BF80BD00BFE44700200044004029
:1051540080B58AB000AF786007F1180300221A60A6
:105164005A609A60DA607B681B683F4A93423AD17E
:105174003E4A3E4B9B6943F4804393613B4B9B699E
:1051840003F480437B617B69384A384B9B6943F065
:1051940004039361354B9B6903F004033B613B6952
:1051A4004FF40073BB610223FB6103237B6207F1AD
:1051B400180319462E48FBF7EFFA4FF48063BB61DE
:1051C4000023FB6100233B6207F1180319462848BA
:1051D400FBF7E2FA002200212520FBF789F92520BC
:1051E400FBF7A2F93CE07B681B68224A934237D163
:1051F4001E4A1E4BDB6943F40033D3611B4BDB694E
:1052040003F40033FB60FB68184A184B9B6943F0B6
:1052140004039361154B9B6903F00403BB60BB68F3
:105224000423BB610223FB6103237B6207F11803A0
:1052340019460F48FBF7B0FA0823BB610023FB6152
:1052440000233B6207F1180319460948FBF7A4FA47
:10525400002200212620FBF74BF92620FBF764F9F6
:1052640000BF2837BD4680BD003801400010024011
:10527400000801400044004080B582B000AF78606F
:10528400391D4FF6FF7301220348FCF74FFF7B687B
:1052940018460837BD4680BDA4470020002103E01E
:1052A4000B4B5B58435004310A480B4B42189A424B
:1052B400F6D30A4A02E0002342F8043B084B9A4220
:1052C400F9D3FFF70FFE00F015F8FFF7E5FA704782
:1052D4002C6B00080000002094020020940200209F
:1052E40030480020FEE70000014B1868704700BFFB
:1052F400900200200E4B70B51E460E4C0025E41A99
:10530400A410A54204D056F8253098470135F8E793
:1053140000F082FF084B094C1E46E41AA410002535
:10532400A54204D056F8253098470135F8E770BDFA
:10533400246B0008246B0008246B0008286B000809
:10534400024B0146186800F05FB800BF90020020CD
:10535400024B0146186800F00BB800BF9002002011
:1053640003460244934202D003F8011BFAE7704754
:1053740038B50546002944D051F8043C0C1F002BD5
:10538400B8BFE41800F0A4F91E4A1368114613B913
:105394006360146030E0A3420DD92268A0188342F0
:1053A40001BF18685B681218226063600C6023E018
:1053B400A24203D813465A68002AF9D1186819186A
:1053C400A1420BD12168014458188242196013D1BB
:1053D40010685268014419605A600DE002D90C2328
:1053E4002B6009E021686018824201BF106852688E
:1053F4000918216062605C602846BDE8384000F00E
:1054040068B938BD2848002070B5CD1C25F00305C7
:1054140008350C2D38BF0C25002D064601DBA942AA
:1054240002D90C23336046E000F052F9234B1C6888
:105434001A462146A1B10B685B1B0ED40B2B03D972
:105444000B60CC18CD501EE08C420BBF63684B68D8
:105454001360636018BF0C4615E00C464968E9E721
:10546400174C23681BB9304600F058F820602946D1
:10547400304600F053F8431C18D0C41C24F0030435
:10548400A0420DD12560304600F023F904F10B0051
:10549400231D20F00700C31A0ED05A42E25070BDFB
:1054A400211A304600F03AF80130EBD10C23336076
:1054B400304600F00EF9002070BD00BF28480020DF
:1054C400244800200FB40A4B13B51C6824B1A36907
:1054D40013B9204600F072F805AB049AA16820467F
:1054E400019300F01FF902B0BDE8104004B070470A
:1054F4009002002038B5084B05461C6824B1A36906
:1055040013B9204600F05AF8A26829462046BDE89F
:10551400384000F0BFBB00BF9002002038B5064CF5
:105524000023054608462360FFF77EFC431C02D196
:10553400236803B12B6038BD2C480020014900F0DA
:10554400A9B800BF6160000810B5044600230360D9
:105554004360836081814366C281036143618361E7
:10556400194608225C30FFF7FBFE054B2462636298
:10557400044BA362044BE362044B236310BD00BFDE
:10558400055D0008275D00085F5D0008835D000875
:1055940070B568234D1E5D430E4605F17401FFF797
:1055A40033FF044640B1002180E842000C30A06083
:1055B40005F16802FFF7D4FE204670BD836910B57B
:1055C400044633BB8364C3640365124B124A1B68ED
:1055D4008262984204BF0123836100F01FF8606077
:1055E400204600F01BF8A060204600F017F80022C7
:1055F400E06004216068FFF7A7FF01220921A06889
:10560400FFF7A2FF02221221E068FFF79DFF0123AA
:10561400A36110BD8C6A000841550008F8B51C4B05
:1056240007461E68B36913B93046FFF7C7FF48360B
:10563400B4687368013B04D4B4F90C507DB1683488
:10564400F8E733680BB13668F2E704213846FFF710
:105654009FFF30600028F6D10C233B60F8BD4FF665
:10566400FF73E3810123A38165662560A5606560FE
:1056740025616561A5610822294604F15C00FFF7F4
:105684006FFE6563A563A564E5642046F8BD00BFAD
:105694008C6A00082DE9F8438046894600F14804E5
:1056A400002694B1A5686768013F0CD4AB89012B2F
:1056B40007D9B5F90E30013303D029464046C8470F
:1056C40006436835F0E72468EBE73046BDE8F88325
:1056D40070477047936810B4013B002B936008DA5D
:1056E4009469A34202DBCBB20A2B02D110BC00F0B6
:1056F4004BBB1368581C10601970C8B210BC7047BB
:10570400F8B506460F461446D518AC4208D03A46BA
:1057140014F8011B3046FFF7DDFF431CF5D100E010
:105724000020F8BD2DE9F04F9DB00C4617460393B9
:10573400064618B183690BB9FFF740FF7F4B9C42C3
:1057440001D1746808E07E4B9C4201D1B46803E047
:105754007C4B9C4208BFF468A38918070CD52369C5
:1057640053B10023099320238DF8293030238DF879
:105774002A30DFF8D4B144E02146304600F06AFB19
:105784000028EED04FF0FF30D5E0039A111D1268C7
:105794000391002A80F28C80524243F00200079267
:1057A400049098F800302E2B00F08480032298F89F
:1057B4000010654800F0EEFC48B14023CBEB00003C
:1057C40003FA00F0049B08F101081843049098F8C8
:1057D400001006225D4808F101078DF8281000F03A
:1057E400D9FC002800F09580594B002B40F08880AC
:1057F400039B073323F0070308330393099B5344A4
:105804000993B846454615F8013B1BB9B8EB07099F
:105814000FD003E0252BF9D0A846F3E74B463A46D0
:1058240021463046FFF76CFF01307FD0099B4B4483
:10583400099398F80030002B78D000234FF0FF3202
:1058440004930793059206938DF853301A93012716
:10585400052229783F4800F09DFC05F10108049BCE
:1058640038B13C4A4546801A07FA00F018430490C0
:10587400EEE7D90644BF20228DF853201A0744BF0F
:105884002B228DF853202A782A2A3FF47EAF079AD8
:1058940000210A20A84698F800300135303B092B36
:1058A40003D800FB02320121F4E700293FF479AF69
:1058B400079276E798F801302A2B0BD1039B08F165
:1058C40002081A1D1B680392002BB8BF4FF0FF3368
:1058D40005936BE700231946059308F101000A2597
:1058E400804698F800200130303A092A03D805FB95
:1058F40001210123F4E7002B3FF458AF059155E74C
:1059040003AB00932246144B04A93046AFF3008046
:1059140007E003AB009322460F4B04A9304600F086
:1059240093F8B0F1FF3F82467FF468AFA3895B062A
:105934003FF528AF09981DB0BDE8F08F906A0008C4
:10594400B06A0008D06A0008F66A0008FA6A00081B
:1059540000000000F06A0008055700082DE9F04730
:1059640091461F460A698B6806469342B8BF1346A0
:10597400C9F8003091F843200C46DDF8208012B1BC
:105984000133C9F800302368990642BFD9F80030C2
:105994000233C9F80030256815F0060510D104F16A
:1059A400190A07E00123524639463046C047013000
:1059B4001AD00135E368D9F800209B1A9D42F1DB27
:1059C40094F843302268003318BF012392060FD5A0
:1059D400E118302081F843005A1C94F84510224401
:1059E400023382F8431003E04FF0FF30BDE8F08744
:1059F40004F1430239463046C0470130F4D02268EE
:105A0400D9F80050E36802F00602042A08BF5D1BBF
:105A14002269A3680CBF25EAE57500259342C4BF3B
:105A24009B1AED184FF000091A344D4509D0012393
:105A3400224639463046C0470130D5D009F1010924
:105A4400F3E70020BDE8F0872DE9F04317460A7E0E
:105A540085B06E2A984606460C460C9B01F1430E0F
:105A640000F0AE8011D8632A22D009D8002A00F0B1
:105A7400BB80582A40F0CA8081F84520834955E00C
:105A8400642A1ED0692A1CD0C0E0732A00F0B080BA
:105A940009D86F2A2ED0702A40F0B8800A6842F0E4
:105AA40020020A603EE0752A24D0782A3AD0ADE07C
:105AB4001A6801F14205111D1960136884F8423017
:105AC400A8E021681A6811F0800F02D0111D196036
