:020000040800F2
:1000000000C00020E5340008392F0008452F000803
:100010004D2F0008552F00085D2F0008000000003C
:10002000000000000000000000000000652F000834
:10003000712F0008000000007D2F0008892F0008A4
:100040002D3500082D3500082D3500082D35000808
:100050002D3500082D3500082D3500082D350008F8
:100060002D3500082D3500082D3500082D350008E8
:100070002D3500082D3500082D3500082D350008D8
:100080002D3500082D3500082D3500082D350008C8
:100090002D3500082D3500082D3500082D350008B8
:1000A0002D3500082D3500082D3500082D350008A8
:1000B0002D3500082D3500082D3500082D35000898
:1000C0002D3500082D3500082D3500082D35000888
:1000D0002D3500082D3500082D3500082D35000878
:1000E0002D3500082D3500082D3500082D35000868
:1000F0002D3500082D3500082D3500082D35000858
:100100002D3500082D3500082D3500082D35000847
:100110002D3500082D350008952F00082D350008D5
:100120002D3500082D3500082D3500082D35000827
:1001300000000000000000000000000000000000BF
:1001400000000000000000000000000000000000AF
:10015000000000000000000000000000000000009F
:10016000000000000000000000000000000000008F
:10017000000000000000000000000000000000007F
:10018000000000000000000000000000000000006F
:10019000000000000000000000000000000000005F
:1001A000000000000000000000000000000000004F
:1001B000000000000000000000000000000000003F
:1001C000000000000000000000000000000000002F
:1001D000000000000000000000000000000000001F
:0401E0005FF8E0F1F3
:1001E40010B5054C237833B9044B13B10448AFF36D
:1001F40000800123237010BD1C01002000000000BA
:100204008C350008084B10B51BB108490848AFF3FA
:1002140000800848036803B910BD074B002BFBD0CE
:10022400BDE81040184700BF000000002001002076
:100234008C3500081C0100200000000080F0004004
:1002440002E000BF81F0004142001FBF5FEA4103AA
:1002540092EA030F7FEA226C7FEA236C6AD04FEAAA
:100264001262D2EB1363C1BFD218414048404140EF
:10027400B8BF5B42192B88BF704710F0004F40F4A1
:10028400000020F07F4018BF404211F0004F41F4BD
:10029400000121F07F4118BF494292EA030F3FD089
:1002A400A2F1010241FA03FC10EB0C00C3F120039C
:1002B40001FA03F100F0004302D5494260EB40002B
:1002C400B0F5000F13D3B0F1807F06D340084FEA96
:1002D400310102F10102FE2A51D2B1F1004F40EB8B
:1002E400C25008BF20F0010040EA030070474900F3
:1002F40040EB000010F4000FA2F10102EDD1B0FABE
:1003040080FCACF1080CB2EB0C0200FA0CF0AABFB2
:1003140000EBC25052421843BCBFD0401843704750
:1003240092F0000F81F4000106BF80F40000013256
:10033400013BB5E74FEA41037FEA226C18BF7FEA2D
:10034400236C21D092EA030F04D092F0000F08BF6F
:100354000846704790EA010F1CBF0020704712F056
:100364007F4F04D1400028BF40F00040704712F195
:1003740000723CBF00F50000704700F0004343F0FA
:10038400FE4040F4000070477FEA226216BF084630
:100394007FEA23630146420206BF5FEA412390EAF3
:1003A400010F40F4800070474FF0000304E000BFE9
:1003B40010F0004348BF40425FEA000C08BF70479A
:1003C40043F0964301464FF000001CE050EA01025E
:1003D40008BF70474FF000030AE000BF50EA010273
:1003E40008BF704711F0004302D5404261EB410160
:1003F4005FEA010C02BF84460146002043F0B64385
:1004040008BFA3F18053A3F50003BCFA8CF2083AA9
:10041400A3EBC25310DB01FA02FC634400FA02FCB2
:10042400C2F12002BCF1004F20FA02F243EB0200B9
:1004340008BF20F00100704702F1200201FA02FC1B
:10044400C2F1200250EA4C0021FA02F243EB02000E
:1004540008BF20EADC7070474FF0FF0C1CEAD05252
:100464001EBF1CEAD15392EA0C0F93EA0C0F6FD013
:100474001A4480EA010C400218BF5FEA41211ED0F1
:100484004FF0006343EA501043EA5111A0FB0131DD
:100494000CF00040B1F5000F3EBF490041EAD371B2
:1004A4005B0040EA010062F17F02FD2A1DD8B3F12E
:1004B400004F40EBC25008BF20F00100704790F09D
:1004C400000F0CF0004C08BF49024CEA502040EAEF
:1004D40051207F3AC2BFD2F1FF0340EAC2507047B5
:1004E40040F400004FF00003013A5DDC12F1190FF3
:1004F400DCBF00F000407047C2F10002410021FA65
:1005040002F1C2F1200200FA02FC5FEA310040F17C
:10051400000053EA4C0308BF20EADC70704792F0F5
:10052400000F00F0004C02BF400010F4000F013A2D
:10053400F9D040EA0C0093F0000F01F0004C02BF28
:10054400490011F4000F013BF9D041EA0C018FE797
:100554000CEAD15392EA0C0F18BF93EA0C0F0AD09D
:1005640030F0004C18BF31F0004CD8D180EA0100C3
:1005740000F00040704790F0000F17BF90F0004F5C
:10058400084691F0000F91F0004F14D092EA0C0F3E
:1005940001D142020FD193EA0C0F03D14B0218BFD1
:1005A400084608D180EA010000F0004040F0FE4017
:1005B40040F40000704740F0FE4040F440007047B3
:1005C4004FF0FF0C1CEAD0521EBF1CEAD15392EA32
:1005D4000C0F93EA0C0F69D0A2EB030280EA010C22
:1005E40049024FEA402037D04FF0805343EA1111BB
:1005F40043EA10130CF000408B4238BF5B0042F119
:100604007D024FF4000C8B4224BF5B1A40EA0C00BD
:10061400B3EB510F24BFA3EB510340EA5C00B3EBEF
:10062400910F24BFA3EB910340EA9C00B3EBD10FDD
:1006340024BFA3EBD10340EADC001B0118BF5FEA2F
:100644001C1CE0D1FD2A3FF650AF8B4240EBC25058
:1006540008BF20F0010070470CF0004C4CEA502019
:100664007F32C2BFD2F1FF0340EAC250704740F468
:1006740000004FF00003013A37E792F0000F00F05A
:10068400004C02BF400010F4000F013AF9D040EAD8
:100694000C0093F0000F01F0004C02BF490011F46C
:1006A400000F013BF9D041EA0C0195E70CEAD15364
:1006B40092EA0C0F08D142027FF47DAF93EA0C0F4B
:1006C4007FF470AF084676E793EA0C0F04D14B022F
:1006D4003FF44CAF08466EE730F0004C18BF31F0E1
:1006E400004CCAD130F000427FF45CAF31F00043DB
:1006F4007FF43CAF5FE700BF4FEA4002B2F1FE4F28
:100704000FD34FF09E03B3EB12620DD94FEA0023CF
:1007140043F0004310F0004F23FA02F018BF4042A8
:1007240070474FF00000704712F1610F01D142028F
:1007340005D110F0004008BF6FF0004070474FF043
:100744000000704780B500AF084A084B1B6843F0AF
:1007540010031360032000F021F9002000F008F8D2
:1007640002F0B6FB0023184680BD00BF0020024003
:1007740080B582B000AF7860124B1A68124B1B78B8
:1007840019464FF47A73B3FBF1F3B2FBF3F3184653
:1007940000F03AF90346002B01D001230EE07B68F8
:1007A4000F2B0AD8002279684FF0FF3000F002F9CD
:1007B400064A7B681360002300E0012318460837CB
:1007C400BD4680BD18010020040000200000002068
:1007D40080B400AF054B1B781A46054B1B681344C5
:1007E400034A136000BFBD4680BC7047040000206C
:1007F4003801002080B400AF024B1B681846BD4688
:1008040080BC70473801002080B485B000AF7860A8
:100814007B6803F00703FB600C4BDB68BB60BA68C2
:100824004FF6FF031340BB60FB681A02BB68134317
:1008340043F0BF6343F40033BB60044ABB68D36036
:1008440000BF1437BD4680BC704700BF00ED00E018
:1008540080B400AF044BDB6803F4E0631B0A184662
:10086400BD4680BC704700BF00ED00E080B483B09B
:1008740000AF0346FB7197F90730002B0BDB0849E7
:1008840097F907305B09FA7902F01F02012000FA98
:1008940002F241F8232000BF0C37BD4680BC7047EC
:1008A40000E100E080B483B000AF03463960FB711F
:1008B40097F90730002B0ADB0D4997F907303A689E
:1008C400D2B21201D2B20B4483F800230AE00949E0
:1008D400FB7903F00F03043B3A68D2B21201D2B29F
:1008E4000B441A7600BF0C37BD4680BC704700BF6E
:1008F40000E100E000ED00E080B489B000AFF860F2
:10090400B9607A60FB6803F00703FB61FB69C3F11C
:100914000703042B28BF0423BB61FB690433062BA4
:1009240002D9FB69033B00E000237B610122BB6920
:1009340002FA03F35A1EBB681A407B699A400121EC
:100944007B6901FA03F3591E7B680B401343184675
:100954002437BD4680BC704780B582B000AF786054
:100964007B68013BB3F1807F01D301230FE00A4A86
:100974007B68013B53600F214FF0FF30FFF792FF7C
:10098400054B00229A60044B07221A600023184684
:100994000837BD4680BD00BF10E000E080B582B0DE
:1009A40000AF78607868FFF72FFF00BF0837BD46B7
:1009B40080BD00BF80B586B000AF0346B9607A60E1
:1009C400FB7300237B61FFF743FF78617A68B968A2
:1009D4007869FFF791FF024697F90F3011461846E0
:1009E400FFF760FF00BF1837BD4680BD80B582B0F9
:1009F40000AF0346FB7197F907301846FFF736FF3F
:100A040000BF0837BD4680BD80B582B000AF7860B6
:100A14007868FFF7A1FF034618460837BD4680BD36
:100A240080B48BB000AF7860396000237B62002310
:100A34003B6233E101227B6A02FA03F3FB613B6808
:100A44001A68FB691340BB61BA69FB699A4240F0BA
:100A540022813B685B68122B34D0122B0DD8022BF9
:100A64002BD0022B04D8002B31D0012B1CD048E012
:100A7400032B43D0112B1BD043E08F4A934226D043
:100A84008D4A934206D88D4A934220D08C4A934291
:100A94001DD036E08B4A934219D08B4A934216D02C
:100AA4008A4A934213D02CE03B68DB683B6228E01F
:100AB4003B68DB6804333B6223E03B68DB68083354
:100AC4003B621EE03B68DB680C333B6219E03B6829
:100AD4009B68002B02D104233B6212E03B689B68B5
:100AE400012B05D108233B627B68FA691A6108E08F
:100AF40008233B627B68FA695A6102E000233B6287
:100B040000BFBB69FF2B01D87B6801E07B6804331D
:100B14007B61BB69FF2B02D87B6A9B0002E07B6A86
:100B2400083B9B003B617B691A680F213B6901FA12
:100B340003F3DB431A40396A3B6901FA03F31A43AE
:100B44007B691A603B685B6803F08053002B00F0FC
:100B5400A2805F4A5E4B9B6943F0010393615C4B47
:100B64009B6903F00103BB60BB685A4A7B6A9B081C
:100B7400023352F82330FB607B6A03F003039B00CB
:100B84000F2202FA03F3DB43FA681340FB607B682D
:100B9400514A93421FD07B68504A934219D07B68D4
:100BA4004F4A934213D07B684E4A93420DD07B68E0
:100BB4004D4A934207D07B684C4A934201D10523A6
:100BC4000AE0062308E0042306E0032304E00223EA
:100BD40002E0012300E000237A6A02F0030292009B
:100BE4009340FA681343FB603A497B6A9B080233DB
:100BF400FA6841F823203B685B6803F48033002BD8
:100C040006D03B493A4B1A68BB6913430B6006E0B4
:100C14003749374B1A68BB69DB4313400B603B68A9
:100C24005B6803F40033002B06D03149304B5A681B
:100C3400BB6913434B6006E02D492D4B5A68BB69D1
:100C4400DB4313404B603B685B6803F48013002B69
:100C540006D02749264B9A68BB6913438B6006E08C
:100C64002349234B9A68BB69DB4313408B603B6881
:100C74005B6803F40013002B06D01D491C4BDA6893
:100C8400BB691343CB6006E01949194BDA68BB69A9
:100C9400DB431340CB607B6A01337B623B681A6899
:100CA4007B6A22FA03F3002B7FF4C4AE00BF2C3717
:100CB400BD4680BC704700BF000021100000111029
:100CC4000000121000003110000032100000221049
:100CD400001002400000014000080140000C0140E7
:100CE400001001400014014000180140001C0140A4
:100CF4000004014080B485B000AF78600B467B806F
:100D04007B689A687B881340002B02D00123FB7315
:100D140001E00023FB73FB7B18461437BD4680BCFF
:100D2400704700BF80B483B000AF78600B467B800F
:100D340013467B707B78002B03D07A887B681A611A
:100D440003E07B881A047B681A6100BF0C37BD4638
:100D540080BC704780B586B000AF78607B68002B9C
:100D640001D101236AE27B681B6803F00103002BB5
:100D740000F08680914B5B6803F00C03042B0BD0CE
:100D84008E4B5B6803F00C03082B11D18B4B5B6813
:100D940003F48033002B0BD0884B1B6803F400331F
:100DA400002B6CD07B685B68002B68D1012345E283
:100DB4007B685B68B3F5803F06D1804A7F4B1B6834
:100DC40043F4803313602EE07B685B68002B0CD106
:100DD4007A4A7A4B1B6823F480331360774A774B43
:100DE4001B6823F4802313601DE07B685B68B3F504
:100DF400A02F0CD1714A714B1B6843F480231360FC
:100E04006E4A6E4B1B6843F4803313600BE06B4AED
:100E14006A4B1B6823F480331360684A674B1B6872
:100E240023F4802313607B685B68002B13D0FFF7E7
:100E3400E1FC386108E0FFF7DDFC02463B69D31AA8
:100E4400642B01D90323F9E15C4B1B6803F40033E1
:100E5400002BF0D014E0FFF7CDFC386108E0FFF779
:100E6400C9FC02463B69D31A642B01D90323E5E18B
:100E7400524B1B6803F40033002BF0D100E000BF99
:100E84007B681B6803F00203002B63D04B4B5B6849
:100E940003F00C03002B0BD0484B5B6803F00C03EE
:100EA400082B1CD1454B5B6803F48033002B16D10F
:100EB400424B1B6803F00203002B05D07B681B69BF
:100EC400012B01D00123B9E13C493C4B1B6823F0C1
:100ED400F8027B685B69DB0013430B603AE07B68D4
:100EE4001B69002B20D0364B01221A60FFF782FCCD
:100EF400386108E0FFF77EFC02463B69D31A022BF7
:100F040001D903239AE12D4B1B6803F00203002B44
:100F1400F0D02A49294B1B6823F0F8027B685B69EF
:100F2400DB0013430B6015E0254B00221A60FFF72A
:100F340061FC386108E0FFF75DFC02463B69D31AA7
:100F4400022B01D9032379E11C4B1B6803F0020334
:100F5400002BF0D17B681B6803F00803002B39D009
:100F64007B689B69002B19D0164B01221A60FFF78E
:100F740041FC386108E0FFF73DFC02463B69D31AA7
:100F8400022B01D9032359E10C4B5B6A03F00203E2
:100F9400002BF0D0012000F0A9FA1BE0094B00223D
:100FA4001A60FFF727FC38610EE0FFF723FC0246C6
:100FB4003B69D31A022B07D903233FE100100240F7
:100FC40000004242800442429E4B5B6A03F00203EB
:100FD400002BEAD17B681B6803F00403002B00F0AC
:100FE400A6800023FB75974BDB6903F08053002B2D
:100FF4000DD1944A934BDB6943F08053D361914BF9
:10100400DB6903F08053BB60BB680123FB758E4B27
:101014001B6803F48073002B18D18B4A8A4B1B681E
:1010240043F480731360FFF7E5FB386108E0FFF7D2
:10103400E1FB02463B69D31A642B01D90323FDE08B
:10104400814B1B6803F48073002BF0D07B68DB6852
:10105400012B06D17B4A7B4B1B6A43F001031362CD
:101064002DE07B68DB68002B0CD1764A754B1B6A3C
:1010740023F001031362734A724B1B6A23F00403C7
:1010840013621CE07B68DB68052B0CD16D4A6D4B49
:101094001B6A43F0040313626A4A6A4B1B6A43F0F7
:1010A400010313620BE0674A664B1B6A23F00103DA
:1010B4001362644A634B1B6A23F0040313627B6864
:1010C400DB68002B15D0FFF795FB38610AE0FFF7CA
:1010D40091FB02463B69D31A41F28832934201D90B
:1010E4000323ABE0574B1B6A03F00203002BEED043
:1010F40014E0FFF77FFB38610AE0FFF77BFB024651
:101104003B69D31A41F28832934201D9032395E013
:101114004C4B1B6A03F00203002BEED1FB7D012B29
:1011240005D1484A474BDB6923F08053D3617B6880
:10113400DB69002B00F08180424B5B6803F00C03F9
:10114400082B61D07B68DB69022B46D13F4B002220
:101154001A60FFF74FFB386108E0FFF74BFB0246CC
:101164003B69D31A022B01D9032367E0354B1B6873
:1011740003F00073002BF0D17B681B6AB3F5803F4A
:1011840008D130492F4B5B6823F400327B689B689D
:1011940013434B602B482B4B5B6823F474127B681E
:1011A400196A7B685B6A0B4313434360274B012234
:1011B4001A60FFF71FFB386108E0FFF71BFB0246CC
:1011C4003B69D31A022B01D9032337E01D4B1B685B
:1011D40003F00073002BF0D02FE01C4B00221A60A8
:1011E400FFF708FB386108E0FFF704FB02463B69A0
:1011F400D31A022B01D9032320E0124B1B6803F0FE
:101204000073002BF0D118E07B68DB69012B01D15E
:10121400012313E00B4B5B68FB60FB6803F4803233
:101224007B681B6A9A4206D1FB6803F470127B68E0
:101234005B6A9A4201D0012300E000231846183764
:10124400BD4680BD00100240007000406000424274
:1012540080B584B000AF786039607B68002B01D121
:101264000123D0E06A4B1B6803F007023B689A42F3
:1012740010D26749664B1B6823F007023B6813438F
:101284000B60634B1B6803F007023B689A4201D072
:101294000123B8E07B681B6803F00203002B20D015
:1012A4007B681B6803F00403002B05D0594A594B93
:1012B4005B6843F4E06353607B681B6803F00803D6
:1012C400002B05D0534A534B5B6843F4605353607F
:1012D4005049504B5B6823F0F0027B689B681343D2
:1012E4004B607B681B6803F00103002B40D07B68D4
:1012F4005B68012B07D1474B1B6803F40033002BB9
:1013040015D101237FE07B685B68022B07D1414B39
:101314001B6803F00073002B09D1012373E03D4BDC
:101324001B6803F00203002B01D101236BE0394950
:10133400384B5B6823F003027B685B6813434B60A4
:10134400FFF758FAF8600AE0FFF754FA0246FB6820
:10135400D31A41F28832934201D9032353E02D4B2F
:101364005B6803F00C027B685B689B009A42EBD1DC
:10137400274B1B6803F007023B689A4210D92449A3
:10138400234B1B6823F007023B6813430B60204B7D
:101394001B6803F007023B689A4201D0012332E044
:1013A4007B681B6803F00403002B08D01949194B10
:1013B4005B6823F4E0627B68DB6813434B607B6803
:1013C4001B6803F00803002B09D01249114B5B681A
:1013D40023F460527B681B69DB0013434B6000F00D
:1013E40021F801460B4B5B6803F0F0031B090A4A22
:1013F400D35C21FA03F3094A1360094B1B681846AE
:10140400FFF7B6F9002318461037BD4680BD00BF6C
:101414000020024000100240B835000818010020E6
:101424000000002090B48AB000AF2B4B3C1D18681C
:1014340059689A68DB680FC4284A3B4612881A80A8
:101444000023FB610023BB6100237B6200237B61DB
:1014540000233B62224B5B68FB61FB6903F00C03D6
:10146400042B02D0082B03D02DE01E4B3B622DE051
:10147400FB699B0C03F00F0307F12802134413F8D4
:10148400243C7B61FB6903F48033002B13D0144BA1
:101494005B6803F400335B0C07F12802134413F870
:1014A400283CBB617B690F4A02FB03F2BB69B2FBB8
:1014B400F3F37B6204E07B690B4A02FB03F37B6278
:1014C4007B6A3B6202E0074B3B6200BF3B6A184603
:1014D4002837BD4690BC7047A4350008B4350008D1
:1014E4000010024000127A0000093D0080B485B06B
:1014F40000AF78600A4B1B680A4AA2FB03235B0A0D
:101504007A6802FB03F3FB6000BFFB685A1EFA60B3
:10151400002BF9D100BF1437BD4680BC704700BF13
:1015240018010020D34D621080B582B000AF7860FE
:101534007B68002B01D101231DE07B6893F83D30CB
:10154400DBB2002B06D17B68002283F83C2078684C
:1015540001F04EFF7B68022283F83D207B681A6805
:101564007B6804331946104600F054FB7B68012263
:1015740083F83D20002318460837BD4680BD00BFD0
:1015840080B485B000AF78607B681B687A681268A5
:10159400D26842F00102DA607B681B689B6803F042
:1015A4000703FB60FB68062B07D07B681B687A681F
:1015B4001268126842F001021A60002318461437B8
:1015C400BD4680BC704700BF80B582B000AF786074
:1015D4007B68002B01D101231DE07B6893F83D302B
:1015E400DBB2002B06D17B68002283F83C207868AC
:1015F40001F024FF7B68022283F83D207B681A688F
:101604007B6804331946104600F004FB7B68012212
:1016140083F83D20002318460837BD4680BD00BF2F
:1016240080B584B000AF786039607B681B680122A4
:101634003968184600F014FD7B681B68154A93420C
:1016440004D07B681B68144A934201D1012300E053
:101654000023002B07D07B681B687A681268526CE1
:1016640042F400425A647B681B689B6803F00703DA
:10167400FB60FB68062B07D07B681B687A681268DE
:10168400126842F001021A60002318461037BD4662
:1016940080BD00BF002C01400034014080B586B0FD
:1016A40000AF786039607B68002B01D101237FE0B3
:1016B4007B6893F83D30DBB2002B06D17B680022B7
:1016C40083F83C20786801F027FE7B68022283F8C7
:1016D4003D207B681A687B681B689B6823F4804301
:1016E40023F0070393607B681A687B680433194608
:1016F400104600F08FFA7B681B689B687B617B68EF
:101704001B689B693B617B681B681B6AFB603B68C9
:101714001B687A6913437B613B6923F4407323F0AC
:1017240003033B613B689A683B689B691B02134354
:101734003A6913433B613B6923F4406323F00C0390
:101744003B613B6923F4704323F0F0033B613B6846
:10175400DA683B68DB691B0213433A6913433B6154
:101764003B681B691A013B681B6A1B0313433A69F4
:1017740013433B61FB6823F02203FB603B685A6818
:101784003B685B691B011343FA681343FB607B6886
:101794001B687A699A607B681B683A699A617B68FE
:1017A4001B68FA681A627B68012283F83D200023D3
:1017B40018461837BD4680BD80B582B000AF78604A
:1017C40039603B68002B02D0042B08D00FE07B6803
:1017D4001B6801220021184600F042FC16E07B68D9
:1017E4001B6801220421184600F03AFC0EE07B68D5
:1017F4001B6801220021184600F032FC7B681B683C
:1018040001220421184600F02BFC00BF7B681B68F2
:101814007A681268126842F001021A6000231846BE
:101824000837BD4680BD00BF80B582B000AF786088
:101834007B681B681B6903F00203002B22D07B68C2
:101844001B68DB6803F00203002B1BD07B681B685A
:101854006FF002021A617B6801221A777B681B68A9
:101864009B6903F00303002B03D0786800F0B4F9FC
:1018740005E0786800F0A6F9786800F0B7F97B68AD
:1018840000221A777B681B681B6903F00403002B92
:1018940022D07B681B68DB6803F00403002B1BD099
:1018A4007B681B686FF004021A617B6802221A7756
:1018B4007B681B689B6903F44073002B03D0786832
:1018C40000F08AF905E0786800F07CF9786800F0A7
:1018D4008DF97B6800221A777B681B681B6903F00B
:1018E4000803002B22D07B681B68DB6803F0080325
:1018F400002B1BD07B681B686FF008021A617B68A1
:1019040004221A777B681B68DB6903F00303002B4E
:1019140003D0786800F060F905E0786800F052F9C7
:10192400786800F063F97B6800221A777B681B688B
:101934001B6903F01003002B22D07B681B68DB6853
:1019440003F01003002B1BD07B681B686FF01002A0
:101954001A617B6808221A777B681B68DB6903F4C9
:101964004073002B03D0786800F036F905E07868FE
:1019740000F028F9786800F039F97B6800221A77BA
:101984007B681B681B6903F00103002B0ED07B6886
:101994001B68DB6803F00103002B07D07B681B681E
:1019A4006FF001021A61786801F04AFA7B681B68DB
:1019B4001B6903F08003002B0ED07B681B68DB6877
:1019C40003F08003002B07D07B681B686FF0800254
:1019D4001A61786800F008FC7B681B681B6903F0D7
:1019E4004003002B0ED07B681B68DB6803F04003C8
:1019F400002B07D07B681B686FF040021A6178687F
:101A040000F0FEF87B681B681B6903F02003002BC1
:101A14000ED07B681B68DB6803F02003002B07D023
:101A24007B681B686FF020021A61786800F0D2FBB3
:101A340000BF0837BD4680BD80B584B000AFF860F4
:101A4400B9607A60FB6893F83C30012B01D1022322
:101A5400B4E0FB68012283F83C20FB68022283F88F
:101A64003D207B680C2B00F29F8001A252F823F0EA
:101A7400A91A0008AD1B0008AD1B0008AD1B000827
:101A8400E91A0008AD1B0008AD1B0008AD1B0008D7
:101A94002B1B0008AD1B0008AD1B0008AD1B000884
:101AA4006B1B0008FB681B68B968184600F02CF92A
:101AB400FB681B68FA681268926942F008029A612E
:101AC400FB681B68FA681268926922F004029A6142
:101AD400FB681B68FA6812689169BA6812690A435C
:101AE4009A6162E0FB681B68B968184600F07CF9EB
:101AF400FB681B68FA681268926942F400629A6192
:101B0400FB681B68FA681268926922F480629A6121
:101B1400FB681B68FA6812689169BA681269120254
:101B24000A439A6141E0FB681B68B968184600F0F3
:101B3400CFF9FB681B68FA681268D26942F00802A0
:101B4400DA61FB681B68FA681268D26922F0040241
:101B5400DA61FB681B68FA681268D169BA681269AD
:101B64000A43DA6121E0FB681B68B968184600F093
:101B740023FAFB681B68FA681268D26942F40062AF
:101B8400DA61FB681B68FA681268D26922F4806221
:101B9400DA61FB681B68FA681268D169BA6812696D
:101BA40012020A43DA6100E000BFFB68012283F8F5
:101BB4003D20FB68002283F83C20002318461037A0
:101BC400BD4680BD80B483B000AF786000BF0C37E1
:101BD400BD4680BC704700BF80B483B000AF78605E
:101BE40000BF0C37BD4680BC704700BF80B483B0D3
:101BF40000AF786000BF0C37BD4680BC704700BFA3
:101C040080B483B000AF786000BF0C37BD4680BCA1
:101C1400704700BF80B485B000AF786039607B68DE
:101C24001B68FB607B68334A934213D07B68324A5B
:101C340093420FD07B68B3F1804F0BD07B682F4A5F
:101C4400934207D07B682E4A934203D07B682D4A87
:101C5400934208D1FB6823F07003FB603B685B6828
:101C6400FA681343FB607B68224A934213D07B6873
:101C7400214A93420FD07B68B3F1804F0BD07B682D
:101C84001E4A934207D07B681D4A934203D07B6867
:101C94001C4A934208D1FB6823F44073FB603B6801
:101CA400DB68FA681343FB60FB6823F080023B683F
:101CB4005B691343FB607B68FA681A603B689A6847
:101CC4007B68DA623B681A687B689A627B68094AB7
:101CD400934203D07B68084A934203D13B681A6954
:101CE4007B681A637B6801225A6100BF1437BD46C2
:101CF40080BC7047002C01400034014000040040C7
:101D040000080040000C004080B487B000AF786049
:101D140039607B681B6A23F001027B681A627B6866
:101D24001B6A7B617B685B683B617B689B69FB60CA
:101D3400FB6823F07003FB60FB6823F00303FB6084
:101D44003B681B68FA681343FB607B6923F002035A
:101D54007B613B689B687A6913437B617B68204A9B
:101D6400934203D07B681F4A93420CD17B6923F0D2
:101D740008037B613B68DB687A6913437B617B6999
:101D840023F004037B617B68154A934203D07B688C
:101D9400144A934211D13B6923F480733B613B693C
:101DA40023F400733B613B685B693A6913433B610D
:101DB4003B689B693A6913433B617B683A695A60A3
:101DC4007B68FA689A613B685A687B685A637B68E7
:101DD4007A691A6200BF1C37BD4680BC704700BFD9
:101DE400002C01400034014080B487B000AF78601B
:101DF40039607B681B6A23F010027B681A627B6877
:101E04001B6A7B617B685B683B617B689B69FB60E9
:101E1400FB6823F4E043FB60FB6823F44073FB603E
:101E24003B681B681B02FA681343FB607B6923F061
:101E340020037B613B689B681B017A6913437B61C8
:101E44007B68214A934203D07B68204A93420DD198
:101E54007B6923F080037B613B68DB681B017A6943
:101E640013437B617B6923F040037B617B68164AE3
:101E7400934203D07B68154A934213D13B6923F400
:101E840080633B613B6923F400633B613B685B69AE
:101E94009B003A6913433B613B689B699B003A6929
:101EA40013433B617B683A695A607B68FA689A61BC
:101EB4003B685A687B689A637B687A691A6200BFD8
:101EC4001C37BD4680BC7047002C014000340140E3
:101ED40080B487B000AF786039607B681B6A23F4F4
:101EE40080727B681A627B681B6A7B617B685B68B3
:101EF4003B617B68DB69FB60FB6823F07003FB607C
:101F0400FB6823F00303FB603B681B68FA68134318
:101F1400FB607B6923F400737B613B689B681B0255
:101F24007A6913437B617B68214A934203D07B68BF
:101F3400204A93420DD17B6923F400637B613B68A3
:101F4400DB681B027A6913437B617B6923F480633A
:101F54007B617B68164A934203D07B68154A93429F
:101F640013D13B6923F480533B613B6923F4005351
:101F74003B613B685B691B013A6913433B613B6806
:101F84009B691B013A6913433B617B683A695A6058
:101F94007B68FA68DA613B685A687B68DA637B6855
:101FA4007A691A6200BF1C37BD4680BC704700BF07
:101FB400002C01400034014080B487B000AF786049
:101FC40039607B681B6A23F480527B681A627B68E1
:101FD4001B6A3B617B685B687B617B68DB69FB60D8
:101FE400FB6823F4E043FB60FB6823F44073FB606D
:101FF4003B681B681B02FA681343FB603B6923F4CC
:1020040000533B613B689B681B033A6913433B6184
:102014007B68114A934203D07B68104A934209D1EA
:102024007B6923F480437B613B685B699B017A692C
:1020340013437B617B687A695A607B68FA68DA616A
:102044003B685A687B681A647B683A691A6200BF05
:102054001C37BD4680BC7047002C01400034014051
:1020640080B487B000AFF860B9607A60BB6803F0F1
:102074001F03012202FA03F37B61FB681A6A7B697E
:10208400DB431A40FB681A62FB681A6ABB6803F0F8
:102094001F03796801FA03F31A43FB681A6200BF4D
:1020A4001C37BD4680BC704780B485B000AF7860F3
:1020B40039607B6893F83C30012B01D1022332E074
:1020C4007B68012283F83C207B68022283F83D2050
:1020D4007B681B685B68FB607B681B689B68BB60F4
:1020E400FB6823F07003FB603B681B68FA681343CA
:1020F400FB60BB6823F08003BB603B685B68BA6825
:102104001343BB607B681B68FA685A607B681B6872
:10211400BA689A607B68012283F83D207B680022BC
:1021240083F83C20002318461437BD4680BC704712
:1021340080B485B000AF786039600023FB607B68B1
:1021440093F83C30012B01D102233DE07B6801224E
:1021540083F83C20FB6823F0FF023B68DB681343F1
:10216400FB60FB6823F440723B689B681343FB608D
:10217400FB6823F480623B685B681343FB60FB6885
:1021840023F400623B681B681343FB60FB6823F481
:1021940080523B681B691343FB60FB6823F40052C5
:1021A4003B685B691343FB60FB6823F480423B6834
:1021B400DB691343FB607B681B68FA685A647B68BD
:1021C400002283F83C20002318461437BD4680BC07
:1021D400704700BF80B483B000AF786000BF0C3795
:1021E400BD4680BC704700BF80B483B000AF786048
:1021F40000BF0C37BD4680BC704700BF80B584B0BB
:1022040000AF0346FB71FF23FB73FB79012B05D160
:1022140001211748FEF76EFD0346FB73FB79022B81
:1022240005D102211248FEF765FD0346FB73FB79D5
:10223400032B05D104210E48FEF75CFD0346FB7316
:10224400FB79042B05D108210948FEF753FD034609
:10225400FB73FB79052B05D110210548FEF74AFDD8
:102264000346FB73FB7B18461037BD4680BD00BF99
:102274000010014080B582B000AF0346FB71FB79CA
:10228400002B04D10320FFF7B9FF034610E0FB79CC
:10229400012B04D10520FFF7B1FF034608E0FB79C9
:1022A400032B04D10120FFF7A9FF034600E0FF231D
:1022B40018460837BD4680BD80B483B000AF0346DE
:1022C4000A46FB711346BB71BA79FB79D21A074BE4
:1022D4001340002B03DA013B63F003030133DBB249
:1022E40018460C37BD4680BC704700BF0300008011
:1022F40080B487B000AFF860B9601346FB71102357
:10230400FB75FB79002B0BD13B7A9B00FA681344D5
:102314001A687B7A013B13441A78FB7D1340FB75E2
:10232400FB79012B0BD13B7A01339B00FA681344F0
:102334001B687A7A13441A78FB7D1340FB75FB798A
:10234400022B0BD13B7A9B00FA6813441A687B7A00
:10235400013313441A78FB7D1340FB75FB79032B7F
:102364000DD13B7A03F18043013B9B00FA6813448F
:102374001B687A7A13441A78FB7D1340FB75FB7D46
:102384001B09DBB218461C37BD4680BC704700BF32
:1023940080B485B000AFF860B96011461A460B46A8
:1023A400FB711346BB71FB79002B14D13B7A9B0064
:1023B400FA6813441A687B7A013B13443A7A920010
:1023C400F9680A4411687A7A013A0A441178BA79A8
:1023D4000A43D2B21A70FB79012B14D13B7A013330
:1023E4009B00FA6813441B687A7A13443A7A0132E0
:1023F4009200F9680A441268797A0A441178BA7921
:102404000A43D2B21A70FB79022B14D13B7A9B0097
:10241400FA6813441A687B7A013313443A7A9200B7
:10242400F9680A4411687A7A01320A441178BA794F
:102434000A43D2B21A70FB79032B18D13B7A03F109
:102444008043013B9B00FA6813441B687A7A1A4460
:102454003B7A03F18043013B9B00F9680B441B6802
:10246400797A0B441978BB790B43DBB2137000BF44
:102474001437BD4680BC704780B485B000AFF860A7
:10248400B96011461A460B46FB711346BB71FB79C2
:10249400002B18D13B7A9B00FA6813441A687B7AA4
:1024A400013B13443A7A9200F9680A4411687A7A33
:1024B400013A0A44127851B2BA79120152B20A436B
:1024C40052B2D2B21A70FB79012B18D13B7A013384
:1024D4009B00FA6813441B687A7A13443A7A0132EF
:1024E4009200F9680A441268797A0A44127851B25F
:1024F400BA79120152B20A4352B2D2B21A70FB79BB
:10250400022B18D13B7A9B00FA6813441A687B7A31
:10251400013313443A7A9200F9680A4411687A7ACA
:1025240001320A44127851B2BA79120152B20A4302
:1025340052B2D2B21A70FB79032B1CD13B7A03F14D
:102544008043013B9B00FA6813441B687A7A1A445F
:102554003B7A03F18043013B9B00F9680B441B6801
:10256400797A0B441B7859B2BB791B015BB20B43DC
:102574005BB2DBB2137000BF1437BD4680BC70473A
:1025840080B483B000AF786039603B681B68591C25
:102594003A6811601A467B6813441B7818460C3756
:1025A400BD4680BC704700BF80B483B000AF786084
:1025B40039600D4B1B685B6A1BB21A467B681A6054
:1025C400094B1B6800225A62084B1B685B6A1BB2EA
:1025D4001A463B681A60054B1B6800225A6200BF0A
:1025E4000C37BD4680BC7047DC0100201C02002073
:1025F40080B483B000AF786039607B685A687B68C8
:102604001B681A447B685A603B685A687B681B687D
:102614001A443B685A6000BF0C37BD4680BC704703
:10262400B0B582B000AF78607B689A687B681B683D
:10263400D31A294A1360294B1B681846FDF7B8FEC4
:102644000446254B1A68264B1B68D31A1846FDF717
:10265400AFFE0246234B1B6819461046FDF7FCFEED
:1026640003461D461C4B1B681846FDF7A1FE024697
:102674001D4B1B6819461046FDF7EEFE034619462E
:102684002846FDF7E1FD034619462046FDF7DCFD2B
:1026940003461846FEF730F80246104B1A600F4BFB
:1026A4001B68B3F5E15F03DD0C4B4FF4E1521A6094
:1026B4000A4B1B6813F5E15F02DA084B0B4A1A60F8
:1026C400054B1B68064A1360044B1A687B68DA6082
:1026D40000BF0837BD46B0BD3C01002040010020CA
:1026E40044010020080000200C000020E0E3FFFF6C
:1026F400B0B582B000AF78607B689A687B681B686D
:10270400D31A294A1360294B1B681846FDF750FE5B
:102714000446254B1A68264B1B68D31A1846FDF746
:1027240047FE0246234B1B6819461046FDF794FEEC
:1027340003461D461C4B1B681846FDF739FE02462E
:102744001D4B1B6819461046FDF786FE03461946C5
:102754002846FDF779FD034619462046FDF774FD2A
:1027640003461846FDF7C8FF0246104B1A600F4B8C
:102774001B68B3F5E15F03DD0C4B4FF4E1521A60C3
:102784000A4B1B6813F5E15F02DA084B0B4A1A6027
:10279400054B1B68064A1360044B1A687B68DA60B1
:1027A40000BF0837BD46B0BD480100204C010020E1
:1027B400500100201000002014000020E0E3FFFF7F
:1027C40080B485B000AFF860B9607A60FB68DA68FD
:1027D4007B685B429A4203DA7B685A42FB68DA60A0
:1027E400FB68DA687B689A4202DDFB687A68DA6023
:1027F400BB68DA687B685B429A4203DA7B685A42B8
:10280400BB68DA60BB68DA687B689A4202DDBB6841
:102814007A68DA6000BF1437BD4680BC704700BFD9
:1028240080B483B000AF786039607B68DB68002BCC
:1028340009DB1A4B1B6800225A63184B1B687A6821
:10284400D2689A630BE0154B1B684FF4E1525A634C
:10285400124B1B687A68D26802F5E1529A633B68AE
:10286400DB68002B09DB0D4B1B680022DA630B4B82
:102874001B683A68D2681A640BE0084B1B684FF473
:10288400E152DA63054B1B683A68D26802F5E152FB
:102894001A6400BF0C37BD4680BC70479C02002000
:1028A40080B485B000AFF860B9607A60FB680A2232
:1028B4009A60BB680A229A6000BFFB685A687B680A
:1028C4009A4204DDBB685A687B689A42F5DC00BF13
:1028D4001437BD4680BC704780B485B000AFF86043
:1028E400B9607A60FB686FF009029A60BB680A22DB
:1028F4009A6000BFFB685A687B689A4204DDBB6833
:102904005A687B689A42F5DC00BF1437BD4680BC28
:10291400704700BF80B485B000AFF860B9607A60DA
:10292400FB680A229A60BB686FF009029A6000BFD4
:10293400FB685A687B689A4204DDBB685A687B6806
:102944009A42F5DC00BF1437BD4680BC704700BF17
:1029540080B485B000AFF860B9607A60FB680A2281
:102964009A60BB686FF009029A6000BFFB685A68FE
:102974007B689A4204DDBB685A687B689A42F5DC3E
:1029840000BF1437BD4680BC704700BF80B588B017
:1029940000AF07F1100300221A605A609A60DA60EF
:1029A4002F4A2F4B9B6943F0200393612C4B9B6967
:1029B40003F02003FB60FB68294A294B9B6943F021
:1029C40010039361264B9B6903F01003BB60BB6843
:1029D400234A234B9B6943F004039361204B9B6977
:1029E40003F004037B607B681D4A1D4B9B6943F025
:1029F400080393611A4B9B6903F008033B603B682F
:102A0400002204211748FEF78DF91F233B610023A0
:102A14007B610023BB6107F1100319461248FDF7DF
:102A2400FFFF4FF400633B6100237B610023BB6124
:102A340007F1100319460D48FDF7F2FF04233B612B
:102A440001237B610023BB610223FB6107F11003B7
:102A540019460448FDF7E4FF00BF2037BD4680BD9A
:102A64000010024000140140001001400008014021
:102A740080B483B000AF7860084611461A46034616
:102A8400FB700B46BB7013467B70174B00221A6019
:102A9400154B0022DA60144B00225A60124B0022BC
:102AA4009A60124B00221A60104B0022DA600F4B1E
:102AB40000225A600D4B00229A607B68FA781A70E3
:102AC4007B68BA785A707B687A789A70FA78BB789F
:102AD400074912010A44134400221A7000BF0C373C
:102AE400BD4680BC704700BF540100206401002033
:102AF4001800002080B584B000AF78600B46FB70EE
:102B0400BB79FA7811461846FFF7D6FB0346FB73E8
:102B1400FB7B1846FFF7AEFB0346BB73BB7BFA781F
:102B240079680448FFF734FCBB7B18461037BD4670
:102B340080BD00BF1800002080B582B000AF78606F
:102B44000B46FB70FB781A4679680448FFF7D0FB04
:102B5400034618460837BD4680BD00BF1800002054
:102B640080B584B000AF7860FF23FB720023FB6064
:102B740018E0FB68DBB219467868FFF7BBFF034631
:102B8400002B0CD1FB68DBB219467868FFF7D4FF41
:102B94000346002B03D0FB68FB72FB7A06E0FB685C
:102BA4000133FB60FB68032BE3DDFB7A1846103727
:102BB400BD4680BD80B584B000AF78600B46FB7025
:102BC400BB79FA7811461846FFF776FB0346FB7388
:102BD400FB7B002B05D140F2E73211491148FFF786
:102BE4005FFEFB7B012B05D140F2E7320C490D4817
:102BF400FFF790FEFB7B022B05D140F2E732084938
:102C04000848FFF7A5FEFB7B032B05D140F2E73212
:102C140003490448FFF760FE00BF1037BD4680BD7E
:102C2400640100205401002080B582B000AF7860B8
:102C34000B46FB70FA78002379680348FFF71CFC05
:102C440000BF0837BD4680BD1800002080B483B0A3
:102C540000AF0346FB71064B1B685A1C04490A600B
:102C64000449FA79CA5400BF0C37BD4680BC70478A
:102C7400D80100207401002080B483B000AF7860D4
:102C84000B46FB70FB78002B05D17B685B78013B1E
:102C9400DAB27B685A70FB78012B05D17B681B780C
:102CA4000133DAB27B681A70FB78022B05D17B689A
:102CB4005B780133DAB27B685A70FB78032B05D159
:102CC4007B681B78013BDAB27B681A707B68FA7800
:102CD4009A7000BF0C37BD4680BC704780B582B087
:102CE40000AF0023BB710023FB71FDF72BFD3846B9
:102CF400012301220121FFF7BBFE00F05BF8FFF77F
:102D040045FE00F083F900F0D5F900F027FA00F051
:102D14005BFA04212148FEF74FFD04212048FEF709
:102D24004BFD00211F48FEF77BFC04211D48FEF7E4
:102D340077FC08211B48FEF773FC0C211948FEF7A9
:102D44006FFC1948FEF71CFCBB79002B05D13868D1
:102D5400FFF706FF0346FB710AE0BB79012B06D19E
:102D640012491348FFF70CFC0346FB7100E0FEE731
:102D7400FB7919463868FFF71DFFFB791946386857
:102D8400FFF752FFFB791846FFF760FFFA793B46DD
:102D940011461846FFF770FFD6E700BFDC0100209C
:102DA4001C0200209C0200205C020020D8010020AC
:102DB4007401002080B590B000AF07F118032822F9
:102DC4000021184600F0D8FB3B1D00221A605A600F
:102DD4009A60DA601A610123BB614FF48033FB61AE
:102DE40000233B620123BB6202237B634FF48033E5
:102DF400BB634FF4E013FB6307F118031846FDF7B8
:102E0400A9FF0346002B01D000F05CF80F237B6080
:102E14000223BB600023FB604FF480633B6100230B
:102E24007B613B1D02211846FEF712FA0346002B74
:102E340001D000F047F800BF4037BD4680BD00BF59
:102E440080B582B000AF78607B681A681A4B1B6843
:102E54009A422DD10220FFF7D1F90346002B04D06A
:102E6400164B9B680533154A93600420FFF7C6F997
:102E74000346002B04D0124B9B680533104A936021
:102E84000E490F48FFF790FB0C490D48FFF7B0FBC4
:102E94000B48FFF7C5FB0948FFF72AFC41F27072A3
:102EA40006490748FFF78CFC04490548FFF7B8FCBE
:102EB40000BF0837BD4680BD5C02002064010020CD
:102EC4005401002080B400AF00BFBD4680BC7047F1
:102ED40080B485B000AF154A144B9B6943F00103DD
:102EE4009361124B9B6903F00103BB60BB680F4AFB
:102EF4000E4BDB6943F08053D3610C4BDB6903F069
:102F040080537B607B680A4B5B68FB60FB6823F043
:102F1400E063FB60FB6843F00073FB60044AFB68FA
:102F2400536000BF1437BD4680BC70470010024098
:102F34000000014080B400AF00BFBD4680BC7047B4
:102F440080B400AFFEE700BF80B400AFFEE700BF6F
:102F540080B400AFFEE700BF80B400AFFEE700BF5F
:102F640080B400AF00BFBD4680BC704780B400AFE2
:102F740000BFBD4680BC704780B400AF00BFBD46F3
:102F840080BC704780B500AFFDF722FC00BF80BD58
:102F940080B500AF0248FEF747FC00BF80BD00BF0C
:102FA4005C02002080B400AF154A154B1B6843F047
:102FB400010313601249124B5A68124B13404B60C1
:102FC4000F4A0F4B1B6823F0847323F48033136080
:102FD4000B4A0B4B1B6823F480231360084A084BED
:102FE4005B6823F4FE035360054B4FF41F029A60A1
:102FF400054B4FF000629A6000BFBD4680BC70472D
:10300400001002400000FFF800ED00E080B58CB035
:1030140000AF07F10C0324220021184600F0ACFA9B
:103024003B1D00221A605A60204B214A1A601F4B34
:1030340000225A601D4B00229A601C4B4FF6FF720F
:10304400DA601A4B00221A61184B00229A6103239A
:10305400FB6000233B6101237B610023BB610A23E6
:10306400FB6100233B6201237B620023BB620A23D2
:10307400FB6207F10C0319460C48FEF70FFB0346ED
:10308400002B01D0FFF71EFF00237B600023BB60F1
:103094003B1D19460548FFF707F80346002B01D0EE
:1030A400FFF710FF00BF3037BD4680BDDC010020B4
:1030B4000004004080B58CB000AF07F10C0324225B
:1030C4000021184600F058FA3B1D00221A605A608D
:1030D400204B214A1A601F4B00225A601D4B0022CC
:1030E4009A601C4B4FF6FF72DA601A4B00221A6189
:1030F400184B00229A610323FB6000233B610123E8
:103104007B610023BB610A23FB6100233B62012333
:103114007B620023BB620A23FB6207F10C0319469E
:103124000C48FEF7BBFA0346002B01D0FFF7CAFE9A
:1031340000237B600023BB603B1D19460548FEF756
:10314400B3FF0346002B01D0FFF7BCFE00BF3037AE
:10315400BD4680BD1C0200200008004080B582B03E
:1031640000AF3B4600221A605A60154B154A1A609C
:10317400134B41F61F425A60114B00229A60104BC8
:103184006322DA600E4B00229A610D48FEF7CCF9F7
:103194000346002B01D0FFF795FE00233B6000237C
:1031A4007B603B4619460648FEF77EFF0346002B2C
:1031B40001D0FFF787FE00BF0837BD4680BD00BFC2
:1031C4005C0200200010004080B592B000AF07F10F
:1031D400400300221A605A6007F1240300221A6097
:1031E4005A609A60DA601A615A619A613B1D202222
:1031F4000021184600F0C0F9454B464A1A60444B7A
:1032040000225A60424B00229A60414B41F61F4211
:10321400DA603F4B00221A613D4B00225A613C4B5D
:1032240000229A613A48FEF7CFF90346002B01D0F9
:10323400FFF748FE00233B6400237B6407F140034F
:1032440019463348FEF730FF0346002B01D0FFF741
:1032540039FE60237B620023BB620023FB620023F0
:103264003B6300237B630023BB630023FB6307F101
:103274002403002219462648FEF7DEFB0346002BF2
:1032840001D0FFF71FFE07F124030422194620484A
:10329400FEF7D2FB0346002B01D0FFF713FE07F124
:1032A4002403082219461A48FEF7C6FB0346002BDE
:1032B40001D0FFF707FE07F124030C221946144836
:1032C400FEF7BAFB0346002B01D0FFF7FBFD0023FA
:1032D4007B600023BB600023FB6000233B61002371
:1032E4007B614FF40053BB6100233B623B1D1946D5
:1032F4000748FEF71DFF0346002B01D0FFF7E2FD50
:10330400034800F0B9F800BF4837BD4680BD00BF90
:103314009C0200200034014080B58AB000AF786080
:1033240007F1180300221A605A609A60DA607B6819
:103334001B682A4A934224D1294A294BDB6943F06A
:103344000203D361264BDB6903F002037B617B69D3
:10335400234A234B9B6943F004039361204B9B69ED
:1033640003F004033B613B69C023BB610023FB61A1
:1033740000233B6207F1180319461A48FDF750FB76
:1033840028E07B681B68184A934223D1144A144BE3
:10339400DB6943F00403D361114BDB6903F00403DD
:1033A400FB60FB680E4A0E4B9B6943F00803936174
:1033B4000B4B9B6903F00803BB60BB68C023BB6174
:1033C4000023FB6100233B6207F1180319460748F9
:1033D400FDF726FB00BF2837BD4680BD0004004032
:1033E400001002400008014000080040000C0140A9
:1033F40080B584B000AF78607B681B680D4A934247
:1034040013D10D4A0C4BDB6943F01003D3610A4B13
:10341400DB6903F01003FB60FB6800220021362007
:10342400FDF7C8FA3620FDF7E1FA00BF1037BD46B4
:1034340080BD00BF001000400010024080B485B081
:1034440000AF78607B681B68094A93420BD1094A34
:10345400084B9B6943F400539361064B9B6903F447
:103464000053FB60FB6800BF1437BD4680BC704747
:10347400003401400010024080B588B000AF78608D
:1034840007F1100300221A605A609A60DA607B68C0
:103494001B68104A934218D10F4A0F4B9B6943F0A3
:1034A400100393610C4B9B6903F01003FB60FB68F2
:1034B4004FF470733B6102237B610223FB6107F1CC
:1034C400100319460548FDF7ABFA00BF2037BD4687
:1034D40080BD00BF003401400010024000100140D4
:1034E400002103E00B4B5B58435004310A480B4B5B
:1034F40042189A42F6D30A4A02E0002342F8043BF7
:10350400084B9A42F9D3FFF74DFD00F00FF8FFF78F
:10351400E5FB7047D0350008000000201C010020A6
:103524001C010020DC020020FEE700000E4B70B5F9
:103534001E460E4C0025E41AA410A54204D056F8E9
:10354400253098470135F8E700F01EF8084B094C80
:103554001E46E41AA4100025A54204D056F82530CE
:1035640098470135F8E770BDC8350008C83500082C
:10357400C8350008CC35000803460244934202D003
:1035840003F8011BFAE77047F8B500BFF8BC08BCA4
:103594009E467047F8B500BFF8BC08BC9E4670470D
:1035A40002030405060708090A0B0C0D0E0F101080
:1035B40001020000000000000000000001020304FA
:0435C40006070809E5
:0435C80009020008EC
:0435CC00E50100080D
:1035D0001000000001000000000020410000204118
:1035E0000000204100002041110000000000000008
:1035F00000000000000000000000000000000000CB
:1036000000000000000000000000000000000000BA
:1036100000000000000000000000000000000000AA
:10362000000000000000000000000000000000009A
:10363000000000000000000000000000000000008A
:10364000000000000000000000000000000000007A
:10365000000000000000000000000000000000006A
:10366000000000000000000000000000000000005A
:10367000000000000000000000000000000000004A
:10368000000000000000000000000000000000003A
:10369000000000000000000000000000000000002A
:1036A000000000000000000000000000000000001A
:1036B000000000000000000000000000000000000A
:1036C00000000000000000000000000000000000FA
:1036D00000000000000000000000000000000000EA
:0C36E00000000000000000000024F400C6
:04000005080034E5D6
:00000001FF
