:020000040800F2
:1000000000C00020192300086D1D0008791D00089C
:10001000811D0008891D0008911D000800000000D6
:10002000000000000000000000000000991D000812
:10003000A51D000800000000B11D0008BD1D00083E
:100040006123000861230008612300086123000880
:100050006123000861230008612300086123000870
:100060006123000861230008612300086123000860
:100070006123000861230008612300086123000850
:100080006123000861230008612300086123000840
:100090006123000861230008612300086123000830
:1000A0006123000861230008612300086123000820
:1000B0006123000861230008612300086123000810
:1000C0006123000861230008612300086123000800
:1000D00061230008612300086123000861230008F0
:1000E00061230008612300086123000861230008E0
:1000F00061230008612300086123000861230008D0
:1001000061230008612300086123000861230008BF
:100110006123000861230008C91D0008612300084D
:10012000612300086123000861230008612300089F
:1001300000000000000000000000000000000000BF
:1001400000000000000000000000000000000000AF
:10015000000000000000000000000000000000009F
:10016000000000000000000000000000000000008F
:10017000000000000000000000000000000000007F
:10018000000000000000000000000000000000006F
:10019000000000000000000000000000000000005F
:1001A000000000000000000000000000000000004F
:1001B000000000000000000000000000000000003F
:1001C000000000000000000000000000000000002F
:1001D000000000000000000000000000000000001F
:0401E0005FF8E0F1F3
:1001E40010B5054C237833B9044B13B10448AFF36D
:1001F40000800123237010BD0C00002000000000CB
:10020400C0230008084B10B51BB108490848AFF3D8
:1002140000800848036803B910BD074B002BFBD0CE
:10022400BDE81040184700BF000000001000002087
:10023400C02300080C0000200000000080B500AFBF
:10024400084A084B1B6843F010031360032000F0B6
:1002540021F9002000F008F801F054FD00231846AD
:1002640080BD00BF0020024080B582B000AF78603E
:10027400124B1A68124B1B7819464FF47A73B3FB6E
:10028400F1F3B2FBF3F3184600F03AF90346002BFE
:1002940001D001230EE07B680F2B0AD80022796875
:1002A4004FF0FF3000F002F9064A7B681360002328
:1002B40000E0012318460837BD4680BD0800002031
:1002C400040000200000002080B400AF054B1B7820
:1002D4001A46054B1B681344034A136000BFBD460E
:1002E40080BC7047040000202800002080B400AFC8
:1002F400024B1B681846BD4680BC7047280000208E
:1003040080B485B000AF78607B6803F00703FB60BE
:100314000C4BDB68BB60BA684FF6FF031340BB604D
:10032400FB681A02BB68134343F0BF6343F4003312
:10033400BB60044ABB68D36000BF1437BD4680BCB1
:10034400704700BF00ED00E080B400AF044BDB68F1
:1003540003F4E0631B0A1846BD4680BC704700BF27
:1003640000ED00E080B483B000AF0346FB7197F961
:100374000730002B0BDB084997F907305B09FA7942
:1003840002F01F02012000FA02F241F8232000BF0C
:100394000C37BD4680BC704700E100E080B483B0F8
:1003A40000AF03463960FB7197F90730002B0ADB75
:1003B4000D4997F907303A68D2B21201D2B20B4410
:1003C40083F800230AE00949FB7903F00F03043B97
:1003D4003A68D2B21201D2B20B441A7600BF0C377B
:1003E400BD4680BC704700BF00E100E000ED00E0C6
:1003F40080B489B000AFF860B9607A60FB6803F03C
:100404000703FB61FB69C3F10703042B28BF042323
:10041400BB61FB690433062B02D9FB69033B00E093
:1004240000237B610122BB6902FA03F35A1EBB68F5
:100434001A407B699A4001217B6901FA03F3591E32
:100444007B680B40134318462437BD4680BC704775
:1004540080B582B000AF78607B68013BB3F1807FE8
:1004640001D301230FE00A4A7B68013B53600F214B
:100474004FF0FF30FFF792FF054B00229A60044BC8
:1004840007221A60002318460837BD4680BD00BF06
:1004940010E000E080B582B000AF78607868FFF7C4
:1004A4002FFF00BF0837BD4680BD00BF80B586B0B2
:1004B40000AF0346B9607A60FB7300237B61FFF7EA
:1004C40043FF78617A68B9687869FFF791FF02465B
:1004D40097F90F3011461846FFF760FF00BF183731
:1004E400BD4680BD80B582B000AF0346FB7197F96D
:1004F40007301846FFF736FF00BF0837BD4680BDFA
:1005040080B582B000AF78607868FFF7A1FF03463A
:1005140018460837BD4680BD80B48BB000AF786004
:10052400396000237B6200233B6233E101227B6A52
:1005340002FA03F3FB613B681A68FB691340BB6171
:10054400BA69FB699A4240F022813B685B68122BCE
:1005540034D0122B0DD8022B2BD0022B04D8002B15
:1005640031D0012B1CD048E0032B43D0112B1BD0DE
:1005740043E08F4A934226D08D4A934206D88D4A4F
:10058400934220D08C4A93421DD036E08B4A93424A
:1005940019D08B4A934216D08A4A934213D02CE046
:1005A4003B68DB683B6228E03B68DB6804333B6202
:1005B40023E03B68DB6808333B621EE03B68DB6892
:1005C4000C333B6219E03B689B68002B02D1042387
:1005D4003B6212E03B689B68012B05D108233B6218
:1005E4007B68FA691A6108E008233B627B68FA6950
:1005F4005A6102E000233B6200BFBB69FF2B01D8B4
:100604007B6801E07B6804337B61BB69FF2B02D804
:100614007B6A9B0002E07B6A083B9B003B617B6931
:100624001A680F213B6901FA03F3DB431A40396A64
:100634003B6901FA03F31A437B691A603B685B6800
:1006440003F08053002B00F0A2805F4A5E4B9B694D
:1006540043F0010393615C4B9B6903F00103BB60AE
:10066400BB685A4A7B6A9B08023352F82330FB600A
:100674007B6A03F003039B000F2202FA03F3DB43BC
:10068400FA681340FB607B68514A93421FD07B6831
:10069400504A934219D07B684F4A934213D07B68E7
:1006A4004E4A93420DD07B684D4A934207D07B68F3
:1006B4004C4A934201D105230AE0062308E00423AF
:1006C40006E0032304E0022302E0012300E0002308
:1006D4007A6A02F0030292009340FA681343FB60C3
:1006E4003A497B6A9B080233FA6841F823203B6845
:1006F4005B6803F48033002B06D03B493A4B1A68FD
:10070400BB6913430B6006E03749374B1A68BB6972
:10071400DB4313400B603B685B6803F40033002B3E
:1007240006D03149304B5A68BB6913434B6006E02D
:100734002D492D4B5A68BB69DB4313404B603B6822
:100744005B6803F48013002B06D02749264B9A6874
:10075400BB6913438B6006E02349234B9A68BB694A
:10076400DB4313408B603B685B6803F40013002B8E
:1007740006D01D491C4BDA68BB691343CB6006E005
:100784001949194BDA68BB69DB431340CB607B6AB8
:1007940001337B623B681A687B6A22FA03F3002BFD
:1007A4007FF4C4AE00BF2C37BD4680BC704700BF89
:1007B4000000211000001110000012100000311080
:1007C400000032100000221000100240000001401E
:1007D40000080140000C01400010014000140140D9
:1007E40000180140001C01400004014080B483B0A3
:1007F40000AF78600B467B8013467B707B78002BC0
:1008040003D07A887B681A6103E07B881A047B68CA
:100814001A6100BF0C37BD4680BC704780B586B0F6
:1008240000AF78607B68002B01D101236AE27B680A
:100834001B6803F00103002B00F08680914B5B687A
:1008440003F00C03042B0BD08E4B5B6803F00C03FA
:10085400082B11D18B4B5B6803F48033002B0BD036
:10086400884B1B6803F40033002B6CD07B685B68F7
:10087400002B68D1012345E27B685B68B3F5803FB8
:1008840006D1804A7F4B1B6843F4803313602EE00B
:100894007B685B68002B0CD17A4A7A4B1B6823F483
:1008A40080331360774A774B1B6823F480231360EB
:1008B4001DE07B685B68B3F5A02F0CD1714A714BC6
:1008C4001B6843F4802313606E4A6E4B1B6843F429
:1008D400803313600BE06B4A6A4B1B6823F480334C
:1008E4001360684A674B1B6823F4802313607B689A
:1008F4005B68002B13D0FFF7F9FC386108E0FFF7C1
:10090400F5FC02463B69D31A642B01D90323F9E1B0
:100914005C4B1B6803F40033002BF0D014E0FFF7AA
:10092400E5FC386108E0FFF7E1FC02463B69D31AB5
:10093400642B01D90323E5E1524B1B6803F4003314
:10094400002BF0D100E000BF7B681B6803F00203BA
:10095400002B63D04B4B5B6803F00C03002B0BD0D4
:10096400484B5B6803F00C03082B1CD1454B5B68B8
:1009740003F48033002B16D1424B1B6803F00203AF
:10098400002B05D07B681B69012B01D00123B9E141
:100994003C493C4B1B6823F0F8027B685B69DB0035
:1009A40013430B603AE07B681B69002B20D0364B65
:1009B40001221A60FFF79AFC386108E0FFF796FC01
:1009C40002463B69D31A022B01D903239AE12D4B2A
:1009D4001B6803F00203002BF0D02A49294B1B6843
:1009E40023F0F8027B685B69DB0013430B6015E0BE
:1009F400254B00221A60FFF779FC386108E0FFF705
:100A040075FC02463B69D31A022B01D9032379E111
:100A14001C4B1B6803F00203002BF0D17B681B689E
:100A240003F00803002B39D07B689B69002B19D095
:100A3400164B01221A60FFF759FC386108E0FFF7F2
:100A440055FC02463B69D31A022B01D9032359E111
:100A54000C4B5B6A03F00203002BF0D0012000F082
:100A6400A9FA1BE0094B00221A60FFF73FFC38612A
:100A74000EE0FFF73BFC02463B69D31A022B07D971
:100A840003233FE10010024000004242800442423E
:100A94009E4B5B6A03F00203002BEAD17B681B6860
:100AA40003F00403002B00F0A6800023FB75974B92
:100AB400DB6903F08053002B0DD1944A934BDB691F
:100AC40043F08053D361914BDB6903F08053BB60E7
:100AD400BB680123FB758E4B1B6803F48073002BEA
:100AE40018D18B4A8A4B1B6843F480731360FFF759
:100AF400FDFB386108E0FFF7F9FB02463B69D31AB6
:100B0400642B01D90323FDE0814B1B6803F480733C
:100B1400002BF0D07B68DB68012B06D17B4A7B4B32
:100B24001B6A43F0010313622DE07B68DB68002B32
:100B34000CD1764A754B1B6A23F001031362734A86
:100B4400724B1B6A23F0040313621CE07B68DB68AE
:100B5400052B0CD16D4A6D4B1B6A43F004031362E1
:100B64006A4A6A4B1B6A43F0010313620BE0674A4B
:100B7400664B1B6A23F001031362644A634B1B6ACE
:100B840023F0040313627B68DB68002B15D0FFF7A6
:100B9400ADFB38610AE0FFF7A9FB02463B69D31AB3
:100BA40041F28832934201D90323ABE0574B1B6ACD
:100BB40003F00203002BEED014E0FFF797FB38613B
:100BC4000AE0FFF793FB02463B69D31A41F28832ED
:100BD400934201D9032395E04C4B1B6A03F00203B3
:100BE400002BEED1FB7D012B05D1484A474BDB6935
:100BF40023F08053D3617B68DB69002B00F0818094
:100C0400424B5B6803F00C03082B61D07B68DB6903
:100C1400022B46D13F4B00221A60FFF767FB386175
:100C240008E0FFF763FB02463B69D31A022B01D9A4
:100C3400032367E0354B1B6803F00073002BF0D1EE
:100C44007B681B6AB3F5803F08D130492F4B5B6842
:100C540023F400327B689B6813434B602B482B4B77
:100C64005B6823F474127B68196A7B685B6A0B43C4
:100C740013434360274B01221A60FFF737FB3861A7
:100C840008E0FFF733FB02463B69D31A022B01D974
:100C9400032337E01D4B1B6803F00073002BF0D0D7
:100CA4002FE01C4B00221A60FFF720FB386108E09C
:100CB400FFF71CFB02463B69D31A022B01D903231D
:100CC40020E0124B1B6803F00073002BF0D118E0F6
:100CD4007B68DB69012B01D1012313E00B4B5B68BB
:100CE400FB60FB6803F480327B681B6A9A4206D17E
:100CF400FB6803F470127B685B6A9A4201D001239B
:100D040000E0002318461837BD4680BD001002409D
:100D1400007000406000424280B584B000AF78604B
:100D240039607B68002B01D10123D0E06A4B1B683A
:100D340003F007023B689A4210D26749664B1B686E
:100D440023F007023B6813430B60634B1B6803F0FB
:100D540007023B689A4201D00123B8E07B681B6814
:100D640003F00203002B20D07B681B6803F004030C
:100D7400002B05D0594A594B5B6843F4E063536038
:100D84007B681B6803F00803002B05D0534A534BC0
:100D94005B6843F4605353605049504B5B6823F0E5
:100DA400F0027B689B6813434B607B681B6803F00D
:100DB4000103002B40D07B685B68012B07D1474BB4
:100DC4001B6803F40033002B15D101237FE07B68FB
:100DD4005B68022B07D1414B1B6803F00073002BA7
:100DE40009D1012373E03D4B1B6803F00203002B80
:100DF40001D101236BE03949384B5B6823F00302CE
:100E04007B685B6813434B60FFF770FAF8600AE095
:100E1400FFF76CFA0246FB68D31A41F28832934218
:100E240001D9032353E02D4B5B6803F00C027B686C
:100E34005B689B009A42EBD1274B1B6803F00702C7
:100E44003B689A4210D92449234B1B6823F00702BC
:100E54003B6813430B60204B1B6803F007023B689D
:100E64009A4201D0012332E07B681B6803F004033B
:100E7400002B08D01949194B5B6823F4E0627B68A6
:100E8400DB6813434B607B681B6803F00803002B8B
:100E940009D01249114B5B6823F460527B681B69CB
:100EA400DB0013434B6000F021F801460B4B5B68F9
:100EB40003F0F0031B090A4AD35C21FA03F3094A3D
:100EC4001360094B1B681846FFF7CEF90023184638
:100ED4001037BD4680BD00BF002002400010024014
:100EE400EC230008080000200000002090B48AB021
:100EF40000AF2B4B3C1D186859689A68DB680FC417
:100F0400284A3B4612881A800023FB610023BB61F8
:100F140000237B6200237B6100233B62224B5B68DE
:100F2400FB61FB6903F00C03042B02D0082B03D0F4
:100F34002DE01E4B3B622DE0FB699B0C03F00F037D
:100F440007F12802134413F8243C7B61FB6903F482
:100F54008033002B13D0144B5B6803F400335B0C19
:100F640007F12802134413F8283CBB617B690F4A3C
:100F740002FB03F2BB69B2FBF3F37B6204E07B691F
:100F84000B4A02FB03F37B627B6A3B6202E0074B82
:100F94003B6200BF3B6A18462837BD4690BC704789
:100FA400D8230008E82300080010024000127A0049
:100FB40000093D0080B485B000AF78600A4B1B681F
:100FC4000A4AA2FB03235B0A7A6802FB03F3FB6071
:100FD40000BFFB685A1EFA60002BF9D100BF14371A
:100FE400BD4680BC704700BF08000020D34D62108E
:100FF40080B582B000AF78607B68002B01D10123FB
:101004001DE07B6893F83D30DBB2002B06D17B6892
:10101400002283F83C20786801F004F97B680222FE
:1010240083F83D207B681A687B68043319461046B0
:1010340000F0C4FA7B68012283F83D20002318469F
:101044000837BD4680BD00BF80B582B000AF786070
:101054007B68002B01D101231DE07B6893F83D30B0
:10106400DBB2002B06D17B68002283F83C20786831
:1010740001F0FEF87B68022283F83D207B681A6841
:101084007B6804331946104600F098FA7B68012205
:1010940083F83D20002318460837BD4680BD00BFB5
:1010A40080B586B000AF786039607B68002B01D1D1
:1010B40001237FE07B6893F83D30DBB2002B06D13F
:1010C4007B68002283F83C20786801F03FF87B6855
:1010D400022283F83D207B681A687B681B689B6842
:1010E40023F4804323F0070393607B681A687B68CA
:1010F40004331946104600F061FA7B681B689B684C
:101104007B617B681B689B693B617B681B681B6A0E
:10111400FB603B681B687A6913437B613B6923F47A
:10112400407323F003033B613B689A683B689B6907
:101134001B0213433A6913433B613B6923F4406345
:1011440023F00C033B613B6923F4704323F0F00369
:101154003B613B68DA683B68DB691B0213433A690D
:1011640013433B613B681B691A013B681B6A1B0301
:1011740013433A6913433B61FB6823F02203FB608A
:101184003B685A683B685B691B011343FA68134365
:10119400FB607B681B687A699A607B681B683A69A4
:1011A4009A617B681B68FA681A627B68012283F87B
:1011B4003D20002318461837BD4680BD80B582B057
:1011C40000AF78607B681B681B6903F00203002B87
:1011D40022D07B681B68DB6803F00203002B1BD062
:1011E4007B681B686FF002021A617B6801221A7720
:1011F4007B681B689B6903F00303002B03D07868AA
:1012040000F0BEF905E0786800F0B0F9786800F005
:10121400C1F97B6800221A777B681B681B6903F09D
:101224000403002B22D07B681B68DB6803F00403F3
:10123400002B1BD07B681B686FF004021A617B686B
:1012440002221A777B681B689B6903F44073002BA6
:1012540003D0786800F094F905E0786800F086F926
:10126400786800F097F97B6800221A777B681B681E
:101274001B6903F00803002B22D07B681B68DB6822
:1012840003F00803002B1BD07B681B686FF0080277
:101294001A617B6804221A777B681B68DB6903F098
:1012A4000303002B03D0786800F06AF905E078683E
:1012B40000F05CF9786800F06DF97B6800221A7719
:1012C4007B681B681B6903F01003002B22D07B682A
:1012D4001B68DB6803F01003002B1BD07B681B68C2
:1012E4006FF010021A617B6808221A777B681B680A
:1012F400DB6903F44073002B03D0786800F040F9F5
:1013040005E0786800F032F9786800F043F97B680A
:1013140000221A777B681B681B6903F00103002B0A
:101324000ED07B681B68DB6803F00103002B07D039
:101334007B681B686FF001021A61786800F00CF991
:101344007B681B681B6903F08003002B0ED07B684D
:101354001B68DB6803F08003002B07D07B681B68E5
:101364006FF080021A61786800F0EEFB7B681B68FE
:101374001B6903F04003002B0ED07B681B68DB68FD
:1013840003F04003002B07D07B681B686FF040021A
:101394001A61786800F008F97B681B681B6903F020
:1013A4002003002B0ED07B681B68DB6803F020034E
:1013B400002B07D07B681B686FF020021A617868E5
:1013C40000F0B8FB00BF0837BD4680BD80B584B0CF
:1013D40000AFF860B9607A60FB6893F83C30012B89
:1013E40001D10223B4E0FB68012283F83C20FB68AE
:1013F400022283F83D207B680C2B00F29F8001A21F
:1014040052F823F03D140008411500084115000866
:10141400411500087D140008411500084115000815
:1014240041150008BF1400084115000841150008C3
:1014340041150008FF140008FB681B68B9681846CA
:1014440000F036F9FB681B68FA681268926942F08A
:1014540008029A61FB681B68FA681268926922F0B4
:1014640004029A61FB681B68FA6812689169BA6899
:1014740012690A439A6162E0FB681B68B9681846FE
:1014840000F086F9FB681B68FA681268926942F4F6
:1014940000629A61FB681B68FA681268926922F418
:1014A40080629A61FB681B68FA6812689169BA687D
:1014B400126912020A439A6141E0FB681B68B96829
:1014C400184600F0D9F9FB681B68FA681268D269FB
:1014D40042F00802DA61FB681B68FA681268D26994
:1014E40022F00402DA61FB681B68FA681268D169A9
:1014F400BA6812690A43DA6121E0FB681B68B968BB
:10150400184600F02DFAFB681B68FA681268D26965
:1015140042F40062DA61FB681B68FA681268D269F7
:1015240022F48062DA61FB681B68FA681268D16988
:10153400BA68126912020A43DA6100E000BFFB686C
:10154400012283F83D20FB68002283F83C2000231D
:1015540018461037BD4680BD80B483B000AF7860B4
:1015640000BF0C37BD4680BC704700BF80B483B059
:1015740000AF786000BF0C37BD4680BC704700BF29
:1015840080B483B000AF786000BF0C37BD4680BC28
:10159400704700BF80B483B000AF786000BF0C37E1
:1015A400BD4680BC704700BF80B483B000AF786094
:1015B40000BF0C37BD4680BC704700BF80B485B007
:1015C40000AF786039607B681B68FB607B68334AD6
:1015D400934213D07B68324A93420FD07B68B3F1B5
:1015E400804F0BD07B682F4A934207D07B682E4AEA
:1015F400934203D07B682D4A934208D1FB6823F0C1
:101604007003FB603B685B68FA681343FB607B68AC
:10161400224A934213D07B68214A93420FD07B68BD
:10162400B3F1804F0BD07B681E4A934207D07B688E
:101634001D4A934203D07B681C4A934208D1FB683D
:1016440023F44073FB603B68DB68FA681343FB6078
:10165400FB6823F080023B685B691343FB607B6893
:10166400FA681A603B689A687B68DA623B681A68B1
:101674007B689A627B68094A934203D07B68084A74
:10168400934203D13B681A697B681A637B68012221
:101694005A6100BF1437BD4680BC7047002C01401E
:1016A400003401400004004000080040000C0040E9
:1016B40080B487B000AF786039607B681B6A23F020
:1016C40001027B681A627B681B6A7B617B685B68CA
:1016D4003B617B689B69FB60FB6823F07003FB60E4
:1016E400FB6823F00303FB603B681B68FA68134341
:1016F400FB607B6923F002037B613B689B687A692A
:1017040013437B617B68204A934203D07B681F4A62
:1017140093420CD17B6923F008037B613B68DB684F
:101724007A6913437B617B6923F004037B617B68E3
:10173400154A934203D07B68144A934211D13B6902
:1017440023F480733B613B6923F400733B613B6882
:101754005B693A6913433B613B689B693A6913438C
:101764003B617B683A695A607B68FA689A613B68B6
:101774005A687B685A637B687A691A6200BF1C37AF
:10178400BD4680BC704700BF002C014000340140BE
:1017940080B487B000AF786039607B681B6A23F03F
:1017A40010027B681A627B681B6A7B617B685B68DA
:1017B4003B617B689B69FB60FB6823F4E043FB604F
:1017C400FB6823F44073FB603B681B681B02FA68E8
:1017D4001343FB607B6923F020037B613B689B68B8
:1017E4001B017A6913437B617B68214A934203D0CE
:1017F4007B68204A93420DD17B6923F080037B618F
:101804003B68DB681B017A6913437B617B6923F0C6
:1018140040037B617B68164A934203D07B68154A78
:10182400934213D13B6923F480633B613B6923F406
:1018340000633B613B685B699B003A6913433B610E
:101844003B689B699B003A6913433B617B683A6937
:101854005A607B68FA689A613B685A687B689A6345
:101864007B687A691A6200BF1C37BD4680BC70472A
:10187400002C01400034014080B487B000AF786090
:1018840039607B681B6A23F480727B681A627B6808
:101894001B6A7B617B685B683B617B68DB69FB601F
:1018A400FB6823F07003FB60FB6823F00303FB6019
:1018B4003B681B68FA681343FB607B6923F400737D
:1018C4007B613B689B681B027A6913437B617B687D
:1018D400214A934203D07B68204A93420DD17B690D
:1018E40023F400637B613B68DB681B027A69134362
:1018F4007B617B6923F480637B617B68164A934236
:1019040003D07B68154A934213D13B6923F4805377
:101914003B613B6923F400533B613B685B691B01FA
:101924003A6913433B613B689B691B013A69134362
:101934003B617B683A695A607B68FA68DA613B68A4
:101944005A687B68DA637B687A691A6200BF1C375D
:10195400BD4680BC704700BF002C014000340140EC
:1019640080B487B000AF786039607B681B6A23F469
:1019740080527B681A627B681B6A3B617B685B6888
:101984007B617B68DB69FB60FB6823F4E043FB60FD
:10199400FB6823F44073FB603B681B681B02FA6816
:1019A4001343FB603B6923F400533B613B689B6832
:1019B4001B033A6913433B617B68114A934203D08A
:1019C4007B68104A934209D17B6923F480437B618D
:1019D4003B685B699B017A6913437B617B687A6925
:1019E4005A607B68FA68DA613B685A687B681A64F3
:1019F4007B683A691A6200BF1C37BD4680BC7047D9
:101A0400002C01400034014080B485B000AF786000
:101A140039607B6893F83C30012B01D1022332E01A
:101A24007B68012283F83C207B68022283F83D20F6
:101A34007B681B685B68FB607B681B689B68BB609A
:101A4400FB6823F07003FB603B681B68FA68134370
:101A5400FB60BB6823F08003BB603B685B68BA68CB
:101A64001343BB607B681B68FA685A607B681B6819
:101A7400BA689A607B68012283F83D207B68002263
:101A840083F83C20002318461437BD4680BC7047B9
:101A940080B485B000AF786039600023FB607B6858
:101AA40093F83C30012B01D102233DE07B680122F5
:101AB40083F83C20FB6823F0FF023B68DB68134398
:101AC400FB60FB6823F440723B689B681343FB6034
:101AD400FB6823F480623B685B681343FB60FB682C
:101AE40023F400623B681B681343FB60FB6823F428
:101AF40080523B681B691343FB60FB6823F400526C
:101B04003B685B691343FB60FB6823F480423B68DA
:101B1400DB691343FB607B681B68FA685A647B6863
:101B2400002283F83C20002318461437BD4680BCAD
:101B3400704700BF80B483B000AF786000BF0C373B
:101B4400BD4680BC704700BF80B483B000AF7860EE
:101B540000BF0C37BD4680BC704700BF80B483B063
:101B640000AF00237B6000BF7B685A1C7A60002BA7
:101B7400FAD100BF0C37BD4680BC704780B588B031
:101B840000AF07F1100300221A605A609A60DA600D
:101B9400294A294B9B6943F020039361264B9B6997
:101BA40003F02003FB60FB68234A234B9B6943F04B
:101BB40004039361204B9B6903F00403BB60BB687F
:101BC4001D4A1D4B9B6943F0100393611A4B9B699B
:101BD40003F010037B607B68174A174B9B6943F043
:101BE40008039361144B9B6903F008033B603B6853
:101BF400002204211148FEF7F9FD4FF400633B6114
:101C040000237B610023BB6107F1100319460C48D4
:101C1400FEF782FC04233B6101237B610023BB614B
:101C24000223FB6107F1100319460448FEF774FC14
:101C340000BF2037BD4680BD0010024000140140A3
:101C44000008014080B500AFFEF7F8FA00F00EF886
:101C5400FFF794FF00F0F4F800F046F900F098F96B
:101C640000F0CCF9FFF77AFFFEE700BF80B590B033
:101C740000AF07F1180328220021184600F096FB54
:101C84003B1D00221A605A609A60DA601A610123CF
:101C9400BB614FF48033FB6100233B620123BB62D1
:101CA40002237B634FF48033BB634FF4E013FB6385
:101CB40007F118031846FEF7B1FD0346002B01D0C7
:101CC40000F01AF80F237B600223BB600023FB6043
:101CD4004FF480633B6100237B613B1D0221184666
:101CE400FFF71AF80346002B01D000F005F800BFF7
:101CF4004037BD4680BD00BF80B400AF00BFBD46C5
:101D040080BC704780B485B000AF154A144B9B6902
:101D140043F001039361124B9B6903F00103BB6021
:101D2400BB680F4A0E4BDB6943F08053D3610C4B05
:101D3400DB6903F080537B607B680A4B5B68FB6064
:101D4400FB6823F0E063FB60FB6843F00073FB6017
:101D5400044AFB68536000BF1437BD4680BC70471B
:101D6400001002400000014080B400AF00BFBD4637
:101D740080BC704780B400AFFEE700BF80B400AF02
:101D8400FEE700BF80B400AFFEE700BF80B400AF41
:101D9400FEE700BF80B400AF00BFBD4680BC704703
:101DA40080B400AF00BFBD4680BC704780B400AFB4
:101DB40000BFBD4680BC704780B500AFFEF784FA13
:101DC40000BF80BD80B500AF0248FFF7F7F900BF40
:101DD40080BD00BFAC00002080B400AF154A154B95
:101DE4001B6843F0010313601249124B5A68124BEB
:101DF40013404B600F4A0F4B1B6823F0847323F48A
:101E0400803313600B4A0B4B1B6823F4802313604D
:101E1400084A084B5B6823F4FE035360054B4FF4F8
:101E24001F029A60054B4FF000629A6000BFBD46E6
:101E340080BC7047001002400000FFF800ED00E095
:101E440080B58CB000AF07F10C03242200211846A2
:101E540000F0ACFA3B1D00221A605A60204B214A64
:101E64001A601F4B00225A601D4B00229A601C4BC3
:101E74004FF6FF72DA601A4B00221A61184B0022E7
:101E84009A610323FB6000233B6101237B610023F0
:101E9400BB610A23FB6100233B6201237B620023B5
:101EA400BB620A23FB6207F10C0319460C48FFF7D7
:101EB400F7F80346002B01D0FFF71EFF00237B60D9
:101EC4000023BB603B1D19460548FFF79DFD0346F3
:101ED400002B01D0FFF710FF00BF3037BD4680BD97
:101EE4002C0000200004004080B58CB000AF07F146
:101EF4000C0324220021184600F058FA3B1D00224E
:101F04001A605A60204B214A1A601F4B00225A6003
:101F14001D4B00229A601C4B4FF6FF72DA601A4B7D
:101F240000221A61184B00229A610323FB600023EC
:101F34003B6101237B610023BB610A23FB61002316
:101F44003B6201237B620023BB620A23FB6207F12D
:101F54000C0319460C48FFF7A3F80346002B01D0E5
:101F6400FFF7CAFE00237B600023BB603B1D1946BC
:101F74000548FFF749FD0346002B01D0FFF7BCFEDF
:101F840000BF3037BD4680BD6C0000200008004013
:101F940080B582B000AF3B4600221A605A60154BF0
:101FA400154A1A60134B41F61F425A60114B002226
:101FB4009A60104B6322DA600E4B00229A610D483E
:101FC400FFF716F80346002B01D0FFF795FE002318
:101FD4003B6000237B603B4619460648FFF714FD2F
:101FE4000346002B01D0FFF787FE00BF0837BD462C
:101FF40080BD00BFAC0000200010004080B592B04E
:1020040000AF07F1400300221A605A6007F124036D
:1020140000221A605A609A60DA601A615A619A6101
:102024003B1D20220021184600F0C0F9454B464ACA
:102034001A60444B00225A60424B00229A60414B82
:1020440041F61F42DA603F4B00221A613D4B0022E9
:102054005A613C4B00229A613A48FEF7F5FF034669
:10206400002B01D0FFF748FE00233B6400237B6470
:1020740007F1400319463348FFF7C6FC0346002B1B
:1020840001D0FFF739FE60237B620023BB6200238B
:10209400FB6200233B6300237B630023BB630023B9
:1020A400FB6307F12403002219462648FFF78EF943
:1020B4000346002B01D0FFF71FFE07F1240304227F
:1020C40019462048FFF782F90346002B01D0FFF799
:1020D40013FE07F12403082219461A48FFF776F97C
:1020E4000346002B01D0FFF707FE07F124030C225F
:1020F40019461448FFF76AF90346002B01D0FFF78D
:10210400FBFD00237B600023BB600023FB600023F6
:102114003B6100237B614FF40053BB6100233B62AE
:102124003B1D19460748FFF7B3FC0346002B01D0BB
:10213400FFF7E2FD034800F0B9F800BF4837BD4699
:1021440080BD00BFEC0000200034014080B58AB09F
:1021540000AF786007F1180300221A605A609A6091
:10216400DA607B681B682A4A934224D1294A294BA6
:10217400DB6943F00203D361264BDB6903F00203FE
:102184007B617B69234A234B9B6943F0040393617E
:10219400204B9B6903F004033B613B69C023BB6193
:1021A4000023FB6100233B6207F1180319461A4818
:1021B400FEF7B2F928E07B681B68184A934223D1E2
:1021C400144A144BDB6943F00403D361114BDB69FC
:1021D40003F00403FB60FB680E4A0E4B9B6943F05B
:1021E400080393610B4B9B6903F00803BB60BB6856
:1021F400C023BB610023FB6100233B6207F118038A
:1022040019460748FEF788F900BF2837BD4680BD48
:102214000004004000100240000801400008004093
:10222400000C014080B584B000AF78607B681B6807
:102234000D4A934213D10D4A0C4BDB6943F0100352
:10224400D3610A4BDB6903F01003FB60FB680022D7
:1022540000213620FEF72AF93620FEF743F900BFA5
:102264001037BD4680BD00BF001000400010024082
:1022740080B485B000AF78607B681B68094A9342DC
:102284000BD1094A084B9B6943F400539361064BF5
:102294009B6903F40053FB60FB6800BF1437BD4621
:1022A40080BC7047003401400010024080B588B003
:1022B40000AF786007F1100300221A605A609A6038
:1022C400DA607B681B68104A934218D10F4A0F4B9F
:1022D4009B6943F0100393610C4B9B6903F010035B
:1022E400FB60FB684FF470733B6102237B61022344
:1022F400FB6107F1100319460548FEF70DF900BF0D
:102304002037BD4680BD00BF0034014000100240AC
:1023140000100140002103E00B4B5B584350043193
:102324000A480B4B42189A42F6D30A4A02E00023A9
:1023340042F8043B084B9A42F9D3FFF74DFD00F0F5
:102344000FF8FFF77FFC704704240008000000200A
:102354000C0000200C0000202C010020FEE70000EF
:102364000E4B70B51E460E4C0025E41AA410A5426F
:1023740004D056F8253098470135F8E700F01EF8E8
:10238400084B094C1E46E41AA4100025A54204D0AB
:1023940056F8253098470135F8E770BDFC2300084E
:1023A400FC230008FC230008002400080346024420
:1023B400934202D003F8011BFAE77047F8B500BF57
:1023C400F8BC08BC9E467047F8B500BFF8BC08BC12
:0423D4009E4670476A
:1023D80002030405060708090A0B0C0D0E0F10105E
:1023E80001020000000000000000000001020304D8
:0423F80006070809C3
:0423FC0009020008CA
:04240000E5010008EA
:0C24040010000000010000000024F400A3
:0400000508002319B3
:00000001FF
