:020000040800F2
:1000000000C00020296200086958000875580008DF
:100010007D580008855800088D5800080000000031
:1000200000000000000000000000000095580008DB
:10003000A158000800000000AD580008B958000899
:100040007162000871620008716200087162000844
:100050007162000871620008716200087162000834
:100060007162000871620008716200087162000824
:100070007162000871620008716200087162000814
:100080007162000871620008716200087162000804
:1000900071620008716200087162000871620008F4
:1000A00071620008716200087162000871620008E4
:1000B00071620008716200087162000871620008D4
:1000C00071620008716200087162000871620008C4
:1000D00071620008C5580008D9580008716200080C
:1000E00071620008716200087162000871620008A4
:1000F0007162000871620008716200087162000894
:100100007162000871620008ED5800087162000811
:100110007162000871620008015900081559000851
:100120007162000871620008716200087162000863
:1001300000000000000000000000000000000000BF
:1001400000000000000000000000000000000000AF
:10015000000000000000000000000000000000009F
:10016000000000000000000000000000000000008F
:10017000000000000000000000000000000000007F
:10018000000000000000000000000000000000006F
:10019000000000000000000000000000000000005F
:1001A000000000000000000000000000000000004F
:1001B000000000000000000000000000000000003F
:1001C000000000000000000000000000000000002F
:1001D000000000000000000000000000000000001F
:0401E0005FF8E0F1F3
:1001E40010B5054C237833B9044B13B10448AFF36D
:1001F40000800123237010BD8C0200200000000049
:1002040074640008084B10B51BB108490848AFF3E3
:1002140000800848036803B910BD074B002BFBD0CE
:10022400BDE81040184700BF000000009002002005
:10023400746400088C0200200000000080F000407C
:1002440002E000BF81F0004142001FBF5FEA4103AA
:1002540092EA030F7FEA226C7FEA236C6AD04FEAAA
:100264001262D2EB1363C1BFD218414048404140EF
:10027400B8BF5B42192B88BF704710F0004F40F4A1
:10028400000020F07F4018BF404211F0004F41F4BD
:10029400000121F07F4118BF494292EA030F3FD089
:1002A400A2F1010241FA03FC10EB0C00C3F120039C
:1002B40001FA03F100F0004302D5494260EB40002B
:1002C400B0F5000F13D3B0F1807F06D340084FEA96
:1002D400310102F10102FE2A51D2B1F1004F40EB8B
:1002E400C25008BF20F0010040EA030070474900F3
:1002F40040EB000010F4000FA2F10102EDD1B0FABE
:1003040080FCACF1080CB2EB0C0200FA0CF0AABFB2
:1003140000EBC25052421843BCBFD0401843704750
:1003240092F0000F81F4000106BF80F40000013256
:10033400013BB5E74FEA41037FEA226C18BF7FEA2D
:10034400236C21D092EA030F04D092F0000F08BF6F
:100354000846704790EA010F1CBF0020704712F056
:100364007F4F04D1400028BF40F00040704712F195
:1003740000723CBF00F50000704700F0004343F0FA
:10038400FE4040F4000070477FEA226216BF084630
:100394007FEA23630146420206BF5FEA412390EAF3
:1003A400010F40F4800070474FF0000304E000BFE9
:1003B40010F0004348BF40425FEA000C08BF70479A
:1003C40043F0964301464FF000001CE050EA01025E
:1003D40008BF70474FF000030AE000BF50EA010273
:1003E40008BF704711F0004302D5404261EB410160
:1003F4005FEA010C02BF84460146002043F0B64385
:1004040008BFA3F18053A3F50003BCFA8CF2083AA9
:10041400A3EBC25310DB01FA02FC634400FA02FCB2
:10042400C2F12002BCF1004F20FA02F243EB0200B9
:1004340008BF20F00100704702F1200201FA02FC1B
:10044400C2F1200250EA4C0021FA02F243EB02000E
:1004540008BF20EADC7070474FF0FF0C1CEAD05252
:100464001EBF1CEAD15392EA0C0F93EA0C0F6FD013
:100474001A4480EA010C400218BF5FEA41211ED0F1
:100484004FF0006343EA501043EA5111A0FB0131DD
:100494000CF00040B1F5000F3EBF490041EAD371B2
:1004A4005B0040EA010062F17F02FD2A1DD8B3F12E
:1004B400004F40EBC25008BF20F00100704790F09D
:1004C400000F0CF0004C08BF49024CEA502040EAEF
:1004D40051207F3AC2BFD2F1FF0340EAC2507047B5
:1004E40040F400004FF00003013A5DDC12F1190FF3
:1004F400DCBF00F000407047C2F10002410021FA65
:1005040002F1C2F1200200FA02FC5FEA310040F17C
:10051400000053EA4C0308BF20EADC70704792F0F5
:10052400000F00F0004C02BF400010F4000F013A2D
:10053400F9D040EA0C0093F0000F01F0004C02BF28
:10054400490011F4000F013BF9D041EA0C018FE797
:100554000CEAD15392EA0C0F18BF93EA0C0F0AD09D
:1005640030F0004C18BF31F0004CD8D180EA0100C3
:1005740000F00040704790F0000F17BF90F0004F5C
:10058400084691F0000F91F0004F14D092EA0C0F3E
:1005940001D142020FD193EA0C0F03D14B0218BFD1
:1005A400084608D180EA010000F0004040F0FE4017
:1005B40040F40000704740F0FE4040F440007047B3
:1005C4004FF0FF0C1CEAD0521EBF1CEAD15392EA32
:1005D4000C0F93EA0C0F69D0A2EB030280EA010C22
:1005E40049024FEA402037D04FF0805343EA1111BB
:1005F40043EA10130CF000408B4238BF5B0042F119
:100604007D024FF4000C8B4224BF5B1A40EA0C00BD
:10061400B3EB510F24BFA3EB510340EA5C00B3EBEF
:10062400910F24BFA3EB910340EA9C00B3EBD10FDD
:1006340024BFA3EBD10340EADC001B0118BF5FEA2F
:100644001C1CE0D1FD2A3FF650AF8B4240EBC25058
:1006540008BF20F0010070470CF0004C4CEA502019
:100664007F32C2BFD2F1FF0340EAC250704740F468
:1006740000004FF00003013A37E792F0000F00F05A
:10068400004C02BF400010F4000F013AF9D040EAD8
:100694000C0093F0000F01F0004C02BF490011F46C
:1006A400000F013BF9D041EA0C0195E70CEAD15364
:1006B40092EA0C0F08D142027FF47DAF93EA0C0F4B
:1006C4007FF470AF084676E793EA0C0F04D14B022F
:1006D4003FF44CAF08466EE730F0004C18BF31F0E1
:1006E400004CCAD130F000427FF45CAF31F00043DB
:1006F4007FF43CAF5FE700BF4FEA4002B2F1FE4F28
:100704000FD34FF09E03B3EB12620DD94FEA0023CF
:1007140043F0004310F0004F23FA02F018BF4042A8
:1007240070474FF00000704712F1610F01D142028F
:1007340005D110F0004008BF6FF0004070474FF043
:100744000000704780B500AF084A084B1B6843F0AF
:1007540010031360032000F043F9002000F008F8B0
:1007640005F04EF80023184680BD00BF002002406B
:1007740080B582B000AF7860124B1A68124B1B78B8
:1007840019464FF47A73B3FBF1F3B2FBF3F3184653
:1007940000F05CF90346002B01D001230EE07B68D6
:1007A4000F2B0AD8002279684FF0FF3000F024F9AB
:1007B400064A7B681360002300E0012318460837CB
:1007C400BD4680BD2402002004000020000000205B
:1007D40080B400AF054B1B781A46054B1B681344C5
:1007E400034A136000BFBD4680BC7047040000206C
:1007F400A802002080B400AF024B1B681846BD4617
:1008040080BC7047A802002080B584B000AF786037
:10081400FFF7F0FFB8607B68FB60FB68B3F1FF3F54
:1008240005D0094B1B781A46FB681344FB6000BFD4
:10083400FFF7E0FF0246BB68D21AFB689A42F7D37F
:1008440000BF1037BD4680BD0400002080B485B0D1
:1008540000AF78607B6803F00703FB600C4BDB6838
:10086400BB60BA684FF6FF031340BB60FB681A0213
:10087400BB68134343F0BF6343F40033BB60044AD3
:10088400BB68D36000BF1437BD4680BC704700BF4F
:1008940000ED00E080B400AF044BDB6803F4E063D8
:1008A4001B0A1846BD4680BC704700BF00ED00E03F
:1008B40080B483B000AF0346FB7197F90730002B77
:1008C4000BDB084997F907305B09FA7902F01F023C
:1008D400012000FA02F241F8232000BF0C37BD4684
:1008E40080BC704700E100E080B483B000AF0346F1
:1008F4003960FB7197F90730002B0ADB0D4997F932
:1009040007303A68D2B21201D2B20B4483F8002302
:100914000AE00949FB7903F00F03043B3A68D2B2B9
:100924001201D2B20B441A7600BF0C37BD4680BC0C
:10093400704700BF00E100E000ED00E080B489B042
:1009440000AFF860B9607A60FB6803F00703FB61ED
:10095400FB69C3F10703042B28BF0423BB61FB69B4
:100964000433062B02D9FB69033B00E000237B61BF
:100974000122BB6902FA03F35A1EBB681A407B6961
:100984009A4001217B6901FA03F3591E7B680B40ED
:10099400134318462437BD4680BC704780B582B0E7
:1009A40000AF78607B68013BB3F1807F01D3012302
:1009B4000FE00A4A7B68013B53600F214FF0FF3080
:1009C400FFF792FF054B00229A60044B07221A603E
:1009D400002318460837BD4680BD00BF10E000E084
:1009E40080B582B000AF78607868FFF72FFF00BF52
:1009F4000837BD4680BD00BF80B586B000AF034652
:100A0400B9607A60FB7300237B61FFF743FF786171
:100A14007A68B9687869FFF791FF024697F90F3051
:100A240011461846FFF760FF00BF1837BD4680BD6A
:100A340080B582B000AF0346FB7197F907301846C2
:100A4400FFF736FF00BF0837BD4680BD80B582B0D2
:100A540000AF78607868FFF7A1FF034618460837AF
:100A6400BD4680BD80B584B000AF78600023FB73C1
:100A74007B6893F82130022B05D07B6804229A63AB
:100A84000123FB73ECE07B681B687A6812681268C8
:100A940022F00E021A607B681B687A68126812687A
:100AA40022F001021A607B681B681A466F4B9A4257
:100AB40063D96F4A7B681B6819466E4B994259D0BB
:100AC4007B681B6819466C4B994251D07B681B6844
:100AD40019466A4B994248D07B681B681946684B93
:100AE40099423FD07B681B681946664B994236D0C1
:100AF4007B681B681946644B99422DD07B681B6840
:100B040019465A4B994224D07B681B6819465F4B9F
:100B140099421CD07B681B6819465D4B994214D0DE
:100B24007B681B6819465B4B99420BD07B681B683A
:100B34001946594B994202D14FF480531BE04FF4AC
:100B4400803318E04FF4807315E0102313E0012381
:100B540011E04FF080730EE04FF480130BE04FF47C
:100B6400803308E04FF4805305E04FF4807302E0D3
:100B7400102300E00123536062E0484A7B681B684D
:100B840019463C4B994259D07B681B6819463A4B2D
:100B9400994251D07B681B681946384B994248D01A
:100BA4007B681B681946364B99423FD07B681B68AB
:100BB4001946344B994236D07B681B681946324B30
:100BC40099422DD07B681B681946284B994224D042
:100BD4007B681B6819462D4B99421CD07B681B68A7
:100BE40019462B4B994214D07B681B681946294B34
:100BF40099420BD07B681B681946274B994202D156
:100C04004FF480531BE04FF4803318E04FF48073AB
:100C140015E0102313E0012311E04FF080730EE080
:100C24004FF480130BE04FF4803308E04FF480530B
:100C340005E04FF4807302E0102300E001235360C9
:100C44007B68012283F821207B68002283F820201E
:100C54007B685B6B002B03D07B685B6B7868984781
:100C6400FB7B18461037BD4680BD00BF80000240A4
:100C740000040240080002401C0002403000024010
:100C840044000240580002406C0002400804024044
:100C94001C040240300402404404024000000240AC
:100CA40080B48BB000AF7860396000237B6200238E
:100CB4003B6233E101227B6A02FA03F3FB613B6886
:100CC4001A68FB691340BB61BA69FB699A4240F038
:100CD40022813B685B68122B34D0122B0DD8022B77
:100CE4002BD0022B04D8002B31D0012B1CD048E090
:100CF400032B43D0112B1BD043E08F4A934226D0C1
:100D04008D4A934206D88D4A934220D08C4A93420E
:100D14001DD036E08B4A934219D08B4A934216D0A9
:100D24008A4A934213D02CE03B68DB683B6228E09C
:100D34003B68DB6804333B6223E03B68DB680833D1
:100D44003B621EE03B68DB680C333B6219E03B68A6
:100D54009B68002B02D104233B6212E03B689B6832
:100D6400012B05D108233B627B68FA691A6108E00C
:100D740008233B627B68FA695A6102E000233B6204
:100D840000BFBB69FF2B01D87B6801E07B6804339B
:100D94007B61BB69FF2B02D87B6A9B0002E07B6A04
:100DA400083B9B003B617B691A680F213B6901FA90
:100DB40003F3DB431A40396A3B6901FA03F31A432C
:100DC4007B691A603B685B6803F08053002B00F07A
:100DD400A2805F4A5E4B9B6943F0010393615C4BC5
:100DE4009B6903F00103BB60BB685A4A7B6A9B089A
:100DF400023352F82330FB607B6A03F003039B0049
:100E04000F2202FA03F3DB43FA681340FB607B68AA
:100E1400514A93421FD07B68504A934219D07B6851
:100E24004F4A934213D07B684E4A93420DD07B685D
:100E34004D4A934207D07B684C4A934201D1052323
:100E44000AE0062308E0042306E0032304E0022367
:100E540002E0012300E000237A6A02F00302920018
:100E64009340FA681343FB603A497B6A9B08023358
:100E7400FA6841F823203B685B6803F48033002B55
:100E840006D03B493A4B1A68BB6913430B6006E032
:100E94003749374B1A68BB69DB4313400B603B6827
:100EA4005B6803F40033002B06D03149304B5A6899
:100EB400BB6913434B6006E02D492D4B5A68BB694F
:100EC400DB4313404B603B685B6803F48013002BE7
:100ED40006D02749264B9A68BB6913438B6006E00A
:100EE4002349234B9A68BB69DB4313408B603B68FF
:100EF4005B6803F40013002B06D01D491C4BDA6811
:100F0400BB691343CB6006E01949194BDA68BB6926
:100F1400DB431340CB607B6A01337B623B681A6816
:100F24007B6A22FA03F3002B7FF4C4AE00BF2C3794
:100F3400BD4680BC704700BF0000211000001110A6
:100F440000001210000031100000321000002210C6
:100F5400001002400000014000080140000C014064
:100F6400001001400014014000180140001C014021
:100F74000004014080B485B000AF78600B467B80EC
:100F84007B689A687B881340002B02D00123FB7393
:100F940001E00023FB73FB7B18461437BD4680BC7D
:100FA400704700BF80B483B000AF78600B467B808D
:100FB40013467B707B78002B03D07A887B681A6198
:100FC40003E07B881A047B681A6100BF0C37BD46B6
:100FD40080BC704780B483B000AF78600B467B80E0
:100FE4007B68DA687B881340002B03D07A887B689F
:100FF4005A6102E07A887B681A6100BF0C37BD46EB
:1010040080BC704790B585B000AF78607B68002BDA
:1010140001D101230FE17B6893F83D30DBB2002B53
:1010240006D17B68002283F83C20786803F0D0FF67
:101034007B68242283F83D207B681B687A681268E9
:10104400126822F001021A6000F0E4FFF8607B6885
:101054005B687B4A934207D8FB687A4A934294BF01
:1010640001230023DBB206E0FB68774A934294BF76
:1010740001230023DBB2002B01D00123DBE0FB685A
:10108400724AA2FB03239B0CBB607B681B687A68D3
:101094001268526822F03F01BA680A435A607B68BA
:1010A4001A687B681B681B6A23F03F017B685B68D6
:1010B4006348834202D8BB68013309E0BB684FF43C
:1010C400967000FB03F36248A0FB03039B09013302
:1010D4000B4313627B6818687B681B68DB6923F425
:1010E4004F4222F0FF027B685B6855498B420DD862
:1010F400FB68591E7B685B685B00B1FBF3F301334B
:10110400C3F30B03042B38BF04234FE07B689B68B5
:10111400002B11D1FB685C1E7B6859680B465B0091
:101124000B44B4FBF3F30133C3F30B03002B0CBFE9
:1011340001230023DBB212E0FB685C1E7B68596864
:101144000B469B000B4499000B44B4FBF3F30133AF
:10115400C3F30B03002B0CBF01230023DBB2002BD2
:1011640001D0012322E07B689B68002B0ED1FB6831
:101174005C1E7B6859680B465B000B44B4FBF3F3BD
:101184000133C3F30B0343F400430FE0FB685C1E1D
:101194007B6859680B469B000B4499000B44B4FBD5
:1011A400F3F30133C3F30B0343F440431343C36129
:1011B4007B681B687A681268126822F0C0017A683A
:1011C400D0697A68126A02430A431A607B681A6813
:1011D4007B681B689B6823F4034323F0FF0379684F
:1011E40008697968C96801430B4393607B681B688D
:1011F4007A681268D26822F0FF017A6850697A68C6
:10120400926902430A43DA607B681B687A68126851
:10121400126842F001021A607B6800221A647B683B
:10122400202283F83D207B6800221A637B68002219
:1012340083F83E20002318461437BD4690BD00BFF6
:10124400A08601007F841E00FF083D0083DE1B434F
:10125400D34D621080B588B002AFF86008461146DD
:101264001A4603467B810B463B811346FB80FFF7FE
:10127400C1FA7861FB6893F83D30DBB2202B40F073
:10128400D9807B690093192301226D49F86800F025
:1012940063F90346002B01D00223CCE0FB6893F8EA
:1012A4003C30012B01D10223C5E0FB68012283F805
:1012B4003C20FB681B681B6803F00103002B07D16B
:1012C400FB681B68FA681268126842F001021A602F
:1012D400FB681B68FA681268126822F400621A60DC
:1012E400FB68212283F83D20FB68402283F83E20DE
:1012F400FB6800221A64FB683A6A5A62FB68BA8C7B
:101304005A85FB685B8D9AB2FB681A85FB684D4A67
:10131400DA62F8883A8979897B690193BB6A009318
:101324000346F86800F090F80346002B52D00123DE
:1013340081E07A69B96AF86800F0E4F90346002BA1
:101344000DD0FB681B6C042B07D1FB681B68FA6883
:101354001268126842F400721A6001236BE0FB68A1
:101364001B68FA68526A12781A61FB685B6A5A1C35
:10137400FB685A62FB681B8D013B9AB2FB681A85B5
:10138400FB685B8D9BB2013B9AB2FB685A85FB6894
:101394001B685B6903F00403002B1BD0FB681B8DE7
:1013A400002B17D0FB681B68FA68526A12781A611E
:1013B400FB685B6A5A1CFB685A62FB681B8D013B25
:1013C4009AB2FB681A85FB685B8D9BB2013B9AB2AB
:1013D400FB685A85FB681B8D002BAAD17A69B96A10
:1013E400F86800F0D1F90346002B0DD0FB681B6CA4
:1013F400042B07D1FB681B68FA681268126842F470
:1014040000721A60012316E0FB681B68FA68126810
:10141400126842F400721A60FB68202283F83D20AF
:10142400FB68002283F83E20FB68002283F83C20FE
:10143400002300E0022318461837BD4680BD00BFD4
:10144400020010000000FFFF80B588B002AFF86012
:10145400084611461A4603467B810B463B811346D8
:10146400FB80FB681B68FA681268126842F4807299
:101474001A607B6A00933B6A00224FF00111F868FE
:1014840000F06AF80346002B01D001235EE0FB68FC
:101494001B687A89D2B202F0FE021A617B6A3A6A48
:1014A4002C49F86800F0B0F80346002B01D0012362
:1014B4004CE000237B61FB681B685B697B61FB6814
:1014C4001B689B697B617B697A6A396AF86800F0FA
:1014D40019F90346002B0DD0FB681B6C042B07D1B4
:1014E400FB681B68FA681268126842F400721A609A
:1014F40001232BE0FB88012B05D1FB681B683A898B
:10150400D2B21A6121E0FB681B683A89120A92B2CE
:10151400D2B21A617A6A396AF86800F0F3F80346BD
:10152400002B0DD0FB681B6C042B07D1FB681B68D8
:10153400FA681268126842F400721A60012305E026
:10154400FB681B683A89D2B21A610023184618371F
:10155400BD4680BD0200010080B584B000AFF860D4
:10156400B9603B601346FB7125E03B68B3F1FF3F74
:1015740021D0FFF73FF90246BB69D21A3B689A4271
:1015840002D83B68002B16D1FB6800221A63FB6863
:10159400202283F83D20FB68002283F83E20FB686C
:1015A4001B6C43F02002FB681A64FB68002283F87A
:1015B4003C20012323E0BB681B0CDBB2012B0DD1C3
:1015C400FB681B685B69DA43BB6813409BB2002B62
:1015D4000CBF01230023DBB21A460CE0FB681B6836
:1015E4009B69DA43BB6813409BB2002B0CBF0123F9
:1015F4000023DBB21A46FB799A42B6D00023184680
:101604001037BD4680BD00BF80B584B000AFF86020
:10161400B9607A603B6050E0FB681B685B6903F467
:101624008063002B23D0FB681B68FA681268126879
:1016340042F400721A60FB681B686FF480625A619E
:10164400FB6800221A63FB68202283F83D20FB68B4
:10165400002283F83E20FB681B6C43F00402FB6805
:101664001A64FB68002283F83C20012346E07B686F
:10167400B3F1FF3F21D0FFF7BDF802463B68D21A11
:101684007B689A4202D87B68002B16D1FB68002243
:101694001A63FB68202283F83D20FB68002283F84C
:1016A4003E20FB681B6C43F02002FB681A64FB6855
:1016B400002283F83C20012320E0BB681B0CDBB232
:1016C400012B0CD1FB681B685B69DA43BB681340D0
:1016D4009BB2002B14BF01230023DBB20BE0FB6899
:1016E4001B689B69DA43BB6813409BB2002B14BF91
:1016F40001230023DBB2002B8ED1002318461037C0
:10170400BD4680BD80B584B000AFF860B9607A6032
:101714002DE0F86800F07AF80346002B01D001238D
:101724002DE0BB68B3F1FF3F21D0FFF763F8024619
:101734007B68D21ABB689A4202D8BB68002B16D1C8
:10174400FB6800221A63FB68202283F83D20FB68B3
:10175400002283F83E20FB681B6C43F02002FB68E8
:101764001A64FB68002283F83C20012307E0FB682D
:101774001B685B6903F08003002BCAD00023184662
:101784001037BD4680BD00BF80B584B000AFF8609F
:10179400B9607A602DE0F86800F038F80346002B51
:1017A40001D001232DE0BB68B3F1FF3F21D0FFF747
:1017B40021F802467B68D21ABB689A4202D8BB68F9
:1017C400002B16D1FB6800221A63FB68202283F8E1
:1017D4003D20FB68002283F83E20FB681B6C43F02D
:1017E4002002FB681A64FB68002283F83C20012372
:1017F40007E0FB681B685B6903F00403002BCAD095
:10180400002318461037BD4680BD00BF80B483B0A6
:1018140000AF78607B681B685B6903F48063002B0E
:101824001BD07B681B686FF480625A617B6800225E
:101834001A637B68202283F83D207B68002283F8AA
:101844003E207B681B6C43F004027B681A647B684F
:10185400002283F83C20012300E0002318460C37C3
:10186400BD4680BC704700BF80B586B000AF7860CD
:101874007B68002B01D101236AE27B681B6803F0BB
:101884000103002B00F08680914B5B6803F00C038E
:10189400042B0BD08E4B5B6803F00C03082B11D187
:1018A4008B4B5B6803F48033002B0BD0884B1B6895
:1018B40003F40033002B6CD07B685B68002B68D189
:1018C400012345E27B685B68B3F5803F06D1804A1B
:1018D4007F4B1B6843F4803313602EE07B685B68A6
:1018E400002B0CD17A4A7A4B1B6823F480331360A3
:1018F400774A774B1B6823F4802313601DE07B68D1
:101904005B68B3F5A02F0CD1714A714B1B6843F48B
:10191400802313606E4A6E4B1B6843F4803313605C
:101924000BE06B4A6A4B1B6823F480331360684AEC
:10193400674B1B6823F4802313607B685B68002B70
:1019440013D0FEF757FF386108E0FEF753FF024655
:101954003B69D31A642B01D90323F9E15C4B1B685F
:1019640003F40033002BF0D014E0FEF743FF38619A
:1019740008E0FEF73FFF02463B69D31A642B01D906
:101984000323E5E1524B1B6803F40033002BF0D131
:1019940000E000BF7B681B6803F00203002B63D0E8
:1019A4004B4B5B6803F00C03002B0BD0484B5B687C
:1019B40003F00C03082B1CD1454B5B6803F4803304
:1019C400002B16D1424B1B6803F00203002B05D0F9
:1019D4007B681B69012B01D00123B9E13C493C4BD5
:1019E4001B6823F0F8027B685B69DB0013430B6020
:1019F4003AE07B681B69002B20D0364B01221A6029
:101A0400FEF7F8FE386108E0FEF7F4FE02463B6993
:101A1400D31A022B01D903239AE12D4B1B6803F03F
:101A24000203002BF0D02A49294B1B6823F0F8024B
:101A34007B685B69DB0013430B6015E0254B0022D8
:101A44001A60FEF7D7FE386108E0FEF7D3FE0246BF
:101A54003B69D31A022B01D9032379E11C4B1B6880
:101A640003F00203002BF0D17B681B6803F008032A
:101A7400002B39D07B689B69002B19D0164B0122AF
:101A84001A60FEF7B7FE386108E0FEF7B3FE0246BF
:101A94003B69D31A022B01D9032359E10C4B5B6A2E
:101AA40003F00203002BF0D0012000F0DBFA1BE06E
:101AB400094B00221A60FEF79DFE38610EE0FEF726
:101AC40099FE02463B69D31A022B07D903233FE14F
:101AD4000010024000004242800442429E4B5B6A76
:101AE40003F00203002BEAD17B681B6803F00403B4
:101AF400002B00F0A6800023FB75974BDB6903F0F5
:101B04008053002B0DD1944A934BDB6943F08053EF
:101B1400D361914BDB6903F08053BB60BB68012345
:101B2400FB758E4B1B6803F48073002B18D18B4A12
:101B34008A4B1B6843F480731360FEF75BFE3861C5
:101B440008E0FEF757FE02463B69D31A642B01D91D
:101B54000323FDE0814B1B6803F48073002BF0D05A
:101B64007B68DB68012B06D17B4A7B4B1B6A43F005
:101B7400010313622DE07B68DB68002B0CD1764AED
:101B8400754B1B6A23F001031362734A724B1B6A81
:101B940023F0040313621CE07B68DB68052B0CD183
:101BA4006D4A6D4B1B6A43F0040313626A4A6A4B25
:101BB4001B6A43F0010313620BE0674A664B1B6A1E
:101BC40023F001031362644A634B1B6A23F004038A
:101BD40013627B68DB68002B15D0FEF70BFE3861BF
:101BE4000AE0FEF707FE02463B69D31A41F2883247
:101BF400934201D90323ABE0574B1B6A03F0020362
:101C0400002BEED014E0FEF7F5FD38610AE0FEF794
:101C1400F1FD02463B69D31A41F28832934201D95D
:101C2400032395E04C4B1B6A03F00203002BEED117
:101C3400FB7D012B05D1484A474BDB6923F08053D8
:101C4400D3617B68DB69002B00F08180424B5B68C9
:101C540003F00C03082B61D07B68DB69022B46D1AF
:101C64003F4B00221A60FEF7C5FD386108E0FEF71D
:101C7400C1FD02463B69D31A022B01D9032367E055
:101C8400354B1B6803F00073002BF0D17B681B6A93
:101C9400B3F5803F08D130492F4B5B6823F4003201
:101CA4007B689B6813434B602B482B4B5B6823F486
:101CB40074127B68196A7B685B6A0B431343436045
:101CC400274B01221A60FEF795FD386108E0FEF704
:101CD40091FD02463B69D31A022B01D9032337E055
:101CE4001D4B1B6803F00073002BF0D02FE01C4B3E
:101CF40000221A60FEF77EFD386108E0FEF77AFDE7
:101D040002463B69D31A022B01D9032320E0124B6C
:101D14001B6803F00073002BF0D118E07B68DB69CB
:101D2400012B01D1012313E00B4B5B68FB60FB68C3
:101D340003F480327B681B6A9A4206D1FB6803F481
:101D440070127B685B6A9A4201D0012300E0002391
:101D540018461837BD4680BD001002400070004090
:101D64006000424280B584B000AF786039607B681F
:101D7400002B01D10123D0E06A4B1B6803F007025A
:101D84003B689A4210D26749664B1B6823F00702EE
:101D94003B6813430B60634B1B6803F007023B680B
:101DA4009A4201D00123B8E07B681B6803F0020368
:101DB400002B20D07B681B6803F00403002B05D0A4
:101DC400594A594B5B6843F4E06353607B681B6872
:101DD40003F00803002B05D0534A534B5B6843F4CC
:101DE400605353605049504B5B6823F0F0027B68AA
:101DF4009B6813434B607B681B6803F00103002B53
:101E040040D07B685B68012B07D1474B1B6803F408
:101E14000033002B15D101237FE07B685B68022B24
:101E240007D1414B1B6803F00073002B09D1012338
:101E340073E03D4B1B6803F00203002B01D1012327
:101E44006BE03949384B5B6823F003027B685B68BD
:101E540013434B60FEF7CEFCF8600AE0FEF7CAFCC1
:101E64000246FB68D31A41F28832934201D9032314
:101E740053E02D4B5B6803F00C027B685B689B00AE
:101E84009A42EBD1274B1B6803F007023B689A4246
:101E940010D92449234B1B6823F007023B681343E2
:101EA4000B60204B1B6803F007023B689A4201D089
:101EB400012332E07B681B6803F00403002B08D085
:101EC4001949194B5B6823F4E0627B68DB681343B0
:101ED4004B607B681B6803F00803002B09D0124990
:101EE400114B5B6823F460527B681B69DB0013436E
:101EF4004B6000F021F801460B4B5B6803F0F003E4
:101F04001B090A4AD35C21FA03F3094A1360094BFB
:101F14001B681846FEF72CFC002318461037BD46F4
:101F240080BD00BF0020024000100240C06C0008C9
:101F3400240200200000002090B48AB000AF2B4B94
:101F44003C1D186859689A68DB680FC4284A3B46E8
:101F540012881A800023FB610023BB6100237B628B
:101F640000237B6100233B62224B5B68FB61FB69BE
:101F740003F00C03042B02D0082B03D02DE01E4BDE
:101F84003B622DE0FB699B0C03F00F0307F1280271
:101F9400134413F8243C7B61FB6903F48033002B66
:101FA40013D0144B5B6803F400335B0C07F1280275
:101FB400134413F8283CBB617B690F4A02FB03F20C
:101FC400BB69B2FBF3F37B6204E07B690B4A02FB5F
:101FD40003F37B627B6A3B6202E0074B3B6200BF18
:101FE4003B6A18462837BD4690BC70478C6400088D
:101FF4009C6400080010024000127A0000093D00B1
:1020040080B400AF024B1B681846BD4680BC7047C5
:102014002402002080B500AFFFF7F2FF0146054B14
:102024005B6803F4E0631B0A034AD35C21FA03F3FD
:10203400184680BD00100240D06C000880B500AF87
:10204400FFF7DEFF0146054B5B6803F46053DB0AD0
:10205400034AD35C21FA03F3184680BD0010024002
:10206400D06C000880B485B000AF78600A4B1B6860
:102074000A4AA2FB03235B0A7A6802FB03F3FB60B0
:1020840000BFFB685A1EFA60002BF9D100BF143759
:10209400BD4680BC704700BF24020020D34D6210AF
:1020A40080B582B000AF78607B68002B01D101233A
:1020B4001DE07B6893F83D30DBB2002B06D17B68D2
:1020C400002283F83C20786803F030FF7B6802220A
:1020D40083F83D207B681A687B68043319461046F0
:1020E40000F00AFC7B68012283F83D200023184697
:1020F4000837BD4680BD00BF80B485B000AF7860AE
:102104007B681B687A681268D26842F00102DA6060
:102114007B681B689B6803F00703FB60FB68062B66
:1021240007D07B681B687A681268126842F0010263
:102134001A60002318461437BD4680BC704700BFA0
:1021440080B483B000AF78607B681B687A681268DB
:10215400D26822F00102DA607B681B681A6A41F2D5
:1021640011131340002B0FD17B681B681A6A40F2CD
:1021740044431340002B07D17B681B687A681268BC
:10218400126822F001021A60002318460C37BD467B
:1021940080BC704780B582B000AF78607B68002B4C
:1021A40001D101231DE07B6893F83D30DBB2002BA5
:1021B40006D17B68002283F83C20786803F090FE07
:1021C4007B68022283F83D207B681A687B680433AD
:1021D4001946104600F090FB7B68012283F83D20ED
:1021E400002318460837BD4680BD00BF80B582B0C5
:1021F40000AF78607B68002B01D101231DE07B6870
:1022040093F83D30DBB2002B06D17B68002283F8C3
:102214003C20786803F0CCFE7B68022283F83D20E2
:102224007B681A687B6804331946104600F064FB27
:102234007B68012283F83D20002318460837BD46F9
:1022440080BD00BF80B584B000AF786039607B6822
:102254001B6801223968184600F074FD7B681B680E
:10226400154A934204D07B681B68144A934201D1F7
:10227400012300E00023002B07D07B681B687A68E9
:102284001268526C42F400425A647B681B689B6873
:1022940003F00703FB60FB68062B07D07B681B6811
:1022A4007A681268126842F001021A600023184624
:1022B4001037BD4680BD00BF002C014000340140F2
:1022C40080B586B000AF786039607B68002B01D19F
:1022D40001237FE07B6893F83D30DBB2002B06D10D
:1022E4007B68002283F83C20786803F08DFD7B68CE
:1022F400022283F83D207B681A687B681B689B6810
:1023040023F4804323F0070393607B681A687B6897
:1023140004331946104600F0EFFA7B681B689B688B
:102324007B617B681B689B693B617B681B681B6ADC
:10233400FB603B681B687A6913437B613B6923F448
:10234400407323F003033B613B689A683B689B69D5
:102354001B0213433A6913433B613B6923F4406313
:1023640023F00C033B613B6923F4704323F0F00337
:102374003B613B68DA683B68DB691B0213433A69DB
:1023840013433B613B681B691A013B681B6A1B03CF
:1023940013433A6913433B61FB6823F02203FB6058
:1023A4003B685A683B685B691B011343FA68134333
:1023B400FB607B681B687A699A607B681B683A6972
:1023C4009A617B681B68FA681A627B68012283F849
:1023D4003D20002318461837BD4680BD80B582B025
:1023E40000AF786039603B68002B02D0042B08D022
:1023F4000FE07B681B6801220021184600F0A2FC54
:1024040016E07B681B6801220421184600F09AFC40
:102414000EE07B681B6801220021184600F092FC44
:102424007B681B6801220421184600F08BFC00BF66
:102434007B681B687A681268126842F001021A60AD
:10244400002318460837BD4680BD00BF80B582B062
:1024540000AF78607B681B681B6903F00203002BE4
:1024640022D07B681B68DB6803F00203002B1BD0BF
:102474007B681B686FF002021A617B6801221A777D
:102484007B681B689B6903F00303002B03D0786807
:1024940000F014FA05E0786800F006FA786800F0B5
:1024A40017FA7B6800221A777B681B681B6903F0A4
:1024B4000403002B22D07B681B68DB6803F0040351
:1024C400002B1BD07B681B686FF004021A617B68C9
:1024D40002221A777B681B689B6903F44073002B04
:1024E40003D0786800F0EAF905E0786800F0DCF9D8
:1024F400786800F0EDF97B6800221A777B681B6826
:102504001B6903F00803002B22D07B681B68DB687F
:1025140003F00803002B1BD07B681B686FF00802D4
:102524001A617B6804221A777B681B68DB6903F0F5
:102534000303002B03D0786800F0C0F905E0786845
:1025440000F0B2F9786800F0C3F97B6800221A77CA
:102554007B681B681B6903F01003002B22D07B6887
:102564001B68DB6803F01003002B1BD07B681B681F
:102574006FF010021A617B6808221A777B681B6867
:10258400DB6903F44073002B03D0786800F096F9FC
:1025940005E0786800F088F9786800F099F97B68BC
:1025A40000221A777B681B681B6903F00103002B68
:1025B4000ED07B681B68DB6803F00103002B07D097
:1025C4007B681B686FF001021A61786803F006F8F3
:1025D4007B681B681B6903F08003002B0ED07B68AB
:1025E4001B68DB6803F08003002B07D07B681B6843
:1025F4006FF080021A61786800F068FC7B681B68E1
:102604001B6903F04003002B0ED07B681B68DB685A
:1026140003F04003002B07D07B681B686FF0400277
:102624001A61786800F05EF97B681B681B6903F027
:102634002003002B0ED07B681B68DB6803F02003AB
:10264400002B07D07B681B686FF020021A61786842
:1026540000F032FC00BF0837BD4680BD80B584B0B1
:1026640000AFF860B9607A60FB6893F83C30012BE6
:1026740001D102234EE0FB68012283F83C20FB6871
:10268400022283F83D207B680C2B39D801A252F832
:1026940023F000BFCD260008052700080527000801
:1026A40005270008DB260008052700080527000881
:1026B40005270008E9260008052700080527000863
:1026C40005270008F7260008FB681B68B968184648
:1026D40000F08CF915E0FB681B68B968184600F037
:1026E400F5F90EE0FB681B68B968184600F062FA59
:1026F40007E0FB681B68B968184600F0CFFA00E0F1
:1027040000BFFB68012283F83D20FB68002283F8A8
:102714003C20002318461037BD4680BD80B584B0E8
:1027240000AFF860B9607A60FB6893F83C30012B25
:1027340001D10223B4E0FB68012283F83C20FB684A
:10274400022283F83D207B680C2B00F29F8001A2BB
:1027540052F823F08D2700089128000891280008DA
:1027640091280008CD270008912800089128000826
:10277400912800080F2800089128000891280008D3
:10278400912800084F280008FB681B68B9681846A0
:1027940000F02CF9FB681B68FA681268926942F031
:1027A40008029A61FB681B68FA681268926922F051
:1027B40004029A61FB681B68FA6812689169BA6836
:1027C40012690A439A6162E0FB681B68B96818469B
:1027D40000F07CF9FB681B68FA681268926942F49D
:1027E40000629A61FB681B68FA681268926922F4B5
:1027F40080629A61FB681B68FA6812689169BA681A
:10280400126912020A439A6141E0FB681B68B968C5
:10281400184600F0CFF9FB681B68FA681268D269A1
:1028240042F00802DA61FB681B68FA681268D26930
:1028340022F00402DA61FB681B68FA681268D16945
:10284400BA6812690A43DA6121E0FB681B68B96857
:10285400184600F023FAFB681B68FA681268D2690C
:1028640042F40062DA61FB681B68FA681268D26994
:1028740022F48062DA61FB681B68FA681268D16925
:10288400BA68126912020A43DA6100E000BFFB6809
:10289400012283F83D20FB68002283F83C200023BA
:1028A40018461037BD4680BD80B483B000AF786051
:1028B40000BF0C37BD4680BC704700BF80B483B0F6
:1028C40000AF786000BF0C37BD4680BC704700BFC6
:1028D40080B483B000AF786000BF0C37BD4680BCC5
:1028E400704700BF80B483B000AF786000BF0C377E
:1028F400BD4680BC704700BF80B485B000AF78602F
:1029040039607B681B68FB607B68334A934213D051
:102914007B68324A93420FD07B68B3F1804F0BD06F
:102924007B682F4A934207D07B682E4A934203D098
:102934007B682D4A934208D1FB6823F07003FB6047
:102944003B685B68FA681343FB607B68224A9342E6
:1029540013D07B68214A93420FD07B68B3F1804F38
:102964000BD07B681E4A934207D07B681D4A934272
:1029740003D07B681C4A934208D1FB6823F440735C
:10298400FB603B68DB68FA681343FB60FB6823F079
:1029940080023B685B691343FB607B68FA681A60DA
:1029A4003B689A687B68DA623B681A687B689A625B
:1029B4007B68094A934203D07B68084A934203D157
:1029C4003B681A697B681A637B6801225A6100BFFD
:1029D4001437BD4680BC7047002C014000340140D0
:1029E4000004004000080040000C004080B487B0A0
:1029F40000AF786039607B681B6A23F001027B6852
:102A04001A627B681B6A7B617B685B683B617B68DD
:102A14009B69FB60FB6823F07003FB60FB6823F099
:102A24000303FB603B681B68FA681343FB607B6924
:102A340023F002037B613B689B687A6913437B61E3
:102A44007B68204A934203D07B681F4A93420CD18F
:102A54007B6923F008037B613B68DB687A69134375
:102A64007B617B6923F004037B617B68154A934295
:102A740003D07B68144A934211D13B6923F48073D9
:102A84003B613B6923F400733B613B685B693A69D2
:102A940013433B613B689B693A6913433B617B6821
:102AA4003A695A607B68FA689A613B685A687B683D
:102AB4005A637B687A691A6200BF1C37BD4680BCC2
:102AC400704700BF002C01400034014080B487B03F
:102AD40000AF786039607B681B6A23F010027B6862
:102AE4001A627B681B6A7B617B685B683B617B68FD
:102AF4009B69FB60FB6823F4E043FB60FB6823F401
:102B04004073FB603B681B681B02FA681343FB605D
:102B14007B6923F020037B613B689B681B017A6916
:102B240013437B617B68214A934203D07B68204A2C
:102B340093420DD17B6923F080037B613B68DB68A2
:102B44001B017A6913437B617B6923F040037B613A
:102B54007B68164A934203D07B68154A934213D18B
:102B64003B6923F480633B613B6923F400633B616D
:102B74003B685B699B003A6913433B613B689B6913
:102B84009B003A6913433B617B683A695A607B68EE
:102B9400FA689A613B685A687B689A637B687A69C9
:102BA4001A6200BF1C37BD4680BC7047002C014030
:102BB4000034014080B487B000AF786039607B682E
:102BC4001B6A23F480727B681A627B681B6A7B61D0
:102BD4007B685B683B617B68DB69FB60FB6823F0B7
:102BE4007003FB60FB6823F00303FB603B681B6816
:102BF400FA681343FB607B6923F400737B613B68D1
:102C04009B681B027A6913437B617B68214A934268
:102C140003D07B68204A93420DD17B6923F400637F
:102C24007B613B68DB681B027A6913437B617B69C8
:102C340023F480637B617B68164A934203D07B68EC
:102C4400154A934213D13B6923F480533B613B699A
:102C540023F400533B613B685B691B013A691343EE
:102C64003B613B689B691B013A6913433B617B6889
:102C74003A695A607B68FA68DA613B685A687B682B
:102C8400DA637B687A691A6200BF1C37BD4680BC70
:102C9400704700BF002C01400034014080B487B06D
:102CA40000AF786039607B681B6A23F480527B68CC
:102CB4001A627B681B6A3B617B685B687B617B682B
:102CC400DB69FB60FB6823F4E043FB60FB6823F4EF
:102CD4004073FB603B681B681B02FA681343FB608C
:102CE4003B6923F400533B613B689B681B033A69CF
:102CF40013433B617B68114A934203D07B68104ABB
:102D0400934209D17B6923F480437B613B685B690F
:102D14009B017A6913437B617B687A695A607B689B
:102D2400FA68DA613B685A687B681A647B683A69B6
:102D34001A6200BF1C37BD4680BC7047002C01409E
:102D44000034014080B487B000AFF860B9607A60A5
:102D5400BB6803F01F03012202FA03F37B61FB68E3
:102D64001A6A7B69DB431A40FB681A62FB681A6AB9
:102D7400BB6803F01F03796801FA03F31A43FB6885
:102D84001A6200BF1C37BD4680BC704780B485B052
:102D940000AF786039607B6893F83C30012B01D137
:102DA400022332E07B68012283F83C207B68022204
:102DB40083F83D207B681B685B68FB607B681B684D
:102DC4009B68BB60FB6823F07003FB603B681B6877
:102DD400FA681343FB60BB6823F08003BB603B6865
:102DE4005B68BA681343BB607B681B68FA685A6007
:102DF4007B681B68BA689A607B68012283F83D206F
:102E04007B68002283F83C20002318461437BD4613
:102E140080BC704780B485B000AF7860396000230F
:102E2400FB607B6893F83C30012B01D102233DE029
:102E34007B68012283F83C20FB6823F0FF023B6897
:102E4400DB681343FB60FB6823F440723B689B68B8
:102E54001343FB60FB6823F480623B685B681343A5
:102E6400FB60FB6823F400623B681B681343FB6050
:102E7400FB6823F480523B681B691343FB60FB68C7
:102E840023F400523B685B691343FB60FB6823F443
:102E940080423B68DB691343FB607B681B68FA680C
:102EA4005A647B68002283F83C20002318461437B8
:102EB400BD4680BC704700BF80B483B000AF78606B
:102EC40000BF0C37BD4680BC704700BF80B483B0E0
:102ED40000AF786000BF0C37BD4680BC704700BFB0
:102EE40080B582B000AF78607B68002B01D10123EC
:102EF4003FE07B6893F83930DBB2002B06D17B6866
:102F0400002283F83820786803F0F8F87B682422DC
:102F140083F839207B681B687A681268D26822F4C7
:102F24000052DA60786800F08FFB7B681B687A686F
:102F34001268126922F490421A617B681B687A68ED
:102F44001268526922F02A025A617B681B687A6807
:102F54001268D26842F40052DA607B680022DA63B5
:102F64007B68202283F839207B68202283F83A206A
:102F7400002318460837BD4680BD00BF80B588B021
:102F840002AFF860B9603B601346FB8000237B61AD
:102F9400FB6893F83930DBB2202B40F08280BB68A9
:102FA400002B02D0FB88002B01D101237AE0FB68BF
:102FB40093F83830012B01D1022373E0FB6801221E
:102FC40083F83820FB680022DA63FB68212283F847
:102FD4003920FDF70FFC7861FB68FA889A84FB6856
:102FE400FA88DA8441E0FB68DB8C9BB2013B9AB23D
:102FF400FB68DA84FB689B68B3F5805F21D13B688A
:1030040000937B6900228021F86800F0B3F903463D
:10301400002B01D0032345E0BB683B61FB681B68C0
:103024003A691288C2F308025A60FB681B69002BD4
:1030340003D1BB680233BB6017E0BB680133BB60DC
:1030440013E03B6800937B6900228021F86800F05C
:1030540091F90346002B01D0032323E0FB681A688F
:10306400BB68591CB9601B785360FB68DB8C9BB24E
:10307400002BB8D13B6800937B6900224021F8689B
:1030840000F078F90346002B01D003230AE0FB6823
:10309400202283F83920FB68002283F8382000239B
:1030A40000E0022318461837BD4680BD80B485B0C1
:1030B40000AFF860B9601346FB80FB6893F83A30C0
:1030C400DBB2202B40D1BB68002B02D0FB88002B45
:1030D40001D1012339E0FB6893F83830012B01D189
:1030E400022332E0FB68012283F83820FB68BA68C7
:1030F4009A62FB68FA889A85FB68FA88DA85FB6825
:103104000022DA63FB68222283F83A20FB6800225B
:1031140083F83820FB681B68FA681268D26842F4A6
:103124008072DA60FB681B68FA681268526942F0C0
:1031340001025A61FB681B68FA681268D26842F09F
:103144002002DA60002300E0022318461437BD464B
:1031540080BC704780B588B000AF78607B681B681E
:103164001B68FB617B681B68DB68BB617B681B6851
:103174005B697B6100233B610023FB60FB6903F017
:103184000F033B613B69002B0DD1FB6903F0200366
:10319400002B08D0BB6903F02003002B03D0786810
:1031A40000F0D0F9CCE03B69002B00F0AB807B69E8
:1031B40003F00103002B05D1BB6903F49073002BCA
:1031C40000F0A080FB6903F00103002B0AD0BB6967
:1031D40003F48073002B05D07B68DB6B43F00102A2
:1031E4007B68DA63FB6903F00403002B0AD07B6974
:1031F40003F00103002B05D07B68DB6B43F0020274
:103204007B68DA63FB6903F00203002B0AD07B6955
:1032140003F00103002B05D07B68DB6B43F0040251
:103224007B68DA63FB6903F00803002B0AD07B692F
:1032340003F00103002B05D07B68DB6B43F008022D
:103244007B68DA637B68DB6B002B78D0FB6903F067
:103254002003002B07D0BB6903F02003002B02D00E
:10326400786800F06FF97B681B685B6903F04003C2
:10327400002B14BF01230023DBB2FB607B68DB6BF4
:1032840003F00803002B02D1FB68002B31D07868CF
:1032940000F0BAF87B681B685B6903F04003002BFD
:1032A40023D07B681B687A681268526922F0400256
:1032B4005A617B685B6B002B13D07B685B6B224A83
:1032C4005A637B685B6B1846FDF7CCFB0346002B07
:1032D40016D07B685B6B5B6B7A68526B10469847C1
:1032E4000EE0786800F03CF80AE0786800F038F8FE
:1032F40006E0786800F034F87B680022DA631EE0A8
:1033040000BF1CE0FB6903F08003002B08D0BB69FD
:1033140003F08003002B03D0786800F0A7F80FE0D7
:10332400FB6903F04003002B0AD0BB6903F04003A0
:10333400002B05D0786800F0EDF800BF00E000BF76
:103344002037BD4680BD00BF4934000880B483B037
:1033540000AF786000BF0C37BD4680BC704700BF2B
:1033640080B483B000AF786000BF0C37BD4680BC2A
:10337400704700BF80B584B000AFF860B9603B60AF
:103384001346FB712CE0BB69B3F1FF3F28D0BB6946
:10339400002B07D0FDF72EFA02463B68D21ABB6910
:1033A4009A421DD9FB681B68FA681268D26822F435
:1033B400D072DA60FB681B68FA681268526922F0FE
:1033C40001025A61FB68202283F83920FB6820221D
:1033D40083F83A20FB68002283F8382003230FE0A7
:1033E400FB681B681A68BB681A40BB689A420CBF2A
:1033F40001230023DBB21A46FB799A42C3D000238F
:1034040018461037BD4680BD80B483B000AF7860E5
:103414007B681B687A681268D26822F49072DA605A
:103424007B681B687A681268526922F001025A614B
:103434007B68202283F83A2000BF0C37BD4680BC4D
:10344400704700BF80B584B000AF78607B685B6A6A
:10345400FB60FB680022DA85FB680022DA84F868E6
:10346400FFF77EFF00BF1037BD4680BD80B485B036
:1034740000AF78607B6893F83930DBB2212B43D1FD
:103484007B689B68B3F5805F19D17B681B6AFB601E
:103494007B681B68FA681288C2F308025A607B686A
:1034A4001B69002B05D17B681B6A9A1C7B681A6216
:1034B4000EE07B681B6A5A1C7B681A6208E07B6812
:1034C4001A687B681B6A581C796808621B78536009
:1034D4007B68DB8C9BB2013B9BB27A681946D18432
:1034E400002B0FD17B681B687A681268D26822F0BF
:1034F4008002DA607B681B687A681268D26842F0DE
:103504004002DA60002300E0022318461437BD4667
:1035140080BC704780B582B000AF78607B681B6860
:103524007A681268D26822F04002DA607B6820224E
:1035340083F839207868FFF709FF00231846083715
:10354400BD4680BD80B584B000AF78607B6893F8D9
:103554003A30DBB2222B71D17B689B68B3F5805F74
:1035640023D17B689B6AFB607B681B69002B0ED1AF
:103574007B681B685B689BB2C3F308039AB2FB6861
:103584001A807B689B6A9A1C7B689A6229E07B6834
:103594001B685B689BB2DBB29AB2FB681A807B68DB
:1035A4009B6A5A1C7B689A621BE07B681B69002B30
:1035B4000AD17B689B6A591C7A6891627A6812689E
:1035C4005268D2B21A700CE07B689B6A591C7A6804
:1035D40091627A6812685268D2B202F07F02D2B263
:1035E4001A707B68DB8D9BB2013B9BB27A681946EB
:1035F400D185002B20D17B681B687A681268D26859
:1036040022F02002DA607B681B687A681268D2684C
:1036140022F48072DA607B681B687A6812685269E7
:1036240022F001025A617B68202283F83A207868EC
:1036340002F0A8F8002302E0002300E00223184669
:103644001037BD4680BD00BF90B585B000AF78602F
:103654007B681B687A681268126922F440517A68A0
:10366400D2680A431A617B689A687B681B691A43AB
:103674007B685B691343FB607B681A687B681B6823
:10368400DB6823F4B05323F00C03F9680B43D360D5
:103694007B681B687A681268526922F440717A6800
:1036A40092690A435A617B681B68524A93424ED11D
:1036B400FEF7C4FCB8607B681968BA6813469B00BF
:1036C40013449A001A447B685B689B00B2FBF3F3D3
:1036D400494AA2FB03235B091801BA6813469B00FD
:1036E40013449A001A447B685B689B00B2FBF3F2B4
:1036F400414BA3FB02435B09642404FB03F3D31A89
:103704001B0132333C4AA2FB03235B0903F0F003A1
:103714001844BA6813469B0013449A001A447B6801
:103724005B689B00B2FBF3F2334BA3FB02435B09E0
:10373400642404FB03F3D31A1B0132332E4AA2FB85
:1037440003235B0903F00F0303448B604DE0FEF792
:1037540061FCB8607B681968BA6813469B0013441F
:103764009A001A447B685B689B00B2FBF3F3224A1D
:10377400A2FB03235B091801BA6813469B00134498
:103784009A001A447B685B689B00B2FBF3F21A4B05
:10379400A3FB02435B09642404FB03F3D31A1B0158
:1037A4003233154AA2FB03235B0903F0F0031844E8
:1037B400BA6813469B0013449A001A447B685B68FA
:1037C4009B00B2FBF3F20C4BA3FB02435B096424A2
:1037D40004FB03F3D31A1B013233074AA2FB03236E
:1037E4005B0903F00F0303448B6000BF1437BD462D
:1037F40090BD00BF003801401F85EB5180B483B0F9
:1038040000AF786039603B681B68B3F1FF3F01D1BA
:10381400FF2308E03B681B68591E3A6811601A468A
:103824007B6813441B7818460C37BD4680BC704730
:1038340080B485B000AF78600023FB7316E00023EA
:10384400BB730DE0FA7B13469B0013445B001A46DE
:103854007B681A44BB7BFF21D154BB7B0133BB7310
:10386400BB7B092BEED9FB7B0133FB73FB7B092B61
:10387400E5D900BF1437BD4680BC704780B485B01D
:1038840000AF7860084611461A460346FB700B46A3
:10389400BB7013467B700123FB737B78002B03D131
:1038A400BB780133BB7013E07B78012B03D1FB7829
:1038B400013BFB700CE07B78022B03D1BB78013B0E
:1038C400BB7005E07B78032B02D1FB780133FB70DE
:1038D400FA7813461B0113447A681A44BB78D35C04
:1038E40003F00103002B01D00023FB7397F903308D
:1038F400002B03DB97F90230002B01DA0023FB7362
:10390400FB78002B02D0BB78002B01D10023FB7382
:10391400FB780A2B02D0BB780A2B01D10023FB735E
:10392400FB7B18461437BD4680BC704790B5A5B0E4
:1039340000AFF860B9607A6001F012FAC7F880004D
:103944003B7B87F87C307B7B87F87D30F96FD7F839
:10395400800001F01DFA07F11803642200211846C3
:1039640002F0C2FCFF233B7607F118031846FFF769
:103974005FFF97F87C301A4697F87D301946134656
:103984009B0013445B0007F1900213440B44783B03
:1039940000221A708CE0D7F8800001F037FA034651
:1039A400BB82002387F88F307DE03B7D87F88E3023
:1039B4007B7D87F88D3097F88F30002B04D17B7D89
:1039C400013B87F88D3019E097F88F30012B04D133
:1039D4003B7D013387F88E3010E097F88F30022B4F
:1039E40004D17B7D013387F88D3007E097F88F3061
:1039F400032B03D13B7D013B87F88E3097F88E3043
:103A04005B00DBB2013BD9B297F88D305B00DBB2CF
:103A1400013BDAB297F88F30B868FFF72FFF0346FF
:103A2400002B3BD097F88E2097F88D1013469B00FF
:103A340013445B0007F1900213440B44783B1B785A
:103A4400FF2B2BD197F88E3087F87C3097F88D3088
:103A540087F87D30F96FD7F8800001F099F997F86D
:103A64008E2097F88D103B7D18467B7D1C460346BF
:103A74009B0003445B0007F1900003442344783B1C
:103A84001B780133D8B213469B0013445B0007F143
:103A9400900213440B44783B02461A7097F88F3017
:103AA400013387F88F3097F88F30032B7FF67DAF83
:103AB400D7F8800001F09AF90346002B3FF46BAF6E
:103AC4000023C7F88830012387F87C30022387F865
:103AD4007D3095E0002387F887308CE097F87C30C0
:103AE40087F8863097F87D3087F8853097F88730E7
:103AF400002B05D197F87D30013B87F885301CE019
:103B040097F88730012B05D197F87C30013387F87B
:103B1400863012E097F88730022B05D197F87D3074
:103B2400013387F8853008E097F88730032B04D1F8
:103B340097F87C30013B87F8863097F8862097F811
:103B4400851013469B0013445B0007F19002134455
:103B54000B44783B1B78194697F87C301A4697F843
:103B64007D30184613469B0013445B0007F1900216
:103B740013440344783B1B78013B994236D197F8B0
:103B8400873087F8843097F88430023387F884309C
:103B940097F88430032B04D997F88430043B87F8D2
:103BA4008430D7F888305A1CC7F888201A467B68B6
:103BB400134497F884201A7097F87C301A4697F8C3
:103BC4007D30194613469B0013445B0007F19002B5
:103BD40013440B44783BC8221A7097F8863087F850
:103BE4007C3097F8853087F87D3009E097F8873086
:103BF400013387F8873097F88730032B7FF66EAF51
:103C040097F87C203B7B9A427FF464AF97F87D2041
:103C14007B7B9A427FF45EAFD7F88830DBB2013BFE
:103C2400DBB218469437BD4690BD00BF80B485B062
:103C340000AF78600023FB7307E0FB7B7A681344D2
:103C4400FF221A70FB7B0133FB73FB7BC72BF4D978
:103C540000BF1437BD4680BC704700BF80B485B038
:103C640000AF78603960FF23FB733B681B685A1E02
:103C74003B681A603B681B68B3F1FF3F16D03B6892
:103C84001B681A467B6813441B78FB733B681B68EC
:103C94001A467B681344FF221A70FB7B0233FB73C2
:103CA400FB7B032B02D9FB7B043BFB73FB7B18469A
:103CB4001437BD4680BC704780B485B000AFF8604F
:103CC400B9601346FB71BB681B68591CBA68116064
:103CD4001A46FB681344FA791A7000BF1437BD46BC
:103CE40080BC704780B582B000AF0346FB71FB799E
:103CF400013BFB71FB7903F00103002B05D001228A
:103D040008211648FDF74EF904E000220821134863
:103D1400FDF748F9FB7903F00203002B05D00122DB
:103D240010210E48FDF73EF904E0002210210B4853
:103D3400FDF738F9FB7903F00403002B05D00122C9
:103D440020210648FDF72EF904E000222021034833
:103D5400FDF728F900BF0837BD4680BD000C0140BF
:103D640080B483B000AF0346FB71FB79002B02D112
:103D74000A4B1B780CE0FB79012B02D1084B1B7812
:103D840006E0FB79032B02D1064B1B7800E0FF23EE
:103D940018460C37BD4680BC704700BF444700201E
:103DA400484700204647002080B485B000AF7860C3
:103DB4000023FB7314E00023BB730BE0FA7B134670
:103DC4001B0113447A681A44BB7B1121D154BB7B79
:103DD4000133BB73BB7B102BF0D9FB7B0133FB732B
:103DE400FB7B102BE7D900237B7306E07B7B7A688F
:103DF4000121D1547B7B01337B737B7B102BF5D961
:103E040000233B7308E07B6803F588723B7B012148
:103E1400D1543B7B01333B733B7B102BF3D9002301
:103E2400FB720AE0FA7A13461B0113447A681344BE
:103E340001221A70FB7A0133FB72FB7A102BF1D941
:103E44000023BB720AE0BA7A13461B0113447A6852
:103E5400134401221A74BB7A0133BB72BB7A102B50
:103E6400F1D900BF1437BD4680BC704780B485B01B
:103E740000AF03460A46FB711346BB710023FB7374
:103E8400BA79FB79D21A0B4B1340002B03DA013BAE
:103E940063F003030133FB7397F90F30002B02DA4D
:103EA400FB7B0433FB73FB7B18461437BD4680BC95
:103EB400704700BF0300008080B483B000AF786017
:103EC400084611461A460346FB700B46BB70134660
:103ED4007B70FB78002B0BD1BA7813461B0113447B
:103EE4007A681A447B78023BD25C3B7C13403B7477
:103EF400FB78012B0BD1BB785A1C13461B011344CE
:103F04007A681A447B78D25C3B7C13403B74FB7820
:103F1400022B0BD1BA7813461B0113447A681A4456
:103F24007B780233D25C3B7C13403B74FB78032BDD
:103F34000BD1BA7813461B011344113B7A681A4417
:103F44007B78D25C3B7C13403B743B7C18460C373B
:103F5400BD4680BC704700BF80B588B002AFF86032
:103F6400B9601346FB710123FB753A7A787AF979C3
:103F7400FB7D00930346F868FFF79EFF0346FB753D
:103F8400FB7D18461837BD4680BD00BF80B588B09C
:103F940002AFF860B9601346FB711023FB753A7ADF
:103FA400787AF979FB7D00930346F868FFF784FF7C
:103FB4000346FB75FB7D1B09DBB218461837BD466B
:103FC40080BD00BF80B483B000AF7860084611465E
:103FD4001A460346FB700B46BB7013467B70FB7896
:103FE400002B29D1BA7813461B0113447A68D018E0
:103FF4007B78591EBA7813461B0113447A681A4415
:104004007B78013BD25C3B7C1340DBB24354BA78EF
:1040140013461B0113447A68D0187B78991EBA782A
:1040240013461B0113447A681A447B78023BD25C22
:104034003B7C1340DBB24354FB78012B29D1BB7882
:104044005A1C13461B0113447A68D0187978BB783C
:104054005A1C13461B0113447A681A447B78D25CB9
:104064003B7C1340DBB24354BA7813461B01134420
:1040740022337A68D0187978BA7813461B0113442E
:1040840022337A681A447B78D25C3B7C1340DBB2DF
:104094004354FB78022B29D1BA7813461B011344ED
:1040A4007A68D0187B78591CBA7813461B011344DC
:1040B4007A681A447B780133D25C3B7C1340DBB2D0
:1040C4004354BA7813461B0113447A68D0187B789A
:1040D400991CBA7813461B0113447A681A447B78F6
:1040E4000233D25C3B7C1340DBB24354FB78032B9A
:1040F40029D1BA7813461B011344113B7A68D018AE
:104104007978BA7813461B011344113B7A681A4430
:104114007B78D25C3B7C1340DBB24354BA781346C1
:104124001B011344223B7A68D0187978BA78134675
:104134001B011344223B7A681A447B78D25C3B7C93
:104144001340DBB2435400BF0C37BD4680BC7047FC
:1041540080B588B002AFF860B96011461A460B46C4
:10416400FB711346BB710023FB75BB79002B02D096
:104174001123FB7501E01023FB753A7A787AF979FB
:10418400FB7D00930346F868FFF71CFF00BF183758
:10419400BD4680BD80B588B002AFF860B9601146F5
:1041A4001A460B46FB711346BB710023FB75BB79A2
:1041B400002B02D01123FB7501E00123FB753A7A31
:1041C400787AF979FB7D00930346F868FFF7FAFEE5
:1041D40000BF1837BD4680BD80B483B000AF78609F
:1041E4000B46FB707B79012B02D1FB78002B13D09B
:1041F4007B790F2B02D1FB78022B0DD03B79012B5D
:1042040002D1FB78032B07D03B790F2B02D1FB782B
:10421400012B01D0012300E0002318460C37BD46D2
:1042240080BC704780B584B000AFF860B9601346B5
:10423400FB71FA790023B968F868FFF7ABFF00BF98
:104244001037BD4680BD00BF80B483B000AF786036
:104254000B46FB70FB78002B05D17B685B78023B37
:10426400DAB27B685A70FB78012B05D17B681B7826
:104274000233DAB27B681A70FB78022B05D17B68B3
:104284005B780233DAB27B685A70FB78032B05D172
:104294007B681B78023BDAB27B681A70FB78FF2BD1
:1042A40002D07B68FA789A7000BF0C37BD4680BC98
:1042B400704700BF80B483B000AF786039600D4BA5
:1042C4001B685B6A1BB25A427B681A60094B1B6805
:1042D40000225A62084B1B685B6A1BB25A423B6855
:1042E4001A60054B1B6800225A6200BF0C37BD469A
:1042F40080BC7047504700209047002080B483B0B2
:1043040000AF786039607B685A687B681B681A4420
:104314007B685A603B685A683B681B681A443B6870
:104324005A6000BF0C37BD4680BC7047B0B582B040
:1043340000AF78607B689A687B681B68D31A294A47
:104344001360294B1B681846FCF732F80446254BCA
:104354001A68264B1B68D31A1846FCF729F802463C
:10436400234B1B6819461046FCF776F803461D4696
:104374001C4B1B681846FCF71BF802461D4B1B68B8
:1043840019461046FCF768F8034619462846FBF719
:104394005BFF034619462046FBF756FF03461846C3
:1043A400FCF7AAF90246104B1A600F4B1B68B3F5D1
:1043B400E15F03DD0C4B4FF4E1521A600A4B1B68BA
:1043C40013F5E15F02DA084B0B4A1A60054B1B68D0
:1043D400064A1360044B1A687B68DA6000BF08372A
:1043E400BD46B0BDAC020020B0020020B4020020E3
:1043F400080000200C000020E0E3FFFFB0B582B00D
:1044040000AF78607B689A687B681B68D31A294A76
:104414001360294B1B681846FBF7CAFF0446254B5B
:104424001A68264B1B68D31A1846FBF7C1FF0246CD
:10443400234B1B6819461046FCF70EF803461D462D
:104444001C4B1B681846FBF7B3FF02461D4B1B6849
:1044540019461046FCF700F8034619462846FBF7B0
:10446400F3FE034619462046FBF7EEFE03461846C4
:10447400FCF742F90246104B1A600F4B1B68B3F568
:10448400E15F03DD0C4B4FF4E1521A600A4B1B68E9
:1044940013F5E15F02DA084B0B4A1A60054B1B68FF
:1044A400064A1360044B1A687B68DA6000BF083759
:1044B400BD46B0BDB8020020BC020020C0020020EE
:1044C4001000002014000020E0E3FFFF80B485B05A
:1044D40000AFF860B9607A60FB68DA687B685B42B9
:1044E4009A4203DA7B685A42FB68DA60FB68DA684E
:1044F4007B689A4202DDFB687A68DA60BB68DA6836
:104504007B685B429A4203DA7B685A42BB68DA6092
:10451400BB68DA687B689A4202DDBB687A68DA6055
:1045240000BF1437BD4680BC704700BF80B483B061
:1045340000AF786039607B68DB68002B09DB1A4BBD
:104544001B6800225A63184B1B687A68D2689A6306
:104554000BE0154B1B684FF4E1525A63124B1B6876
:104564007A68D26802F5E1529A633B68DB68002BF3
:1045740009DB0D4B1B680022DA630B4B1B683A689E
:10458400D2681A640BE0084B1B684FF4E152DA63FB
:10459400054B1B683A68D26802F5E1521A6400BF01
:1045A4000C37BD4680BC70479048002080B485B06D
:1045B40000AFF860B9607A603B60FB680A229A60D9
:1045C400BB686FF009029A6000BFFB685A687B6899
:1045D400396801FB03F39A42F7DBBB685A687B68CE
:1045E4005B42396801FB03F39A42EEDCFB6800226C
:1045F4005A60BB6800225A6000BF1437BD4680BCB5
:10460400704700BF80B485B000AFF860B9607A60CD
:104614003B60FB686FF009029A60BB686FF00902A7
:104624009A6000BFFB685A687B685B42396801FB8B
:1046340003F39A42F6DCBB685A687B685B423968CC
:1046440001FB03F39A42EDDCFB6800225A60BB686D
:1046540000225A6000BF1437BD4680BC704700BFBB
:1046640080B485B000AFF860B9607A603B60FB68E5
:104674000A229A60BB680A229A6000BFFB685A68E3
:104684007B68396801FB03F39A42F7DBBB685A681D
:104694007B68396801FB03F39A42EFDBFB68002275
:1046A4005A60BB6800225A6000BF1437BD4680BC04
:1046B400704700BF80B485B000AFF860B9607A601D
:1046C4003B60FB680A229A60BB680A229A6000BFBA
:1046D400FB685A687B68396801FB03F39A42F7DB8D
:1046E400BB685A687B68396801FB03F39A42EFDBC5
:1046F400FB6800225A60BB6800225A6000BF14376E
:10470400BD4680BC704700BF80B483B000AF786002
:1047140039607B6800229A603B6800229A6000BF7F
:104724000C37BD4680BC704780B586B004AF00230B
:10473400FB710023FB7111E0FB790C4A13444FF425
:1047440080720292012201920093012300227821B7
:104754000748FCF77FFDFB790133FB71FB791A2BCA
:10476400EAD900BF0837BD4680BD00BF180000204D
:10477400C846002080B586B004AF0346FB714FF4F1
:104784008073029301230193FB1D009301230022F4
:1047940078210348FCF75EFD00BF0837BD4680BDA5
:1047A400C846002080B586B004AF0346FB714FF4C1
:1047B4008073029301230193FB1D00930123402284
:1047C40078210348FCF746FD00BF0837BD4680BD8D
:1047D400C846002080B500AFC820FCF715F8FFF7E5
:1047E400A3FF00BF80BD00BF80B582B000AF00232F
:1047F400FB711BE0FB79503BDBB21846FFF7BAFFB5
:104804000020FFF7B7FF1020FFF7B4FF0023BB71B0
:1048140005E00020FFF7C6FFBB790133BB7197F9B0
:104824000630002BF5DAFB790133FB71FB79072B9A
:10483400E0D900BF0837BD4680BD00BF80B582B057
:1048440000AF03460A46FB711346BB71BB79503B6C
:10485400DBB21846FFF78EFFFB791B09DBB243F08E
:104864001003DBB21846FFF785FFFB7903F00F0353
:10487400DBB21846FFF77EFF00BF0837BD4680BD98
:1048840090B585B000AF0446084611461A46234643
:10489400FB710346BB710B467B7113463B710023CE
:1048A400BB730023FB737B79203BBB7397F9073001
:1048B400002B04DA0023FB71BB790233BB713B7913
:1048C400102B33D1BA79FB7911461846FFF7B6FF9E
:1048D4000023FB730BE0BB7B1A01FB7B1344234ACD
:1048E400D35C1846FFF75EFFFB7B0133FB73FB7B56
:1048F400072BF0D9BB790133DAB2FB79114618469C
:10490400FFF79CFF0023FB730CE0BB7B1A01FB7BCE
:1049140013440833154AD35C1846FFF743FFFB7B67
:104924000133FB73FB7B072BEFD91BE0BA79FB79CF
:1049340011461846FFF782FF0023FB730FE0BA7B92
:10494400F97B0B4813465B0013445B0003440B44A0
:104954001B781846FFF726FFFB7B0133FB73FB7BB9
:10496400052BECD900BF1437BD4690BDE0660008A6
:10497400B864000880B584B000AF3A601A460346B4
:10498400FB710B46BB7113467B710023FB7316E06E
:10499400FB7B3A6813441A787B79B979F879FFF785
:1049A4006FFFFB790833FB71FB79782B04D9002363
:1049B400FB71BB790233BB71FB7B0133FB73FB7B64
:1049C4003A6813441B78002BE2D100BF1037BD4670
:1049D40080BD00BF90B583B000AF0346FB710B46AA
:1049E400BB7113467B71FA79BB793549D2010A440C
:1049F40013441B787A799A425ED0FB790233DAB297
:104A0400BB79DB08DBB219461046FFF717FF7B7949
:104A1400012B1DD1BB79DB08DAB21446FB791146B0
:104A2400FA792848C90101440A44127851B2BA7982
:104A340002F00702012000FA02F252B20A4352B213
:104A4400D0B22049E2010A44134402461A701EE01F
:104A5400BB79DB08DAB21446FB791146FA791948B6
:104A6400C90101440A44127851B2BA7902F007022A
:104A7400012000FA02F252B2D24352B20A4052B2B8
:104A8400D0B21049E2010A44134402461A70BB79B9
:104A9400DB08DBB21A46FB790A49D2010A44134403
:104AA4001B781846FFF77EFEFA79BB790449D201D8
:104AB4000A4413447A791A7000BF0C37BD4690BD7E
:104AC400C4060020C402002080B584B000AF786022
:104AD4000023FB7345E00023BB733CE0FA7B1346E1
:104AE4001B0113447A681A44BB7BD35C03F00103B3
:104AF400002B03D01E4B01221A7002E01C4B002233
:104B04001A7000237B7320E000233B7317E0FB7BC8
:104B14001A4652001344DAB27B7B1344D8B2BB7BEF
:104B24001A4652001344DAB23B7B1344D9B2104BF9
:104B34001B781A46FFF74EFF3B7B01333B733B7BED
:104B4400022BE4D97B7B01337B737B7B022BDBD988
:104B5400BB7B0133BB73BB7B102BBFD9FB7B013306
:104B6400FB73FB7B102BB6D900BF1037BD4680BD4D
:104B7400C446002080B584B000AF78600023FB7386
:104B840023E00023BB731AE03B791A465200134416
:104B9400DAB2FB7B1344DBB20133D8B27B791A4619
:104BA40052001344DAB2BB7B1344DBB20133DBB2F1
:104BB40001221946FFF70EFFBB7B0133BB73BB7B9E
:104BC400002BE1D0FB7B0133FB73FB7B002BD8D0A4
:104BD400BB79002B10D13B791A4652001344DBB247
:104BE4000133D8B27B791A4652001344DBB2012256
:104BF4001946FFF7EFFE3BE0BB79012B12D13B795D
:104C04001A4652001344DBB20233D8B27B791A46F7
:104C140052001344DBB20133DBB201221946FFF721
:104C2400D9FE25E0BB79022B12D13B791A465200FA
:104C34001344DBB20133D8B27B791A4652001344D1
:104C4400DBB20233DBB201221946FFF7C3FE0FE0E9
:104C54003B791A4652001344D8B27B791A46520063
:104C64001344DBB20133DBB201221946FFF7B2FE73
:104C740000BF1037BD4680BD80B582B000AF0023B1
:104C8400FB710CE0FB79C3F10403D9B22F4B1B7801
:104C94001A464620FFF79EFEFB790133FB71FB7930
:104CA400022BEFD90023BB710FE0BB79C3F145039D
:104CB400D8B2BB79C3F10403D9B2254B1B781A4689
:104CC400FFF788FEBB790133BB71BB79022BECD9AA
:104CD40000237B710CE07B79C3F14503D8B21D4BF3
:104CE4001B781A460521FFF775FE7B7901337B712A
:104CF4007B79022BEFD900233B710EE03B794733DC
:104D0400D8B23B79C3F10403D9B2134B1B781A46CA
:104D1400FFF760FE3B7901333B713B79022BEDD900
:104D24000023FB700BE0FB784733D8B20B4B1B78A6
:104D34001A460521FFF74EFEFB780133FB70FB7822
:104D4400022BF0D900BF0837BD4680BD4447002080
:104D54004547002046470020474700204847002099
:104D640080B582B000AF082001F0AEFA03467B6044
:104D74007B68002B01D1002306E07B6800221A60C7
:104D84007B6800225A607B6818460837BD4680BDA0
:104D940080B584B000AF78603980082001F094FABF
:104DA4000346FB60FB68002B1CD0FB683A881A8022
:104DB400FB6800225A607B681B68002B02D17B6869
:104DC400FA681A607B685B68002B03D17B68FA6819
:104DD4005A6008E07B685B68FA685A607B68FA6826
:104DE4005A6000E000BF1037BD4680BD80B483B078
:104DF40000AF78607B681B68002B0CBF0123002385
:104E0400DBB218460C37BD4680BC704780B586B00F
:104E140000AF78607B681B687B617B681A687B687D
:104E24005B689A4206D17B6800221A607B68002284
:104E34005A6004E07B681B685A687B681A607B6967
:104E44001B88BB81786901F047FABB893B82002348
:104E54003A7C62F307037A7C62F30F23184618370F
:104E6400BD4680BD80B588B000AF07F110030022B5
:104E74001A605A609A60DA60394A394B9B6943F088
:104E840020039361364B9B6903F02003FB60FB68AE
:104E9400334A334B9B6943F010039361304B9B6956
:104EA40003F01003BB60BB682D4A2D4B9B6943F094
:104EB400040393612A4B9B6903F004037B607B68C2
:104EC400274A274B9B6943F008039361244B9B6952
:104ED40003F008033B603B68002204212148FCF7EF
:104EE40061F8002238212048FCF75CF841F20F03F6
:104EF4003B6100237B610023BB6107F1100319466A
:104F04001A48FBF7CDFE4FF400633B6100237B613D
:104F14000023BB6107F1100319461548FBF7C0FED7
:104F240004233B6101237B610023BB610223FB61FA
:104F340007F1100319460B48FBF7B2FE38233B6117
:104F440001237B610023BB610223FB6107F1100392
:104F540019460548FBF7A4FE00BF2037BD4680BDB7
:104F64000010024000140140000C014000100140F8
:104F74000008014080B500AF124B134A1A60114B70
:104F8400124A5A600F4B00229A600E4B0022DA60DC
:104F94000C4B4FF480421A610A4B00225A61094BB0
:104FA40000229A61074B0022DA61064B00221A6242
:104FB4000448FCF727F80346002B01D000F01AFC44
:104FC40000BF80BDC846002000580040A0860100F4
:104FD40080B588B000AF786007F1100300221A6032
:104FE4005A609A60DA607B681B68164A934224D13F
:104FF400154A154B9B6943F008039361124B9B6957
:1050040003F00803FB60FB684FF440633B61122329
:105014007B610323FB6107F1100319460B48FBF77F
:105024003FFE094A084BDB6943F48003D361064B16
:10503400DB6903F48003BB60BB6800BF2037BD4657
:1050440080BD00BF0058004000100240000C014029
:1050540080B582B000AF7860084611461A46034610
:10506400FB700B46BB7013467B701A4B00221A6010
:10507400184B0022DA60174B00225A60154B0022AD
:105084009A60154B00221A60134B0022DA60124B0F
:1050940000225A60104B00229A607B68FA781A70DA
:1050A4007B68BA785A707B687A789A700B48FEF7F6
:1050B4007BFE0B48FEF7BAFDFA78B9780748134629
:1050C4001B01134403440B4400221A7000BF083729
:1050D400BD4680BD2047002030470020340000201A
:1050E4005801002080B584B000AF78600B46FB7097
:1050F400BB79FA7811461846FEF7B8FE0346BB732F
:10510400BB7B1846FEF72CFE0346FB73FB7BFF2B91
:1051140008D1FB781A4679680D48FEF71DFF03464F
:10512400FB7310E0FB7819467868FFF755F80346DF
:10513400002B06D0FB7BFA7879680548FFF708F85E
:1051440001E00123FB73FB7B18461037BD4680BD8D
:105154003400002080B582B000AF78600B46FB704D
:10516400FB781A4679680448FEF710FF0346184690
:105174000837BD4680BD00BF3400002080B586B02E
:1051840000AF7860FF23FB7300237B6108E07B6939
:10519400DBB219467868FFF7A5FF7B6901337B61B1
:1051A4007B69032BF3DD00233B6118E03B69DBB231
:1051B40019467868FFF796FF0346002B0CD13B692C
:1051C400DBB219467868FFF7C5FF0346002B03D00E
:1051D4003B69FB73FB7B06E03B6901333B613B6945
:1051E400032BE3DDFB7B18461837BD4680BD00BFAB
:1051F40080B584B000AF78600B46FB70FB78FF2B62
:1052040058D0BB79FA7811461846FEF72FFE0346AC
:10521400FB73FB7B002B0BD1022340F6FC022749D6
:105224002748FFF7C3F925492548FFF76DFA42E0FF
:10523400FB7B012B12D1012340F6FC021F492048BD
:10524400FFF70EFA022340F6FC021C491C48FFF744
:10525400ADF91A491A48FFF757FA2CE0FB7B022BE9
:1052640012D1012340F6FC0214491548FFF722FA33
:10527400022340F6FC0211491148FFF797F90F4940
:105284000F48FFF741FA16E0FB7B032B13D10123F0
:1052940040F6FC0209490A48FFF7B4F9022340F634
:1052A400FC0206490648FFF781F904490448FFF760
:1052B4002BFA00E000BF1037BD4680BD3047002008
:1052C4002047002080B500AF012204211C48FBF7D1
:1052D40069FE012205214620FFF77CFB01220621FD
:1052E4004720FFF777FB012206214520FFF772FBD9
:1052F400012206214620FFF76DFB4FF4006111489F
:10530400FBF738FE0346002BF7D10DE04FF47A701B
:10531400FBF77AFA4FF400610A48FBF72BFE0346C9
:10532400002B01D1012308E04FF400610548FBF78D
:1053340021FE0346002BE9D00023184680BD00BFA0
:10534400001401400008014080B582B000AF002382
:10535400FB710023BB7100237B7101233B71FBF7BD
:10536400F1F900F0F5F8FFF77DFD00F039FCFFF7E7
:1053740001FE00F06FFE00F097FE00F067FC00F005
:1053840031FB00F083FB00F097FC00F0D3FB042119
:105394005E48FDF723F804215D48FDF71FF800215E
:1053A4005C48FCF74FFF04215A48FCF74BFF0821E7
:1053B4005848FCF747FF0C215648FCF743FF0122ED
:1053C40055495648FDF772FE012255495548FDF7E7
:1053D4006DFE5548FCF790FE5448FCF78DFE54488A
:1053E400FCF78AFEFFF7F6F9384601230122012172
:1053F400FFF72EFEFFF7F8F94E48FFF765FB386814
:10540400FFF7B8FBFFF75EFF03463B713B79002BC8
:105414000FD00C23484A05214620FFF7ABFA00BF02
:105424004FF400614548FBF7A5FD0346002BF7D078
:1054340005E00C23424A05214620FFF79BFA3B79FD
:10544400002B08D000BF4FF400613C48FBF792FDED
:105454000346002BF7D1FB79002B07D13868FFF7FF
:105464008DFE0346BB7100237B7115E03549364838
:10547400FEF7C4F90346BB71BB79FF2B0CD12B4853
:10548400FCF75EFE2A48FCF75BFE0C232F4A05213D
:105494004620FFF76FFAFEE7BB79FF2B15D12949A8
:1054A4002948FEF7DBFB0346BB7101237B71BB7903
:1054B400FF2B0AD1244A1F493868FEF737FA0346FE
:1054C4001A46204B1A600123FB71BB7919463868D0
:1054D400FFF78EFE7B79002B05D1BB791A4619495B
:1054E4001948FEF7E9FBBB791A4639681148FEF7FB
:1054F40099FEBA793B4611461846FEF7A5FE0D48BB
:10550400FFF7E2FA3868FFF735FB98E750470020C9
:1055140090470020904800201C470020D0480020DD
:105524001D47002010490020D047002010480020CB
:105534005048002034000020A06400080008014006
:10554400A86400084047002058010020B064000807
:1055540080B590B000AF07F1180328220021184647
:1055640000F0C2FE3B1D00221A605A609A60DA60A5
:105574001A610123BB614FF48033FB6100233B625A
:105584000123BB6202237B634FF48033BB634FF47C
:10559400E013FB6307F118031846FCF765F90346AB
:1055A400002B01D000F026F90F237B600223BB609F
:1055B4000023FB604FF480633B6100237B613B1D50
:1055C40002211846FCF7CEFB0346002B01D000F065
:1055D40011F900BF4037BD4680BD00BF80B582B021
:1055E40000AF78607B681A68594B1B689A4201D1F6
:1055F400FFF742FB7B681A68564B1B689A4217D127
:1056040055495648FEF756FE53495448FEF776FE70
:105614005248FEF78BFE5048FEF7F0FE41F6583232
:105624004D494E48FEF752FF4B494C48FEF77EFF6A
:105634007B681A684A4B1B689A4240F08480494B45
:105644001B78002B05D1484B1B781846FEF74AFB04
:105654005EE0454B1B78012B0ED101214348FBF73B
:1056640089FC0346002B03D0414B00221A704FE003
:105674003F4B01221A704BE03B4B1B78022B0ED19F
:1056840002213A48FBF776FC0346002B03D0394B42
:1056940000221A703CE0374B01221A7038E0324B7A
:1056A4001B78032B0ED104213048FBF763FC03461F
:1056B400002B03D0304B00221A7029E02E4B01221C
:1056C4001A7025E0284B1B78042B0ED1082127489B
:1056D400FBF750FC0346002B03D0284B00221A7022
:1056E40016E0264B01221A7012E01F4B1B78052B83
:1056F4000ED14FF480511D48FBF73CFC0346002BB0
:1057040003D01F4B00221A7002E01D4B01221A70B5
:10571400144B1B78002B05D0134B1B780133DAB2E2
:10572400114B1A70104B1B78052B02D90E4B00221B
:105734001A700C4B1B78002B0CBF01230023DBB227
:105744001A46084B1A7000BF0837BD4680BD00BF1B
:10575400D047002010480020304700202047002078
:10576400504800204947002020020020001001403A
:105774004447002045470020464700204747002073
:105784004847002080B582B000AF78607B68144A37
:1057940093420ED104211348FBF71CFC642301221D
:1057A40011490F48FDF7EAFB01220F490C48FDF7A8
:1057B4007DFC7B680D4A93420ED104210948FBF716
:1057C40009FC642301220A490848FDF7D7FB01229A
:1057D40007490648FDF76AFC00BF0837BD4680BD8F
:1057E40010490020001401401D470020D04800202B
:1057F4001C47002080B400AF00BFBD4680BC70478A
:1058040080B485B000AF154A144B9B6943F0010383
:105814009361124B9B6903F00103BB60BB680F4AA1
:105824000E4BDB6943F08053D3610C4BDB6903F00F
:1058340080537B607B680A4B5B68FB60FB6823F0EA
:10584400E063FB60FB6843F00073FB60044AFB68A1
:10585400536000BF1437BD4680BC7047001002403F
:105864000000014080B400AF00BFBD4680BC70475B
:1058740080B400AFFEE700BF80B400AFFEE700BF16
:1058840080B400AFFEE700BF80B400AFFEE700BF06
:1058940080B400AF00BFBD4680BC704780B400AF89
:1058A40000BFBD4680BC704780B400AF00BFBD469A
:1058B40080BC704780B500AFFAF78AFF00BF80BD97
:1058C40080B500AF0248FDF745FC00BF80BD00BFB6
:1058D400D048002080B500AF0248FDF73BFC00BF74
:1058E40080BD00BF1049002080B500AF0248FCF71E
:1058F400ADFD00BF80BD00BFD047002080B500AF24
:105904000248FCF7A3FD00BF80BD00BF1048002083
:1059140080B500AF0248FCF799FD00BF80BD00BF11
:105924005048002080B584B000AF7860114B1B68EC
:10593400002B02D10F4B104A1A600E4B1B68FB6000
:105944000C4B1A687B6813446A46934207D900F0EB
:105954008FFC02460C2313604FF0FF3306E0054B27
:105964001A687B681344034A1360FB6818461037AF
:10597400BD4680BD4C4700206049002080B400AF84
:10598400154A154B1B6843F0010313601249124B6F
:105994005A68124B13404B600F4A0F4B1B6823F09D
:1059A400847323F4803313600B4A0B4B1B6823F47A
:1059B40080231360084A084B5B6823F4FE0353609A
:1059C400054B4FF41F029A60054B4FF000629A603A
:1059D40000BFBD4680BC7047001002400000FFF8C5
:1059E40000ED00E080B58CB000AF07F10C03242279
:1059F4000021184600F078FC3B1D00221A605A6012
:105A0400204B214A1A601F4B00225A601D4B002272
:105A14009A601C4B4FF6FF72DA601A4B00221A612F
:105A2400184B00229A610323FB6000233B6101238E
:105A34007B610023BB610023FB6100233B620123E4
:105A44007B620023BB620023FB6207F10C0319464F
:105A54000C48FCF735FC0346002B01D0FFF7CAFEC7
:105A640000237B600023BB603B1D19460548FDF7FE
:105A74008DF90346002B01D0FFF7BCFE00BF303781
:105A8400BD4680BD504700200004004080B58CB066
:105A940000AF07F10C0324220021184600F024FC77
:105AA4003B1D00221A605A60204B214A1A601F4B8A
:105AB40000225A601D4B00229A601C4B4FF6FF7265
:105AC400DA601A4B00221A61184B00229A610323F0
